:020000040000fa
:02000004000cee
:108000000060120051830c00c9830c00f93c0d0084
:10801000313d0d00213d0d00413d0d00c1830c009f
:10802000c1830c00c1830c00c1830c00a1860c002d
:10803000c9830c00c1830c00c1850c0071860c0043
:10804000b53f0d00e13f0d0059400d00f5400d001a
:108050005d410d00f93d0d00fd3d0d00c9830c0093
:10806000c9830c00c9830c00013e0d00c1830c00c4
:108070004d3e0d00953e0d00c9830c00e13e0d0004
:10808000c1830c00c9830c00c1830c00c1830c00a8
:10809000c9830c00c9830c00c9830c00c9830c0080
:1080a000c9830c00c9830c00c9830c00c9830c0070
:1080b000c9830c00c9830c00c9830c00c9830c0060
:1080c000c9830c00c9830c00c1830c00c1830c0060
:1080d000c1830c00c1830c00c1830c00c1830c0060
:1080e000c9830c00c1830c00c1830c00c1830c0048
:1080f000c1830c00c1830c00c1830c00c1830c0040
:10810000c1830c00c1830c00c1830c00c1830c002f
:10811000c1830c00c1830c00c1830c00c1830c001f
:10812000c1830c00c1830c00c1830c00c1830c000f
:10813000c1830c00c1830c00c1830c00c1830c00ff
:10814000c1830c00c9830c00c1830c00c9830c00df
:10815000c9830c00c1830c00c1830c00c1830c00d7
:10816000c1830c00c1830c00c1830c00c1830c00cf
:10817000c1830c00c1830c00c1830c00c1830c00bf
:10818000c1830c00c1830c00c1830c00c9830c00a7
:10819000c9830c00c1830c00c1830c00c1830c0097
:1081a000c1830c00c1830c00c9830c00c9830c007f
:1081b000c9830c00c1830c00c1830c00c1830c0077
:1081c000c1830c00c1830c00c1830c00c1830c006f
:1081d000c1830c00c1830c00c1830c00c1830c005f
:1081e000c1830c00c1830c00c1830c00c1830c004f
:1081f000c1830c00c1830c00c1830c00c9830c0037
:10820000c9830c00c9830c00c1830c00c1830c001e
:10821000c1830c00c1830c00c1830c00c1830c001e
:10822000c1830c00c1830c00c1830c00c1830c000e
:10823000c1830c00c1830c00c1830c00c1830c00fe
:10824000c1830c00c1830c00c1830c00c1830c00ee
:10825000c1830c00c1830c00c9830c00c1830c00d6
:10826000c1830c00c1830c00c1830c00c1830c00ce
:10827000c9830c00c9830c00c1830c00c1830c00ae
:10828000c1830c00c1830c00c9830c00c9830c009e
:10829000c9830c00c9830c00c9830c00c9830c007e
:1082a000c9830c00c9830c00c9830c00c1830c0076
:1082b000c1830c00c1830c00c9830c00c1830c0076
:1082c000c1830c00c1830c00c1830c00c1830c006e
:1082d000c1830c00c1830c00c1830c00c1830c005e
:1082e000c1830c00c1830c00c1830c00c9830c0046
:1082f000c1830c00c9830c00c9830c00c1830c002e
:10830000c1830c00c1830c00c1830c00c1830c002d
:10831000c1830c00c9830c00c9830c00c9830c0005
:10832000c9830c00c9830c00c9830c00c9830c00ed
:10833000c9830c00c9830c00c9830c00c9830c00dd
:10834000c9830c00c9830c0000bf00bf704700bf89
:10835000144a154b1a60bff34f8fbff36f8f13682a
:1083600083f30888bff36f8f83f30988bff36f8fa0
:10837000fff7eaff0d490e4a0e4b9a42bebf51f875
:10838000040b42f8040bf8e70b490c4a0020914219
:10839000bcbf41f8040bfae731f0a4fe31f0d4fe83
:1083a00009f0a4ff00800c0008ed00e0dcb70f002e
:1083b000c04112000042120000001000c041120033
:1083c0004ff00d00fee700bffee700bf04232022b0
:1083d000904204d901331f2b4fea4202f8d15800d2
:1083e00070470000000000000000000000000000d6
:1083f00018480068006880f30888154b19680868f9
:1084000001f10401bff35f8f134a136823f00103e6
:108410001360124ab1e8f00f82e8f00f01f1200179
:108420000f4af0c982e8f0000b4a136843f00103d9
:108430001360bff34f8fb0e8f84f83f3148880f3d5
:1084400009884ff0000080f311887047aff3008077
:108450001c61100008ed00e094ed00e09ced00e0f0
:10846000f0010840836913f8022c012a0ad012b1e6
:10847000022a10d070470e4a136843f01f4313605e
:10848000fff7b6bf0b4b4ff080521a60bff34f8f10
:10849000bff36f8f7047084a934208d3074a93424d
:1084a00005d8eff3148121f0010181f3148870479e
:1084b0001ced00e004ed00e000c00c003cd90c0015
:1084c00010b5012b21f0010140f8081c40f8202cc8
:1084d0004ff080744ff000016ff002020cbf0223d6
:1084e000032340f8044c40f80c1c40f8242c40f8be
:1084f000483c483810bd0000f8b5044616460698ba
:1085000039bb2a4b2a4843f014022260c01afff7f5
:108510005dff284b03436360274b284843f0150257
:10852000c01aa260fff752ff1623c4e904311723d3
:1085300040f08370c4e9063140f00110e06076b38a
:108540003368236473686364b368a364f368e364a3
:10855000f8bd40b143f0140323608000fff736fffd
:10856000144b0343636025460527486898b10b68a0
:108570003b4343f01003ab60fff728ff8b681843c1
:1085800040f001000137082fe86001f10c0105f10e
:108590000805ead1d3e747f01003ab60f2e74ff0ec
:1085a000ff33c4e91033a364d1e700bf000010001b
:1085b000006012000100070300181000006810009e
:1085c000eff30980bff36f8f254b1a681ef0100f71
:1085d00008bf20ed108aeff3148120e9f24f1060fc
:1085e0002de909004ff0a00080f31188bff34f8ff1
:1085f000bff36f8f01f0d2fa4ff0000080f31188c3
:1086000009bc1968086801f10401bff35f8f154abe
:10861000136823f001031360134ab1e8f00f82e8f6
:10862000f00f01f12001114af0c982e8f0000d4a73
:10863000136843f001031360bff34f8fb0e8f84fa6
:1086400083f314881ef0100f08bfb0ec108a80f37b
:1086500009887047aff30080aff30080aff300806c
:108660001c61100094ed00e09ced00e0f00108407a
:1086700010b5eff311844ff0a00383f31188bff31b
:108680006f8fbff34f8f01f075f818b1034b4ff0a8
:1086900080521a6084f3118810bd00bf04ed00e021
:1086a0001ef0040f0cbfeff30880eff30980fff713
:1086b000d9be000013b5544b544c1a78d2b2019273
:1086c000ff221a701b78524adbb28df803309df8f6
:1086d000033003f0a00313700723236000229df8ea
:1086e0000310090603f1ff3000f1858012b1042b5d
:1086f000236004d0474940f2c71009f0b1fd236858
:10870000414a1b0203f4e0632360019b424cdbb24d
:108710001370424b1a6842f460021a601a6842f001
:1087200060421a602268b2f5006f04d039494ff4f4
:10873000317009f095fd2368b3f5006f38d1384bdf
:10874000384c394843f010022260c01afff73efe51
:10875000364b374903430b60364b374843f0110221
:108760002260c01afff732fe344b03430b60344bd8
:10877000344843f012022260c01afff727fe40f08f
:108780008370314b40f00110086023606ff060404f
:10879000fff71cfe40f098502c4a40f001000860a2
:1087a000136843f480331360136f43f005031367ba
:1087b00009f09ef9264b00241c6009f05df9254a5a
:1087c000136843f04043136008480068006880f372
:1087d00008884ff0000080f3148862b661b6bff3da
:1087e0004f8fbff36f8f00df00bf000008ed00e088
:1087f000204602b010bd9df803305b00dbb28df85f
:108800000330012203466ae700e400e09c301200d6
:10881000983012009ba20f0090ed00e020ed00e0e8
:1088200000800c009ced00e0000010000100070635
:10883000a0ed00e000800c0000c00c000100070566
:1088400000181000006810001300004024ed00e044
:10885000c041120034ef00e013b5044618b90b49cb
:10886000682009f0fdfc18230193019b182b03d00d
:108870000649702009f0f4fc2cb12046002340f892
:10888000043b00f0e1f8204602b010bdd8a20f0072
:108890002de9f843089f0d4690469946064620b9b3
:1088a0003a4940f24d1009f0dbfc15f07f4f2fd014
:1088b00036494ff4a77009f0d3fc01f0d9f928b973
:1088c00027b1324900f5a97009f0cafc10213046e1
:1088d00006f0daff002856d100f01cff346805eae4
:1088e0000403b9f1000f19d1d3b907b3b8f1000fe0
:1088f0000cbf00214ff08071b9f1000f01d041f0a1
:1089000080613a462943301d01f080f800240ee0d2
:10891000002dd2d11d4940f24f10cce79d42e4d149
:10892000b8f1000f24d024ea05033360002700f0db
:10893000b9ffd7b138b9164b4ff080521a60bff368
:108940004f8fbff36f8f01f07bf9830104460ad488
:1089500009f09cf8346805ea0403b9f1000f09d165
:1089600053b909f0a9f824f07f442046bde8f88304
:108970004746dce79d42f4d1b8f1000ff1d024ea7c
:1089800005053560ede70024efe700bfd8a20f0032
:1089900004ed00e0f8b50f46044620b91e494ff437
:1089a0000b7009f05dfc17f07f4f04d01a4940f2bc
:1089b0002d2009f055fc2021204606f065ff0546d4
:1089c00038bb00f0a7fe21682069394304f10c068a
:1089d0002160b042216806d121ea0501216000f042
:1089e00061ff2068f8bdd0e9002712f0806f22f007
:1089f0007f4303d10b4204d13846eae733ea010c46
:108a0000fad1d20141f0007148bf1d4301f084f852
:108a1000f2e70020e6e700bfd8a20f00fff7babfd9
:108a200070b504460d46164606f076ff38b9334653
:108a30002a4621460348bde8704001f0ffb90020f6
:108a400070bd00bf1d8a0c0000f108034ff0ff321b
:108a50004360c0e9022303610023036070470023e1
:108a6000036170470a68531c30b50ad103695a681c
:108a70004a6091608b60596003680861013303604c
:108a800030bd00f108035c6825689542efd82346a5
:108a9000f9e743684b609a688a609a685160996008
:108aa00003680861013303607047d0e9011203696c
:108ab0008a6051605968814208bf5a600022026191
:108ac0001a68013a1a601868704710b5044608f031
:108ad000ddffa46b08f0f0ffb4fa84f0400910bd8c
:108ae00070b51646026c856b044662b17eb940686b
:108af00031f066fb6368226c1344a26863609342a2
:108b000001d3236863600135a563002070bdc06890
:108b100031f056fb236ce26821685b421a448a42ba
:108b2000e2603ebfa2689b18e360022eebd1002ded
:108b3000e9d0013de7e7000073b5846c019024b9ea
:108b40001b4940f6b33009f08bfba26be36b9a42f2
:108b500004d3174940f6b43009f082fba26be36bf3
:108b60009a4222d294f84550002201a92046fff7ec
:108b7000b7ff6db26b1c06460bd1636a33b104f1cb
:108b8000240000f089ff002818bf0126304602b0fb
:108b900070bd7f2d04d1064940f6d43009f060fb4a
:108ba00001356db284f84550f0e70026eee700bfce
:108bb00004a30f0070b5044608f068ff94f8455010
:108bc00004f124066db2002d14dcff2384f8453037
:108bd00008f072ff08f05aff94f8445004f11006b0
:108be0006db2002d18dcff2384f84430bde87040de
:108bf00008f062bfa36c43b12046fff79dff08b1a8
:108c000001f030f8013d6db2dde7636a002bdcd086
:108c1000304600f041fff2e72369002be3d03046f5
:108c200000f03aff08b101f01df8013d6db2d8e740
:108c3000034610b41a6c084662b1d9689c681144a6
:108c4000a142d96024bf1968d960d9685df8044b86
:108c500031f0b6ba5df8044b704700002de9f04fd3
:108c60001f4687b05c4b01921a68059288460446fd
:108c7000994620b959494ff4447009f0f1fab8f116
:108c8000000f06d1236c23b1544940f2113009f092
:108c9000e7fa022f07d1e36b012b04d04f4940f2d2
:108ca000123009f0ddfa00f0e3ff30b9019b23b187
:108cb0004a4900f2153009f0d3fa02222146404613
:108cc00006f07afd002839d1dff814a106464ff0ee
:108cd000805b08f0dbfea26be36b9a4201d3022fac
:108ce00028d13a4641462046a56bfff7f9fea36c12
:108cf000c3b1022f00d15db92046fff71dff38b187
:108d0000374b4ff080521a60bff34f8fbff36f8f16
:108d100008f0d2fe0120059ad9f800309a4258d0c6
:108d20000bf02efa636a002be9d004f1240000f066
:108d3000b3fee4e7019d1db908f0befe0020eae79e
:108d400016b903a800f0a4ff08f0b6fe00f0e2fc9c
:108d500008f09cfe94f84430ff2b04bf002384f8f5
:108d6000443094f84530ff2b04bf002384f845308d
:108d700008f0a2fe01a903a800f096ff18bb08f0b6
:108d800085fea26be36b9a420ed108f095fe019925
:108d900004f1100000f020fe2046fff70bff00f06a
:108da00081fd48b1012694e708f086fe2046fff7d2
:108db00001ff00f077fdf5e7caf800b0bff34f8f71
:108dc000bff36f8feee72046fff7f4fe00f06afd79
:108dd000b4e707b0bde8f08f80fd004004a30f00aa
:108de00004ed00e02de9f047504f86b03b6801925a
:108df00088460593044620b94d4940f23a5009f09f
:108e00002ffab8f1000f06d1236c23b1484940f284
:108e10003e5009f025fa00f02bff30b9019b23b139
:108e2000434900f2435009f01bfa01222146002079
:108e300006f0c2fc30b10020059a3b689a4271d01e
:108e40000bf09ef90646dff8ec904ff0805a3ae0be
:108e5000019d15b908f030feede716b903a800f042
:108e600017ff08f029fe00f055fc08f00ffe94f8fb
:108e70004430ff2b04bf002384f8443094f845307d
:108e8000ff2b04bf002384f8453008f015fe01a92c
:108e900003a800f009ff002839d12046fff715fe8e
:108ea00078b3019904f1240000f096fd2046fff705
:108eb00081fe00f0f7fc28b9c9f800a0bff34f8f7e
:108ec000bff36f8f012608f0e1fda56b002dbfd029
:108ed00041462046013dfff7abfea563236963b120
:108ee00004f1100000f0d8fd38b1124b4ff0805261
:108ef0001a60bff34f8fbff36f8f08f0ddfd0120c5
:108f00009ae72046fff756fe00f0ccfcdae7204651
:108f1000fff750fe00f0c6fc2046fff7d6fd002804
:108f2000d0d088e706b0bde8f08700bf80fd0040e4
:108f300004a30f0004ed00e010b5044620b9064973
:108f400040f2da7009f08cf908f0a0fda46b08f08b
:108f5000b3fd204610bd00bf04a30f002de9f0476c
:108f6000894690461f46044620b9324940f2eb300c
:108f700009f076f9b9f1000f06d1236c23b12d4920
:108f80004ff47b7009f06cf9022f07d1e36b012bd2
:108f900004d0284940f2ed3009f062f908f0d0fd24
:108fa000eff311864ff0a00383f31188bff36f8fa7
:108fb000bff34f8fa26be36b9a4201d3022f37d1dd
:108fc00094f84550d4f838a06db23a464946204648
:108fd000fff786fd6b1c1fd1a36cabb1022f04d130
:108fe000baf1000f01d001200ae02046fff7a4fdee
:108ff0000028f8d0b8f1000ff5d00120c8f8000023
:1090000086f31188bde8f087636a002bebd004f18a
:10901000240000f041fdebe77f2d04d1054940f22b
:10902000764009f01df901356db284f84550dae754
:109030000020e5e704a30f002de9f0434b4f87b074
:109040003a6801910592044620b9494940f2d3504b
:1090500009f006f9236c23b1454940f2d75009f0d5
:10906000fff800f005fe30b9019b23b1404900f242
:10907000dc5009f0f5f80421204606f0f5fb30b18c
:109080000020059a3b689a426cd00bf079f80646ae
:10909000dff8e0804ff0805939e0019d15b908f004
:1090a0000bfdede716b903a800f0f2fd08f004fd92
:1090b00000f030fb08f0eafc94f84430ff2b04bfca
:1090c000002384f8443094f84530ff2b04bf00237c
:1090d00084f8453008f0f0fc01a903a800f0e4fd95
:1090e000a8bb2046fff7f1fc58b3019904f1240016
:1090f00000f072fc2046fff75dfd00f0d3fb28b9bd
:10910000c8f80090bff34f8fbff36f8f012608f0b0
:10911000bdfca36b002bc0d0013ba363236963b1eb
:1091200004f1100000f0b8fc38b1124b4ff080523f
:109130001a60bff34f8fbff36f8f08f0bdfc0120a3
:109140009fe72046fff736fd00f0acfbdee7204648
:10915000fff730fd00f0a6fb2046fff7b6fc002825
:10916000d4d08de707b0bde8f08300bf80fd00409c
:1091700004a30f0004ed00e070b504460d4616464a
:1091800008f084fc94f84430ff2b04bf002384f8db
:10919000443094f84530ff2b04bf002384f8453059
:1091a00008f08afca36b2bb93246294604f124004f
:1091b00000f054fc2046bde87040fff7fbbc000007
:1091c00038b50d46044620b91a494ff48a7009f0a3
:1091d00047f808f05bfcd4e90f31226862604b432a
:1091e000d0185b1a1344a060e3600020ff23a06343
:1091f00084f8443084f8453095b9236963b104f1ab
:10920000100000f049fc38b10b4b4ff080521a604f
:10921000bff34f8fbff36f8f08f04efc012038bdb6
:1092200004f11000fff710fc04f12400fff70cfc20
:10923000f2e700bf04a30f0004ed00e0f7b50d4610
:1092400016461c46074620b9194940f24f1009f04e
:1092500007f824b9164940f2531009f001f806b393
:1092600025b9134940f2571008f0faff4c23019337
:10927000019b4c2b04d00e494ff4b07008f0f0ff66
:10928000019b5cb1002d08bf26462660c4e90f751e
:1092900001212046fff794ff0023a364204603b07a
:1092a000f0bd002de2d002494ff4ac70dce700bf06
:1092b00004a30f00f8b51d4e1d4b05461c6833680e
:1092c0003068002283f8942054300f46fff7edfbfe
:1092d000334640b93168174ec96f32680120884063
:1092e00022ea000232606a1c07d137b119681248bd
:1092f0005431bde8f840fff7ccbb1a6864195465d7
:1093000007d30e4a10681968bde8f8405431fff7da
:10931000a9bb0b4a106819685431fff7a3fb094b2e
:109320001a68a24288bf1c60f8bd00bf1c61100013
:1093300054621000d86110002c62100024611000eb
:109340002061100008621000064a13681968064b75
:1093500019b94ff0ff321a6070471268d26812686c
:10936000f9e700bf20611000086210002de9f74ff7
:109370000f9c0d9f950081460e469046a5212a46da
:10938000d4f880009a4630f024ffd4f88020043dc1
:1093900015444fead77b25f00705002e3bd000226d
:1093a00004f18400b15c815411b101320a2af9d16f
:1093b000002284f88d2027f0004222f007026abbc9
:1093c00027f00046e66704f15400fff748fbc6f1ba
:1093d000080604f16800fff742fba6660026246633
:1093e0006467c4f89060cdf80080d4f880300c9a9f
:1093f0001099201dfff780f85b4684f89460524670
:1094000049462846fff75cf80e9b206003b11c60bc
:1094100003b0bde8f08f84f88460cce70726d1e77d
:109420002de9f041054608f031fb2f4b2f4c1a680f
:109430002f4f01321a602668002e49d125601b6823
:10944000012b1fd1b84640460136fff7fdfa082e22
:1094500008f11408f7d1dff8c480264e4046fff724
:10946000f3fa3046fff7f0fa2348fff7edfa234806
:10947000fff7eafa2248fff7e7fa224bc3f8008029
:10948000214b1e60214a224913680868013313608a
:10949000ea6f01239340034314200b6000fb02702a
:1094a00005f15401fff7f5fa08f006fb194b1b68ac
:1094b00063b12368da6feb6f9a4207d2164b4ff015
:1094c00080521a60bff34f8fbff36f8fbde8f081fa
:1094d000104b1b68002bd5d12368da6feb6f9a42d3
:1094e00098bf2560cee700bfc86110001c61100066
:1094f00028611000f061100014621000406210003a
:109500002c6210002061100024611000d461100052
:10951000d86110002862100004ed00e0dc6110004a
:1095200008b50e4c0e4e0f4d23683bb90e4b1b6811
:10953000012b00d901df08f0a5fef4e708f0a6fa38
:10954000f368d8685430fff7b0fa2b68013b2b6002
:109550002368013b236008f0affae5e7cc61100017
:1095600040621000c8611000286110002de9f0472a
:109570008ab09946dde913541f4b90461a68099248
:1095800006460f469a4625b91c4940f2512008f07c
:1095900067fe24b9194940f2522008f061fe982371
:1095a0000893089b982b04d0144940f25a2008f0e5
:1095b00057fe089b0023d4b1cdb107aac4f8805050
:1095c0000292129acde90343cde9003230464b4670
:1095d00042463946fff7cafe2046fff721ff099aa7
:1095e000daf8003007989a4203d00af0c9fd0793d1
:1095f000f5e70ab0bde8f08780fd004029a30f0021
:1096000070b5436986b004460e4623b914494ff439
:10961000227008f025fe236c23b9114940f28920fd
:1096200008f01efe6369c3b1256cb5b1c5f8803082
:1096300004f11c03cde9035323690193a36900934b
:10964000d4e90001e36822890296fff78ffe2846dd
:10965000fff7e6fe012006b070bd4ff0ff30fae7dd
:1096600029a30f0070b5234d88b02b6807930026ff
:1096700006aa05a904a8cde9046608f0d9fd049b53
:109680000293059b01934ff0004300931a49069af9
:109690001a483346fff76aff194b04460e2118603b
:1096a00006f00cfbacb100f0e9fb012817d14ff03c
:1096b000a00383f31188bff36f8fbff34f8f114b5c
:1096c0004ff0ff321a60104b1860104b1e60fef70f
:1096d000f1ff079a2b689a4209d00af051fd431c0a
:1096e000f7d10b4900f65b0008f0bafdf1e708b0ce
:1096f00070bd00bf80fd00404ea30f0021950c00ff
:109700000462100008621000286210005462100009
:1097100029a30f00024a136801331360704700bf8a
:10972000d0611000014b1868704700bf54621000f0
:1097300010b5044638b9054b1c6824b9044940f6f5
:109740006e1008f08dfd04f1840010bd1c61100046
:1097500029a30f0008b9064b1868d0f88020002014
:10976000135ca52b02d0c0f38f0070470130f7e7e0
:109770001c6110002de9f84f3e4b1b68002b6fd188
:109780003d4b1c6801341c609cb93c4d2b681b6828
:1097900023b13b4940f6dc2008f062fd394b2a68d2
:1097a000196829601a60384a136801331360fff79b
:1097b000cbfd364d364f2b68a3424ff0000b17d927
:1097c0003a68344bd16f14224a439a58022a324adb
:1097d000126828bf4ff0010b0ab908f054fd2f4a58
:1097e0001268002a18bf4ff0010b5846bde8f88fe9
:1097f000dff888a0dff8a890daf80020126812b924
:10980000013a2a60dce7daf80020d268d668716d88
:109810008c4201d22960d3e706f154084046fff795
:1098200044f9b16f19b106f16800fff73ef9f06f26
:10983000d9f80030012202fa00f11943154bc9f89a
:1098400000104ff0140c41460cfb0030fff721f9db
:109850003868f16fc26f914228bf4ff0010bcbe720
:109860000d4a1368013313604ff0000b08f00bfd35
:10987000bbe700bfd06110005462100020611000ef
:1098800029a30f00246110000c6210000862100070
:109890001c61100028611000106210005862100056
:1098a000d86110002de9f8432e4c236823b92e49c6
:1098b00040f6c90008f0d4fc08f0e8f82368013b42
:1098c000236024682cb1002408f0f6f82046bde897
:1098d000f883264b1b68002bf5d0254d254edff86d
:1098e000a8801fe0eb68dc6804f1540904f168000b
:1098f000fff7dbf84846fff7d8f8e26f3168012739
:1099000007fa02f314200b4300fb02804946336040
:10991000fff7bff8184be26f1b68db6f9a4201d369
:10992000164b1f602b68002bdcd10cb1fff70cfd30
:10993000134d2c6844b1114e0127fff71bff00b1f6
:109940003760013cf9d12c600c4b1b68002bbad05e
:109950000c4b4ff080521a60bff34f8fbff36f8fe5
:109960000124b1e7d061100029a30f00c8611000e5
:1099700014621000d86110001c61100058621000c1
:109980001062100004ed00e02861100010b50446dc
:1099900040b90e4b4ff080521a60bff34f8fbff3a8
:1099a0006f8f10bd0a4b1b6823b10a4940f2655006
:1099b00008f056fcfff7aefe00212046fff77afcc8
:1099c000fff770ff0028e4d0ebe700bf04ed00e0f4
:1099d000d061100029a30f0038b50d46044620b908
:1099e000084940f6314008f03bfc074b1968204617
:1099f0006831fff737f828460121bde83840fff706
:109a000059bc00bf29a30f001c61100070b50c46a3
:109a10001646054620b90e4940f6444008f020fca1
:109a20000c4b1b6823b90a4940f6484008f018fc63
:109a3000094b1a68196844f0004428469466683156
:109a4000fff727f830460121bde87040fff732bc30
:109a500029a30f00d06110001c61100070b50e46e4
:109a60001446054620b90a494ff4466008f0f8fb51
:109a7000084b196828466831fff70bf8002c21467f
:109a80000cbf30464ff0ff30bde87040fff712bc0e
:109a900029a30f001c61100038b5c368dc6824b925
:109aa00016494ff4496008f0dbfb04f168052846cd
:109ab000fef7fbff124b1b68ebb904f15405284677
:109ac000fef7f3ff0f49e26f086801239340034359
:109ad0000b600d4b1420294600fb0230fef7d9ff26
:109ae0000a4be26f1b68db6f9a4283bf084b012071
:109af0001860002038bd29460648efe729a30f006b
:109b0000d0611000d8611000286110001c611000a5
:109b100058621000146210001a4b1b6870b505469d
:109b20000c4623b9184940f6c84008f099fb44f0a8
:109b300000442c60ec6824b913494ff44d6008f0e0
:109b40008ffb284604f15406fef7afff3046fef7c0
:109b5000acff0e49e26f0868012505fa02f30343e2
:109b60000b600b4b142000fb02303146fef791ffd7
:109b7000084be26f1b68db6f9a4284bf064b1d6087
:109b800070bd00bfd061100029a30f00d861100084
:109b9000286110001c61100058621000224b1a68e6
:109ba000224b70b512b101221a6070bd204e1a60ae
:109bb0003368d3f880301a68b2f1a53f0bd15a68e8
:109bc000b2f1a53f07d19a68b2f1a53f03d1db6896
:109bd000b3f1a53f04d030683168843108f054fbfc
:109be000144b1c68b4fa84f4e4b2c4f11f041423c7
:109bf000114d6343eb5823b9104940f6174008f064
:109c00002ffb142202fb04f3e9180833486840686c
:109c100048602b44984204bf43684b6002fb0454e5
:109c20006368db683360c0e7d061100058621000e1
:109c30001c611000d86110002861100029a30f00da
:109c4000044b1a681968906e1a68cb6fc3f1080349
:109c5000936670471c611000014b1868704700bf85
:109c60001c611000014b01221a60704758621000fd
:109c7000054b1b6833b1054b1b68002b0cbf022042
:109c8000002070470120704728621000d06110004a
:109c9000034b1b680360034b1b684360704700bfa6
:109ca0000c6210005462100070b50e46054620b9d3
:109cb0001a4940f60b5008f0d3fa26b9174940f676
:109cc0000c5008f0cdfa07f0e1fe154b1968154b62
:109cd0001a6892f8944044b11b68002283f89420db
:109ce000012407f0e9fe204670bd33685a1cf8d005
:109cf0000d482c6800686a68844204d08a4202d801
:109d000000233360ece7881a8342f9d95b1a1344c5
:109d100033602846fff7bcff0024e2e729a30f00c9
:109d2000546210001c6110000c621000914208b5d2
:109d3000416000610ad8d21a83699a420dd2084b59
:109d4000011d1868fef78efe002008bd9a4201d260
:109d5000994202d2011d034bf3e70120f5e700bf52
:109d6000606210005c621000f7b5104c07f08efec8
:109d70002568b5b90e4f0f4e3846fef765fe3046e2
:109d8000fef762fe0c4b0d4a1f600d4b10211e604a
:109d9000052000950b4bfff751fa1521206005f0c7
:109da000a3ff03b0bde8f04007f086be2c631000af
:109db000b4621000c86210005c621000646210009f
:109dc00060621000e06210002de9f34198462823fc
:109dd0000193019b099c282b06460d46174604d08b
:109de00015494ff4a37008f03bfa019b44b912499e
:109df0004ff4a67008f034fa204602b0bde8f081b6
:109e0000022384f8243025b90b4940f2671008f08a
:109e100027fafff7a9ff089b2660c4e906582362ca
:109e2000201dfef71cfe002fe6d094f8243043f0ee
:109e3000040384f82430dfe753a30f0030b50d4c42
:109e400087b01d46236805936ff00103cde901300b
:109e50000948cde9031200232a4601a90068fff74b
:109e60007df8059a23689a4201d00af089f907b073
:109e700030bd00bf80fd00402c63100030b51a4d8e
:109e800089b02b680793fff76fff184b1b685bb90e
:109e900040f21510164908f0e3f90020079a2b68e4
:109ea0009a421fd00af06cf9002406aa05a904a85a
:109eb000cde9044408f0c8f9049b0293059b019383
:109ec0000c4b00930c49069a0c482346fff74efbb7
:109ed0000b4b04460d21186005f0f0fe002cd7d086
:109ee0000120dbe709b030bd80fd00402c6310008d
:109ef00053a30f000700008079a30f00f99f0c0007
:109f0000306310002de9f043184f87b091463a684e
:109f100005920d469846064620b915494ff4c5707e
:109f200008f09ef9134c206880b1052dcde9015948
:109f3000039611dcfff79cfe0023022808bf0e9a4f
:109f4000206818bf1a4601a9fef788fe059a3b68eb
:109f50009a4207d00af014f90023424601a9fef7fd
:109f6000fdfff3e707b0bde8f08300bf80fd0040d0
:109f700053a30f002c6310002de9f7431b4ddff8ae
:109f8000748000272b681a6832b9194a1168296051
:109f9000136003b0bde8f083db68dc681e6804f181
:109fa00004094846fef781fd236a2046984794f845
:109fb00024305b07e6d5a36933449e4206d2636032
:109fc000246149462868fef74dfddbe70023009732
:109fd000324619462046fff795ff0028d2d1414668
:109fe00000f2b13008f03cf9cce700bf5c62100031
:109ff0006062100053a30f002de9f04f784bdff89b
:10a00000e8a11b68774e89b00793774b1b68d3f89c
:10a0100000b0bbf1000f2ad0db68d3f800b00024f9
:10a02000724ddff8d481fff775fbfff77bfb2b68e0
:10a0300098420746a9461cd3286014b36c4b1b6892
:10a040001c68b4fa84f464092246abeb0701d8f823
:10a050000000fff791f8fff725fc78b9654b4ff04a
:10a0600080521a60bff34f8fbff36f8f06e0012459
:10a07000d6e7fff781ff2f60fff714fc4ff0000bce
:10a0800051e08345e0d8fff70dfcdaf80030db68db
:10a09000dd68281dfef709fd95f824305a0718d50c
:10a0a000a9695b463a4659442846fff73ffe60b12e
:10a0b000009423465a4621462846fff723ff20b93d
:10a0c000314600f5077008f0cbf82b6a2846984710
:10a0d000d4e723f0010385f82430f6e794f8243020
:10a0e000a16943f0010384f82430049b2a461944f3
:10a0f0002046fff71bfeb0b1236a2046984794f82c
:10a1000024305b070fd5a2690499cdf800b0002375
:10a110000a4420461946fff7f5fe20b9314600f201
:10a120003e3008f09df8002203a9d8f80000fef7a1
:10a1300059fe00283ff469af039b002b06da049b0d
:10a14000dde905019847039b002becdb059c636967
:10a1500013b1201dfef7a9fcfff7e4fad9f800308f
:10a160009842054601d2fff707ff039bc9f800504c
:10a17000092bd8d801a252f823f000bfdda00c00b3
:10a18000dda00c00dda00c00d1a10c00a5a10c00ed
:10a19000d1a10c00dda00c00dda00c00d1a10c00b1
:10a1a000a5a10c0094f8243043f0010384f8243076
:10a1b000049ba36123b9314640f2573008f050f8b0
:10a1c000a1692b462a4629442046fff7affdaae79e
:10a1d00094f8243023f0010384f82430a3e700bf6f
:10a1e00080fd004053a30f005c621000dc62100091
:10a1f0006062100004ed00e02c631000deaddead07
:10a20000deaddeaddeaddeaddeaddeaddeaddeadf6
:10a21000deaddeaddeaddeaddeaddeaddeaddeade6
:10a22000deaddeaddeaddeaddeaddeaddeaddeadd6
:10a23000deaddeaddeaddeaddeaddeaddeaddeadc6
:020000040000fa
:02000004000cee
:10c0000008b505f08dfd00b902df08bd38b505465d
:10c01000fff7f6ff04462846fdf7b8fc2046bde8ca
:10c02000384005f024bd10b5fff7eaff0446fdf7e0
:10c0300071fb2046bde8104005f019bd38b5fff78b
:10c04000dfff0546fdf76efb0446284605f00ffdb1
:10c05000204638bd38b50446fff7d2ff05462046d6
:10c06000fdf766fb0446284605f001fd204638bd75
:10c0700038b50446fff7c4ff05462046fdf76afbc6
:10c080000446284605f0f3fc204638bd38b5fff7d6
:10c09000b7ff0546fdf7e0fd0446284605f0e7fc3e
:10c0a000204638bd2de9f04104460e461746984615
:10c0b000fff7a6ff434605463a4631462046fcf7c1
:10c0c000cdfd0446284605f0d2fc2046bde8f081af
:10c0d000f8b504460e461746fff792ff3a46054666
:10c0e00031462046fcf77efe0446284605f0bffc9c
:10c0f0002046f8bd70b504460e46fff781ff314675
:10c1000005462046fcf798ff0446284605f0affc9c
:10c11000204670bd38b50446fff772ff054620463d
:10c12000fcf70aff0446284605f0a1fc204638bd6e
:10c130002de9f341984604460e461746fff760ff87
:10c140009df820300093054643463a463146204646
:10c15000fdf774f80446284605f089fc204602b035
:10c16000bde8f08170b504460e46fff749ff314641
:10c1700005462046fdf724f80446284605f077fcde
:10c18000204670bd2de9f341984604460e461746f9
:10c19000fff736ff099b0193089b00930546434632
:10c1a0003a4631462046fdf70ffe0446284605f084
:10c1b0005efc204602b0bde8f0812de9f3419846cf
:10c1c00004460e461746fff71bff089b00930546e3
:10c1d00043463a4631462046fdf794fe044628463b
:10c1e00005f045fc204602b0bde8f08138b50446b4
:10c1f000fff706ff05462046fcf72efb04462846bf
:10c2000005f035fc204638bd2de9f341984604463b
:10c210000e461746fff7f4fe089b0093054643467b
:10c220003a4631462046fcf733fb0446284605f0e3
:10c230001efc204602b0bde8f08170b504460e46f3
:10c24000fff7defe314605462046fcf7a3fb044619
:10c25000284605f00cfc204670bd000038b5fff7fd
:10c26000cffe054605f012fc084803f0d1fc50b99a
:10c270004ff201039847044605f01efc284605f0de
:10c28000f6fb204638bd0124f6e700bf0100004060
:10c2900070b50e460446fff7b3fe054605f0f6fb03
:10c2a000094803f0b5fc60b9204631464ff2090356
:10c2b0009847044605f000fc284605f0d8fb2046c8
:10c2c00070bd0124f6e700bf0002008070b50e4685
:10c2d0000446fff795fe054605f0d8fb094803f034
:10c2e00097fc60b9204631464ff20d03984704464b
:10c2f00005f0e2fb284605f0bafb204670bd01249c
:10c30000f6e700bf0004008038b50446fff778fe6a
:10c31000054605f0bbfb204608f0eefb044605f0a1
:10c32000cbfb284605f0a3fb204638bd38b50446b4
:10c33000fff766fe054605f0a9fb204608f0c0fba6
:10c34000044605f0b9fb284605f091fb204638bdb0
:10c3500038b50446fff754fe054605f097fb204626
:10c3600008f0e6fb044605f0a7fb284605f07ffb36
:10c37000204638bd2de9f0410e4617469846054641
:10c38000fff73efe044605f081fb094803f040fc40
:10c3900030b9284643463a4631464ff22525a8474c
:10c3a00005f08afb2046bde8f04105f060bb00bf08
:10c3b00002000040f8b50e4617460446fff720fe7f
:10c3c000054605f063fb0a4803f022fc68b92046e5
:10c3d0003a4631464ff215239847044605f06cfb68
:10c3e000284605f044fb2046f8bd0124f6e700bfcf
:10c3f000040000402de9f3410e46174698460446d6
:10c40000fff7fefd054605f041fb0e4803f000fc7a
:10c41000a8b99df824300193089b00932046434619
:10c420004ff235243a463146a047044605f044fb16
:10c43000284605f01cfb204602b0bde8f08101242f
:10c44000f4e700bf0800004070b50e460446fff751
:10c45000d7fd054605f01afb094803f0d9fb60b982
:10c46000204631464ff221239847044605f024fb2d
:10c47000284605f0fcfa204670bd0124f6e700bf0f
:10c480001000004070b5044606480d4603f0f8fb66
:10c4900030b9294620464ff22123bde870401847a5
:10c4a000012070bd10000040f8b50e461746044646
:10c4b000fff7a6fd054605f0e9fa0a4803f0a8fbd8
:10c4c00068b920463a4631464ff219239847044648
:10c4d00005f0f2fa284605f0cafa2046f8bd012414
:10c4e000f6e700bf4000004070b50e460546fff776
:10c4f00087fd044605f0cafa074803f089fb20b916
:10c50000314628464ff23123984705f0d5fa2046a8
:10c51000bde8704005f0abba800000402de9f34162
:10c520000e46174698460446fff76afd054605f095
:10c53000adfa0d4803f06cfb98b99df820300093dc
:10c54000204643464ff241243a463146a04704462e
:10c5500005f0b2fa284605f08afa204602b0bde896
:10c56000f0810124f4e700bf0008004038b504461c
:10c57000fff746fd054605f089fa094803f048fb38
:10c5800058b9204641f279139847044605f094fac9
:10c59000284605f06cfa204638bd0124f6e700bfb6
:10c5a0000010004038b50446fff72afd054605f0a7
:10c5b0006dfa094803f02cfb58b9204641f27d136f
:10c5c0009847044605f078fa284605f050fa2046c8
:10c5d00038bd0124f6e700bf0020004038b504460e
:10c5e000fff70efd054605f051fa4ff0402003f02d
:10c5f0000ffb58b9204641f281139847044605f0d5
:10c600005bfa284605f033fa204638bd0124f6e7e8
:10c6100038b50446fff7f4fc054605f037fa09483b
:10c6200003f0f6fa58b9204641f2851398470446bc
:10c6300005f042fa284605f01afa204638bd0124d2
:10c64000f6e700bf0080004038b50446fff7d8fc8d
:10c65000054605f01bfa094803f0dafa58b92046f6
:10c6600041f289139847044605f026fa284605f05a
:10c67000fef9204638bd0124f6e700bf0000014066
:10c68000f8b50e4617460446fff7bafc054605f016
:10c69000fdf90a4803f0bcfa68b920463a4631462b
:10c6a00041f29d139847044605f006fa284605f026
:10c6b000def92046f8bd0124f6e700bf0000024085
:10c6c00070b50e460446fff79bfc054605f0def903
:10c6d000094803f09dfa60b92046314641f2a113a2
:10c6e0009847044605f0e8f9284605f0c0f92046c9
:10c6f00070bd0124f6e700bf0000044038b50446d1
:10c70000fff77efc054605f0c1f9094803f080fa01
:10c7100058b9204641f2a5139847044605f0ccf9d4
:10c72000284605f0a4f9204638bd0124f6e700bfed
:10c73000000008402de9f041164e86b0336805939d
:10c74000142207468846684600212df042fdfff777
:10c7500057fc054605f09af90f4803f059fa20b93d
:10c760004146684641f27903984705f0a5f96c46c1
:10c77000284605f07cf90fcc3d460fc52368059a85
:10c780002b6033689a42384601d007f0f9fc06b0b6
:10c79000bde8f08180fd0040000010402de9f0412f
:10c7a000164e86b0336805931422074688466846bd
:10c7b00000212df00efdfff723fc054605f066f97c
:10c7c0000f4803f025fa20b94146684641f2750347
:10c7d000984705f071f96c46284605f048f90fccea
:10c7e0003d460fc52368059a2b6033689a42384648
:10c7f00001d007f0c5fc06b0bde8f08180fd004027
:10c800000000204070b50e460446fff7f9fb0546d0
:10c8100005f03cf9094803f0fbf960b920463146c0
:10c8200041f2ad039847044605f046f9284605f065
:10c830001ef9204670bd0024f6e700bf000040400e
:10c840002de9f3410e46174698460446fff7d8fbfc
:10c85000054605f01bf94ff0814003f0d9f9a0b966
:10c86000099b0193089b00932046434641f2110423
:10c870003a463146a047044605f01ef9284605f021
:10c88000f6f8204602b0bde8f0810124f4e770b567
:10c890000e460446fff7b4fb054605f0f7f83146af
:10c8a000204601f06bf8044605f006f9284605f02d
:10c8b000def8204670bd38b5fff7a2fb054605f04f
:10c8c000e5f801f013f9044605f0f6f8284605f0fe
:10c8d000cef8204638bd38b5fff792fb054605f087
:10c8e000d5f801f01df9044605f0e6f8284605f0f4
:10c8f000bef8204638bd00002de9f04f1c4c8bb02f
:10c900009a46dde914b3884607ad2168099191463e
:10c910000021169a07910593049269600646fff775
:10c920006ffb074605f0b2f84ff0824003f070f954
:10c9300058b9059b049a0292cde900b3414653468b
:10c940004a46284641f20508c04705f0b5f8384682
:10c9500005f08df895e80300099a23689a4286e865
:10c960000300304601d007f00bfc0bb0bde8f08fa0
:10c9700080fd00402de9ff410f4690460646fff737
:10c980003ffb054605f082f84ff0844003f040f984
:10c99000012458b90c9b02930b9b4246cde90043fe
:10c9a0003946074c30233046a047044605f084f84a
:10c9b000284605f05cf8204604b0bde8f08100bfd1
:10c9c00035f401002de9ff410e461746984604460e
:10c9d000fff716fb054605f059f84ff0844003f0c9
:10c9e00017f9b0b90c9b02930b9b01939df828306b
:10c9f000009320464346084c3a463146a047044639
:10ca000005f05af8284605f032f8204604b0bde893
:10ca1000f0810124f4e700bf35f401002de9ff4166
:10ca20000e46174698460446fff7eafa054605f013
:10ca30002df84ff0844003f0ebf8b0b90c9b029353
:10ca40000b9b01939df82830009320464346084ce9
:10ca50003a463146a047044605f02ef8284605f030
:10ca600006f8204604b0bde8f0810124f4e700bfd9
:10ca700025f4010070b50e460446fff7c1fa0546dd
:10ca800005f004f84ff0844003f0c2f858b920468e
:10ca90003146064b9847044605f00ef8284604f048
:10caa000e6ff204670bd0124f6e700bf29f401002f
:10cab0002de9f3410e46174698460446fff7a0fac3
:10cac000054604f0e3ff4ff0844003f0a1f8a0b95d
:10cad000bdf824300193089b009320464346084c40
:10cae0003a463146a047044604f0e6ff284604f0e3
:10caf000beff204602b0bde8f0810124f4e700bf8c
:10cb000039f4010038b50446fff77afa054604f017
:10cb1000bdff4ff0884003f07bf858b9204641f242
:10cb200019139847044604f0c7ff284604f09ffff6
:10cb3000204638bd0124f6e72de9f3410e4617469d
:10cb400098460446fff75cfa054604f09fff4ff055
:10cb5000904003f05df8a0b9099b0193089b0093f6
:10cb60002046434641f21d243a463146a04744b28e
:10cb700004f0a2ff284604f07aff204602b0bde888
:10cb8000f0810124f4e7000038b50546fff738fad4
:10cb9000044604f07bff074803f03af818b928462a
:10cba00041f22523984704f087ff2046bde838402e
:10cbb00004f05dbf0100008010b5fff721fa0446c4
:10cbc00004f064ff064803f023f810b941f215237e
:10cbd000984704f071ff2046bde8104004f047bfbd
:10cbe0000200008070b50e460446fff709fa0546bc
:10cbf00004f04cff094803f00bf860b920463146b9
:10cc000041f23923984744b204f056ff284604f015
:10cc10002eff204670bd0124f6e700bf1000008003
:10cc2000f8b50e4617460546fff7eaf9044604f044
:10cc30002dff084802f0ecff28b93a463146284655
:10cc400041f20903984704f037ff2046bde8f84059
:10cc500004f00dbf20000080f8b50e4617460546cb
:10cc6000fff7cef9044604f011ff084802f0d0ffa8
:10cc700028b93a463146284641f29113984704f0c4
:10cc80001bff2046bde8f84004f0f1be40000080e4
:10cc900070b50e460446fff7b3f9054604f0f6fefc
:10cca000094802f0b5ff60b92046314641f29513bc
:10ccb0009847044604f000ff284604f0d8fe2046ba
:10ccc00070bd0124f6e700bf8000008038b504463f
:10ccd000fff796f9054604f0d9fe094802f098ffdf
:10cce00058b9204641f299139847044604f0e4feef
:10ccf000284604f0bcfe204638bd0124f6e700bffc
:10cd0000000100802de9f04186b00e46044617462a
:10cd10009846fff775f9054604f0b8fe0121204654
:10cd200002f01efef0b99df8403004939df83c30af
:10cd300003939df838300293bdf834300193bdf869
:10cd400030300093204643463a46314608f054fac4
:10cd5000044604f0b1fe284604f089fe204606b0e1
:10cd6000bde8f0810124f4e72de9f74f0d461f4699
:10cd700001219df84030019304461646bdf83080ed
:10cd8000bdf834909df838a09df83cb002f01cfe30
:10cd9000019b70b9cde90fb332463b462946204688
:10cda000cde90d9acdf8308003b0bde8f04f08f022
:10cdb00023ba012003b0bde8f08ff8b50e46044653
:10cdc0001746fff71df9054604f060fe02212046d4
:10cdd00002f0c6fd60b920463a46314608f02cfa0a
:10cde000044604f069fe284604f041fe2046f8bde2
:10cdf0000124f6e770b50d4602210446164602f0fe
:10ce0000e3fd30b9324629462046bde8704008f0bf
:10ce100013ba012070bdf8b50e4604461746fff759
:10ce2000eff8054604f032fe0821204602f098fd96
:10ce300060b920463a46314608f045fa044604f007
:10ce40003bfe284604f013fe2046f8bd0124f6e719
:10ce500070b50d4608210446164602f0b5fd30b9fe
:10ce6000324629462046bde8704008f02cba012021
:10ce700070bd38b50446fff7c3f8054604f006fe5a
:10ce80001021204602f06cfd50b9204608f034fa1b
:10ce9000044604f011fe284604f0e9fd204638bda2
:10cea000ff24f6e710b51021044602f08dfd20b9ed
:10ceb0002046bde8104008f01fbaff2010bd70b535
:10cec0000e460446fff79cf8054604f0dffd2021de
:10ced000204602f045fd58b92046314608f018fac0
:10cee000044604f0e9fd284604f0c1fd204670bd6b
:10cef0000124f6e770b50e460446fff781f80546b3
:10cf000004f0c4fd4ff48071204602f029fd58b9a9
:10cf10002046314608f011fa044604f0cdfd2846bb
:10cf200004f0a5fd204670bd0124f6e7f8b50f46d4
:10cf30000546fff765f8064604f0a8fd4ff480614a
:10cf4000284602f00dfd044650b93946284608f03f
:10cf50006bfa04f0b1fd304604f089fd2046f8bdbf
:10cf6000ff24f6e7f8b50f460546fff749f80646f1
:10cf700004f08cfd0121284602f052fd044650b910
:10cf80003946284608f0f0fb04f096fd304604f0e0
:10cf90006efd2046f8bdff24f6e7f8b50f460546be
:10cfa000fff72ef8064604f071fd0421284602f032
:10cfb00037fd044650b93946284608f097fb04f07f
:10cfc0007bfd304604f053fd2046f8bdff24f6e714
:10cfd00070b50546fff714f8064604f057fd10211a
:10cfe000284602f01dfd044648b9284608f0b0fb6b
:10cff00004f062fd304604f03afd204670bdff2487
:10d00000f6e770b50546fef7fbff064604f03efd69
:10d010002021284602f004fd044648b9284608f0bd
:10d020009dfb04f049fd304604f021fd204670bd13
:10d03000ff24f6e770b50546fef7e2ff064604f06a
:10d0400025fd4021284602f0ebfc044648b928465d
:10d0500008f06efb04f030fd304604f008fd204679
:10d0600070bdff24f6e738b50446fef7c9ff054654
:10d0700004f00cfd2046802102f0d2fc044640b9a9
:10d0800008f0b6fb04f018fd284604f0f0fc20463a
:10d0900038bdff24f6e710b54ff48071044602f066
:10d0a000a9fc20b92046bde8104008f04bbbff208a
:10d0b00010bd38b51021054602f09cfc044620b98d
:10d0c000284608f045fb204638bdff24fbe738b56d
:10d0d0002021054602f08efc044620b9284608f0bf
:10d0e0003dfb204638bdff24fbe738b5402105460f
:10d0f00002f080fc044620b9284608f019fb2046bf
:10d1000038bdff24fbe770b50d460646fef778fff5
:10d11000044604f0bbfc4ff48061304602f0cafcc8
:10d1200010b9284607f088fa04f0c6fc204604f03f
:10d130009efc012070bd10b50c464ff4005102f06a
:10d14000a3fc10b9204607f05dfa012010bd70b5b0
:10d150000e460446fef754ff054604f097fc0121f5
:10d16000304602f0a7fc18b9237843f0010323707e
:10d1700004f0a2fc284604f07afc012070bd2de9e1
:10d18000f3410c46174698460646fef739ff05461a
:10d1900004f07cfc0421204602f08cfc40b99df890
:10d1a000203000933a4643462146304607f0eefbd6
:10d1b00004f082fc284604f05afc012002b0bde8cd
:10d1c000f0812de9f3410c46174698460646fef7d6
:10d1d00017ff054604f05afc0821204602f06afcbd
:10d1e00058b99df8243001939df8203000933a46b9
:10d1f00043462146304607f0e9fb04f05dfc284633
:10d2000004f035fc012002b0bde8f081f8b50e460f
:10d2100017460446fef7f4fe054604f037fc3a468e
:10d220003146204607f098fb2021044602f042fcdc
:10d23000002818bf012404f03ffc284604f017fc26
:10d240002046f8bd70b50e460446fef7d9fe0546e9
:10d2500004f01cfc4021304602f02cfc10b90423e1
:10d260006361a36104f028fc284604f000fc01205f
:10d2700070bd70b50e460446fef7c2fe054604f0ca
:10d2800005fc4ff48071304602f014fc18b9236994
:10d2900043f00103236104f00ffc284604f0e7fb90
:10d2a000012070bd70b50e460446fef7a9fe054686
:10d2b00004f0ecfb4ff40071304602f0fbfb18b9b0
:10d2c000236923f00103236104f0f6fb284604f0f0
:10d2d000cefb012070bd70b50e460446fef790fef1
:10d2e000054604f0d3fb4ff40061304602f0e2fb48
:10d2f00018b9237803f0fe03237004f0ddfb284601
:10d3000004f0b5fb012070bdf7b50c4605460821b9
:10d31000204616461f4602f0b7fb58b99df8243048
:10d3200001939df82030009332463b462146284623
:10d3300007f04cfb012003b0f0bd70b50c4605466c
:10d3400010212046164602f09ffb20b932462146a6
:10d35000284607f05dfb012070bd10b507f0fcfa10
:10d360002021044602f090fb00280cbf204601203b
:10d3700010bd10b504460846402102f085fb10b9e7
:10d3800004236361a361012010bd10b50446084663
:10d39000802102f079fb10b904236361a0610120b0
:10d3a00010bd10b5044608464ff4807102f06cfbc6
:10d3b00018b9236943f001032361012010bd10b5a2
:10d3c000044608464ff4007102f05efb18b9236969
:10d3d00023f001032361012010bd70b50e46044601
:10d3e000fef70efe054604f051fb012002f0b0fbf3
:10d3f00058b92046314619f032fc044604f05cfb73
:10d40000284604f034fb204670bd0124f6e738b509
:10d41000fef7f6fd054604f039fb022002f098fb0a
:10d4200048b919f025fc044604f046fb284604f0f0
:10d430001efb204638bd0124f6e770b50e460446b3
:10d44000fef7defd054604f021fb042002f080fb20
:10d4500058b92046314619f02dfc044604f02cfb47
:10d46000284604f004fb204670bd0124f6e770b5a1
:10d470000e460446fef7c4fd054604f007fb0820ef
:10d4800002f066fb58b92046314619f023fc0446e9
:10d4900004f012fb284604f0eafa204670bd01248d
:10d4a000f6e72de9f0410e46174698460446fef78a
:10d4b000a7fd054604f0eafa102002f049fb70b916
:10d4c000204643463a46314619f013fc044604f020
:10d4d000f3fa284604f0cbfa2046bde8f081012497
:10d4e000f5e738b50446fef78bfd054604f0cefaa5
:10d4f000202002f02dfb50b9204619f016fc0446fe
:10d5000004f0dafa284604f0b2fa204638bd0124c5
:10d51000f6e738b50446fef773fd054604f0b6faa3
:10d52000402002f015fb50b9204619f011fc0446ca
:10d5300004f0c2fa284604f09afa204638bd0124c5
:10d54000f6e738b50446fef75bfd054604f09efaa3
:10d55000802002f0fdfa50b9204619f004fc044680
:10d5600004f0aafa284604f082fa204638bd0124c5
:10d57000f6e738b50446fef743fd054604f086faa3
:10d580004ff4807002f0e4fa50b9204619f000fc24
:10d59000044604f091fa284604f069fa204638bda2
:10d5a0000124f6e770b50e460446fef729fd054650
:10d5b00004f06cfa102002f0cbfa58b9204631463c
:10d5c00019f0a6fb044604f077fa284604f04ffa57
:10d5d000204670bd0124f6e738b50446fef710fd7d
:10d5e000054604f053fa4ff4805002f0b1fa50b9f6
:10d5f000204619f0c3fb044604f05efa284604f006
:10d6000036fa204638bd0124f6e770b50e460446ca
:10d61000fef7f6fc054604f039fa4ff4007002f00c
:10d6200097fa58b92046314619f0c6fb044604f073
:10d6300043fa284604f01bfa204670bd0124f6e7a1
:10d6400070b50e460446fef7dbfc054604f01efaf4
:10d650004ff4007002f07cfa58b92046314619f0b8
:10d66000b4fb044604f028fa284604f000fa2046e9
:10d6700070bd0124f6e7f8b50e4617460446fef7de
:10d68000bffc054604f002fa4ff4006002f060fab5
:10d6900060b920463a46314619f0aefa044604f025
:10d6a0000bfa284604f0e3f92046f8bd0124f6e71a
:10d6b000f8b50e4617460446fef7a2fc054604f0f0
:10d6c000e5f94ff4006002f043fa60b920463a46ab
:10d6d000314619f09cfa044604f0eef9284604f0ad
:10d6e000c6f92046f8bd0124f6e738b50446fef732
:10d6f00087fc054604f0caf94ff4007002f028fade
:10d7000050b9204619f04ffb044604f0d5f92846dd
:10d7100004f0adf9204638bd0124f6e738b50446db
:10d72000fef76efc054604f0b1f94ff4806002f09c
:10d730000ffa50b9204619f051fb044604f0bcf929
:10d74000284604f094f9204638bd0124f6e738b5a0
:10d750000446fef755fc054604f098f94ff4806046
:10d7600002f0f6f950b9204619f043fb044604f0e4
:10d77000a3f9284604f07bf9204638bd0124f6e7da
:10d7800038b50446fef73cfc054604f07ff94ff43b
:10d79000806002f0ddf950b9204619f035fb0446ef
:10d7a00004f08af9284604f062f9204638bd0124c5
:10d7b000f6e738b50446fef723fc054604f066f9a3
:10d7c0004ff4806002f0c4f950b9204619f027fbed
:10d7d000044604f071f9284604f049f9204638bda2
:10d7e0000124f6e738b50446fef70afc054604f0c6
:10d7f0004df9042002f0dcf950b920461cf012fe6d
:10d80000044604f059f9284604f031f9204638bda1
:10d810000124f6e7f8b50e4617460446fef7f0fb7e
:10d82000054604f033f9012002f0c2f960b9204640
:10d830003a4631461cf0c2fd044604f03df9284644
:10d8400004f015f92046f8bd0124f6e738b5044682
:10d85000fef7d6fb054604f019f9042002f0a8f9fa
:10d8600050b920461cf0e9fd044604f025f928468d
:10d8700004f0fdf8204638bd0124f6e738b504462b
:10d88000fef7befb054604f001f9082002f090f90e
:10d8900050b920461cf0dcfd044604f00df9284682
:10d8a00004f0e5f8204638bd0124f6e738b5044613
:10d8b000fef7a6fb054604f0e9f8082002f078f927
:10d8c00050b920461cf0cffd044604f0f5f8284678
:10d8d00004f0cdf8204638bd0124f6e738b50446fb
:10d8e000fef78efb054604f0d1f8012002f060f946
:10d8f00050b920461cf0c2fd044604f0ddf828466d
:10d9000004f0b5f8204638bd0124f6e738b50446e2
:10d91000fef776fb054604f0b9f8022002f048f95c
:10d9200050b920461cf0b5fd044604f0c5f8284661
:10d9300004f09df8204638bd0124f6e710b5054ceb
:10d94000227832b9044b13b10448aff300800123ad
:10d95000237010bd0028120000000000d8b70f008f
:10d9600008b5034b1bb103490348aff3008008bd62
:10d970000000000004281200d8b70f0080b584b062
:10d9800000af03460a46fb711346bb710123fb73cc
:10d990000023bb7307f10803042219464ff4777084
:10d9a00000f04ef80346002b02d10023fb7322e067
:10d9b0003b7a1a467b7adb43dbb29a4202d00023e1
:10d9c000fb7318e0bb7afa799a4202d00023fb730a
:10d9d00011e0fb7aba799a4202d20023fb730ae083
:10d9e00000f05cf8034683f00103dbb2002b02d0a9
:10d9f0000023fb7300bffb7b18461037bd4680bd7c
:10da000080b584b000af03463960fb800323fb730d
:10da10000ee0fa884ff2090339681046984703462a
:10da2000002b03d1fb7b013bfb7301e0012303e0ef
:10da3000fb7b002bedd1002318461037bd4680bd7f
:10da400080b584b000af03463960fb8013467b711c
:10da50000023fb8100237b733b68002b02d1002352
:10da60007b7316e00023fb810ee0fa88fb891344e8
:10da700098b2fb893a6813441946fff7c1ff034681
:10da80007b73fb890133fb817b799bb2fa899a42d4
:10da9000ebd37b7b18461037bd4680bd80b483b086
:10daa00000af0123fb71104bdb8b9bb2242b02d008
:10dab0000023fb7110e00c4b5b7fdbb21b09dbb278
:10dac00003f00f03bb71bb79012b02d9bb79052b86
:10dad00002d90023fb7100bffb7918460c37bd4605
:10dae0005df8047b704700bf00ff0f4080b483b037
:10daf00000af0023fb71094b5b7fbb71bb79212b0e
:10db000002d0bb79412b01d10123fb71fb7918466f
:10db10000c37bd465df8047b704700bf00ff0f4027
:10db200080b483b000af0023fb71094b5b7fbb71f6
:10db3000bb79212b02d0bb79322b01d10123fb71a0
:10db4000fb7918460c37bd465df8047b704700bf73
:10db500000ff0f402de9f04f5b4b97b01a6815920c
:10db60008b46044604f0d0fc824604f0d1fc074604
:10db700004f0dafc814604f0dbfc064604f0e4fc29
:10db8000804604f0e5fc504b03930546baf1000fc4
:10db90000ad14ff0ff35039b159a1b689a4228461d
:10dba00000f08f8006f0ecfab9f1000ff1d0b8f177
:10dbb000000feed0362200210df11a002cf009fbe7
:10dbc000424b0593424b1493424b04934ff48073a2
:10dbd000adf81830062308933f4b0794cde9093b75
:10dbe00007f1ff3b17b11bea070f03d03b499c200d
:10dbf00004f036fb1bea0a0f03d038499d2004f0dd
:10dc00002ffbcde90ba704f01bfc771e0d900eb186
:10dc1000374203d03149a32004f022fb17ea090f51
:10dc200003d02e49a42004f01bfbcde90e9604f08e
:10dc300007fc6e1e10900db12e4203d02749aa207a
:10dc400004f00efb16ea080f03d02449ab2004f0c1
:10dc500007fbcde9118504f0f3fb214e139031460b
:10dc600004a8fbf7cdfc0128054692d10146306897
:10dc700002f024f81b4b01931b4b00932a46002310
:10dc80000a211a48fef77efa194b07461860002849
:10dc900081d0fef7d3f90026024600963346294686
:10dca0003846fef78afa01287ff475af24f0d6fad9
:10dcb0002cb11049201d24f0ddfa35466be72546ce
:10dcc00069e717b0bde8f08f80fd004008a20f00a3
:10dcd00000301200ed220f00002c12001ba20f00da
:10dce00000f0110004f011002d220f0043a20f00dc
:10dcf0002cf011001d150f0010b50c4601f004f8b2
:10dd00002146fff727ff002010bd37b5044600204d
:10dd10000d46fef739fffef74fff00224ff4007368
:10dd2000cde90023082104230120fef705ff01208f
:10dd3000fef72aff2946204603b0bde83040fef733
:10dd400051bf0000013870b50d4616461c46042828
:10dd500008d8dfe800f003090d1115001748fef799
:10dd600005fc88b1012028e01448fef71bfcf8e709
:10dd70001248fef733fcf4e71048fef749fcf0e7e1
:10dd80000e48fef761fcece7324629460b48fef7e9
:10dd900077fc0028e6d121460848fef791fc0028d0
:10dda000e0d10648fef7aafc0028dbd1034c204650
:10ddb000fef7a4fc0130fad0002070bd0ce010008a
:10ddc00008b540210448fef71dfd044b1860b0fa69
:10ddd00080f0400908bd00bffce0100008e0100022
:10dde0002de9f04f9bb03a4f9df898b09df89040c8
:10ddf000ddf894801d463b68199381460e46924695
:10de0000fff7deffbbf1000f3dd1fff7d9ff30b1c7
:10de10000120199a3b689a4256d006f0b1f91cb11c
:10de2000012c2ad00320f4e72a4b04a81968fef736
:10de3000b5fc04ac0fcc0df1500cace80f0023681e
:10de4000ccf800300aabcde90c5601932e440eab52
:10de5000cde90a5a0e95cde90f65cde911950093ec
:10de60004d440cab12aa10a914a81395fef7e8fcb8
:10de700040bb002088f80000cbe7164b04a81968c7
:10de8000fef758fcd5e70023134c0294cde900338c
:10de90005246302302210320fef7c0fd0028b7d1ef
:10dea0000e492046fef7e6fd0028b1d18423cde9d6
:10deb00000633022012349460848fef7f9fd002897
:10dec000a6d1d6e70520a4e71bb0bde8f08f00bfc0
:10ded00080fd004008e01000f0e110003ce110007f
:10dee00070b51c4e1c4c33681c4a86b00221059349
:10def0008423adf812300023cde90033029430239f
:10df00000320fef78bfd30b10120059a33689a4259
:10df10001ed006f035f912492046fef7abfd01464a
:10df20000028f1d10df1120302930e4d019501234a
:10df30000093204630230c4afef744fd0446002897
:10df4000e2d12846bdf8121003f044fd2046dce77c
:10df500006b070bd80fd0040f0e11000a4e21000aa
:10df60003ce11000d6e2100074e210002de9f04f01
:10df7000adb0554dddf8dca0399f3b9e1c469df8a9
:10df8000f430884629682b91934681469df8f82005
:10df9000002b53d1fff714ff40b101242b9a2b68bb
:10dfa0009a42204600f08d8006f0eaf8b9f1000fa1
:10dfb00008d0b9f1010ff0d1444b06a81968fef75b
:10dfc000b9fb04e0414b06a81968fef7e7fb0df129
:10dfd000180cbce80f000df1380eaee80f00dcf8ad
:10dfe0000030cef800303a49369b3898394ac1e9ba
:10dff0000034394bc2e900b8c3e9000adff8f08009
:10e000003a98c8e900073c98344fc7e900060091e8
:10e01000cde901870ea90ca8fef76efc0d9c002c23
:10e02000bcd10c9e3046fef76dfd04460028b4d1ed
:10e030003a4641463046fef7f3fdafe7012b3ed1ad
:10e040000ab30df14c09dff8aca005936022002162
:10e050004846aaf800202cf0bcf8059b0093224605
:10e06000369b0021cde9019a4046fef783fc302221
:10e070004946044638462cf0a3f830221fa9304602
:10e080002cf09ef88ae704f1d801154b14220420e5
:10e09000fff758fe134b4ff48e7221460420fff712
:10e0a00051fe4ff48e712046fff71aff30220e49c1
:10e0b000044638462cf084f830220c49dfe700246f
:10e0c0006ce72db0bde8f08f80fd004008e0100047
:10e0d00000e0100064e210006ce2100064e3100045
:10e0e000a4e2100074e21000d6e2100006e3100073
:10e0f0005ce31000d4e2100038b50446fef788fa5d
:10e1000000280fdb04f1f00504f1f802294620464f
:10e11000fef7a2fd29462046fef7bafd003018bfe3
:10e12000012038bd0120fce790f8f83170b50546b4
:10e130000e46144673b1002380f8f831fef768faf2
:10e1400008b1c0b20fe005f1f0012846fef7a0fdce
:10e150000028f6d144b1224631462846fef790fa0f
:10e16000044630b1c0b270bdd5f8002205f501718a
:10e17000f3e72846fef7aafd0028e2d12846fef77d
:10e18000bdfa0028ddd1012385f8f8312046eae701
:10e1900038b590f8f83104460d466bb9d4f8002232
:10e1a000d2b929462046fef78bfac0b298b920466c
:10e1b000fef7a4fac0b20ee0002380f8f831fef7b3
:10e1c00027fac0b238b904f1f0012046fef760fd2d
:10e1d000c0b20028e2d038bd04f501712046fef738
:10e1e0004ffac0b20028dcd0f5e70000044b1860fd
:10e1f000044b0022da7083f8972283f82b257047ae
:10e20000ecf2100070e310000948c37833b190f8c5
:10e21000973243b190f82b353bb902234ff4257266
:10e2200002fb030070470123f8e70020704700bf9e
:10e2300070e310004ff4257343431c4a2de9f04f5f
:10e240004ff48474d518d452194b29711b680026d9
:10e2500085b0ee70ebb10c2202fb0030d0e906284d
:10e260004769d3f81090039202244ff4800a4ff0cc
:10e27000180bb8f1000f0fd0cde900b643464a465f
:10e280002946384600f00cfc18b1013ce4b2ff2ce2
:10e29000efd105b0bde8f08fcdf800a0039b4a4652
:10e2a0002946384600f0defbeee700bf30eb1000f9
:10e2b000ecf2100030b5144c87b022680592ff22b2
:10e2c0008df81320b8b1c37c857802930df1130348
:10e2d0000193837c0093d0e90212038a4068fff720
:10e2e0007ffd014620b99df81310003118bf0121b0
:10e2f0002846fff79fff059a23689a4201d005f050
:10e300003fff07b030bd00bf80fd00402de9f04f5a
:10e310004ff42574444307461d484ff4837605198e
:10e320000653002609342b7285b0ee706a602044d3
:10e330002bf046ff174b1b68ebb10c2000fb07309e
:10e34000d0e906284769d3f80c90039202244ff4d1
:10e35000800a4ff0180bb8f1000f0fd0cde900b6ce
:10e3600043464a462946384600f09afb18b1013c1c
:10e37000e4b2ff2cefd105b0bde8f08fcdf800a0de
:10e38000039b4a462946384600f06cfbeee700bf87
:10e3900030eb1000ecf2100070b5b8b1047985785c
:10e3a0000b4bd0e902122046013ce4b2fff7cafc55
:10e3b000042c98bf074a064998bf125d034688bfe0
:10e3c00010222846bde87040fff7a0bf70bd00bf17
:10e3d000f0f210004da20f002de9f04f4ff425731d
:10e3e000434304461e484ff4f976c518c652043319
:10e3f000002685f88822184485b0ee704ff421720b
:10e400002bf0defe174b1b68ebb10c2000fb043039
:10e41000d0e906284769d3f80c90039202244ff400
:10e42000800a4ff0180bb8f1000f0fd0cde900b6fd
:10e4300043464a462946384600f032fb18b1013cb3
:10e44000e4b2ff2cefd105b0bde8f08fcdf800a00d
:10e45000039b4a462946384600f004fbeee700bf1e
:10e4600030eb1000ecf210002de9f04f4ff4257462
:10e47000444306461e4840f2031707530519002778
:10e48000bb4285b0ef702a7185f8853003dd053415
:10e4900020442bf095fe174b1b68ebb10c2000fbc2
:10e4a0000630d0e906274669d3f80c80039202248f
:10e4b0004ff480094ff0000a4ff0180b7fb1cde9ff
:10e4c00000ba3b4642462946304600f0e9fa18b108
:10e4d000013ce4b2ff2cf1d105b0bde8f08fcdf8de
:10e4e0000090039b42462946304600f0bbfaeee717
:10e4f00030eb1000ecf2100070b578b10479802c8c
:10e500000cd8857806482146fff7fffb22460346d4
:10e5100003492846bde87040fff7a6bf70bd00bfa5
:10e5200030f31000f0b5214dadf5237d2a68a1929e
:10e53000044668b190f890728678011d4ff42172fc
:10e5400068462bf03dfe012f11d03fb1022f14d0b1
:10e55000a19a2b689a4226d005f012fe6846fff772
:10e56000cbfd024669463046fff736fff0e7d4e9b7
:10e57000a2126846fff7d8fdf3e7402200210c48bd
:10e580002bf027fe0a496846fff702fe7f9a0446f1
:10e59000002181a82bf01dfe23463022044930467d
:10e5a000fff7b4fed4e70df5237df0bd80fd0040fc
:10e5b000f0f210002de9f04f0d4685b029b3194b4c
:10e5c0001b6813b340f2f1120a800c2202fb0030e8
:10e5d000d0e9062800264769d3f81090ce70039240
:10e5e00002244ff4800a4ff0180bb8f1000f0fd03f
:10e5f000cde900b643464a462946384600f050fa6f
:10e6000018b1013ce4b2ff2cefd105b0bde8f08faa
:10e61000cdf800a0039b4a462946384600f022fa6e
:10e62000eee700bfecf210002de9f04f04468db08c
:10e63000002838d065690b95a569877823690a9306
:10e640002b464ff425757d43d4e90212d4f81ce023
:10e6500094f820a094f821b0144c00792e1d4ff0ae
:10e66000000c04f806c004eb060805f1380604ebbc
:10e67000060904f806c03026cde9013e0b9b009345
:10e68000cde90596cde903860a9bcde907abfff7f7
:10e690006dfc6119c86638464e638e660db0bde8e4
:10e6a000f04ffff787bf0db0bde8f08f30eb1000e3
:10e6b00070b5174d2a6852b30026fff7a5fd044632
:10e6c00028b32b6801460022186800f00cfaf0b954
:10e6d0002378023b072b08d8dfe803f0040715096d
:10e6e000070d07112046fff707ffe670e5e7204614
:10e6f000fff752fef9e72046fff7dcfdf5e720467d
:10e70000fff792fff1e72046fff70cffede770bd42
:10e71000ecf2100073b5124cfff768fd2068e8b109
:10e7200000231a461946c0680e4efdf7bbfc206850
:10e730000d4c006900231a461946fdf7b3fc4ff053
:10e74000ff3500950023012231462068fdf75cfd6e
:10e750000302f6d52046fff7abfff2e702b070bd2b
:10e76000ecf210000100800000f410002de9f047e9
:10e77000394c92b0236811938a46814603f0a4ff76
:10e78000804603f0a5ff064603f0aeff074603f000
:10e79000afff0546b8f1000f07d14ff0ff30119ad7
:10e7a00023689a4254d005f0ebfc002ff5d03622b6
:10e7b00000210df10a002bf00cfd284b0193284b92
:10e7c0001093284b00934ff40073adf808300723e3
:10e7d0000493254bcdf80c90cde9053a06f1ff3aac
:10e7e00016b11aea060f03d02049732003f038fd52
:10e7f0001aea080f03d01d49742003f031fdcde95a
:10e80000078603f01dfe6e1e09900db12e4203d047
:10e8100016497a2003f024fd3e4203d013497b20a1
:10e8200003f01efdcde90a7503f00afe104d0c90b1
:10e8300029466846faf7e4fe0128aed128680f2180
:10e8400001f03cfa0b4bd9f804201a600020a6e72f
:10e8500012b0bde8f08700bf80fd004052a20f005b
:10e8600004f5100015e70c0000f811005ea20f007f
:10e8700000f5100000f4100010b50c4602f0f8fc92
:10e880002146bde81040fff771bf08b501f042fa1c
:10e8900000f0d6f902f09cfc02f0fcfc00f046fa15
:10e8a00002f0ecfd02f058fd00f030f900f096fcab
:10e8b00002f0e8fe00f09afa00f056fd00f022faad
:10e8c00002f0d4fc02f034fd00f07cfa02f07efe8f
:10e8d00002f0aefd00f080f900f0f0fc02f050ff15
:10e8e00000f0c8fbbde8084000f0cebd37b50d46ce
:10e8f0000446114660b100230093026d031d2846b3
:10e90000fdf716fc2060b0fa80f0400903b030bd7e
:10e910000120fbe708b540b139b10022fdf7d8fb73
:10e9200010f1ff3018bf012008bd0120fce708b539
:10e9300038b131b1fdf7ccfb10f1ff3018bf012029
:10e9400008bd0120fce770b50e461c46054608b917
:10e95000012070bd0029fbd072b90023012231468d
:10e960002846fdf79ffb0128f2d16cb1049920469f
:10e97000fdf763fc0020ece74ff0ff311046fdf798
:10e98000b9fb0028e4d0e8e72046e2e710b51346db
:10e9900051b148b102b101230522fdf783fb10f10b
:10e9a000ff3018bf012010bd0120fce737b5114c26
:10e9b0001346226801920022009231b90120019a87
:10e9c00023689a4213d005f0dbfb0028f6d003b190
:10e9d00001236a46faf7c2fa0128efd1009800280d
:10e9e000edd0054b4ff080521a600020e7e703b0ee
:10e9f00030bd00bf80fd004004ed00e008b549b126
:10ea000040b14ff0ff32fdf763fb10f1ff3018bf4c
:10ea1000012008bd0120fce770b50e461c460546e6
:10ea200008b9012070bd0029fbd0002bf9d08ab9ac
:10ea30000023012231462846fdf734fb0128f0d19e
:10ea40009df8142004a92046fff7a0ff003018bf4e
:10ea50000120e7e74ff0ff311046fdf74bfb0028a0
:10ea6000dfd0e5e770b514461d4608b9012070bd3a
:10ea70000029fbd000230122fdf714fb0128f5d16a
:10ea80001db104992846fdf7d8fb3cb100231a4676
:10ea900019462046fdf706fb0020e8e72046e6e79a
:10eaa00070b515461c4610b90124204670bd0029da
:10eab000fad0002bf8d000230122fdf7f3fa012849
:10eac000f2d120469df8142004a9fff75fff041c33
:10ead00018bf0124002de8d000231a461946284605
:10eae000fdf7e0fae1e770b50c461646012530b1b6
:10eaf00029b1cd70fff70eff18b10023e37028464f
:10eb000003e06378b34200d0e07070bd2de9f347b5
:10eb1000284f294b3b655c2202213846fff7e6fe71
:10eb20002648274c274edff8a890dff8a8a0264dee
:10eb3000fdf75cfb3b68c9f80000c4e905305c22c6
:10eb4000224b336502213046fff7d0fe4ff0030819
:10eb5000002253461146cdf800800120fdf7e8fa67
:10eb60000022114628600af14c03cdf800800120f4
:10eb7000fdf7defa33682362a36963622b6868607d
:10eb8000c4e911300b21386801f0aef84146306815
:10eb900001f0aaf82868102101f098f8686820218f
:10eba00001f094f8d9f80000042102b0bde8f04764
:10ebb00001f0a2b8cc291000242a1000002810006f
:10ebc00000e01100bc281000b42810001429100027
:10ebd000182810001c28100010b50f4c0020d4e994
:10ebe0000632616900f094f800f08ef80368236043
:10ebf000c368236143686360d4e905120369e36075
:10ec0000012000f0dffa00f0d9fa4369e364836978
:10ec10002365c36aa36510bd00e01100004870477a
:10ec200000e01100012830b506d8044c0c2505fb86
:10ec30000040c0e90c32c16230bd00bf00e01100ed
:10ec40002de9f341264e274d274b33655c220221e7
:10ec50003046fff74bfe254f254b2b655c220121eb
:10ec60002846fff743fe4ff0030800223b461146bb
:10ec7000cdf800800120fdf75bfa1e4ccdf8008036
:10ec8000002207f14c03114620600120fdf750fae5
:10ec900060601948194ffdf7a9fa194b29683268c5
:10eca000d9602168196161685961c3e90020386041
:10ecb0000021104601f018f82868012101f014f82d
:10ecc0002068012101f002f86068022100f0feffd7
:10ecd0003868012102b0bde8f04101f00db800bf75
:10ece000982b1000a82c1000f02b1000f82a100010
:10ecf000002d1000902b1000dc2a1000f42a1000c8
:10ed000030f01100704700000048704730f01100eb
:10ed1000012830b506d8044c0c2505fb0040c0e99d
:10ed20000732816130bd00bf30f01100f7b51e4dd4
:10ed30001e4b1f4e2b65302205212846fff7d6fdbe
:10ed4000032700223346114600970120fdf7f0f912
:10ed5000184c0097002206f14c0311462060012058
:10ed6000fdf7e6f960601448144efdf73ffa144bc6
:10ed70002a682168d96061681961c3e900203060a0
:10ed80000221104600f0b0ff2068042100f09eff31
:10ed90006068082100f09aff3068022103b0bde8e6
:10eda000f04000f0a9bf00bf182e1000702e100018
:10edb000782d1000102e10005c2d1000742d100006
:10edc00000601100704700000048704700601100ab
:10edd000042830b506d8044c0c2505fb0040c0e9da
:10ede0000632416130bd00bf006011002de9f74fd0
:10edf000854d864cdff86cb2854b2b6501222e21a8
:10ee00002846fff773fd2b68e3613022814bcbf876
:10ee1000503001215846fff769fd7f487f4edff8eb
:10ee200048a2dff84892dff84882fdf7dff97c4b13
:10ee30001860dbf800304ff4dc72c4e905300121c2
:10ee4000784b33653046fff751fd032500220095ce
:10ee50001146754b0120fdf76bf933682362a369f6
:10ee60006362e369714a724e1060c4e90a30714b03
:10ee7000714a1a6501215c221846fff737fd6d4b78
:10ee80001a68a265a269e265e26922666b4acaf85d
:10ee9000502001214ff425725046fff727fddaf884
:10eea0000020674ba169a267e269c4f880201f4671
:10eeb000c4e92612634a1a651846e1673022012127
:10eec000fff714fd3a68c4f8b020a269c4f8b42072
:10eed000e269c4f8b8205c4ac9f8502002213822ff
:10eee0004846fff703fdd9f80020c4f8cc20a269fa
:10eef000c4f8d020e269c4f8d420544ac8f850209d
:10ef0000294638224046fff7f1fcd8f80020c4f823
:10ef1000d820a2694e4fc4f8dc20e269c4f8e02092
:10ef20004c4a3a65294638223846fff7dffc3a68f2
:10ef3000c4f8e420a269484dc4f8e820e269c4f8a6
:10ef4000ec20464a2a6501214ff4e8722846fff773
:10ef5000cdfc2a68c4f80021a269c4f80421e26942
:10ef6000c4f808213e4a3265012128223046fff7c5
:10ef7000bdfc3268c4f81c21e269c4f82421dbf826
:10ef80000000a269c4f820210c2100f0adfe294b3d
:10ef90000d21186800f0a8fedaf800000e2100f03c
:10efa000a3fed9f80000182100f09efed8f800005a
:10efb000192100f099fe38681a2100f095fe30689a
:10efc000164e1b2100f090fe28680f4d1c2100f00a
:10efd0008bfe3068042100f087fe194b222118684f
:10efe00000f082fe2868242100f07efe0f4a4021b6
:10eff000106800f06bfe0a4b1868082103b0bde8ea
:10f00000f04f00f079be00bf084b100000801100e7
:10f01000604b1000cc4f100000481000602f100013
:10f0200018481000001810002464100070641000cc
:10f03000f44e1000404e1000984e1000744810001e
:10f04000904b1000e84b1000545210005450100028
:10f05000fc50100054511000184c1000704c10005f
:10f060004c4f1000744f10001c481000fc51100051
:10f07000fc4f100013b5504c0020d4e906326169f2
:10f08000fff7a6fefff7a0fe0368236043686360f6
:10f09000c368e3600369a16d23610120d4e91732dd
:10f0a000fff7c0fdfff7bafd036aa364436ae36498
:10f0b000836ca16f63650120d4e91f3202f0dcf894
:10f0c00002f0d6f8036863664368a366c3682367e3
:10f0d0000369d4f8941063670020d4e9263202f063
:10f0e0002df902f027f90368c4f884304368c4f8a6
:10f0f0008830c368d4f8b010c4f890300020d4e948
:10f100002d3202f065fb02f05ffb0368c4f8a0300b
:10f110004368c4f8a430c368d4f8cc10c4f8ac3049
:10f120000020d4e9343200f005f900f0fff8036a5a
:10f13000c4f8bc30436ac4f8c030836bc4f8c8302c
:10f140000021d4f8dc300093d4f8d820d4f8e03093
:10f15000084600f0f7f8d4f8e8300093d4f8e4203b
:10f16000d4f8ec300121002000f0ecf8d4e9413271
:10f17000d4f80011002002f077fa02f071fa036867
:10f18000c4f8f0304368c4f8f430c368c4f8fc3005
:10f19000d4f81c11d4e94832002002f061f902f0e1
:10f1a0005bf90368c4f80c314368c4f81031c368d4
:10f1b000c4f8183102b010bd00801100004870473b
:10f1c0000080110010b501289fbf034b0c2404fbe5
:10f1d0000030c0e90c1210bd008011002de9f7438a
:10f1e0002b4f2c4b3b65302201213846fff77efb2d
:10f1f00029482a4c2a4edff8bc902a4ddff8b88007
:10f20000fcf7f4ff3b68c9f80000c4e905304ff48f
:10f21000ef62254b336501213046fff767fb002283
:10f22000032300931146214b0120fcf781ff336833
:10f230002362a369c8f800004ff4e8726362a06318
:10f240001b4b2b6501212846fff750fb2b68c4f8a8
:10f2500084303868a369c4f888301421c4f8a43015
:10f2600000f042fdd9f80000202100f045fd306893
:10f27000162100f039fd2868172100f035fdd8f877
:10f2800000004ff4005103b0bde8f04300f01ebd94
:10f2900058551000b0551000c452100000c01100a5
:10f2a000e0551000e05210003856100008551000cc
:10f2b00038531000dc5210005455100010b51a4c91
:10f2c0000120d4e906326169fff782fdfff77cfd7a
:10f2d0000368236043686360c368e3600369d4f82c
:10f2e000841023610220d4e9223202f0bdf902f039
:10f2f000b7f9036863674368a3674369c4f880305c
:10f30000d4f8a010d4e92932022002f0a9f802f0c2
:10f31000a3f80368c4f890304368c4f89430c36815
:10f32000c4f89c3010bd00bf00c0110000487047f9
:10f3300000c0110018b90248c0e90c32c162704720
:10f3400000c0110010b5029c20b921b90549c1e9de
:10f3500013438a6410bd012902bf02494a66c1e90c
:10f360001a43f7e700c011002de9f047dff80c91d0
:10f37000384bc9f850305c2202214846fff7b6faf4
:10f380003548364cdff8f880dff8f8a0344f354eba
:10f39000354dfcf72bffd9f80030caf80000c4e95e
:10f3a00004303022314bc8f8503001214046fff77d
:10f3b0009dfad8f80030236363696363a369a3638c
:10f3c0004ff4dc722a4b3b6501213846fff78efa79
:10f3d0003b68e36463692365a36963654ff4257241
:10f3e000244b336501213046fff780fa3368e3662a
:10f3f00063692367a36963674ff4e8721e4b2b654b
:10f4000001212846fff772fa2b68e3676369c4f8a5
:10f410008030d9f80000a369c4f884300f2100f0cf
:10f4200063fcd8f80000102100f05efc3868112160
:10f4300000f05afc3068122100f056fc28682321a5
:10f4400000f052fcdaf800001021bde8f04700f0af
:10f4500053bc00bf245e1000b05d100000c010005f
:10f460007464100000241200b82f1000345f1000e4
:10f47000645f1000b819100010301000cc5d10004f
:10f48000dc5e1000c85d100010b52c4c0020d4e9e3
:10f4900005322169fff7c6fbfff7c0fb036a236053
:10f4a000436a6360836aa360436c216be36002205c
:10f4b000d4e90d32fff78cfcfff786fc0368e361ab
:10f4c0004368236283686362c368a362d4e913124a
:10f4d0000369e3620020fff775fefff76ffe036a22
:10f4e000e363436a2364836a6364c36ae16ea3646b
:10f4f0000020d4e91c3201f0bffe01f0b9fe036820
:10f50000a3654368e36583682366c368636603692c
:10f51000a366e16fd4e92032032002f0a5f802f0df
:10f520009ff84368c4f88c300368c4f88830836857
:10f53000c4f890308369a36710bd00bf00c01000fd
:10f540000048704700c01000f0b5084d2b785d2bc7
:10f550000ad8074f0c245c433e19013338557160bb
:10f5600032722b700020f0bd0120fce7352512001f
:10f57000d8381000f0b5084d2b78132b0ad8074f58
:10f580000c245c433e1901333855716032722b7084
:10f590000020f0bd0120fce7073f1000f43d100003
:10f5a000f0b5084d2b78182b0ad8074f0c245c4374
:10f5b0003e1901333855716032722b700020f0bd56
:10f5c0000120fce7342512008432100030b5084dcc
:10f5d0002b78a92b0ad8074c04f8230004eb8304ea
:10f5e0000133617062802b70002030bd0120fce788
:10f5f000ec6510004c1c1000f0b5084d2b786d2bfd
:10f600000ad8074f0c245c433e190133385571600a
:10f6100032812b700020f0bd0120fce7053f100077
:10f62000b033100030b5084d2b78282b0ad8074c82
:10f6300004f8230004eb83040133617062802b70b3
:10f64000002030bd0120fce7043f1000e031100035
:10f6500010b5084c2378032b9fbf074a02f83300ec
:10f6600002ebc30201339dbf5160237000200120d3
:10f6700010bd00bfed651000e43e100010b5084c51
:10f680002378032b9fbf074a02f8330002ebc30223
:10f6900001339dbf516023700020012010bd00bfc9
:10f6a000ee651000cc65100070b50d4e33780e2b52
:10f6b00013d88a0f11d0013ad2b2022a0dd00c25ec
:10f6c000084c5d43605503eb4300024404eb8204a5
:10f6d000013361603370002070bd0120fce700bf82
:10f6e000063f1000403d100088b1431e03400ed17c
:10f6f00010f0010f03f1010303d0dbb2581e40b23a
:10f700007047dbb2202b4fea5000f1d1f6e74ff003
:10f71000ff30704730b5074a002352f82350854226
:10f72000dcb202d10c70002030bd0133122bf4d1b9
:10f730000220f9e7ec241200f7b51c4d2b68019369
:10f740000f4600230df1030116468df80330fff735
:10f75000e1ff40b9164a034652f823108f4204d005
:10f760000133202bf8d1022017e001249df803205b
:10f7700010499c4014234f6834ea070706d10f78dc
:10f78000974203d10f7a36ea070706d0013b13f000
:10f79000ff0301f10c01eed10120019a2b689a427e
:10f7a00001d004f0edfc03b0f0bd00bf80fd0040cf
:10f7b0004c651000f43d10002de9f341264d2b68f7
:10f7c00001930e46174602f061f9fcf75ffc002337
:10f7d0000df1030180468df80330fff79bff0446cf
:10f7e00098b91e4a034652f823108e420fd00133b7
:10f7f000252bf8d1022f08d1194a002352f82310e3
:10f800008e421fd00133202bf8d1022411e09df845
:10f810000320144900230878904203d1087a37ea7c
:10f82000000006d00133dbb25e2b01f10c01f2d1f6
:10f83000012402f041f9019a2b689a42204608d02f
:10f8400004f09efc082231464046fff775ff04464f
:10f85000efe702b0bde8f08180fd004058241200bf
:10f860004c651000d838100038b50d46044602f03b
:10f870000df9fcf70bfc21462a46fff75dff044615
:10f8800002f01af9204638bdf7b5204d2b680193d8
