:020000040000fa
:02000004000cee
:108000000060120051830c00c9830c0001330d0085
:108010001d330d001b330d001f330d00c1830c00f9
:10802000c1830c00c1830c00c1830c00a5860c0029
:10803000c9830c00c1830c00d1850c0075860c002f
:108040004d340d0077340d00ed340d0089350d00f1
:10805000e9350d0021330d0025330d00c9830c00d7
:10806000c9830c00c9830c0029330d00c1830c00a7
:1080700061330d0095330d00c9830c00b5330d003d
:10808000c1830c00c9830c00c1830c00c1830c00a8
:10809000c9830c00c9830c00c9830c00c9830c0080
:1080a000c9830c00c9830c00c9830c00c9830c0070
:1080b000c9830c00c9830c00c9830c00c9830c0060
:1080c000c9830c00c9830c00c1830c00c1830c0060
:1080d000c1830c00c1830c00c1830c00c1830c0060
:1080e000c9830c00c1830c00c1830c00c1830c0048
:1080f000c1830c00c1830c00c1830c00c1830c0040
:10810000c1830c00c1830c00c1830c00c1830c002f
:10811000c1830c00c1830c00c1830c00c1830c001f
:10812000c1830c00c1830c00c1830c00c1830c000f
:10813000c1830c00c1830c00c1830c00c1830c00ff
:10814000c1830c00c9830c00c1830c00c9830c00df
:10815000c9830c00c1830c00c1830c00c1830c00d7
:10816000c1830c00c1830c00c1830c00c1830c00cf
:10817000c1830c00c1830c00c1830c00c1830c00bf
:10818000c1830c00c1830c00c1830c00c9830c00a7
:10819000c9830c00c1830c00c1830c00c1830c0097
:1081a000c1830c00c1830c00c9830c00c9830c007f
:1081b000c9830c00c1830c00c1830c00c1830c0077
:1081c000c1830c00c1830c00c1830c00c1830c006f
:1081d000c1830c00c1830c00c1830c00c1830c005f
:1081e000c1830c00c1830c00c1830c00c1830c004f
:1081f000c1830c00c1830c00c1830c00c9830c0037
:10820000c9830c00c9830c00c1830c00c1830c001e
:10821000c1830c00c1830c00c1830c00c1830c001e
:10822000c1830c00c1830c00c1830c00c1830c000e
:10823000c1830c00c1830c00c1830c00c1830c00fe
:10824000c1830c00c1830c00c1830c00c1830c00ee
:10825000c1830c00c1830c00c9830c00c1830c00d6
:10826000c1830c00c1830c00c1830c00c1830c00ce
:10827000c9830c00c9830c00c1830c00c1830c00ae
:10828000c1830c00c1830c00c9830c00c9830c009e
:10829000c9830c00c9830c00c9830c00c9830c007e
:1082a000c9830c00c9830c00c9830c00c1830c0076
:1082b000c1830c00c1830c00c9830c00c1830c0076
:1082c000c1830c00c1830c00c1830c00c1830c006e
:1082d000c1830c00c1830c00c1830c00c1830c005e
:1082e000c1830c00c1830c00c1830c00c9830c0046
:1082f000c1830c00c9830c00c9830c00c1830c002e
:10830000c1830c00c1830c00c1830c00c1830c002d
:10831000c1830c00c9830c00c9830c00c9830c0005
:10832000c9830c00c9830c00c9830c00c9830c00ed
:10833000c9830c00c9830c00c9830c00c9830c00dd
:10834000c9830c00c9830c0000bf00bf704700bf89
:10835000144a154b1a60bff34f8fbff36f8f13682a
:1083600083f30888bff36f8f83f30988bff36f8fa0
:10837000fff7eaff0d490e4a0e4b9a42bebf51f875
:10838000040b42f8040bf8e70b490c4a0020914219
:10839000bcbf41f8040bfae72cf0feff2df010f9fa
:1083a00009f0d8fa00800c0008ed00e074740f00aa
:1083b000000010000014100000141000b82112007a
:1083c0004ff00d00fee700bffee700bf0000000019
:1083d00004232022904204d901331f2b4fea42028a
:1083e000f8d158007047dff804040068006880f393
:1083f0000888174b1968086801f10401bff35f8f03
:10840000fb4a136823f001031360fa4ab1e8f00f46
:1084100082e8f00f01f12001f74af0c982e8f0008c
:10842000f34a136843f001031360bff34f8fb0e8c2
:10843000f84f83f3148880f309884ff0000080f32d
:1084400011887047aff30080aff30080aff3008076
:10845000cc601000836913f8022c012a09d002d3e2
:10846000022a0fd070470e4a136843f01f4313606f
:10847000b9e70c4b4ff080521a60bff34f8fbff338
:108480006f8f7047084a934208d3084a934205d831
:10849000eff3148121f0010181f31488704700bfcc
:1084a0001ced00e004ed00e000c00c0054dc0c000a
:1084b00010b5012b40f8202c21f001016ff00202d1
:1084c00040f8081c40f8242c4ff080744ff0000155
:1084d000a0f148020cbf0223032340f8044c40f8eb
:1084e0000c1c40f8483c104610bd054b1b68b3f50a
:1084f0007a7f04d0034940f2092009f0e7b97047b8
:108500000000100097570f00f8b50446174606986c
:10851000002928d1294b2a4843f014022260c01aae
:10852000fff756ff274b03436360274b274843f071
:108530001502c01aa260fff74bff162340f08370ac
:1085400040f0011023611723e0606161a361e161e4
:10855000002f2dd03b6823647b686364bb68a364f1
:10856000fb68e364f8bd40b143f01403236080006e
:10857000fff72eff134b034363602546052648682b
:1085800046f0100288b10b681343ab60fff720ff81
:108590008b6843f001030343eb600136082e01f1c1
:1085a0000c0105f10805ead1d2e7aa60e860f4e71a
:1085b0004ff0ff3323646364a364d2e7000010002c
:1085c000006012000100070300181000006810008e
:1085d000eff30980bff36f8f254b1a681ef0100f61
:1085e00008bf20ed108aeff3148120e9f24f1060ec
:1085f0002de909004ff0a00080f31188bff34f8fe1
:10860000bff36f8f02f0b4f84ff0000080f31188d1
:1086100009bc1968086801f10401bff35f8f744a4f
:10862000136823f001031360724ab1e8f00f82e887
:10863000f00f01f12001704af0c982e8f0006c4aa5
:10864000136843f001031360bff34f8fb0e8f84f96
:1086500083f314881ef0100f08bfb0ec108a80f36b
:1086600009887047aff30080aff30080aff300805c
:10867000cc60100010b5eff311844ff0a00383f32a
:108680001188bff36f8fbff34f8f01f0b7fd18b1a3
:10869000034b4ff080521a6084f3118810bd00bf65
:1086a00004ed00e01ef0040f0cbfeff30880eff3c1
:1086b0000980cfe613b5574b574c1a78d2b20192c6
:1086c000ff221a701b78dbb28df803309df803305f
:1086d00003f0a00323700723636000229df80310ba
:1086e000090603f1ff3000f18b8002b1636063681b
:1086f000042b04d0494940f2c71009f0e7f8636839
:10870000444a1b0203f4e0636360019b444cdbb208
:108710001370444b1a6842f460021a601a6842f0ff
:1087200060421a602268b2f5006f04d03b494ff4f2
:10873000317009f0cbf82368b3f5006f38d13a4bac
:108740003a4c3b4843f010022260c01afff740fe4b
:10875000384b394903430b60384b394843f0110219
:108760002260c01afff734fe364b03430b60364bd2
:10877000364843f012022260c01afff729fe40f08b
:108780008370334b40f00110086023606ff060404d
:10879000fff71efe40f098502e4a40f0010008609e
:1087a000136843f480331360136f43f005031367ba
:1087b00008f0c2fd284b0020186008f081fd274a10
:1087c000136843f04043136008480068006880f372
:1087d00008884ff0000080f3148862b661b6bff3da
:1087e0004f8fbff36f8f00df00bf000008ed00e088
:1087f00094ed00e09ced00e0f001084002b010bdf7
:108800009df803305b00dbb28df803300122034694
:1088100064e700bf00e400e09810120097570f00d3
:1088200090ed00e020ed00e000800c009ced00e009
:108830000000100001000706a0ed00e000800c0021
:1088400000c00c00010007050018100000681000af
:108850001300004024ed00e00000100034ef00e0c1
:1088600013b5044618b90b49682009f02ff81823ee
:108870000193019b182b03d00649702009f026f8bc
:108880002cb12046002340f8043b00f08bf9204631
:1088900002b010bdd4570f002de9f843089f0d46d4
:1088a00090469946064620b93a4940f24d1009f0e3
:1088b0000df815f07f4f2bd036494ff4a77009f013
:1088c00005f802f015f808b9002f5cd110213046e8
:1088d00006f034fd002854d101f0e6fb346805eac7
:1088e0000403b9f1000f19d1d3b907b3b8f1000fe0
:1088f0000cbf00214ff08071b9f1000f01d041f0a1
:1089000080613a462943301d01f07cfe00240ee0d0
:10891000002dd6d11f4940f24f10d0e79d42e4d13f
:10892000b8f1000f02d024ea05033360002701f0fc
:10893000ddfcd7b138b9184b4ff080521a60bff345
:108940004f8fbff36f8f01f0b9ff830104460ad444
:1089500008f0c0fc346805ea0403b9f1000f07d140
:1089600043b908f0cdfc24f07f442046bde8f883ed
:108970009d42f6d1b8f1000ff3d024ea0505356029
:10898000efe70024f1e703494ff4a97008f09effd8
:108990009ce700bfd4570f0004ed00e070b50c4613
:1089a000054620b90b494ff4f67008f08fff14f01c
:1089b0007f4f04d0074940f2ed1008f087ff08f020
:1089c00089fc2e6826ea04042c6008f099fc3046e5
:1089d00070bd00bfd4570f00f8b50f46044620b94c
:1089e0001e494ff40b7008f071ff17f07f4f04d051
:1089f0001a4940f22d2008f069ff2021204606f098
:108a00009dfc054638bb01f04ffb216820693943c6
:108a100004f10c0621608642216806d121ea050195
:108a2000216001f063fc2068f8bd90e8880013f035
:108a3000806f23f07f4203d10a4204d13846eae72f
:108a400032ea010efad1db0100d5154341f0007185
:108a500001f054fef2e70020f8bd00bfd4570f002c
:108a6000fff7babf70b504460d46164606f0aefcd9
:108a700038b933462a4621460348bde8704002f023
:108a800055b8002070bd00bf618a0c0012f07f4f06
:108a90002de9f0410646884615461f463ad028493a
:108aa000cf2008f013ff01f023ff08b9002f41d1b8
:108ab00001f0fafa34684146304644ea0804fff708
:108ac0008bff35ea04032ad1336823ea05033360b8
:108ad000002701f00bfcd7b138b91a4b4ff0805288
:108ae0001a60bff34f8fbff36f8f01f0e7fe830172
:108af00004460ad408f0eefb346835ea040304bfe8
:108b000024ea0505356008f0fbfb24f07f4420468d
:108b1000bde8f081002ac6d10949d020c1e73fb1a4
:108b20003a4645f0a061301d01f06cfd0024d0e70d
:108b30003468cee70249d32008f0c8feb8e700bf8a
:108b4000d4570f0004ed00e0eff311834ff0a002c3
:108b500082f31188bff36f8fbff34f8f006883f3e9
:108b60001188704770b5044601f09efa0b4e04f16f
:108b70000c0563681bb9bde8704001f0b7bb236901
:108b8000ab4204d1314640f2952008f09ffe4ff0f1
:108b90000071206901f0b2fdebe700bfd4570f0070
:108ba000fff7fcbe00f1080343604ff0ff32c360e3
:108bb00003610023826003607047002303617047f4
:108bc0000a68531c30b50ad103695a684a6091603b
:108bd0008b605960036808610133036030bd00f1a8
:108be00008035c682568aa42efd32346f9e7436887
:108bf0004b609a688a609a6851609960036808615e
:108c00000133036070474168826803698a60826843
:108c100051605968884208bf5a60002202611a6890
:108c2000013a1a601868704710b5044608f052fb04
:108c3000a46b08f065fbb4fa84f0400910bd70b570
:108c40001646026c856b044662b17eb940682cf012
:108c5000eafc6368226c1344a2686360934201d308
:108c6000236863600135a563002070bdc0682cf0e7
:108c7000dafc236ce26821685b421a448a42e260b3
:108c80003ebfa2689b18e360022eebd1002de9d015
:108c9000013de7e773b5846c019024b91b4940f6a8
:108ca000b33008f013fea26be36b9a4204d317496a
:108cb00040f6b43008f00afea26be36b9a4222d26f
:108cc00094f84550002201a92046fff7b8ff6db285
:108cd0006b1c06460bd1636a33b104f1240001f02a
:108ce000d5fc002818bf0126304602b070bd7f2d8c
:108cf00004d1064940f6d43008f0e8fd01356db2e4
:108d000084f84550f0e70026eee700bf00580f005a
:108d100070b5044608f0defa94f8455004f12406d4
:108d20006db2002d14dcff2384f8453008f0e8fa1a
:108d300008f0d0fa94f8445004f110066db2002dfa
:108d400018dcff2384f84430bde8704008f0d8ba3e
:108d5000a36c43b12046fff79dff08b101f0c0fdb1
:108d6000013d6db2dde7636a002bdcd0304601f0d7
:108d70008dfcf2e72369002be3d0304601f086fc3e
:108d800008b101f0adfd013d6db2d8e7034610b466
:108d90001a6c084662b1d9689c681144a142d96036
:108da00024bf1968d960d9685df8044b2cf03bbc2e
:108db0005df8044b70472de9f04f604f87b098463f
:108dc0003b68019289460593044620b95c494ff4fb
:108dd000447008f07bfdb9f1000f03d1236c002b28
:108de00040f09780b8f1020f03d1e36b012b40f004
:108df000968001f07dfd18b9019b002b40f0958015
:108e000002222146484606f033fa002839d1dff81d
:108e100034b10646824608f05dfaa26be36b9a42d3
:108e200002d3b8f1020f28d1424649462046a56b2d
:108e3000fff705ffa36cc3b1b8f1020f00d15db914
:108e40002046fff727ff38b13e4b4ff080521a60a3
:108e5000bff34f8fbff36f8f08f052fa0120059ace
:108e60003b689a4267d00af0d1fb636a002bead0d4
:108e700004f1240001f00afce5e7019d1db908f0aa
:108e80003ffa0020ebe716b903a801f041fd08f016
:108e900037fa01f009f908f01dfa94f84430ff2b75
:108ea00008bf84f844a094f84530ff2b08bf84f82d
:108eb00045a008f025fa01a903a801f033fd10bb75
:108ec00008f008faa66be56b08f01afaae4214d166
:108ed000019904f1100001f07bfb2046fff718ff19
:108ee00001f004fa38b94ff08053cbf80030bff3eb
:108ef0004f8fbff36f8f01268de72046fff708ffe6
:108f000001f0f4f9f7e72046fff702ff01f0eef970
:108f1000b7e70b4940f2113008f0d8fc62e7084986
:108f200040f2123008f0d2fc63e7054940f21530f8
:108f300008f0ccfc64e707b0bde8f08f80fd00408e
:108f400000580f0004ed00e02de9f0474f4b86b0cc
:108f5000884601921a6805920446994620b94c4900
:108f600040f2b36008f0b2fcb8f1000f03d1236cfb
:108f7000002b40f0818001f0bbfc30b9019b23b194
:108f8000434940f2bc6008f0a1fc00263746dff8f8
:108f900004a13ce0019d1db908f0b2f9002053e0a6
:108fa00016b903a801f0b4fc08f0aaf901f07cf8a6
:108fb00008f090f994f84430ff2b08bf84f844700f
:108fc00094f84530ff2b08bf84f8457008f098f9f5
:108fd00001a903a801f0a6fc002842d12046fff712
:108fe00023fe002837d0019904f1240001f0f0faa3
:108ff0002046fff78dfe01f079f938b94ff0805324
:10900000caf80030bff34f8fbff36f8f012608f00f
:1090100061f9a36b002bbdd041462046e568fff700
:10902000b5fe636ae56063b104f1240001f02efb34
:1090300038b1184b4ff080521a60bff34f8fbff317
:109040006f8f08f05df90120059ad9f800309a4237
:1090500018d00af0dbfa2046fff75afe01f046f975
:10906000d4e72046fff754fe01f040f92046fff711
:10907000dbfd0028cad091e7054940f2b76008f04f
:1090800025fc78e706b0bde8f08700bf80fd004012
:1090900000580f0004ed00e0f8b50d46044620b975
:1090a000164940f2a77008f011fc0db9236cf3b912
:1090b000236c23b9114940f2a97008f007fc08f0ad
:1090c0005ef9eff311864ff0a00383f31188bff32d
:1090d0006f8fbff34f8fa06b30b1e76820462946f2
:1090e000fff754fee760012086f31188f8bd0349bd
:1090f0004ff4f56008f0eafbdae700bf00580f0014
:109100002de9f047504f86b03b68019288460593a1
:10911000044620b94d4940f23a5008f0d7fbb8f167
:10912000000f02d1236c002b7ed101f0e1fb10b9be
:10913000019b002b7ed101222146002006f098f8e9
:1091400020bbdff80ca10646814608f0c3f8a56bea
:10915000c5b141462046013dfff718fea5632369ce
:1091600063b104f1100001f091fa38b1384b4ff0bf
:1091700080521a60bff34f8fbff36f8f08f0c0f8b3
:10918000012004e0019d45b908f0baf80020059ad5
:109190003b689a4254d00af039fa16b903a801f094
:1091a000b7fb08f0adf800f07fff08f093f894f8f3
:1091b0004430ff2b08bf84f8449094f84530ff2bcf
:1091c00008bf84f8459008f09bf801a903a801f0b6
:1091d000a9fbf0b92046fff727fda0b1019904f1e2
:1091e000240001f0f5f92046fff792fd01f07ef82a
:1091f00038b94ff08053caf80030bff34f8fbff338
:109200006f8f0126a1e72046fff782fd01f06ef87f
:10921000f7e72046fff77cfd01f068f82046fff7ee
:1092200003fd0028edd0b1e7084940f23e5008f0b8
:109230004dfb7ae7054940f2435008f047fb7ae7d7
:1092400006b0bde8f08700bf80fd004000580f0069
:1092500004ed00e010b5044620b9064940f2da708a
:1092600008f034fb08f036f8a46b08f049f8204603
:1092700010bd00bf00580f0038b5054620b907499a
:1092800040f2eb7008f022fb08f024f8a86bec6bbe
:10929000241a08f035f8204638bd00bf00580f00ea
:1092a00020b9034940f6070008f010bb704700bf23
:1092b00000580f002de9f047884691461f460446a6
:1092c00020b9344940f2eb3008f000fbb8f1000f50
:1092d00002d1236c002b50d1022f02d1e36b012b62
:1092e00051d108f04cf8eff311864ff0a00383f34f
:1092f0001188bff36f8fbff34f8fa26be36b9a425e
:1093000001d3022f37d194f84550d4f838a06db26c
:109310003a4641462046fff792fc6b1c1fd1a36cd6
:10932000abb1022f04d1baf1000f01d001200ae045
:109330002046fff7affc0028f8d0b9f1000ff5d0b8
:109340000120c9f8000086f31188bde8f087636a40
:10935000002bebd004f1240001f098f9ebe77f2d0e
:1093600004d10c4940f2764008f0b0fa01356db2f4
:1093700084f84550dae70020e5e706494ff47b70b2
:1093800008f0a4faa8e7034940f2ed3008f09efa8d
:10939000a7e700bf00580f00f8b50f46044620b9f4
:1093a000294940f2964008f091fa236c23b12649ee
:1093b00040f29a4008f08afa236813b9a368002b98
:1093c0003bd107f0dcffeff311864ff0a00383f3ee
:1093d0001188bff36f8fbff34f8fa36be26b934284
:1093e00029d294f8455001336db2a3636b1c16d19a
:1093f000a36c63b12046fff74dfc08b9012003e0e0
:10940000002ffbd00120386086f31188f8bd636a15
:10941000002bf3d004f1240001f038f9ede77f2da3
:1094200004d1094940f21e5008f050fa01356db2de
:1094300084f84550e2e70020e6e7034940f29f4008
:1094400008f044fabde700bf00580f002de9f843cb
:1094500089469046054620b925494ff4e96008f051
:1094600035fab9f1000f02d12b6c002b3ad107f07d
:1094700086ffeff311874ff0a00383f31188bff34a
:109480006f8fbff34f8fac6b54b395f84460494670
:1094900076b22846fff77afc013c731cac6313d10b
:1094a0002b690bb901200be005f1100001f0eef87b
:1094b0000028f7d0b8f1000ff4d00120c8f8000060
:1094c00087f31188bde8f8837f2e04d1084940f264
:1094d0008c7008f0fbf9013676b285f84460e1e75c
:1094e0002046ede7024940f2497008f0eff9bee787
:1094f00000580f0010b5044620b9054940f6611028
:1095000008f0e4f9a06bb0fa80f0400910bd00bf8c
:1095100000580f0010b5044620b9054940f68a10de
:1095200008f0d4f9e06ba36bc31a5842584110bd40
:1095300000580f0010b5044620b9034940f2fc70f2
:1095400008f0c4f9a06b10bd00580f002de9f043de
:109550004a4f87b03b6801910593044620b94849ba
:1095600040f2d35008f0b2f9236c23b1444940f2e1
:10957000d75008f0abf901f0bbf910b9019b002bf3
:1095800073d10421204605f0c9fe00bbdff8f4903a
:109590000646804607f09efea36ba3b1013ba36382
:1095a000236963b104f1100001f070f838b1354b54
:1095b0004ff080521a60bff34f8fbff36f8f07f0e9
:1095c0009ffe012004e0019d45b907f099fe0020af
:1095d000059a3b689a424ed00af018f816b903a8cb
:1095e00001f096f907f08cfe00f05efd07f072fec8
:1095f00094f84430ff2b08bf84f8448094f8453039
:10960000ff2b08bf84f8458007f07afe01a903a864
:1096100001f088f9f0b92046fff706fba0b10199e7
:1096200004f1240000f0d4ff2046fff771fb00f0a6
:109630005dfe38b94ff08053c9f80030bff34f8f4b
:10964000bff36f8f0126a5e72046fff761fb00f00f
:109650004dfef7e72046fff75bfb00f047fe204694
:10966000fff7e2fa0028edd0b1e7054940f2dc50ff
:1096700008f02cf985e707b0bde8f08380fd0040d5
:1096800000580f0004ed00e070b505460e4607f0e7
:1096900021feac6c3cb9ab6b0bb9ae64012407f096
:1096a0002ffe204670bd0024f9e738b5836c8b424d
:1096b000044608d1856b35b907f00cfea56407f0a8
:1096c0001ffe012038bd002038bd13b5094c2368aa
:1096d000019302ab002243f8082d0a461946fff712
:1096e0000ffd019a236800989a4201d009f08eff7d
:1096f00002b010bd80fd004013b5094c02a9002244
:10970000236841f8082d0193fff7a0fe019a236812
:1097100000989a4201d009f079ff02b010bd00bf55
:1097200080fd004070b504460d46164607f0d2fd98
:1097300094f84430ff2b04bf002384f8443094f89d
:109740004530ff2b04bf002384f8453007f0d8fdd7
:10975000a36b2bb93246294604f1240000f078ffb0
:109760002046bde87040fff7d3ba38b50d46044631
:1097700020b91a494ff48a7008f0a8f807f0aafd3a
:10978000216ce36b226862604b43d0185b1a134470
:10979000a060e3600020ff23a06384f8443084f8d5
:1097a000453095b9236963b104f1100000f06efff4
:1097b00038b10b4b4ff080521a60bff34f8fbff39d
:1097c0006f8f07f09dfd012038bd04f11000fff7f9
:1097d000e9f904f12400fff7e5f9f2e700580f007a
:1097e00004ed00e0f7b50d4616461c46074620b9c5
:1097f000194940f24f1008f069f824b9164940f2af
:10980000531008f063f80eb3d5b14c230193019bbc
:109810004c2b04d010494ff4b07008f057f8019b5e
:109820005cb1002d08bf26462660e7632564012150
:109830002046fff79aff0023a364204603b0f0bd43
:10984000054940f2571008f041f8dee7002ddcd062
:1098500001494ff4ac70f6e700580f0073b50d46a0
:109860001646044620b90c494ff4357008f02ef81e
:10987000ac4204d2084940f2d52008f027f8022370
:1098800000220093114633462046fff7abff00b19c
:10989000856302b070bd00bf00580f00f8b51a4cc8
:1098a0000546266863686068002283f89420543077
:1098b0000f46fff7a8f938b96268a368d16f012293
:1098c0008a4023ea0203a3606b1c07d137b16168a9
:1098d0000e485431bde8f840fff789b93544636854
:1098e000ae425d6506d9206a6168bde8f840543132
:1098f000fff766b9606a61685431fff761f9a36ade
:109900009d4238bfa562f8bdc8601000d460100049
:109910000268f0b503460ab90020f0bd42685268fb
:10992000426000f10804a24204bfc268426042687b
:10993000d7685a6852685a60944204bfda685a601d
:109940005a68d0684d1e00f1840200f18e0e12f8a4
:1099500001cb15f8016f664501d11eb928b98742c0
:10996000e7d1d9e77245f2d1f9e7f0bd2de9f74f1c
:109970000f9c0d9f960081460d469046a5213246cc
:10998000d4f880009a462bf059fed4f88020043e8b
:1099900016444fead77b26f0070627f00047002d34
:1099a0003bd06a1e04f184010935507801f8010b9f
:1099b00012f8010f08b1aa42f7d1002284f88d20d5
:1099c000072f3d4628bf0725e56704f15400fff740
:1099d000f4f8c5f1080504f16800fff7eef8a56694
:1099e000002524666467c4f89050cdf80080d4f850
:1099f00080300c9a1099201dfef786fd5b4684f896
:109a00009450524649463046fef752fd0e9b206068
:109a100003b11c6003b0bde8f08f84f88450cfe739
:109a20002de9f0412f4c074607f054fce36a01335f
:109a3000e362656804f13006002d47d16760e36a90
:109a4000012b1dd170191435fff7acf8a02df9d1f9
:109a5000254d284605f11408fff7a4f84046fff706
:109a6000a1f805f12800fff79df805f13c00fff78c
:109a700099f8a5f1c400fff795f86562c4f8208055
:109a8000d4f82431fa6fa1680133c4f824310123da
:109a9000934014200b4300fb026007f15401a360c4
:109aa000fff7a5f807f02cfcd4f8203163b1636808
:109ab000da6ffb6f9a4207d20c4b4ff080521a605c
:109ac000bff34f8fbff36f8fbde8f081d4f8203123
:109ad000002bd5d16368da6ffb6f9a4298bf67603d
:109ae000cee700bfc86010009861100004ed00e0f0
:109af00008b50f4cd4f8283133b9236b012b00d9aa
:109b000001df07f0fbfef5e707f0e4fbd4f81831be
:109b1000d8685430fff777f8e36a013be362d4f882
:109b20002831013bc4f8283107f0eafbe2e700bf27
:109b3000c8601000054b5a6a12681ab94ff0ff321c
:109b40009a6270475a6ad2681268f9e7c8601000d2
:109b500010b5044620b9094940f2437007f0b6fe3b
:109b6000636e074a934207d1a06fec33984203d04b
:109b7000b0fa80f0400910bd002010bd25580f003c
:109b8000d46010002de9f0478ab0214e139c149d3b
:109b90009a463368099307468846914624b91d4979
:109ba00040f2512007f092fe25b91a4940f25220a6
:109bb00007f08cfe98230793079b982b04d0154938
:109bc00040f25a2007f082fe079b0023cdb1d4b1aa
:109bd00008aac5f880400292129a04930192009359
:109be0004a465346414638460395fff7bffe28468e
:109bf000fff716ff0898099a33689a4205d009f0d2
:109c000005fd2846f7e72046f5e70ab0bde8f087ee
:109c100080fd004025580f0070b5436986b00446aa
:109c20000e4623b914494ff4227007f04ffe236cff
:109c300023b9114940f2892007f048fe6369c3b196
:109c4000256cb5b1c5f8803004f11c030493236979
:109c50000193a3692289009394e80300e3680395c4
:109c60000296fff783fe2846fff7dafe012006b0d2
:109c700070bd4ff0ff30fae725580f0007b508b95f
:109c8000054b5868002300931a460430fef73cfc4d
:109c900003b05df804fb00bfc860100070b5054656
:109ca000264c07f017fb05b9656805f154063046e8
:109cb000fef7a9ff58b9e86f142101fb00410b6bb7
:109cc0002bb9a3680122824023ea0203a360ab6f91
:109cd0001bb105f16800fef796ffd4f8243101337b
:109ce000c4f8243163689d4221d131461448fef7ff
:109cf0007effd4f828310133c4f8283107f000fb87
:109d0000d4f8203193b163689d420fd1d4f82c313f
:109d100023b10c4940f2fa4007f0d8fd0a4b4ff04e
:109d200080521a60bff34f8fbff36f8f70bde36a2d
:109d3000013be362fff7fefee0e700bfc8601000f2
:109d4000d461100025580f0004ed00e010b5044662
:109d500007f0c0fa0cb9034b5c68e46f07f0d0fa67
:109d6000204610bdc860100010b5044607f007fb80
:109d7000eff311834ff0a00282f31188bff36f8fce
:109d8000bff34f8f0cb9034a5468e06f83f3118817
:109d900010bd00bfc86010002de9f041064620b993
:109da000194940f2915007f091fd184c63689e42aa
:109db00020d007f08ffad4f82480756e276a07f058
:109dc0009ffa454519d0bd4217d004f10c039d42be
:109dd00006d1b36f002b14bf02200320bde8f08131
:109de00004f58674a5420bd0002d0cbf0420012081
:109df000bde8f0810020bde8f0810220bde8f081df
:109e00000420bde8f08100bf25580f00c860100095
:109e100007292de9f84304460d4605d92a4940f2a1
:109e2000316007f053fd072507f054fa0cb9274bb2
:109e30005c68d4f87c904d453ad0244f3cd97b687f
:109e40009c423ed07b68de6fb54234bf00260126bf
:109e5000a36ee567002ba4bfc5f10805a5661c4de0
:109e6000626e142303fb09539a4218d104f154087b
:109e70004046fef7c8fe30b9bb68012202fa09f27b
:109e800023ea0203bb60e26fb96801239340142008
:109e90000b4300fb02504146bb60fef7a8fe3eb1fb
:109ea0000c4b4ff080521a60bff34f8fbff36f8f90
:109eb000bde8f84307f024ba7e68a31b5e425e410a
:109ec000c6e70026c4e700bf25580f00c860100091
:109ed000f860100004ed00e070b5044620b91a499e
:109ee00040f26d7007f0f2fc184d6b689c422ad06e
:109ef0004cb307f0eff92046fff72afef8b104f162
:109f000054063046fef77ffee26fa96801239340b6
:109f10000b43ab60142005f1300300fb02303146e7
:109f2000fef765fe6b68e26fdb6f9a4207d3084b62
:109f30004ff080521a60bff34f8fbff36f8fbde8b1
:109f4000704007f0ddb970bd25580f00c8601000e3
:109f500004ed00e02de9f041064620b9204940f229
:109f6000a47007f0b3fc07f00afaeff311874ff083
:109f7000a00383f31188bff36f8fbff34f8f304679
:109f8000fff7e6fd48b3174dd5f82c31ebb96b68f8
:109f9000f46fd86f06f154088442404634bf002461
:109fa0000124fef730fef26fa968012393400b43b2
:109fb000ab6014203035414600fb0250fef717fe1f
:109fc00087f311882046bde8f08106f1680105f1ac
:109fd000f800fef70cfe0024f2e70446f0e700bfad
:109fe00025580f00c8601000f0b5224c224d2368a0
:109ff00089b0002606aa05a904a807930496059629
:10a0000007f04cfc049b0293059b01934ff0004327
:10a0100000931a49069a1a483346fff7b3fd0e21fa
:10a020000746c5f8300105f043fb9fb100f022fe62
:10a03000012815d14ff0a00383f31188bff36f8f70
:10a04000bff34f8f4ff0ff33ab62c5f820012e6096
:10a05000fef730fb079a23689a4209d009f0d6fa36
:10a060000130f7d1074940f65a0007f02ffcf1e71d
:10a0700009b0f0bd80fd0040c86010004a580f00d4
:10a08000f19a0c0025580f004ff0a00383f31188bc
:10a09000bff36f8fbff34f8f024b0022c3f8202115
:10a0a000fef723bac8601000034ad2f82c310133fe
:10a0b000c2f82c31704700bfc8601000014b18680f
:10a0c000704700bfc860100008b507f058f9014b91
:10a0d000186808bdc8601000014bd86a704700bfff
:10a0e000c860100010b5044638b9054b5c6824b947
:10a0f000044940f66e1007f0e9fb04f1840010bd3e
:10a10000c860100025580f0008b9064b5868d0f8f1
:10a1100080201346981a13f8011ba529fad0c0f322
:10a120008f007047c860100038b50d46044608b966
:10a13000044b5c6807f0cef8c4f89050bde8384096
:10a1400007f0deb8c860100010b5044608b9054b2a
:10a150005c6807f0bff8d4f8904007f0d1f82046cb
:10a1600010bd00bfc860100008b9084b5868eff375
:10a1700011834ff0a00282f31188bff36f8fbff3fa
:10a180004f8fd0f8900083f311887047c86010009b
:10a1900008b9044b5868d0f890300bb108461847fe
:10a1a00018467047c860100010b5064cd4f830212e
:10a1b00022b9054940f6492007f088fbd4f8300160
:10a1c00010bd00bfc860100025580f0010b5044630
:10a1d00020b9084940f6f44007f078fb07f07af818
:10a1e000054bd3f834211b6822606360bde8104042
:10a1f00007f086b825580f00c86010002de9f84f09
:10a20000374bd3f82c211c46002a60d11f68013738
:10a210001f6097b95b6a1b6823b1324940f6dc20a6
:10a2200007f054fb636a226a62622362d4f8343115
:10a230000133c4f83431fff77dfca36a9f424ff02d
:10a2400000050bd3dff8a0904ff0010b4ff0140a7c
:10a25000636a1b68c3b94ff0ff33a3626368db6fa7
:10a26000142202fb03431b6b022bd4f8383128bfa6
:10a2700001250bb907f043fbd4f83c31002b18bf84
:10a2800001252846bde8f88f636adb68de68736dd8
:10a290009f42e2d306f154084046fef7b4fcb36f88
:10a2a0001bb106f16800fef7aefcf06fa2680bfa76
:10a2b00000f3134341460afb0090a360fef797fcae
:10a2c0006368f26fdb6f9a4228bf0125c0e7d3f8bd
:10a2d00038210132c3f83821002507f010fbd0e700
:10a2e000c860100025580f00f86010002de9f843f1
:10a2f0002f4cd4f82c3123b92e4940f6c90007f071
:10a30000e5fa06f0e7ffd4f82c31013bc4f82c3114
:10a31000d4f82c512db1002406f0f2ff2046bde800
:10a32000f883e36a002bf6d0234f01264ff0140880
:10a33000d4f8f830ebb90db1fff7fcfbd4f8385185
:10a340004db10126fff75aff08b1c4f83c61013d49
:10a35000f8d1c4f83851d4f83c31002bdbd0174b7e
:10a360004ff080521a60bff34f8fbff36f8f0124fd
:10a37000d2e7d4f80431dd6805f1540905f168002d
:10a38000fef741fc4846fef73efce86fa26806fa7d
:10a3900000f31343494608fb0070a360fef727fc57
:10a3a0006368ea6fdb6f9a4228bfc4f83c61bfe77d
:10a3b000c860100025580f00f860100004ed00e0a0
:10a3c00010b5044640b90e4b4ff080521a60bff3ef
:10a3d0004f8fbff36f8f10bd0a4bd3f82c3123b1d1
:10a3e000094940f2655007f071fafff75dfe002160
:10a3f0002046fff753fafff779ff0028e3d010bd9e
:10a4000004ed00e0c860100025580f0070b50c4640
:10a41000064620b91c4940f20f5007f057fa24b9fc
:10a4200019494ff4a26007f051fa184dd5f82c21c4
:10a4300022b1154940f2115007f048fafff734fef7
:10a44000326828689042144417d2a24219d9a04217
:10a450002cbf0022012234601ab10021201afff71c
:10a460001dfafff743ff38b9094b4ff080521a60cd
:10a47000bff34f8fbff36f8f70bda242e7d90122a8
:10a48000e9e70022e7e700bf25580f00c860100089
:10a4900004ed00e0f8b5054620b91d4940f67c20e2
:10a4a00007f014fafff700fe2846fff775fc0228b4
:10a4b0002cd105f154073846fef7a5fb06f00aff3c
:10a4c000ab6f33b105f16800fef79dfb012385f802
:10a4d0009430104e06f014ffea6fb168012404fabc
:10a4e00002f30b43b360142006f1300300fb02308b
:10a4f0003946fef77cfb7368ea6fdb6f9a4201d93d
:10a50000c6f83c41fff7f2fe2046f8bd0024f9e70b
:10a5100025580f00c86010002de9f04105462bf0ca
:10a520003bf8092804d919494ff41c6007f0cef90b
:10a53000174ffff7b9fd002607f1300806f18c0030
:10a5400029464044fff7e4f90446d0b9143e16f119
:10a55000a00ff3d1786a2946fff7daf9044680b9eb
:10a56000386a2946fff7d4f9044650b92946094804
:10a57000fff7cef9044620b929460748fff7c8f986
:10a580000446fff7b3fe2046bde8f08125580f00d2
:10a59000c8601000d4601000d461100038b50a4cb7
:10a5a000d4f82c31054623b1084940f6692007f05c
:10a5b0008df9fff779fdd4f838012844c4f8380143
:10a5c000bde83840fff792bec860100025580f0064
:10a5d00038b50d46044620b9084940f6314007f029
:10a5e00075f9074b596820466831fef7e9fa2846a5
:10a5f0000121bde83840fff751b900bf25580f00d1
:10a60000c8601000f8b50d461746064620b90e4939
:10a6100040f6444007f05af90c4cd4f82c3123b9d9
:10a62000094940f6484007f051f96368616845f010
:10a63000004530469d666831fef7d9fa384601215b
:10a64000bde8f840fff72ab925580f00c860100090
:10a6500070b50e461446054620b90a494ff44660c7
:10a6600007f034f9084b596828466831fef7bffafd
:10a67000002c21460cbf30464ff0ff30bde8704043
:10a68000fff70cb925580f00c8601000c36870b5fb
:10a69000dd6825b917494ff4496007f017f905f14e
:10a6a0006806154c3046fef7aefad4f82c31e3b903
:10a6b00005f154063046fef7a6faea6fa1680123b9
:10a6c00093400b43a360142004f13003314600fb98
:10a6d0000230fef78cfa6368ea6fdb6f9a4286bf3e
:10a6e0000120c4f83c01002070bd314604f1f8009f
:10a6f000efe700bf25580f00c8601000f8b5194cef
:10a70000d4f82c3106460d4623b9174940f6c84007
:10a7100007f0dcf845f000453560f56825b91249c9
:10a720004ff44d6007f0d2f8304605f15407fef7bc
:10a730006afa3846fef767faea6fa168012606fa58
:10a7400002f30b43a360094b142000fb023039468f
:10a75000fef74dfa6368ea6fdb6f9a4288bfc4f870
:10a760003c61f8bdc860100025580f00f86010006b
:10a77000234bd3f82c2170b51d461ab10122c3f822
:10a780003c2170bdc3f83c215b68d3f880301a6867
:10a79000b2f1a53f0bd15a68b2f1a53f07d19a6833
:10a7a000b2f1a53f03d1db68b3f1a53f04d06868df
:10a7b0006968843107f0a4f8ac68b4fa84f4e4b2b0
:10a7c000c4f11f04142303fb04531b6b23b90d496d
:10a7d00040f6174007f07af8142303fb04f2a91897
:10a7e000094e486b406848633244904204bf426857
:10a7f0004a6303fb0454636bdb686b6070bd00bf8e
:10a80000c860100025580f000061100070b50546a3
:10a81000264c06f05ffd05b9656805f15406304623
:10a82000fef7f1f958b9e86f142101fb00410b6bf9
:10a830002bb9a3680122824023ea0203a360ab6f15
:10a840001bb105f16800fef7def931461848fef746
:10a85000cef906f055fdd4f820312bb106f03afdc3
:10a86000fff768f906f04cfd63689d421dd1d4f8ee
:10a87000203183b1d4f82c3123b10e4940f2197044
:10a8800007f024f80c4b4ff080521a60bff34f8f43
:10a89000bff36f8f70bde168e26a914201d16360de
:10a8a00070bdbde87040fff763bf70bdc8601000a9
:10a8b000d460100025580f0004ed00e0044b5a68e6
:10a8c000906e5a685b68db6fc3f10803936670474c
:10a8d000c8601000014b5868704700bfc860100086
:10a8e000024b0122c3f83c21704700bfc860100032
:10a8f000064bd3f8202132b1d3f82c31002b0cbffa
:10a900000220002070470120704700bfc86010007f
:10a91000034bd3f834211b6802604360704700bfcb
:10a92000c860100070b50e46054620b9194940f6ba
:10a930000b5006f0cbff26b9164940f60c5006f036
:10a94000c5ff06f0c7fc14490a684b6893f89440a9
:10a9500044b14b68002283f89420012406f0d0fc17
:10a96000204670bd3368581cf8d0d1f834112c68db
:10a9700068688c4204d0824202d300233360ece743
:10a98000121a9a42f9d29b1a33602846fff7c0ff89
:10a990000024e3e725580f00c8601000f7b5114cfc
:10a9a00006f098fc2568bdb9271d384604f1180645
:10a9b000fef7f8f83046fef7f5f81021009504f19f
:10a9c000340304f180020520e7622663fef70affe4
:10a9d0001421206004f084fe03b0bde8f04006f0ce
:10a9e0008fbc00bf08621000914208b54160006151
:10a9f0000ad8d21a83699a420ed2084b011d186bed
:10aa0000fef7def8002008bd9a4201d2994203d237
:10aa1000024b011dd86af3e7012008bd086210004f
:10aa20002de9f3411f4628230193019b099c282b04
:10aa300080460d46164604d016494ff4a37006f022
:10aa400045ff019b44b913494ff4a67006f03eff41
:10aa5000204602b0bde8f081022384f8243025b9f5
:10aa60000c4940f2671006f031fffff797ff089b93
:10aa7000c4f80080a561e7612362201dfef79df800
:10aa8000002ee5d094f8243043f0040384f82430f9
:10aa9000dee700bf4f580f0010b5044620b9064945
:10aaa00040f2154006f012ff06f014fce46906f0cf
:10aab00027fc204610bd00bf4f580f0038b50d468b
:10aac000044620b9054940f2264006f0fffe06f094
:10aad00001fce561bde8384006f012bc4f580f009c
:10aae00010b5044620b907494ff47f7006f0eefe1a
:10aaf00006f0f0fb94f8244004f0010406f000fc9a
:10ab0000204610bd4f580f0010b5064cd4f8d02089
:10ab100022b905494ff4da7006f0d8fed4f8d00017
:10ab200010bd00bf086210004f580f0030b50d4c2b
:10ab300087b01d46029023680b4805936ff0010310
:10ab400001930391049200232a4601a90068fef7ad
:10ab5000b1fb059a23689a4201d008f057fd07b06f
:10ab600030bd00bf80fd0040086210002de9f043b9
:10ab7000134c144d87b0174622681e462b68059368
:10ab80008146884622b910494ff48b6006f09efe3c
:10ab90004ff0ff3301933246002301a92068cdf81e
:10aba0000890cdf80c800497fef705f9059a2b68fc
:10abb0009a4201d008f02afd07b0bde8f08300bf3b
:10abc0000862100080fd00404f580f0010b5044689
:10abd00020b9034940f2ff1006f078fe206810bd4e
:10abe0004f580f0038b50d46044620b90a4940f2c7
:10abf000c71006f06bfe06f06dfb94f824303db1f3
:10ac000043f0040384f82430bde8384006f078bbf4
:10ac100023f00403f6e700bf4f580f0010b50446b9
:10ac200020b907494ff4ee7006f050fe06f052fbd3
:10ac300094f82440c4f3800406f062fb204610bd63
:10ac40004f580f0010b5044620b9034940f2bd101b
:10ac500006f03cfea06910bd4f580f0010b5044629
:10ac600020b9034940f2f51006f030fe606810bdcf
:10ac70004f580f0070b51c4e1c4d336888b00793b9
:10ac8000fff78cfe2b6863b9194940f2151006f0e6
:10ac90001dfe0025079a33689a42284621d008f005
:10aca000b5fc002406aa05a904a80494059406f09e
:10acb000fffd049b0293059b01930e4b00930e49ed
:10acc000069a0e482346fef75dff0d210446c5f89f
:10acd000d000051c18bf012504f0eafc002cd9d1d6
:10ace000d2e708b070bd00bf80fd004008621000d0
:10acf0004f580f000700008075580f00edad0c0095
:10ad00002de9f043184f87b091463a6805920d46f9
:10ad10009846064620b915494ff4c57006f0d6fd91
:10ad2000134c206888b1052d0195cdf80890039645
:10ad300011dcfff7ddfd0023022808bf0e9a206812
:10ad400018bf1a4601a9fef736f8059a3b689a42e1
:10ad500007d008f05bfc0023424601a9fef7aafadf
:10ad6000f3e707b0bde8f08380fd00404f580f00c7
:10ad7000086210002de9f7431a4ddff86c800027b8
:10ad8000eb6a1a682ab92a6bea622b6303b0bde842
:10ad9000f083db68dc681e6804f104094846fdf7af
:10ada00032ff236a2046984794f824305b07e7d5a2
:10adb000a36933449e4206d2636024614946e86a2f
:10adc000fdf7fefedce700230097324619462046d9
:10add000fff796ff0028d3d1414640f2b13006f08c
:10ade00075fdcde7086210004f580f002de9f047c0
:10adf000714bdff8d0811b68704f88b045460793d0
:10ae0000d8f82c301c68002c40f0d0804ff0010a9c
:10ae1000fff74af9fff752f9d5f8d4309842814646
:10ae20005ed2fff7a7ff0122c5f8d490002a75d1a2
:10ae3000baf1000f5bd14c455ed8fff757faeb6ac9
:10ae4000db68de68301dfdf7defe96f824305a0719
:10ae500048d5b16923464a4621443046fff7c4fd30
:10ae600068b1cdf800a05346224651463046fff760
:10ae700047ff20b939464ff4077006f027fd336ac3
:10ae8000304698474ff00009002203a92868fef7d2
:10ae900037f90028b4d0039b002b03da06990598f4
:10aea000049b9847039b002beedb059c636913b161
:10aeb000201dfdf7a8fefff701f9d5f8d430984220
:10aec000064601d2fff756ff039bc5f8d460092b55
:10aed000dad8dfe803f0262626644e642626644e80
:10aee0000022a1e723f0010386f82430c7e72b6b8b
:10aef0001a68b2fa82f25209a4eb09012868fef737
:10af000011fcfff7f3f90028bcd12d4b4ff0805214
:10af10001a60bff34f8fbff36f8fb3e7fff7e6f908
:10af2000b0e794f82430a16943f0010384f8243099
:10af3000049b324619442046fff756fd0028a3d053
:10af4000236a2046984794f824305b079cd5a26971
:10af50000499cdf8009000230a4420461946fff7d3
:10af6000cffe002890d1394640f23e3006f0aefccc
:10af70008ae794f8243043f0010384f82430049bda
:10af8000a36123b9394640f2573006f09ffca1690e
:10af90003346324631442046fff726fd74e794f8e5
:10afa000243023f0010384f824306de7db684ff090
:10afb000000a1c682ce700bf80fd00404f580f00be
:10afc00004ed00e008621000deaddeaddeaddead0a
:10afd000deaddeaddeaddeaddeaddeaddeaddead19
:10afe000deaddeaddeaddeaddeaddeaddeaddead09
:10aff000deaddeaddeaddeaddeaddeaddeaddeadf9
:10b00000deaddeaddeaddeaddeaddeaddeaddeade8
:020000040000fa
:02000004000cee
:10c0000008b505f0adf900b902df08bd2de9ff4123
:10c01000984604460e461746fff7f2ff0c9b029324
:10c020000b9b01930a9b0093054643463a463146d3
:10c030002046fdf7a7fd0446284605f03df92046b9
:10c0400004b0bde8f08170b504460e46fff7d8ff96
:10c05000314605462046fdf7dffd0446284605f03b
:10c060002bf9204670bd70b505460e46fff7c8ff98
:10c07000314604462846fdf701fe2046bde87040e3
:10c0800005f01ab938b50546fff7baff0446284649
:10c09000fdf704fe2046bde8384005f00db938b57f
:10c0a0000546fff7adff04462846fef789f920460e
:10c0b000bde8384005f000b970b505460e46fff7fb
:10c0c0009fff314604462846fef7a0f92046bde80a
:10c0d000704005f0f1b838b50446fff791ff05460a
:10c0e0002046fef7d7f90446284605f0e5f8204635
:10c0f00038bd38b50446fff783ff05462046fdf7f7
:10c1000025fe0446284605f0d7f8204638bd38b548
:10c110000446fff775ff05462046fdf73dfe044641
:10c12000284605f0c9f8204638bd70b505460e46cc
:10c13000fff766ff314604462846fdf769fe2046b4
:10c14000bde8704005f0b8b838b50546fff758ffb0
:10c1500004462846fef75afb2046bde8384005f065
:10c16000abb838b50546fff74bff04462846fdf748
:10c17000b3fe2046bde8384005f09eb810b5fff785
:10c180003fff0446fdf790ff2046bde8104005f054
:10c1900093b838b5fff734ff0546fef7a7f8044615
:10c1a000284605f089f8204638bd38b5fff728ff46
:10c1b0000546fdf783ff0446284605f07df8204636
:10c1c00038bd38b5fff71cff0546fdf785ff04466f
:10c1d000284605f071f8204638bd38b50446fff70b
:10c1e0000fff05462046fdf77dff0446284605f073
:10c1f00063f8204638bd38b50446fff701ff054611
:10c200002046fef789f90446284605f055f82046f1
:10c2100038bd38b50446fff7f3fe05462046fdf766
:10c2200073ff0446284605f047f8204638bd70b530
:10c2300005460e46fff7e4fe314604462846fdf764
:10c2400073ff2046bde8704005f036b838b50446a7
:10c25000fff7d6fe05462046fdf776ff0446284642
:10c2600005f02af8204638bd70b504460e46fff7a3
:10c27000c7fe314605462046fdf78aff044628469c
:10c2800005f01af8204670bd38b5fff7b9fe05462f
:10c29000fdf78aff0446284605f00ef8204638bd13
:10c2a00038b5fff7adfe0546fef714fb04462846f9
:10c2b00005f002f8204638bd38b50546fff7a0fe68
:10c2c00004462846fdf782ff2046bde8384004f0ca
:10c2d000f3bf70b504460e46fff792fe31460546a1
:10c2e0002046fef71ffb0446284604f0e5ff2046e3
:10c2f00070bd38b5fff784fe0546fef7f9fa04462f
:10c30000284604f0d9ff204638bd38b50446fff76b
:10c3100077fe05462046fef741f90446284604f01c
:10c32000cbff204638bd2de9f04104460e461746a6
:10c330009846fff765fe434605463a463146204695
:10c34000fcf739fd0446284604f0b6ff2046bde858
:10c35000f081f8b504460e461746fff751fe3a46ff
:10c36000054631462046fcf7cbfe0446284604f03d
:10c37000a3ff2046f8bdf8b504460e461746fff762
:10c380003ffe3a46054631462046fcf7ddfd0446b1
:10c39000284604f091ff2046f8bd70b504460e46cd
:10c3a000fff72efe314605462046fdf7cff804463e
:10c3b000284604f081ff204670bd38b50446fff7db
:10c3c0001ffe05462046fcf745ff0446284604f0bc
:10c3d00073ff204638bd38b50446fff711fe054609
:10c3e0002046fcf749ff0446284604f065ff204636
:10c3f00038bd38b50546fff703fe04462846fcf76e
:10c400004fff2046bde8384004f056bff8b504465b
:10c410000e461746fff7f4fd3a46054631462046dc
:10c42000fdf71cfa0446284604f046ff2046f8bdf6
:10c430002de9f341984604460e461746fff7e0fd06
:10c440009df820300093054643463a463146204643
:10c45000fdf7c8f90446284604f02eff204602b036
:10c46000bde8f08170b504460e46fff7c9fd3146c0
:10c4700005462046fdf708f90446284604f01cff4f
:10c48000204670bd70b504460e46fff7b9fd314633
:10c4900005462046fdf709f90446284604f00cff3e
:10c4a000204670bd70b504460e46fff7a9fd314623
:10c4b00005462046fdf709f90446284604f0fcfe2f
:10c4c000204670bd70b504460e46fff799fd314613
:10c4d00005462046fdf749f90446284604f0ecfedf
:10c4e000204670bd2de9f341984604460e46174696
:10c4f000fff786fd099b0193089b00930546434681
:10c500003a4631462046fef78bfa0446284604f0a8
:10c51000d3fe204602b0bde8f08138b50446fff7ef
:10c520006ffd05462046fef7b7fa0446284604f09c
:10c53000c3fe204638bd70b505460e46fff760fdc8
:10c54000314604462846fef7b9fa2046bde8704059
:10c5500004f0b2be38b50446fff752fd054620464a
:10c56000fef7befa0446284604f0a6fe204638bd73
:10c5700038b5fff745fd0546fef7c6fa04462846de
:10c5800004f09afe204638bd2de9f04104460e46df
:10c5900017469846fff734fd434605463a4631466e
:10c5a0002046fef7e3fa0446284604f085fe2046be
:10c5b000bde8f08138b50446fff722fd0546204668
:10c5c000fef704fb0446284604f076fe204638bdfc
:10c5d00070b505460e46fff713fd31460446284662
:10c5e000fef700fb2046bde8704004f065be38b59c
:10c5f0000446fff705fd05462046fef70ffb0446ff
:10c60000284604f059fe204638bd38b50446fff7e9
:10c61000f7fc05462046fef715fb0446284604f0c5
:10c620004bfe204638bd38b50446fff7e9fc054609
:10c630002046fef713fb0446284604f03dfe204644
:10c6400038bd2de9f341984604460e461746fff7dc
:10c65000d7fc089b0093054643463a4631462046a0
:10c66000fef74efb0446284604f026fe204602b0a4
:10c67000bde8f08138b50446fff7c2fc0546204608
:10c68000fcf7eef80446284604f016fe204638bdb6
:10c690002de9f341984604460e461746fff7b0fcd5
:10c6a000089b0093054643463a4631462046fcf730
:10c6b000f3f80446284604f0fffd204602b0bde82a
:10c6c000f08170b504460e46fff79afc31460546e8
:10c6d0002046fcf763f90446284604f0edfd2046a9
:10c6e00070bd70b504460e46fff78afc314605461c
:10c6f0002046fcf771f90446284604f0ddfd20468b
:10c7000070bd2de9f04104460e4617469846fff7e6
:10c7100077fc434605463a4631462046fcf7b6f9d3
:10c720000446284604f0c8fd2046bde8f08138b52f
:10c730000546fff765fc04462846fcf713fa204639
:10c74000bde8384004f0b8bd08b5fff759fc04f067
:10c75000b3fd002008bd08b5fff752fcbde8084056
:10c7600004f0aabd08b5fff74bfc04f0a5fd0020be
:10c7700008bdfff7f7bffff7f5bf08b5fff740fcaf
:10c7800004f09afd002008bdfff7f7bffff7f5bfe3
:10c7900008b5fff735fc04f08ffd002008bd08b593
:10c7a000fff72efc04f088fd002008bd08b5fff758
:10c7b00027fc04f081fd002008bd000038b5fff71c
:10c7c0001ffc054604f086fd4ff20103984704461e
:10c7d00004f096fd284604f06ffd204638bd70b584
:10c7e0000e460446fff70cfc054604f073fd314687
:10c7f0004ff2090320469847044604f081fd28467d
:10c8000004f05afd204670bd70b50e460446fff791
:10c81000f7fb054604f05efd31464ff20d0320465e
:10c820009847044604f06cfd284604f045fd204678
:10c8300070bd38b50446fff7e3fb054604f04afd3a
:10c84000204607f0f7fd044604f05afd284604f0a0
:10c8500033fd204638bd38b50446fff7d1fb054609
:10c8600004f038fd204607f0c8fd044604f048fdfa
:10c87000284604f021fd204638bd2de9f0410e4642
:10c88000174698460546fff7bbfb044604f022fd19
:10c89000284643463a4631464ff22525a84704f03c
:10c8a0002ffd2046bde8f04104f006bdf8b50e4668
:10c8b00017460446fff7a4fb054604f00bfd3a4675
:10c8c00031464ff2152320469847044604f018fde0
:10c8d000284604f0f1fc2046f8bd2de9f3419846c6
:10c8e0000e4617460446fff78bfb054604f0f2fca4
:10c8f0009df824300193089b00933a464346314605
:10c9000020464ff23524a047044604f0f9fc28469f
:10c9100004f0d2fc204602b0bde8f08170b50e46ae
:10c920000446fff76dfb054604f0d4fc31464ff298
:10c93000212320469847044604f0e2fc284604f0f0
:10c94000bbfc204670bd2de9f0410e4617469846c7
:10c950000446fff755fb054604f0bcfc43463a4647
:10c96000314620464ff23924a047044604f0c8fc63
:10c97000284604f0a1fc2046bde8f0812de9f341f2
:10c9800098460e4617460446fff73afb054604f064
:10c99000a1fc089b00933a464346314620464ff29d
:10c9a0001124a047044604f0abfc284604f084fca4
:10c9b000204602b0bde8f081f8b50e4617460446a1
:10c9c000fff71efb054604f085fc3a4631464ff260
:10c9d000192320469847044604f092fc284604f0a8
:10c9e0006bfc2046f8bd70b50e460546fff708fb08
:10c9f000044604f06ffc284631464ff23123984735
:10ca000004f07efc2046bde8704004f055bc2de9e2
:10ca1000f34198460e4617460446fff7f1fa0546dd
:10ca200004f058fc9df8203000933a4643463146c6
:10ca300020464ff22d24a047044604f061fc28460e
:10ca400004f03afc204602b0bde8f0812de9f34144
:10ca500098460e4617460446fff7d2fa054604f0fc
:10ca600039fc9df8203000933a4643463146204633
:10ca70004ff23d24a047044604f042fc284604f04f
:10ca80001bfc204602b0bde8f0812de9f341984639
:10ca90000e4617460446fff7b3fa054604f01afca3
:10caa0009df8203000933a464346314620464ff2e7
:10cab0004124a047044604f023fc284604f0fcfb74
:10cac000204602b0bde8f08138b50446fff798fa79
:10cad000054604f0fffb41f27913204698470446cf
:10cae00004f00efc284604f0e7fb204638bd38b5bc
:10caf0000446fff785fa054604f0ecfb41f27d138e
:10cb000020469847044604f0fbfb284604f0d4fb7b
:10cb1000204638bd38b50446fff772fa054604f0e2
:10cb2000d9fb41f2811320469847044604f0e8fb04
:10cb3000284604f0c1fb204638bd38b50446fff74f
:10cb40005ffa054604f0c6fb41f28513204698477c
:10cb5000044604f0d5fb284604f0aefb204638bd61
:10cb600038b50446fff74cfa054604f0b3fb41f232
:10cb7000891320469847044604f0c2fb284604f077
:10cb80009bfb204638bdf8b50e4617460446fff716
:10cb900037fa054604f09efb3a46314641f29d13b2
:10cba00020469847044604f0abfb284604f084fb7b
:10cbb0002046f8bd70b50e460446fff721fa05463b
:10cbc00004f088fb314641f2a11320469847044601
:10cbd00004f096fb284604f06ffb204670bd38b584
:10cbe0000446fff70dfa054604f074fb41f2a51365
:10cbf00020469847044604f083fb284604f05cfb7b
:10cc0000204638bdf7b50e4c2368019305460f4604
:10cc1000fff7f6f9064604f05dfb41f27903394669
:10cc20002846984704f06cfb304604f045fb019a17
:10cc300023689a42284601d006f0e8fc03b0f0bd14
:10cc400080fd0040f7b50e4c2368019305460f4662
:10cc5000fff7d6f9064604f03dfb41f2750339466d
:10cc60002846984704f04cfb304604f025fb019a17
:10cc700023689a42284601d006f0c8fc03b0f0bdf4
:10cc800080fd004070b50e460446fff7b9f9054631
:10cc900004f020fb314641f2ad032046984704469c
:10cca00004f02efb284604f007fb204670bd2de95a
:10ccb000f34198460e4617460446fff7a1f905468c
:10ccc00004f008fb099b0193089b00933a464346f6
:10ccd0003146204641f21104a047044604f010fbff
:10cce000284604f0e9fa204602b0bde8f08170b5ac
:10ccf0000e460446fff784f9054604f0ebfa314688
:10cd0000204628f079fb044604f0fafa284604f09d
:10cd1000d3fa204670bd2de9f04f164c89b09046ed
:10cd200099462268149b05930f4605460792ddf845
:10cd300048a0ddf84cb0fff763f9064604f0cafae4
:10cd4000059b029342464b46394628468de8000c27
:10cd500041f20507b84704f0d3fa304604f0acfac4
:10cd6000079a23689a42284601d006f04ffc09b082
:10cd7000bde8f08f80fd004038b50446fff740f96c
:10cd8000054604f0a7fa41f21913204698470446d5
:10cd900004f0b6fa284604f08ffa204638bd2de993
:10cda000f34198460e4617460446fff729f9054613
:10cdb00004f090fa099b0193089b00933a4643467e
:10cdc0003146204641f21d24a047044604f098fa5b
:10cdd000284604f071fa204602b0bde8f08138b56b
:10cde0000546fff70df9044604f074fa284641f2af
:10cdf0002523984704f084fa2046bde8384004f023
:10ce00005bba10b5fff7fcf8044604f063fa41f290
:10ce10001523984704f074fa2046bde8104004f04a
:10ce20004bba38b50546fff7ebf8044604f052fa62
:10ce3000284641f25123984704f062fa2046bde8a3
:10ce4000384004f039ba70b50e460546fff7d8f8f9
:10ce5000044604f03ffa2846314641f22923984718
:10ce600004f04efa2046bde8704004f025ba70b5d3
:10ce70000e460446fff7c4f8054604f02bfa314687
:10ce800041f2392320469847044604f039fa2846ef
:10ce900004f012fa204670bdf8b50e461746054656
:10cea000fff7aef8044604f015fa28463a46314634
:10ceb00041f20903984704f023fa2046bde8f84000
:10cec00004f0fab9f8b50e4617460546fff798f88c
:10ced000044604f0fff928463a46314641f29113e0
:10cee000984704f00dfa2046bde8f84004f0e4b994
:10cef00070b50e460446fff783f8054604f0eaf9dc
:10cf0000314641f2951320469847044604f0f8f95b
:10cf1000284604f0d1f9204670bd38b50446fff725
:10cf20006ff8054604f0d6f941f299132046984768
:10cf3000044604f0e5f9284604f0bef9204638bd61
:10cf40002de9f04186b00e46044617469846fff795
:10cf500057f8054604f0bef90121204602f05cfabc
:10cf6000f0b99df8403004939df83c3003939df850
:10cf700038300293bdf834300193bdf8303000935f
:10cf8000204643463a46314607f074fe044604f014
:10cf9000b7f9284604f090f9204606b0bde8f081c4
:10cfa0000124f4e72de9f74f0d461f4601219df8b6
:10cfb0004030019304461646bdf83080bdf83490e9
:10cfc0009df838a09df83cb002f05afa019b88b950
:10cfd000109332463b4629462046cdf83cb0cdf86a
:10cfe00038a0cdf83490cdf8308003b0bde8f04fd4
:10cff00007f040be012003b0bde8f08ff8b50e4643
:10d0000004461746fef7fcff054604f063f90221cb
:10d01000204602f001fa60b920463a46314607f050
:10d0200049fe044604f06cf9284604f045f9204610
:10d03000f8bd0124f6e770b50d46022104461646f8
:10d0400002f01efa30b9324629462046bde870404b
:10d0500007f030be012070bd70b50e460446fef7e5
:10d06000cfff054604f036f90421204602f0d4f93a
:10d0700058b92046314607f063fe044604f040f9f3
:10d08000284604f019f9204670bdff24f6e7f8b5ec
:10d090000e4604461746fef7b3ff054604f01af99c
:10d0a0000821204602f0b8f960b920463a463146d8
:10d0b00007f08efe044604f023f9284604f0fcf83d
:10d0c0002046f8bd0124f6e770b50d460821044658
:10d0d000164602f0d5f930b9324629462046bde859
:10d0e000704007f075be012070bd38b50446fef7ec
:10d0f00087ff054604f0eef81021204602f08cf977
:10d1000050b9204607f07dfe044604f0f9f82846a1
:10d1100004f0d2f8204638bdff24f6e710b5102100
:10d12000044602f0adf920b92046bde8104007f0f2
:10d1300068beff2010bd38b50446fef761ff054606
:10d1400004f0c8f84021204602f066f950b92046a4
:10d1500007f063fe044604f0d3f8284604f0acf868
:10d16000204638bdff24f6e770b50e460446fef7ac
:10d1700047ff054604f0aef82021204602f04cf9a6
:10d1800058b92046314607f055fe044604f0b8f879
:10d19000284604f091f8204670bd0124f6e738b522
:10d1a0000446fef72dff054604f094f88021204642
:10d1b00002f032f950b9204607f051fe044604f05f
:10d1c0009ff8284604f078f8204638bdff24f6e79b
:10d1d00070b50e460446fef713ff054604f07af8d4
:10d1e0004ff48071204602f017f958b920463146b5
:10d1f00007f042fe044604f083f8284604f05cf889
:10d20000204670bd0124f6e770b50546fef7f8fe2e
:10d21000064604f05ff84ff40071284602f0fcf86f
:10d22000044648b9284607f03cfe04f069f8304649
:10d2300004f042f8204670bdff24f6e7f8b50f462b
:10d240000546fef7ddfe064604f044f84ff4806123
:10d25000284602f0e1f8044650b93946284607f05e
:10d26000befe04f04df8304604f026f82046f8bd26
:10d27000ff24f6e738b50446fef7c2fe054604f083
:10d2800029f84ff48061204602f0c6f850b92046d4
:10d2900007f0a0fe044604f033f8284604f00cf82a
:10d2a000204638bdff24f6e7f8b50f460546fef7e1
:10d2b000a7fe064604f00ef80121284602f00cf9fc
:10d2c000044650b93946284608f0eaf904f018f83f
:10d2d000304603f0f1ff2046f8bdff24f6e7f8b52d
:10d2e0000f460546fef78cfe064603f0f3ff0421c9
:10d2f000284602f0f1f8044650b93946284608f0ad
:10d30000dcf803f0fdff304603f0d6ff2046f8bd01
:10d31000ff24f6e7f8b50f460546fef771fe064610
:10d3200003f0d8ff0821284602f0d6f8044650b989
:10d330003946284608f0e2f803f0e2ff304603f0f1
:10d34000bbff2046f8bdff24f6e738b50446fef7dc
:10d3500057fe054603f0beff0221204602f0bcf84e
:10d3600050b9204608f0faf8044603f0c9ff2846f1
:10d3700003f0a2ff204638bdff24f6e770b505464e
:10d38000fef73efe064603f0a5ff1021284602f0f8
:10d39000a3f8044648b9284608f0ecf803f0b0ffbb
:10d3a000304603f089ff204670bdff24f6e770b5d4
:10d3b0000546fef725fe064603f08cff2021284691
:10d3c00002f08af8044648b9284608f0d9f803f074
:10d3d00097ff304603f070ff204670bdff24f6e74c
:10d3e00070b50546fef70cfe064603f073ff4021bc
:10d3f000284602f071f8044648b9284608f0a4f817
:10d4000003f07eff304603f057ff204670bdff2437
:10d41000f6e738b50446fef7f3fd054603f05aff7c
:10d420002046802102f058f8044640b908f080f9ff
:10d4300003f066ff284603f03fff204638bdff2477
:10d44000f6e710b54ff48071044602f02ff820b9ca
:10d450002046bde8104008f087b8ff2010bd38b561
:10d460001021054602f022f8044620b9284608f0ab
:10d4700081f8204638bdff24fbe738b5202105465a
:10d4800002f014f8044620b9284608f079f820463e
:10d4900038bdff24fbe738b54021054602f006f809
:10d4a000044620b9284608f04ff8204638bdff242e
:10d4b000fbe7f8b50d4607461646fef7a1fd044604
:10d4c00003f008ff4ff48051384602f04bf818b9ca
:10d4d0003146284606f0a4fb03f012ff204603f075
:10d4e000ebfe0120f8bd70b50d460646fef788fd3f
:10d4f000044603f0effe4ff40051304602f032f8dc
:10d5000010b9284606f0a8fb03f0fafe204603f007
:10d51000d3fe012070bd70b50d460646fef770fdc6
:10d52000044603f0d7fe4ff48061304602f01af84b
:10d5300010b9284606f0aafb03f0e2fe204603f0ed
:10d54000bbfe012070bd38b50546fef759fd044607
:10d5500003f0c0fe4ff48041284602f003f808b9fa
:10d5600006f09cfb03f0ccfe204603f0a5fe012054
:10d5700038bd10b50c464ff4005101f0dfff10b973
:10d58000204606f069fb012010bd70b50e4604462a
:10d59000fef736fd054603f09dfe0121304601f001
:10d5a000e1ff18b9237843f00103237003f0a8fecc
:10d5b000284603f081fe012070bd70b50e4604467a
:10d5c000fef71efd054603f085fe0221304601f000
:10d5d000c9ff18b9237803f0fe03237003f090fe0f
:10d5e000284603f069fe012070bd2de9f3410c4689
:10d5f000174698460646fef703fd054603f06afe09
:10d600000421204601f0aeff40b99df82030009380
:10d610003a4643462146304606f05bfe03f070fe74
:10d62000284603f049fe012002b0bde8f0812de953
:10d63000f3410c46174698460646fef7e1fc0546c0
:10d6400003f048fe0821204601f08cff58b99df8f0
:10d65000243001939df8203000933a4643462146fa
:10d66000304606f057fe03f04bfe284603f024fe3a
:10d67000012002b0bde8f081f8b50c461746064619
:10d68000fef7befc054603f025fe1021204601f002
:10d6900069ff20b93a462146304606f05dfe03f0a8
:10d6a0002ffe284603f008fe0120f8bdf8b50e460f
:10d6b00017460446fef7a4fc054603f00bfe3a4667
:10d6c0003146204606f0ecfd2021044601f04affd9
:10d6d000002818bf012403f013fe284603f0ecfdd8
:10d6e0002046f8bd70b50e460446fef789fc054697
:10d6f00003f0f0fd4021304601f034ff10b904235f
:10d700006361a36103f0fcfd284603f0d5fd012011
:10d7100070bd70b50e460446fef772fc054603f078
:10d72000d9fd8021304601f01dff10b9042363614b
:10d73000a06103f0e5fd284603f0befd012070bda9
:10d7400070b50e460446fef75bfc054603f0c2fdcd
:10d750004ff48071304601f005ff18b9236943f09a
:10d760000103236103f0ccfd284603f0a5fd012051
:10d7700070bd70b50e460446fef742fc054603f048
:10d78000a9fd4ff40071304601f0ecfe18b9236991
:10d7900023f00103236103f0b3fd284603f08cfd61
:10d7a000012070bd70b50e460446fef729fc054603
:10d7b00003f090fd4ff48061304601f0d3fe18b9bc
:10d7c000237843f00103237003f09afd284603f009
:10d7d00073fd012070bd70b50e460446fef710fcc7
:10d7e000054603f077fd4ff40061304601f0bafec4
:10d7f00018b9237803f0fe03237003f081fd284657
:10d8000003f05afd012070bd10b504460846012101
:10d8100001f094fe18b9237843f00103237001202e
:10d8200010bd10b504460846022101f087fe18b964
:10d83000237803f0fe032370012010bdf7b50c46da
:10d8400005460821204616461f4601f077fe58b9c6
:10d850009df8243001939df82030009332463b46da
:10d860002146284606f056fd012003b0f0bd70b5f4
:10d870000c46054610212046164601f05ffe20b9f1
:10d8800032462146284606f067fd012070bd10b5de
:10d8900006f006fd2021044601f050fe00280cbfd2
:10d8a0002046012010bd10b504460846402101f075
:10d8b00045fe10b904236361a361012010bd10b5ba
:10d8c00004460846802101f039fe10b90423636143
:10d8d000a061012010bd10b5044608464ff48071c8
:10d8e00001f02cfe18b9236943f0010323610120e4
:10d8f00010bd10b5044608464ff4007101f01efe3d
:10d9000018b9236923f001032361012010bd10b56c
:10d91000044608464ff4006101f010fe18b9237860
:10d9200003f0fe032370012010bd10b50446084625
:10d930004ff4006101f002fe18b9237843f00103af
:10d940002370012010bd70b50e460446fef758fb4b
:10d95000054603f0bffc012001f052fe58b92046f5
:10d96000314616f058fb044603f0cafc284603f083
:10d97000a3fc204670bd0124f6e738b5fef740fb56
:10d98000054603f0a7fc022001f03afe48b916f064
:10d990004bfb044603f0b4fc284603f08dfc204604
:10d9a00038bd0124f6e770b50e460446fef728fba5
:10d9b000054603f08ffc042001f022fe58b92046f2
:10d9c000314616f051fb044603f09afc284603f05a
:10d9d00073fc204670bd0124f6e770b50e46044680
:10d9e000fef70efb054603f075fc082001f008fe6b
:10d9f00058b92046314616f047fb044603f080fc38
:10da0000284603f059fc204670bd0124f6e738b5de
:10da10000446fef7f5fa054603f05cfc102001f021
:10da2000effd50b9204616f03efb044603f068fcbb
:10da3000284603f041fc204638bd0124f6e738b5fe
:10da40000446fef7ddfa054603f044fc202001f011
:10da5000d7fd50b9204616f03efb044603f050fcbb
:10da6000284603f029fc204638bd0124f6e738b5e6
:10da70000446fef7c5fa054603f02cfc402001f0f1
:10da8000bffd50b9204616f031fb044603f038fcc8
:10da9000284603f011fc204638bd0124f6e738b5ce
:10daa0000446fef7adfa054603f014fc802001f0b1
:10dab000a7fd50b9204616f024fb044603f020fcd5
:10dac000284603f0f9fb204638bd0124f6e738b5b7
:10dad0000446fef795fa054603f0fcfb4ff4807010
:10dae00001f08efd50b9204616f016fb044603f0f7
:10daf00007fc284603f0e0fb204638bd0124f6e78a
:10db000070b50e460446fef77bfa054603f0e2fbcd
:10db1000102001f075fd58b92046314616f0cefab6
:10db2000044603f0edfb284603f0c6fb204670bd1b
:10db30000124f6e738b50446fef762fa054603f01d
:10db4000c9fb042001f088fd50b9204618f002ffff
:10db5000044603f0d5fb284603f0aefb204638bd53
:10db60000124f6e738b50446fef74afa054603f005
:10db7000b1fb042001f070fd50b9204618f0f5fe0d
:10db8000044603f0bdfb284603f096fb204638bd53
:10db90000124f6e738b50446fef732fa054603f0ed
:10dba00099fb082001f058fd50b9204618f0e8fe16
:10dbb000044603f0a5fb284603f07efb204638bd53
:10dbc0000124f6e738b50446fef71afa054603f0d5
:10dbd00081fb082001f040fd50b9204618f0dbfe23
:10dbe000044603f08dfb284603f066fb204638bd53
:10dbf0000124f6e738b50446fef702fa054603f0bd
:10dc000069fb012001f028fd50b9204618f0cefe36
:10dc1000044603f075fb284603f04efb204638bd52
:10dc20000124f6e738b50446fef7eaf9054603f0a5
:10dc300051fb022001f010fd50b9204618f0c1fe42
:10dc4000044603f05dfb284603f036fb204638bd52
:10dc50000124f6e710b5054c227832b9044b13b114
:10dc60000448aff300800123237010bd00081200a8
:10dc70000000000070740f0008b5034b1bb103498e
:10dc80000348aff3008008bd000000000408120044
:10dc900070740f0013b50a4c032300220093114641
:10dca00023460120fef7c4fbe06438b100231a4686
:10dcb000194602b0bde81040fef735bb02b010bdfa
:10dcc00000f011002de9f04f5d4b97b01a680393f7
:10dcd0008b461592044603f02bff824603f02cff7f
:10dce000074603f035ff814603f036ff064603f092
:10dcf0003fff804603f040ff0546baf1000f09d10f
:10dd00004ff0ff30039b159a1b689a4200f09580f4
:10dd100005f07cfcb9f1000ff2d0b8f1000fefd0a4
:10dd20004422484904a827f07efc474b04934ff453
:10dd30008073adf8183006230893444bcdf828b013
:10dd40000794099307f1ff3b002f67d01bea070fe9
:10dd500064d11bea0a0f03d03d499a2003f0b6fdb7
:10dd60000c97cdf82ca003f07ffe771e0d90002eaf
:10dd700059d0374257d117ea090f03d03449a120af
:10dd800003f0a4fd0f96cdf8389003f06dfe6e1ee3
:10dd90001090002d4cd02e424ad116ea080f03d025
:10dda0002b49a82003f092fd1295cdf8448003f092
:10ddb0005bfe284e139006f1500104a8fbf72cffe0
:10ddc000012805469cd10146306d01f071fc06f139
:10ddd00054030193204b00932a4600230a211f4835
:10dde000fef780fb0746f06708b901208ae7fef7d7
:10ddf000dcf9002602460096334629463846fef7ef
:10de000020fc0128f1d120f0dffd2cb1201d1449a8
:10de100020f0e2fd304675e7204673e70c49992073
:10de200003f054fd95e70a49a02003f04ffda2e757
:10de30000749a72003f04afdafe717b0bde8f08f10
:10de400080fd004074560f0051ea0e00000c1200d5
:10de5000b8560f0000f011009de90e00e0560f00cb
:10de6000bdda0e0010b50c4600f0e5fd2146fff7c7
:10de700029ff002010bd00bf73b5054600200e46e7
:10de8000fef7adfffef7bdff00224ff400738de8f3
:10de90000c00082104230120fef781ff0446012025
:10dea000fef79dff31462846fef7e1ff204602b00f
:10deb00070bd013870b50d4616461c46042809d8b9
:10dec000dfe800f0030a0e1216001a48fef7fcfd08
:10ded00040b288b1012070bd1648fef708fef7e792
:10dee0001448fef717fef3e71248fef726feefe7a9
:10def0001048fef735feebe7324629460d48fef79f
:10df000042fe10f0ff0fe5d121460a48fef752fe0f
:10df100010f0ff0fded10748fef761fe10f0ff0f93
:10df2000d8d1044c2046fef75afe40b20130f9d059
:10df3000002070bd00e0100010b5064c402104f137
:10df4000f000fef79ffec4f83001b0fa80f04009ff
:10df500010bd00bf00e010002de9f047274e98b03b
:10df60001d4633689df880401793074688469246c1
:10df7000fff7e2ffb14600283bd11cb1012c31d0a4
:10df8000032028e01e4b02a8d3f83011fef75afefa
:10df900002ac0fcc12ae0fc62368336008eb05034a
:10dfa0000d9308ab01930cab08950a950c950e9553
:10dfb000109500933d440aab10aa0ea912a8cdf803
:10dfc00024a0cdf82c800f971195fef770fe002845
:10dfd0000cbf00200520179ad9f800309a420ad0c9
:10dfe00005f014fb064b02a8d3f83011fef70afe29
:10dff000cee70120efe718b0bde8f08780fd0040d4
:10e0000000e010002de9f04f384c93b0984623689b
:10e010001d9f1f9e219d1193834689469246fff7bf
:10e020008bff28b9bbf1000f04d0bbf1010f4bd01f
:10e03000002051e02e4b04a8d3f83011fef702fe69
:10e040000df1100ebee80f000df1300cace80f0022
:10e05000274adef80030ccf800301c9bc2f84c3167
:10e060001e9bc2f85431209bc2f83c31229bc2f85f
:10e070005871c2f84061c2f8343102f59a7602f55f
:10e08000a67302f59e77c2f83851c2f844a1c2f8cf
:10e090004891c2f850810ca90093029602f5aa7328
:10e0a000019702f5a2720aa8fef735fe0b9d95b9fd
:10e0b000ddf828904846fef75ffe60b932463946e3
:10e0c0004846fef7e9feb3e7094b04a8d3f8301140
:10e0d000fef798fdb4e72846119a23689a4201d0ca
:10e0e00005f094fa13b0bde8f08f00bf80fd00404a
:10e0f00000e0100038b5044604f1f005fef71dfd00
:10e1000004f1f80229462046fef7dcfe29462046a7
:10e11000fef7eefec0b238bd90f8f83170b5054696
:10e120000e46144663b1002380f8f831fef705fd72
:10e1300005f1f0012846fef7dbfe08b1c0b270bd64
:10e1400044b1224631462846fef71dfd044630b153
:10e15000c0b270bdd5f8002205f50171f3e728467d
:10e16000fef7dbfe0028e9d12846fef738fd00283f
:10e17000e4d1012385f8f831204670bd38b590f818
:10e18000f83104460d466bb9d4f80022c2b92946cd
:10e190002046fef70ffdc0b218b92046fef71ffd5e
:10e1a000c0b238bd002380f8f831fef7c6fc04f198
:10e1b000f0012046fef79cfec0b20028e4d038bd36
:10e1c00004f501712046fef7defcc0b20028ded067
:10e1d00038bd00bf034b00221860da7283f89f221b
:10e1e000704700bf70e11000074bd87a18b193f860
:10e1f0009f3233b90120054b4ff4257202fb0030ea
:10e2000070470020704700bf70e1100078e11000f7
:10e210002de9f743164a4ff42573434302f5a665eb
:10e220001d441344012483f83145082483f8304504
:10e23000002483f83345c3f834151368abb103ebfe
:10e24000c000d3f80c800669476903244ff48009a5
:10e25000cdf800903b4642462946304600f0d1fac0
:10e2600018b1013c14f0ff04f2d103b0bde8f08313
:10e2700070e1100013b570b1827c8478038a00923b
:10e28000043007c8fff768fe0146204602b0bde82b
:10e290001040fff7bdbf02b010bd2de9f743dff816
:10e2a00074804ff42574444308eb04064ff0010ecc
:10e2b00086f831e505464ff0060e08f5a660071909
:10e2c00086f830e509344ff0000e86f8383586f8c8
:10e2d00033e5c6f83425204427f0a5f9d8f80030f6
:10e2e000abb103ebc505d3f808802e696d69032433
:10e2f0004ff48009cdf800902b464246394630460f
:10e3000000f07ffa18b1013c14f0ff04f2d103b021
:10e31000bde8f08370e1100070b5b8b10479027bfc
:10e32000857881680a4b2046013ce4b2fff7c1fdc5
:10e33000042c98bf074a064998bf125d034688bf60
:10e3400010222846bde87040fff7a7bf70bd00bf90
:10e35000c8eb100000570f00f0b5244e90f8905213
:10e3600033688778adf5237d011d04464ff4217293
:10e370006846a19327f057f9012d16d007d3022d37
:10e380001bd0a19a33689a422cd005f03ff9684619
:10e39000fff7b0fe164b1b6898680028f1d00023e9
:10e3a0001a461946fdf7bfffebe7b4f88c22d4f804
:10e3b00088126846fff7b0feece7402200210d48c6
:10e3c00027f03cf90b496846fff7d8fe7f9a0021f9
:10e3d00081a827f033f90023302206493846fff799
:10e3e0005cffcee70df5237df0bd00bf80fd004052
:10e3f00070e11000c8eb10002de9f7434ff42573ce
:10e40000dff86480434308eb03070124054608f561
:10e41000a660c61887f8314505334ff0000e032477
:10e42000184487f8304587f833e587f8342527f016
:10e43000faf8d8f80030a3b103ebc505d3f808808b
:10e440002f696d694ff48009cdf800902b46424644
:10e450003146384600f0d5f918b1013c14f0ff04fc
:10e46000f2d103b0bde8f08370e1100038b570b1af
:10e470000479802c0bd8857805482146fff7fcfcf1
:10e48000224628460249bde83840fff7b5bf38bdef
:10e4900008ec100000b15fe770472de9f7430d4627
:10e4a000f1b1114b1b68dbb101224a7003ebc000d4
:10e4b000f1220a7006694769d3f80c800022ca70fd
:10e4c00003244ff48009cdf800903b46424629468c
:10e4d000304600f096f918b1013c14f0ff04f2d177
:10e4e00003b0bde8f08300bf70e110002de9f041fa
:10e4f00088b070b390f80280174d90f804e04ff4a4
:10e50000257404fb08f405f5a66704f138033b44c1
:10e510000593231d30263b44069604960393c36956
:10e520000293836901934369009300f108010ec9c6
:10e530007046fff767fd2b193919c3f89c05404653
:10e54000c3f86465c3f8986508b0bde8f041fff70b
:10e55000a4bf08b0bde8f08170e1100038b51d4dd2
:10e560002a68aab3fff740fe044688b32b68014629
:10e570000022186800f061f950bb2378023b072b9a
:10e58000f0d801a252f823f0a9e50c0065e50c00d3
:10e59000c9e50c00b1e50c0065e50c00b9e50c001f
:10e5a00065e50c00c1e50c002046fff75fffd9e7e9
:10e5b0002046fff7b1fed5e72046fff75bfed1e727
:10e5c0002046fff793ffcde72046fff763ffc9e73b
:10e5d00038bd00bf70e1100073b5124cfff7fafdb3
:10e5e0002068e8b100231a46194680680e4efdf7f0
:10e5f0009afe20680d4cc06800231a461946fdf7a4
:10e6000092fe4ff0ff35009500230122314620682d
:10e61000fef73ef80302f6d52046fff79ffff2e72c
:10e6200002b070bd70e110000100800000f0100029
:10e630002de9f043284f93b03b6811938946064675
:10e6400003f036fb054603f037fbb846044645b9f0
:10e650004ff0ff30119ad8f800309a4238d004f0c9
:10e66000d5ff44221d49684626f0ddff1c4b009370
:10e670004ff48073adf8083007230493194b0396c9
:10e680000593cdf81890671eecb127421bd12f429d
:10e6900003d01549712003f019f90894079503f088
:10e6a000e3f9124c099004f500616846fbf7b4faef
:10e6b0000128cdd1d4f800080f2100f0f9ff7368cc
:10e6c00023600020c6e70849702003f0fff8dee76a
:10e6d00013b0bde8f08300bf80fd004008570f0075
:10e6e000d9e50c0000f410004c570f0000f01000aa
:10e6f0000048704700f0100010b50c4602f0fbf91e
:10e700002146fff795ff002010bd00bf08b501f0be
:10e7100001f800f033f902f0a1f902f0fdf900f080
:10e720009bf902f0ddfa02f055fa00f099f800f0da
:10e730004dfb02f0c7fb00f0ebf900f0e1fb00f04d
:10e7400079f902f0d7f902f033fa00f0cff902f0cc
:10e7500067fb02f0a3fa00f0dff800f097fb02f08d
:10e7600025fc00f0a1fabde8084000f03bbc37b53d
:10e770000d460446114638b100230093026d031d77
:10e780002846fdf755fe2060002003b030bd08b5d7
:10e7900040b139b10022fdf7dcfd10f1ff3018bfa8
:10e7a000012008bd012008bd08b538b131b1fdf721
:10e7b000d0fd10f1ff3018bf012008bd012008bdb9
:10e7c00070b50e461c46054608b9012070bd0029eb
:10e7d000fbd072b900231a4631462846fdf7a3fd47
:10e7e0000128f2d11cb104992046fdf77aff0020e0
:10e7f00070bd4ff0ff311046fdf7cffd0028e9d185
:10e80000e3e770b514461d4608b9012070bd002924
:10e81000fbd000231a46fdf786fd0128f5d11db176
:10e8200004992846fdf75dff2cb100231a461946ce
:10e830002046fdf778fd002070bd70b50c461646e9
:10e84000012530b129b1cd70fff7a1ff18b1002328
:10e85000e370284670bd6378b342fbd0e07070bdb2
:10e8600073b52b4c2b4d04f158035c22022120463a
:10e870002365fff77cff04f58870fdf7fbfe236836
:10e88000c4f828012b61686104f5c2735b22022180
:10e8900004f596700326c4f87c31fff768ff002268
:10e8a00004f50f73114600960120fdf7c1fd00220b
:10e8b0001146c4f8d40204f5227300960120fdf736
:10e8c000b7fdd4f82c31ab616b69c4f8d802eb61a9
:10e8d0006863d4f8d43220682b630a2100f000ff6b
:10e8e0003146d4f82c0100f0fbfed4f8d4021021fc
:10e8f00000f0e8fed4f8d802202100f0e3fed4f8be
:10e900002801042102b0bde8704000f0f3be00bf52
:10e910000028100000e0110010b50f4c00206269c3
:10e92000216900f08df800f086f8036823608368a1
:10e93000e360436863606269c3682169a360012082
:10e9400000f038fa00f032fa0369a3634369e36325
:10e95000036a236410bd00bf00e011000048704747
:10e9600000e01100012806d8034b043043f83010b2
:10e9700003ebc0004260704700e0110037b52b4c3c
:10e980005c2204f15803022120462365fff7effec5
:10e9900004f5b4735c22012104f58870c4f8603179
:10e9a0000325fff7e4fe002204f5e273114600950b
:10e9b0000120fdf73dfd002204f504731146c4f863
:10e9c0005c0200950120fdf733fdc4f8600204f5f8
:10e9d0001970fdf74ffe164bd4f81011226899609c
:10e9e000d4f85c12d960d4f8601258601961c4f888
:10e9f0007c02002110461a6000f072fed4f810016b
:10ea0000012100f06dfed4f85c02012100f05afef5
:10ea1000d4f86002022100f055fed4f87c020121f6
:10ea200003b0bde8304000f065be00bfdc2a100036
:10ea300000f2110070470148704700bf00f211005a
:10ea4000012805d8831c034800ebc30041608260a5
:10ea5000704700bf00f2110037b5224c302204f19c
:10ea600058030521204623650325fff780fe002279
:10ea700004f5a473114600950120fdf7d9fc00228e
:10ea800004f5ca731146c4f8e00100950120fdf7b2
:10ea9000cffcc4f8e40104f5f470fdf7ebfd124b74
:10eaa0002268d4f8e0119960d4f8e4115860d96074
:10eab000c4f80002022110461a6000f011fed4f8da
