:020000040000FA
:200000000060120051830C00C9830C008D3A0D00A93A0D00A73A0D00AB3A0D00C1830C0042
:20002000C1830C00C1830C00C1830C0095860C00C9830C00C1830C00CD850C0065860C00AC
:20004000D93B0D00053C0D007D3C0D00193D0D00813D0D00AD3A0D00B13A0D00C9830C00F9
:20006000C9830C00C9830C00B53A0D00C1830C00ED3A0D00213B0D00C9830C00413B0D0006
:20008000C1830C00C9830C00C1830C00C1830C00C9830C00C9830C00C9830C00C9830C00B8
:2000A000C9830C00C9830C00C9830C00C9830C00C9830C00C9830C00C9830C00C9830C0080
:2000C000C9830C00C9830C00C1830C00C1830C00C1830C00C1830C00C1830C00C1830C0090
:2000E000C9830C00C1830C00C1830C00C1830C00C1830C00C1830C00C1830C00C1830C0078
:20010000C1830C00C1830C00C1830C00C1830C00C1830C00C1830C00C1830C00C1830C005F
:20012000C1830C00C1830C00C1830C00C1830C00C1830C00C1830C00C1830C00C1830C003F
:20014000C1830C00C9830C00C1830C00C9830C00C9830C00C1830C00C1830C00C1830C0007
:20016000C1830C00C1830C00C1830C00C1830C00C1830C00C1830C00C1830C00C1830C00FF
:20018000C1830C00C1830C00C1830C00C9830C00C9830C00C1830C00C1830C00C1830C00CF
:2001A000C1830C00C1830C00C9830C00C9830C00C9830C00C1830C00C1830C00C1830C00A7
:2001C000C1830C00C1830C00C1830C00C1830C00C1830C00C1830C00C1830C00C1830C009F
:2001E000C1830C00C1830C00C1830C00C1830C00C1830C00C1830C00C1830C00C9830C0077
:20020000C9830C00C9830C00C1830C00C1830C00C1830C00C1830C00C1830C00C1830C004E
:20022000C1830C00C1830C00C1830C00C1830C00C1830C00C1830C00C1830C00C1830C003E
:20024000C1830C00C1830C00C1830C00C1830C00C1830C00C1830C00C9830C00C1830C0016
:20026000C1830C00C1830C00C1830C00C1830C00C9830C00C9830C00C1830C00C1830C00EE
:20028000C1830C00C1830C00C9830C00C9830C00C9830C00C9830C00C9830C00C9830C00AE
:2002A000C9830C00C9830C00C9830C00C1830C00C1830C00C1830C00C9830C00C1830C009E
:2002C000C1830C00C1830C00C1830C00C1830C00C1830C00C1830C00C1830C00C1830C009E
:2002E000C1830C00C1830C00C1830C00C9830C00C1830C00C9830C00C9830C00C1830C0066
:20030000C1830C00C1830C00C1830C00C1830C00C1830C00C9830C00C9830C00C9830C0045
:20032000C9830C00C9830C00C9830C00C9830C00C9830C00C9830C00C9830C00C9830C00FD
:20034000C9830C00C9830C0000BF00BF704700BF144A154B1A60BFF34F8FBFF36F8F136806
:2003600083F30888BFF36F8F83F30988BFF36F8FFFF7EAFF0D490E4A0E4B9A42BEBF51F888
:20038000040B42F8040BF8E70B490C4A00209142BCBF41F8040BFAE72BF036FF2BF064FF17
:2003A00009F0B6FE00800C0008ED00E044680F00000010000014100000141000343912009D
:2003C0004FF00D00FEE700BFFEE700BF0000000004232022904204D901331F2B4FEA420276
:2003E000F8D158007047FC480068006880F30888174B1968086801F10401BFF35F8FF74AE3
:20040000136823F001031360F54AB1E8F00F82E8F00F01F12001F34AF0C982E8F000EF4AFB
:20042000136843F001031360BFF34F8FB0E8F84F83F3148880F309884FF0000080F31188C7
:20044000704700BFAFF30080AFF30080AFF30080B0621000836913F8022C012A09D012B1B2
:20046000022A0FD070470E4A136843F01F431360B9E70C4B4FF080521A60BFF34F8FBFF31B
:200480006F8F7047084A934208D3084A934205D8EFF3148121F0010181F31488704700BF91
:2004A0001CED00E004ED00E000C00C0054DF0C0010B5012B21F0010140F8081C40F8202C93
:2004C0004FF080744FF000016FF002020CBF0223032340F8044C40F80C1C40F8242C40F888
:2004E000483C483810BD054B1B68B3F57A7F04D0034940F2092009F0CFBD704700001000F0
:20050000E0460F00F8B504461646069839BB2A4B2A4843F014022260C01AFFF759FF284B74
:2005200003436360274B284843F01502C01AA260FFF74EFF1623C4E90431172340F08370EF
:20054000C4E9063140F00110E06076B33368236473686364B368A364F368E364F8BD40B1DF
:2005600043F0140323608000FFF732FF144B0343636025460527486898B10B683B4343F0EB
:200580001003AB60FFF724FF8B68184340F001000137082FE86001F10C0105F10805EAD131
:2005A000D3E747F01003AB60F2E74FF0FF33C4E91033A364D1E700BF0000100000601200F2
:2005C000010007030018100000681000EFF30980BFF36F8F224B1A681EF0100F08BF20ED65
:2005E000108AEFF3148120E9F24F10602DE909004FF0A00080F31188BFF34F8FBFF36F8FE6
:2006000002F090F84FF0000080F3118809BC1968086801F10401BFF35F8F704A136823F080
:20062000010313606E4AB1E8F00F82E8F00F01F120016C4AF0C982E8F000684A136843F04E
:2006400001031360BFF34F8FB0E8F84F83F314881EF0100F08BFB0EC108A80F309887047BD
:20066000B062100010B5EFF311844FF0A00383F31188BFF36F8FBFF34F8F01F09FFD18B195
:20068000034B4FF080521A6084F3118810BD00BF04ED00E01EF0040F0CBFEFF30880EFF3DC
:2006A0000980D7E613B5564B564C1A78D2B20192FF221A701B78DBB28DF803309DF80330F5
:2006C00003F0A00323700723636000229DF80310090603F1FF3000F18A8012B1042B636058
:2006E00004D0494940F2C71009F0D6FC6368444A1B0203F4E0636360019B444CDBB2137011
:20070000434B1A6842F460021A601A6842F060421A602268B2F5006F04D03B494FF431700B
:2007200009F0BAFC2368B3F5006F38D1394B3A4C3A4843F010022260C01AFFF749FE384B72
:20074000384903430B60384B384843F011022260C01AFFF73DFE364B03430B60354B364861
:2007600043F012022260C01AFFF732FE40F08370324B40F00110086023606FF06040FFF7EF
:2007800027FE40F098502E4A40F001000860136843F480331360136F43F00503136709F003
:2007A000A7F9284B00241C6009F066F9264A136843F04043136008480068006880F30888F7
:2007C0004FF0000080F3148862B661B6BFF34F8FBFF36F8F00DF00BF08ED00E094ED00E088
:2007E0009CED00E0F0010840204602B010BD9DF803305B00DBB28DF803300122034665E752
:2008000000E400E098281200E0460F0090ED00E020ED00E000800C009CED00E000001000BE
:2008200001000706A0ED00E000800C0000C00C0001000705001810000068100013000040E5
:2008400024ED00E00000100034EF00E013B5044618B90B49682009F01FFC18230193019B56
:20086000182B03D00649702009F016FC2CB12046002340F8043B00F08BF9204602B010BD42
:200880001D470F002DE9F843089F0D4690469946064620B93A4940F24D1009F0FDFB15F0B8
:2008A0007F4F2FD036494FF4A77009F0F5FB01F0F9FF28B927B1324900F5A97009F0ECFB9E
:2008C0001021304607F048F8002856D101F0CCFB346805EA0403B9F1000F19D1D3B907B3B8
:2008E000B8F1000F0CBF00214FF08071B9F1000F01D041F080613A462943301D01F05CFE04
:2009000000240EE0002DD2D11D4940F24F10CCE79D42E4D1B8F1000F24D024EA0503336062
:20092000002701F0C3FCD7B138B9164B4FF080521A60BFF34F8FBFF36F8F01F099FF83012E
:2009400004460AD409F0A2F8346805EA0403B9F1000F09D153B909F0AFF824F07F442046CE
:20096000BDE8F8834746DCE79D42F4D1B8F1000FF1D024EA05053560EDE70024EFE700BFB0
:200980001D470F0004ED00E070B50C46054620B90B494FF4F67009F07FFB14F07F4F04D062
:2009A000074940F2ED1009F077FB09F06FF82E6826EA04042C6009F07FF8304670BD00BFE1
:2009C0001D470F002DE9F0410F46044620B91F494FF40B7009F060FB17F07F4F04D01B495E
:2009E00040F22D2009F058FB2021204606F0B4FF054640BB01F038FB21682069394304F1EF
:200A00000C0621608642216807D121EA0501216001F04CFC2068BDE8F081D0E9002822F0BE
:200A20007F4312F0806F03EA010702D11FB94046E8E7BB42FBD1D20141F0007148BF1D4369
:200A400001F036FEF3E70020E5E700BF1D470F00FFF7B8BF70B504460D46164606F0D0FF29
:200A600038B933462A4621460348BDE8704002F037B8002070BD00BF518A0C0012F07F4FF1
:200A80002DE9F0410646884615461F463DD02749CF2009F001FB01F005FF20B91FB12349CA
:200AA000D32009F0F9FA01F0DFFA34684146304644EA0804FFF786FF35EA04032AD1336883
:200AC00023EA05033360002701F0F0FBD7B138B9174B4FF080521A60BFF34F8FBFF36F8FC5
:200AE00001F0C6FE830104460AD408F0CFFF346835EA040304BF24EA0505356008F0DCFFCA
:200B000024F07F442046BDE8F081002AC3D10749D020BEE73FB13A4645F0A061301D01F0FB
:200B20004BFD0024D0E73468CEE700BF1D470F0004ED00E0EFF311834FF0A00282F31188D9
:200B4000BFF36F8FBFF34F8F006883F311887047F8B5044601F088FA0B4E04F10C0540F22C
:200B6000962763681BB9BDE8F84001F09FBB2369AB4203D13146384609F08EFA4FF000717E
:200B8000206901F095FDECE71D470F00FFF7FCBE00F108034FF0FF324360C0E90223036112
:200BA0000023036070470023036170470A68531C30B50AD103695A684A6091608B605960AC
:200BC000036808610133036030BD00F108035C6825689542EFD82346F9E743684B609A6831
:200BE0008A609A685160996003680861013303607047D0E9011203698A60516059688142E6
:200C000008BF5A60002202611A68013A1A6018687047000010B5044608F038FFA46B08F01B
:200C20004BFFB4FA84F0400910BD70B51646026C856B044662B17EB940682BF047FB6368EF
:200C4000226C1344A2686360934201D3236863600135A563002070BDC0682BF037FB236C5C
:200C6000E26821685B421A448A42E2603EBFA2689B18E360022EEBD1002DE9D0013DE7E7BD
:200C800073B5846C019024B91B4940F6B43009F003FAA26BE36B9A4204D3174940F6B530D1
:200CA00009F0FAF9A26BE36B9A4222D294F84550002201A92046FFF7B8FF6DB26B1C06462B
:200CC0000BD1636A33B104F1240001F0B9FC002818BF0126304602B070BD7F2D04D106497D
:200CE00040F6D53009F0D8F901356DB284F84550F0E70026EEE700BF49470F0070B50446EA
:200D000008F0C4FE94F8455004F124066DB2002D14DCFF2384F8453008F0CEFE08F0B6FE1A
:200D200094F8445004F110066DB2002D18DCFF2384F84430BDE8704008F0BEBEA36C43B16A
:200D40002046FFF79DFF08B101F0A4FD013D6DB2DDE7636A002BDCD0304601F071FCF2E7DE
:200D60002369002BE3D0304601F06AFC08B101F091FD013D6DB2D8E7034610B41A6C084607
:200D800062B1D9689C681144A142D96024BF1968D960D9685DF8044B2BF098BA5DF8044BF7
:200DA00070472DE9F04F1F4687B05D4B01921A68059288460446994620B95A494FF44470CD
:200DC00009F06AF9B8F1000F06D1236C23B1554940F2113009F060F9022F07D1E36B012BDF
:200DE00004D0504940F2123009F056F901F05AFD30B9019B23B14B4900F2153009F04CF920
:200E000002222146404606F027FD002839D1DFF818A106464FF0805B08F038FEA26BE36BF6
:200E20009A4201D3022F28D13A4641462046A56BFFF7FBFEA36CC3B1022F00D15DB920466B
:200E4000FFF71EFF38B1384B4FF080521A60BFF34F8FBFF36F8F08F02FFE0120059AD9F892
:200E600000309A4258D00AF09DFF636A002BE9D004F1240001F0E4FBE4E7019D1DB908F0D7
:200E80001BFE0020EAE716B903A801F01BFD08F013FE01F0E9F808F0F9FD94F84430FF2BD2
:200EA00004BF002384F8443094F84530FF2B04BF002384F8453008F0FFFD01A903A801F020
:200EC0000BFD18BB08F0E2FDA26BE36B9A420ED108F0F2FD019904F1100001F053FB20461F
:200EE000FFF70CFF01F0E2F948B1012694E708F0E3FD2046FFF702FF01F0D8F9F5E7CAF8F5
:200F000000B0BFF34F8FBFF36F8FEEE72046FFF7F5FE01F0CBF9B4E707B0BDE8F08F00BFD3
:200F200080FD004049470F0004ED00E02DE9F0474B4B86B00E4601921A6805920446984643
:200F400020B9484940F2B46009F0A6F836B9236C23B144494FF4D76009F09EF801F0A2FCD3
:200F600030B9019B23B13F4900F2BD6009F094F8DFF8F49000274FF0805A08F087FDA36BD7
:200F8000F3B131462046E568FFF7F6FE636AE56063B104F1240001F053FB38B1324B4FF076
:200FA00080521A60BFF34F8FBFF36F8F08F084FD0120059AD8F800309A424ED00AF0F2FE88
:200FC000019D1DB908F078FD0020F2E717B903A801F078FC08F070FD01F046F808F056FD78
:200FE00094F84430FF2B04BF002384F8443094F84530FF2B04BF002384F8453008F05CFD9E
:2010000001A903A801F068FCE0B92046FFF702FE90B1019904F1240001F0B4FA2046FFF742
:201020006DFE01F043F928B9C9F800A0BFF34F8FBFF36F8F0127A0E72046FFF75FFE01F03D
:2010400035F9F7E72046FFF759FE01F02FF92046FFF7E0FD0028EDD0B6E706B0BDE8F0872B
:2010600080FD004049470F0004ED00E0F8B50D46044620B916494FF4F56009F00DF81DBB53
:20108000236CE3B9124940F2AA7009F005F808F057FDEFF311864FF0A00383F31188BFF320
:2010A0006F8FBFF34F8FA06B30B1E76820462946FFF762FEE760012086F31188F8BD0449C0
:2010C00040F2A97008F0E8FF236C002BDFD1D9E749470F002DE9F047504F86B03B680192C5
:2010E00088460593044620B94D4940F23B5008F0D3FFB8F1000F06D1236C23B1484940F295
:201100003F5008F0C9FF01F0CDFB30B9019B23B1434900F2445008F0BFFF012221460020FC
:2011200006F09AFB30B10020059A3B689A4271D00AF038FE0646DFF8EC904FF0805A3AE0C2
:20114000019D15B908F0B8FCEDE716B903A801F0B9FB08F0B1FC00F087FF08F097FC94F852
:201160004430FF2B04BF002384F8443094F84530FF2B04BF002384F8453008F09DFC01A9BE
:2011800003A801F0A9FB002839D12046FFF742FD78B3019904F1240001F0F4F92046FFF72A
:2011A000ADFD01F083F828B9C9F800A0BFF34F8FBFF36F8F012608F069FCA56B002DBFD047
:2011C00041462046013DFFF7D7FDA563236963B104F1100001F034FA38B1124B4FF08052F7
:2011E0001A60BFF34F8FBFF36F8F08F065FC01209AE72046FFF782FD01F058F8DAE72046F7
:20120000FFF77CFD01F052F82046FFF703FD0028D0D088E706B0BDE8F08700BF80FD004043
:2012200049470F0004ED00E010B5044620B9064940F2DB7008F030FF08F028FCA46B08F040
:201240003BFC204610BD00BF49470F0038B5054620B9074940F2EC7008F01EFF08F016FCB8
:20126000A86BEC6B241A08F027FC204638BD00BF49470F0020B9034900F6080008F00CBF0C
:20128000704700BF49470F002DE9F047894690461F46044620B932494FF47B7008F0FCFE24
:2012A000B9F1000F06D1236C23B12D4940F2ED3008F0F2FE022F07D1E36B012B04D02849C6
:2012C00040F2EE3008F0E8FE08F03AFCEFF311864FF0A00383F31188BFF36F8FBFF34F8F08
:2012E000A26BE36B9A4201D3022F37D194F84550D4F838A06DB23A4649462046FFF795FCCA
:201300006B1C1FD1A36CABB1022F04D1BAF1000F01D001200AE02046FFF7B2FC0028F8D055
:20132000B8F1000FF5D00120C8F8000086F31188BDE8F087636A002BEBD004F1240001F064
:201340007FF9EBE77F2D04D1054940F2774008F0A3FE01356DB284F84550DAE70020E5E7DF
:2013600049470F00F8B50F46044620B9284940F2974008F091FE236C23B1254940F29B40CA
:2013800008F08AFE236833B9A36823B120494FF4946008F081FE08F0D3FBEFF311864FF0E2
:2013A000A00383F31188BFF36F8FBFF34F8FA36BE26B9A4229D994F8455001336DB2A36388
:2013C0006B1C16D1A36C63B12046FFF759FC08B9012003E0002FFBD00120386086F3118841
:2013E000F8BD636A002BF3D004F1240001F028F9EDE77F2D04D1064940F21F5008F04CFECB
:2014000001356DB284F84550E2E70020E6E700BF49470F002DE9F84389469046054620B938
:20142000244940F2497008F037FEB9F1000F06D12B6C23B11F4940F24A7008F02DFE08F0BD
:201440007FFBEFF311874FF0A00383F31188BFF36F8FBFF34F8FAC6B54B395F84460494689
:2014600076B22846FFF788FC013C731CAC6313D12B690BB901200BE005F1100001F0E0F86A
:201480000028F7D0B8F1000FF4D00120C8F8000087F31188BDE8F8837F2E04D1054940F2CB
:2014A0008D7008F0F9FD013676B285F84460E1E72046EDE749470F0010B5044620B90549EA
:2014C00040F6621008F0E8FDA06BB0FA80F0400910BD00BF49470F0010B5044620B90549B8
:2014E00040F68B1008F0D8FDE06BA36BC31A5842584110BD49470F0010B5044620B9034945
:2015000040F2FD7008F0C8FDA06B10BD49470F002DE9F0434B4F87B03A68019105920446C9
:2015200020B9494940F2D45008F0B6FD236C23B145494FF4BB6008F0AFFD01F0B3F930B9C6
:20154000019B23B1404900F2DD5008F0A5FD0421204606F0E7F930B10020059A3B689A4259
:201560006CD00AF01FFC0646DFF8E0804FF0805939E0019D15B908F09FFAEDE716B903A81B
:2015800001F0A0F908F098FA00F06EFD08F07EFA94F84430FF2B04BF002384F8443094F8E0
:2015A0004530FF2B04BF002384F8453008F084FA01A903A801F090F9A8BB2046FFF72AFB8C
:2015C00058B3019904F1240000F0DCFF2046FFF795FB00F06BFE28B9C8F80090BFF34F8F7C
:2015E000BFF36F8F012608F051FAA36B002BC0D0013BA363236963B104F1100001F020F818
:2016000038B1124B4FF080521A60BFF34F8FBFF36F8F08F051FA01209FE72046FFF76EFB0A
:2016200000F044FEDEE72046FFF768FB00F03EFE2046FFF7EFFA0028D4D08DE707B0BDE8E7
:20164000F08300BF80FD004049470F0004ED00E070B505460E4608F019FAAC6C3CB9AB6B39
:201660000BB9AE64012408F027FA204670BD0024F9E738B5836C8B42044608D1856B35B915
:2016800008F004FAA56408F017FA012038BD0020FCE713B5084C236801930A4600236946CC
:2016A0000093FFF717FD019A236800989A4201D00AF078FB02B010BD80FD004013B5084C5D
:2016C00000222368019369460092FFF7A3FE019A236800989A4201D00AF064FB02B010BDAE
:2016E00080FD004070B504460D46164608F0CEF994F84430FF2B04BF002384F8443094F8C4
:201700004530FF2B04BF002384F8453008F0D4F9A36B2BB93246294604F1240000F072FF3B
:201720002046BDE87040FFF7E9BA38B50D46044620B91A494FF48A7008F0AEFC08F0A6F919
:20174000D4E90F31226862604B43D0185B1A1344A060E3600020FF23A06384F8443084F80A
:20176000453095B9236963B104F1100000F068FF38B10B4B4FF080521A60BFF34F8FBFF39E
:201780006F8F08F099F9012038BD04F11000FFF7FFF904F12400FFF7FBF9F2E749470F003D
:2017A00004ED00E0F7B50D4616461C46074620B9194940F24F1008F06FFC24B9164940F2B1
:2017C000531008F069FC06B325B9134940F2571008F062FC4C230193019B4C2B04D00E4926
:2017E0004FF4B07008F058FC019B5CB1002D08BF26462660C4E90F7501212046FFF795FF68
:201800000023A364204603B0F0BD002DE2D002494FF4AC70DCE700BF49470F0073B50D46B3
:201820001646044620B90C494FF4357008F034FCAC4204D2084940F2D52008F02DFC022342
:2018400000220093114633462046FFF7ABFF00B1856302B070BD00BF49470F00F8B51A4C14
:201860000646256863686068002283F8942054300F46FFF7BEF938B96268A368D16F0122FC
:201880008A4023EA0203A360731C07D137B161680E485431BDE8F840FFF79FB96368AD19BA
:2018A0005D6506D3206A6168BDE8F8405431FFF77DB9606A61685431FFF778F9A36AAB4233
:2018C00088BFA562F8BD00BFAC621000B86210000268F0B503461AB342685068586003F1CB
:2018E0000802904204BFD86858605868C768586840685860824204BF506858605868C06863
:201900004D1E00F1840400F18E0C14F801EB15F8016F764502D126B16445F6D18742E6D18E
:201920000020F0BD2DE9F74F0F9C0D9F960081460D469046A5213246D4F880009A462AF01D
:20194000D3FCD4F88020043E16444FEAD77B26F00706002D3DD06A1E04F18401093512F87E
:20196000010F01F8010B08B1AA42F8D1002284F88D2027F0004222F007026ABB27F00045A4
:20198000E56704F15400FFF70EF9C5F1080504F16800FFF708F9A566002524666467C4F85D
:2019A0009050CDF80080D4F880300C9A1099201DFEF7A8FD5B4684F89450524649463046C2
:2019C000FEF776FD0E9B206003B11C6003B0BDE8F08F84F88450CCE70725D1E72DE9F04141
:2019E000304C074608F052F8E36A0133E362656804F13006002D4AD16760E36A012B20D1A5
:201A0000B04640460135FFF7C3F8082D08F11408F7D1254D284605F11408FFF7B9F8404632
:201A2000FFF7B6F805F12800FFF7B2F805F13C00FFF7AEF8A5F1C400FFF7AAF86562C4F801
:201A40002080D4F82431FA6FA1680133C4F824310123934014200B4300FB026007F15401EB
:201A6000A360FFF7BAF808F027F8D4F8203163B16368DA6FFB6F9A4207D20C4B4FF08052D8
:201A80001A60BFF34F8FBFF36F8FBDE8F081D4F82031002BD5D16368DA6FFB6F9A4298BFD7
:201AA0006760CEE7AC6210007C63100004ED00E008B50F4CD4F8283133B9236B012B00D910
:201AC00001DF08F0F9FAF5E707F0E0FFD4F81831D8685430FFF78DF8E36A013BE362D4F89B
:201AE0002831013BC4F8283107F0E6FFE2E700BFAC621000054B5A6A126812B9013A9A622A
:201B000070475A6AD2681268F9E700BFAC62100010B5044620B9094940F2437008F0BCFA0C
:201B2000636E074A934207D1A06FEC33984203D0B0FA80F0400910BD0020FCE76E470F0004
:201B4000B86210002DE9F0478AB09946DDE91354204B90461A68099206460F469A4625B90B
:201B60001D4940F2512008F097FA24B91A4940F2522008F091FA98230793079B982B04D0DE
:201B8000154940F25A2008F087FA079BA4B10023D5B108AAC4F880500292129ACDE90343A8
:201BA000CDE9003239464B4642463046FFF7BAFE2046FFF713FF089C099ADAF800309A42EE
:201BC000204603D00AF0EEF82C46F5E70AB0BDE8F08700BF80FD00406E470F0070B54369B7
:201BE00086B004460E4623B914494FF4227008F053FA236C23B9114940F2892008F04CFAE0
:201C00006369C3B1256CB5B1C5F8803004F11C03CDE9035323690193A3690093D4E9000183
:201C2000E36822890296FFF77DFE2846FFF7D6FE012006B070BD4FF0FF30FAE76E470F0056
:201C400007B508B9054B5868002300931A460430FEF758FC03B05DF804FB00BFAC62100080
:201C600070B50546264C07F011FF05B9656805F154063046FEF7BDFF58B9E86F142101FBE0
:201C800000410B6B2BB9A3680122824023EA0203A360AB6F1BB105F16800FEF7AAFFD4F8F6
:201CA00024310133C4F824316368AB4221D131461448FEF792FFD4F828310133C4F8283119
:201CC00007F0FAFED4F8203193B16368AB420FD1D4F82C3123B10C4940F2FA4008F0DCF991
:201CE0000A4B4FF080521A60BFF34F8FBFF36F8F70BDE36A013BE362FFF7FCFEE0E700BF53
:201D0000AC621000B86310006E470F0004ED00E010B5044607F0BAFE0CB9034B5C68E46FFD
:201D200007F0CAFE204610BDAC62100010B5044607F006FFEFF311834FF0A00282F3118823
:201D4000BFF36F8FBFF34F8F0CB9034A5468E06F83F3118810BD00BFAC6210002DE9F04126
:201D6000064620B9174940F2915008F095F9164C6368B3421FD007F089FED4F82480756E63
:201D8000276A07F099FE454517D0BD4215D004F10C039D4206D1B36F002B14BF02200320B0
:201DA000BDE8F08104F58674A54208D0002D0CBF04200120F4E70020F2E70220F0E704202D
:201DC000EEE700BF6E470F00AC62100007292DE9F84304460D4605D92A4940F2316008F063
:201DE0005BF9072507F052FE0CB9274B5C68D4F87C904D453AD0244F3CD97B68A3423ED04F
:201E00007B68DE6FAE428CBF00260126A36EE567002BA4BFC5F10805A5661C4D626E1423E1
:201E200003FB09539A4218D104F154084046FEF7E0FE30B9BB68012202FA09F223EA0203A1
:201E4000BB60E26FB9680123934014200B4300FB02504146BB60FEF7C0FE3EB10C4B4FF055
:201E600080521A60BFF34F8FBFF36F8FBDE8F84307F022BE7E68331B5E425E41C6E70026D9
:201E8000C4E700BF6E470F00AC621000DC62100004ED00E070B5044620B91A4940F26D701D
:201EA00008F0FAF8184D6B68A3422AD04CB307F0EDFD2046FFF72CFEF8B104F1540630464D
:201EC000FEF797FEE26FA968012393400B43AB60142005F1300300FB02303146FEF77DFE55
:201EE0006B68E26FDB6F9A4207D3084B4FF080521A60BFF34F8FBFF36F8FBDE8704007F054
:201F0000DBBD70BD6E470F00AC62100004ED00E02DE9F041054620B9214940F2A47008F036
:201F2000BBF807F00DFEEFF311874FF0A00383F31188BFF36F8FBFF34F8F2846FFF7E8FDF8
:201F40008046F0B1174CD4F82C31FBB96368EA6FDB6F05F154069A42304634BF4FF0000890
:201F60004FF00108FEF745FEEA6FA168012393400B43A36014203034314600FB0240FEF7F6
:201F80002CFE87F311884046BDE8F08105F1680104F1F800FEF721FE4FF00008F1E700BF2A
:201FA0006E470F00AC621000F0B5224C224D236889B0002606AA05A904A80793CDE904660F
:201FC00008F052F8049B0293059B01934FF0004300931A49069A1A483346FFF7B3FD0E218F
:201FE0000746C5F8300105F0DBFE9FB100F01AFE012815D14FF0A00383F31188BFF36F8FD0
:20200000BFF34F8F4FF0FF33AB62C5F820012E60FEF748FB079A23689A4209D009F0C2FE74
:20202000431CF7D1074900F65B0008F035F8F1E709B0F0BD80FD0040AC62100093470F00B1
:20204000B19A0C006E470F004FF0A00383F31188BFF36F8FBFF34F8F024B0022C3F82021C9
:20206000FEF741BAAC621000034AD2F82C310133C2F82C31704700BFAC621000014B186833
:20208000704700BFAC62100008B507F059FD014B186808BDAC621000014BD86A704700BFEF
:2020A000AC62100010B5044638B9054B5C6824B9044940F66E1007F0EFFF04F1840010BDE5
:2020C000AC6210006E470F0008B9064B5868D0F880200020135CA52B02D0C0F38F007047BA
:2020E0000130F7E7AC62100038B50D46044608B9044B5C6807F0CAFCC4F89050BDE83840DF
:2021000007F0DABCAC62100010B5044608B9054B5C6807F0BBFCD4F8904007F0CDFC2046C0
:2021200010BD00BFAC62100008B9084B5868EFF311834FF0A00282F31188BFF36F8FBFF35A
:202140004F8FD0F8900083F311887047AC62100008B9044B5868D0F890300BB108461847A4
:2021600018467047AC62100010B5064CD4F8302122B9054940F6492007F08EFFD4F83001AF
:2021800010BD00BFAC6210006E470F0010B5044620B9084940F6F44007F07EFF07F076FC51
:2021A000054BD3F834211B6822606360BDE8104007F082BC6E470F00AC6210002DE9F84F7E
:2021C000374BD3F82C211C46002A60D11F6801371F6097B95B6A1B6823B1324940F6DC2051
:2021E00007F05AFF636A226A62622362D4F834310133C4F83431FFF77DFCA36A9F424FF0CB
:20220000000515D26368DB6F142202FB03431B6B022BD4F8383128BF01250BB907F04DFF48
:20222000D4F83C31002B18BF01252846BDE8F88FDFF874904FF0010B4FF0140A636A1B68D0
:2022400013B9013BA362DDE7636ADB68DE68736D9F42F7D306F154084046FEF7CAFCB36F16
:202260001BB106F16800FEF7C4FCF06FA2680BFA00F3134341460AFB0090A360FEF7ADFC0A
:202280006368F26FDB6F9A4228BF0125D6E7D3F838210132C3F83821002507F00EFFC4E7E3
:2022A000AC6210006E470F00DC6210002DE9F843304CD4F82C3123B92F4940F6C90007F0AE
:2022C000EBFE07F0E3FBD4F82C31013BC4F82C31D4F82C512DB1002407F0EEFB2046BDE88C
:2022E000F883E36A002BF6D00126244F4FF014081DE0D4F80431DD6805F1540905F168003C
:20230000FEF777FC4846FEF774FCE86FA26806FA00F31343494608FB0070A360FEF75DFC65
:202320006368EA6FDB6F9A4201D3C4F83C61D4F8F830002BDDD10DB1FFF7DCFBD4F8385179
:202340004DB10126FFF73AFF08B1C4F83C61013DF8D1C4F83851D4F83C31002BBBD0084B89
:202360004FF080521A60BFF34F8FBFF36F8F0124B2E700BFAC6210006E470F00DC621000E5
:2023800004ED00E010B5044640B90E4B4FF080521A60BFF34F8FBFF36F8F10BD0A4BD3F853
:2023A0002C3123B1094940F2655007F075FEFFF75BFE00212046FFF751FAFFF777FF00289E
:2023C000E3D0EAE704ED00E0AC6210006E470F0070B50C46054620B9194940F20F5007F041
:2023E0005BFE24B916494FF4A26007F055FE154ED6F82C2122B1124940F2115007F04CFE39
:20240000FFF732FE2A68306814192CBF0121002182422C600CD961B9FFF748FF38B90A4B3F
:202420004FF080521A60BFF34F8FBFF36F8F70BD09B9A042F0D20021201AFFF70FFAEBE712
:202440006E470F00AC62100004ED00E0F8B5054620B91D4940F67C2007F01EFEFFF704FEB5
:202460002846FFF77BFC02282CD105F154073846FEF7BFFB07F00AFBAB6F33B105F1680084
:20248000FEF7B7FB012385F89430104E07F014FBEA6FB168012404FA02F30B43B3601420AD
:2024A00006F1300300FB02303946FEF796FB7368EA6FDB6F9A4201D9C6F83C41FFF7F6FE67
:2024C0002046F8BD0024F9E76E470F00AC6210002DE9F843054603F015FE092804D91849EA
:2024E0004FF41C6007F0D8FD164FFFF7BDFD08264FF0140807F13009013E294608FB06903B
:20250000FFF7E6F90446A8B9002EF5D1786AFFF7DFF9044670B9386A2946FFF7D9F9044601
:2025200040B90948FFF7D4F9044618B90748FFF7CFF90446FFF7BAFE2046BDE8F88300BF29
:202540006E470F00AC621000B8621000B863100038B50A4CD4F82C31054623B1084940F632
:20256000692007F099FDFFF77FFDD4F838012844C4F83801BDE83840FFF798BEAC621000E6
:202580006E470F0038B50D46044620B9084940F6314007F081FD074B596820466831FEF7A0
:2025A00005FB28460121BDE83840FFF757B900BF6E470F00AC621000F8B50D46174606461E
:2025C00020B90E4940F6444007F066FD0C4CD4F82C3123B9094940F6484007F05DFD63682E
:2025E000616845F0004530469D666831FEF7F5FA38460121BDE8F840FFF730B96E470F0082
:20260000AC62100070B50E461446054620B90A494FF4466007F040FD084B5968284668311A
:20262000FEF7DBFA002C21460CBF30464FF0FF30BDE87040FFF712B96E470F00AC62100096
:20264000C36870B5DD6825B917494FF4496007F023FD05F16806154C3046FEF7CAFAD4F8E4
:202660002C31E3B905F154063046FEF7C2FAEA6FA168012393400B43A360142004F13003E4
:20268000314600FB0230FEF7A8FA6368EA6FDB6F9A4286BF0120C4F83C01002070BD314692
:2026A00004F1F800EFE700BF6E470F00AC621000F8B5194CD4F82C3106460D4623B91749A0
:2026C00040F6C84007F0E8FC45F000453560F56825B912494FF44D6007F0DEFC304605F10F
:2026E0005407FEF786FA3846FEF783FAEA6FA168012606FA02F30B43A360094B142000FBC8
:2027000002303946FEF769FA6368EA6FDB6F9A4288BFC4F83C61F8BDAC6210006E470F002F
:20272000DC621000234BD3F82C2170B51D461AB10122C3F83C2170BDC3F83C215B68D3F864
:2027400080301A68B2F1A53F0BD15A68B2F1A53F07D19A68B2F1A53F03D1DB68B3F1A53F9B
:2027600004D068686968843107F0A8FCAC68B4FA84F4E4B2C4F11F04142303FB04531B6BDA
:2027800023B90D4940F6174007F086FC142303FB04F2A918094E486B406848633244904270
:2027A00004BF42684A6303FB0454636BDB686B60C1E700BFAC6210006E470F00E46210002E
:2027C00070B50546264C07F061F905B9656805F154063046FEF70DFA58B9E86F142101FBE0
:2027E00000410B6B2BB9A3680122824023EA0203A360AB6F1BB105F16800FEF7FAF9314696
:202800001848FEF7EAF907F057F9D4F820312BB107F03CF9FFF76EF907F04EF96368AB42C1
:2028200012D1D4F8203183B1D4F82C3123B10E4940F2197007F030FC0C4B4FF080521A6050
:20284000BFF34F8FBFF36F8F70BDE168E26A914201D16360F8E7BDE87040FFF763BF00BF03
:20286000AC621000B86210006E470F0004ED00E0044B5A685968906E5A68CB6FC3F10803F0
:2028800093667047AC621000014B5868704700BFAC621000024B0122C3F83C21704700BFCC
:2028A000AC621000064BD3F8202132B1D3F82C31002B0CBF0220002070470120704700BF0C
:2028C000AC621000034BD3F834211B6802604360704700BFAC62100070B50E46054620B9B3
:2028E0001A4940F60B5007F0D7FB26B9174940F60C5007F0D1FB07F0C9F8154A106853683D
:2029000093F8944044B15368002283F89420012407F0D2F8204670BD3368591CF8D0D2F83C
:2029200034212C686968944204D0814202D800233360ECE7421A9342F9D91B1A0B443360F3
:202940002846FFF7BFFF0024E2E700BF6E470F00AC621000F7B5114C07F098F82568BDB934
:20296000271D384604F11806FEF712F93046FEF70FF91021009504F1340304F18002052081
:20298000C4E90B76FEF70EFF1521206005F022FA03B0BDE8F04007F08FB800BFEC6310005C
:2029A000914208B5416000610AD8D21A83699A420ED2084B011D186BFEF7F8F8002008BD51
:2029C0009A4201D2994203D2024B011DD86AF3E70120F4E7EC6310002DE9F3419846282343
:2029E0000193019B099C282B06460D46174604D015494FF4A37007F04FFB019B44B91249F6
:202A00004FF4A67007F048FB204602B0BDE8F081022384F8243025B90B4940F2671007F02E
:202A20003BFBFFF797FF089B2660C4E906582362201DFEF7B8F8002FE6D094F8243043F041
:202A4000040384F82430DFE798470F0010B5044620B9064940F2154007F01EFB07F016F818
:202A6000E46907F029F8204610BD00BF98470F0038B50D46044620B9054940F2264007F0D1
:202A80000BFB07F003F8E561BDE8384007F014B898470F0010B5044620B907494FF47F70C0
:202AA00007F0FAFA06F0F2FF94F8244004F0010407F002F8204610BD98470F0010B5064C32
:202AC000D4F8D02022B905494FF4DA7007F0E4FAD4F8D00010BD00BFEC63100098470F003A
:202AE00030B50D4C87B01D46236805936FF00103CDE901300948CDE9031200232A4601A938
:202B00000068FEF7C1FB059A23689A4201D009F049F907B030BD00BF80FD0040EC6310000B
:202B20002DE9F043124C134D87B0174622681E462B6805938146884622B90F494FF48B60EB
:202B400007F0AAFA4FF0FF33CDE901393246002301A92068CDE90387FEF723F9059A2B6829
:202B60009A4201D009F01EF907B0BDE8F08300BFEC63100080FD004098470F0010B50446F1
:202B800020B9034940F2FF1007F086FA206810BD98470F0038B50D46044620B90A4940F22D
:202BA000C71007F079FA06F071FF94F824303DB143F0040384F82430BDE8384006F07CBF48
:202BC00003F0FB03F6E700BF98470F0010B5044620B907494FF4EE7007F05EFA06F056FF07
:202BE00094F82440C4F3800406F066FF204610BD98470F0010B5044620B9034940F2BD10FB
:202C000007F04AFAA06910BD98470F0010B5044620B9034940F2F51007F03EFA606810BD86
:202C200098470F0070B51A4E1A4D336888B00793FFF790FE2B685BB940F21510164907F06D
:202C40002BFA0020079A33689A421FD009F0AAF8002406AA05A904A8CDE9044407F00EFA62
:202C6000049B0293059B01930C4B00930C49069A0C482346FEF766FF0D210446C5F8D000F1
:202C800005F08EF8002CD7D00120DBE708B070BD80FD0040EC63100098470F00070000808D
:202CA000BE470F0095AD0C002DE9F043184F87B091463A6805920D469846064620B9154907
:202CC0004FF4C57007F0E8F9134C206880B1052DCDE90159039611DCFFF7E4FD00230228A0
:202CE00008BF0E9A206818BF1A4601A9FEF759F8059A3B689A4207D009F054F800234246D1
:202D000001A9FEF7C1FAF3E707B0BDE8F08300BF80FD004098470F00EC6310002DE9F74397
:202D20001A4DDFF86C800027EB6A1A682AB92A6BC5E90B2303B0BDE8F083DB68DC681E683F
:202D400004F104094846FDF754FF236A2046984794F824305B07E7D5A36933449E4206D291
:202D6000636024614946E86AFDF720FFDCE700230097324619462046FFF796FF0028D3D106
:202D8000414600F2B13007F087F9CDE7EC63100098470F002DE9F0476F4BDFF8C8811B68B7
:202DA0006E4F88B045460793D8F82C301E682EB3DB681E680024FFF757F9FFF75FF9D5F818
:202DC000D430984282461BD3C5F8D4000CB32B6B1C68B4FA84F464092246A6EB0A012868CE
:202DE000FEF780FCFFF762FA80B95D4B4FF080521A60BFF34F8FBFF36F8F07E00124DAE797
:202E0000FFF78CFFC5F8D4A0FFF750FA4FF0000935E08642E0D8FFF749FAEB6ADB68D3F847
:202E20000C9009F10400FDF7E4FE99F824305A071AD5D9F818103346524631444846FFF7EA
:202E4000AFFD60B100942346324621464846FFF72BFF20B9394600F5077007F01DF9D9F889
:202E6000203048469847D1E723F0010389F82430F5E7049B06999847039B002B0ADA002229
:202E800003A92868FEF726F900288DD0039B0598002BEEDB059C6369A3B9FFF7EFF8D5F8BB
:202EA000D4309842064601D2FFF738FF039BC5F8D460092BE3D8DFE803F0090909473147D6
:202EC00009094731201DFDF794FEE6E794F82430A16943F0010384F82430049B3246194473
:202EE0002046FFF75DFD0028C9D0236A2046984794F824305B07C2D5A2690499CDF80090B3
:202F000000230A4420461946FFF7CEFE0028B6D1394600F23E3007F0BFF8B0E794F8243006
:202F200043F0010384F82430049BA36123B9394640F2573007F0B0F8A169334632463144C4
:202F40002046FFF72DFD9AE794F8243023F0010384F8243093E700BF80FD004098470F00BF
:202F600004ED00E0EC631000DEADDEADDEADDEADDEADDEADDEADDEADDEADDEADDEADDEAD9D
:202F8000DEADDEADDEADDEADDEADDEADDEADDEADDEADDEADDEADDEADDEADDEADDEADDEAD81
:202FA000DEADDEADDEADDEADDEADDEADDEADDEADDEADDEADDEADDEADDEADDEADDEADDEAD61
:202FC000DEADDEADDEADDEADDEADDEADDEADDEADDEADDEADDEADDEADDEADDEADDEADDEAD41
:202FE000DEADDEADDEADDEADDEADDEADDEADDEADDEADDEADDEADDEADDEADDEADDEADDEAD21
:2040000008B505F08DFD00B902DF08BD2DE9FF41984604460E461746FFF7F2FF0C9B0293B3
:204020000B9B01930A9B0093054643463A4631462046FDF787FD0446284605F019FD20463C
:2040400004B0BDE8F08170B504460E46FFF7D8FF314605462046FDF7C1FD0446284605F07F
:2040600007FD204670BD70B505460E46FFF7C8FF314604462846FDF7E3FD2046BDE870406A
:2040800005F0F6BC38B50546FFF7BAFF04462846FDF7E6FD2046BDE8384005F0E9BC38B5F9
:2040A0000546FFF7ADFF04462846FEF76BF92046BDE8384005F0DCBC70B505460E46FFF738
:2040C0009FFF314604462846FEF782F92046BDE8704005F0CDBC38B50446FFF791FF054662
:2040E0002046FEF7B3F90446284605F0C1FC204638BD38B50446FFF783FF05462046FDF7A0
:2041000007FE0446284605F0B3FC204638BD38B50446FFF775FF05462046FDF71FFE044636
:20412000284605F0A5FC204638BD70B505460E46FFF766FF314604462846FDF747FE204633
:20414000BDE8704005F094BC38B50546FFF758FF04462846FEF734FB2046BDE8384005F0EC
:2041600087BC38B50546FFF74BFF04462846FDF791FE2046BDE8384005F07ABC10B5FFF7E0
:204180003FFF0446FDF770FF2046BDE8104005F06FBC38B5FFF734FF0546FEF787F804469A
:2041A000284605F065FC204638BD38B5FFF728FF0546FDF763FF0446284605F059FC2046CD
:2041C00038BD38B5FFF71CFF0546FDF765FF0446284605F04DFC204638BD38B50446FFF7CB
:2041E0000FFF05462046FDF75DFF0446284605F03FFC204638BD38B50446FFF701FF0546F5
:204200002046FEF765F90446284605F031FC204638BD38B50446FFF7F3FE05462046FDF7ED
:2042200053FF0446284605F023FC204638BD70B505460E46FFF7E4FE314604462846FDF746
:2042400053FF2046BDE8704005F012BC38B50446FFF7D6FE05462046FDF756FF04462846DB
:2042600005F006FC204638BD70B504460E46FFF7C7FE314605462046FDF76AFF0446284631
:2042800005F0F6FB204670BD38B5FFF7B9FE0546FDF76AFF0446284605F0EAFB204638BD76
:2042A00038B5FFF7ADFE0546FEF7EEFA0446284605F0DEFB204638BD38B50546FFF7A0FE9B
:2042C00004462846FDF762FF2046BDE8384005F0CFBB70B504460E46FFF792FE31460546C4
:2042E0002046FEF7F9FA0446284605F0C1FB204670BD38B5FFF784FE0546FEF7D3FA0446B8
:20430000284605F0B5FB204638BD38B50446FFF777FE05462046FEF71BF90446284605F026
:20432000A7FB204638BD2DE9F04104460E4617469846FFF765FE434605463A4631462046D6
:20434000FCF72FFD0446284605F092FB2046BDE8F081F8B504460E461746FFF751FE3A461B
:20436000054631462046FCF7B5FE0446284605F07FFB2046F8BDF8B504460E461746FFF78F
:204380003FFE3A46054631462046FCF7CFFD0446284605F06DFB2046F8BD70B504460E4686
:2043A000FFF72EFE314605462046FDF7B1F80446284605F05DFB204670BD38B50446FFF751
:2043C0001FFE05462046FCF72FFF0446284605F04FFB204638BD38B50446FFF711FE054615
:2043E0002046FCF733FF0446284605F041FB204638BD38B50546FFF703FE04462846FCF714
:2044000039FF2046BDE8384005F032BBF8B504460E461746FFF7F4FD3A46054631462046C8
:20442000FDF7FCF90446284605F022FB2046F8BD2DE9F341984604460E461746FFF7E0FDB8
:204440009DF820300093054643463A4631462046FDF7A8F90446284605F00AFB204602B054
:20446000BDE8F08170B504460E46FFF7C9FD314605462046FDF7ECF80446284605F0F8FA08
:20448000204670BD70B504460E46FFF7B9FD314605462046FDF7EDF80446284605F0E8FA8A
:2044A000204670BD70B504460E46FFF7A9FD314605462046FDF7EDF80446284605F0D8FA8A
:2044C000204670BD70B504460E46FFF799FD314605462046FDF729F90446284605F0C8FA4D
:2044E000204670BD2DE9F341984604460E461746FFF786FD099B0193089B0093054643464B
:204500003A4631462046FEF767FA0446284605F0AFFA204602B0BDE8F08138B50446FFF737
:204520006FFD05462046FEF791FA0446284605F09FFA204638BD70B505460E46FFF760FD26
:20454000314604462846FEF793FA2046BDE8704005F08EBA38B50446FFF752FD0546204685
:20456000FEF798FA0446284605F082FA204638BD38B5FFF745FD0546FEF7A0FA0446284679
:2045800005F076FA204638BD2DE9F04104460E4617469846FFF734FD434605463A46314649
:2045A0002046FEF7BDFA0446284605F061FA2046BDE8F08138B50446FFF722FD0546204668
:2045C000FEF7DCFA0446284605F052FA204638BD70B505460E46FFF713FD314604462846C3
:2045E000FEF7D8FA2046BDE8704005F041BA38B50446FFF705FD05462046FEF7E7FA044649
:20460000284605F035FA204638BD38B50446FFF7F7FC05462046FEF7EDFA0446284605F053
:2046200027FA204638BD38B50446FFF7E9FC05462046FEF7EBFA0446284605F019FA20463B
:2046400038BD2DE9F341984604460E461746FFF7D7FC089B0093054643463A463146204612
:20466000FEF722FB0446284605F002FA204602B0BDE8F08138B50446FFF7C2FC05462046B5
:20468000FCF7E4F80446284605F0F2F9204638BD2DE9F341984604460E461746FFF7B0FC93
:2046A000089B0093054643463A4631462046FCF7E9F80446284605F0DBF9204602B0BDE881
:2046C000F08170B504460E46FFF79AFC314605462046FCF759F90446284605F0C9F92046D8
:2046E00070BD70B504460E46FFF78AFC314605462046FCF767F90446284605F0B9F920460E
:2047000070BD2DE9F04104460E4617469846FFF777FC434605463A4631462046FCF7AEF918
:204720000446284605F0A4F92046BDE8F08138B50546FFF765FC04462846FCF709FA204610
:20474000BDE8384005F094B908B5FFF759FC05F08FF9002008BD08B5FFF752FC05F088F919
:20476000002008BDFFF7F7BFFFF7F5BF08B5FFF747FCBDE8084005F07BB908B5FFF740FC03
:2047800005F076F9002008BDFFF7F7BFFFF7F5BF08B5FFF735FC05F06BF9002008BD08B59B
:2047A000FFF72EFC05F064F9002008BD08B5FFF727FC05F05DF9002008BD000038B5FFF7B9
:2047C0001FFC054605F062F9084803F083FA50B94FF201039847044605F06EF9284605F02D
:2047E00047F9204638BD0124F6E700BF0100004070B50E460446FFF703FC054605F046F9E5
:20480000094803F067FA60B9204631464FF209039847044605F050F9284605F029F920465E
:2048200070BD0124F6E700BF0002008070B50E460446FFF7E5FB054605F028F9094803F0CA
:2048400049FA60B9204631464FF20D039847044605F032F9284605F00BF9204670BD012466
:20486000F6E700BF0004008038B50446FFF7C8FB054605F00BF9204607F04AFF044605F0FF
:204880001BF9284605F0F4F8204638BD38B50446FFF7B6FB054605F0F9F8204607F01CFFD3
:2048A000044605F009F9284605F0E2F8204638BD38B50446FFF7A4FB054605F0E7F82046CE
:2048C00007F042FF044605F0F7F8284605F0D0F8204638BD2DE9F0410E46174698460546CB
:2048E000FFF78EFB044605F0D1F8094803F0F2F930B9284643463A4631464FF22525A847B1
:2049000005F0DAF82046BDE8F04105F0B1B800BF02000040F8B50E4617460446FFF770FB2C
:20492000054605F0B3F80A4803F0D4F968B920463A4631464FF215239847044605F0BCF8B1
:20494000284605F095F82046F8BD0124F6E700BF040000402DE9F3410E4617469846044624
:20496000FFF74EFB054605F091F80E4803F0B2F9A8B99DF824300193089B00932046434638
:204980004FF235243A463146A047044605F094F8284605F06DF8204602B0BDE8F0810124B9
:2049A000F4E700BF0800004070B50E460446FFF727FB054605F06AF8094803F08BF960B9B7
:2049C000204631464FF221239847044605F074F8284605F04DF8204670BD0124F6E700BFEF
:2049E0001000004070B5044606480D4603F0B6F930B9294620464FF22123BDE870401847BE
:204A0000012070BD100000402DE9F0410E46174698460446FFF7F4FA054605F037F80B4832
:204A200003F058F978B9204643464FF239243A463146A047044605F03FF8284605F018F8AD
:204A40002046BDE8F0810124F5E700BF200000402DE9F3410E46174698460446FFF7D0FAD7
:204A6000054605F013F80C4803F034F990B9089B0093204643464FF211243A463146A047B5
:204A8000044605F019F8284604F0F2FF204602B0BDE8F0810124F4E700010040F8B50E4603
:204AA00017460446FFF7ACFA054604F0EFFF0A4803F010F968B920463A4631464FF219233D
:204AC0009847044604F0F8FF284604F0D1FF2046F8BD0124F6E700BF4000004070B50E46BB
:204AE0000546FFF78DFA044604F0D0FF074803F0F1F820B9314628464FF23123984704F090
:204B0000DBFF2046BDE8704004F0B2BF800000402DE9F3410E46174698460446FFF770FA58
:204B2000054604F0B3FF0D4803F0D4F898B99DF820300093204643464FF22D243A4631462F
:204B4000A047044604F0B8FF284604F091FF204602B0BDE8F0810124F4E700BF0002004058
:204B60002DE9F3410E46174698460446FFF748FA054604F08BFF0D4803F0ACF898B99DF83F
:204B800020300093204643464FF23D243A463146A047044604F090FF284604F069FF2046C6
:204BA00002B0BDE8F0810124F4E700BF000400402DE9F3410E46174698460446FFF720FAF7
:204BC000054604F063FF0D4803F084F898B99DF820300093204643464FF241243A4631461B
:204BE000A047044604F068FF284604F041FF204602B0BDE8F0810124F4E700BF0008004052
:204C000038B50446FFF7FCF9054604F03FFF094803F060F858B9204641F2791398470446FA
:204C200004F04AFF284604F023FF204638BD0124F6E700BF0010004038B50446FFF7E0F941
:204C4000054604F023FF094803F044F858B9204641F27D139847044604F02EFF284604F08D
:204C600007FF204638BD0124F6E700BF0020004038B50446FFF7C4F9054604F007FF4FF044
:204C8000402003F027F858B9204641F281139847044604F011FF284604F0EAFE204638BD92
:204CA0000124F6E738B50446FFF7AAF9054604F0EDFE094803F00EF858B9204641F285136C
:204CC0009847044604F0F8FE284604F0D1FE204638BD0124F6E700BF0080004038B504467D
:204CE000FFF78EF9054604F0D1FE094802F0F2FF58B9204641F289139847044604F0DCFEB8
:204D0000284604F0B5FE204638BD0124F6E700BF00000140F8B50E4617460446FFF770F91A
:204D2000054604F0B3FE0A4802F0D4FF68B920463A46314641F29D139847044604F0BCFE34
:204D4000284604F095FE2046F8BD0124F6E700BF0000024070B50E460446FFF751F90546F2
:204D600004F094FE094802F0B5FF60B92046314641F2A1139847044604F09EFE284604F0BE
:204D800077FE204670BD0124F6E700BF0000044038B50446FFF734F9054604F077FE0948A7
:204DA00002F098FF58B9204641F2A5139847044604F082FE284604F05BFE204638BD012430
:204DC000F6E700BF00000840F7B5104C236801930F460546FFF714F9064604F057FE0C483C
:204DE00002F078FF20B93946284641F27903984704F062FE304604F03BFE019A23689A42FD
:204E0000284601D006F0CEFF03B0F0BD80FD004000001040F7B5104C236801930F4605465C
:204E2000FFF7EEF8064604F031FE0C4802F052FF20B93946284641F27503984704F03CFE12
:204E4000304604F015FE019A23689A42284601D006F0A8FF03B0F0BD80FD0040000020407A
:204E6000F8B50F460646FFF7CBF8054604F00EFE084802F02FFF28B93946304641F2AD03B7
:204E80009847044604F018FE284604F0F1FD2046F8BD00BF000040402DE9F3410E4617463A
:204EA00098460446FFF7ACF8054604F0EFFD4FF0814002F00FFFA0B9099B0193089B00933E
:204EC0002046434641F211043A463146A047044604F0F2FD284604F0CBFD204602B0BDE8A9
:204EE000F0810124F4E770B50E460446FFF788F8054604F0CBFD3146204601F04BF80446A6
:204F000004F0DAFD284604F0B3FD204670BD2DE9F04F1D4C8BB09A46DDE914B3884607AD39
:204F20002168099191460021169A07910593049269600646FFF764F8074604F0A7FD4FF055
:204F4000824002F0C7FE58B9059B049A0292CDE900B3414653464A46284641F20508C04727
:204F600004F0AAFD384604F083FD95E80300099A23689A4286E80300304601D006F012FF5B
:204F80000BB0BDE8F08F00BF80FD00402DE9FF410F4690460646FFF733F8054604F076FD16
:204FA0004FF0844002F096FE012458B90C9B02930B9B4246CDE900433946074C3023304634
:204FC000A047044604F078FD284604F051FD204604B0BDE8F08100BF35F4010038B5044637
:204FE000FFF70EF8054604F051FD4FF0884002F071FE58B9204641F219139847044604F0CD
:205000005BFD284604F034FD204638BD0124F6E72DE9F3410E46174698460446FEF7F0FF41
:20502000054604F033FD4FF0904002F053FEA0B9099B0193089B00932046434641F21D2485
:205040003A463146A047044604F036FD284604F00FFD204602B0BDE8F0810124F4E738B578
:205060000546FEF7CDFF044604F010FD074802F031FE18B9284641F22523984704F01CFDC3
:205080002046BDE8384004F0F3BC00BF0100008010B5FEF7B5FF044604F0F8FC064802F0CA
:2050A00019FE10B941F21523984704F005FD2046BDE8104004F0DCBC0200008038B505462F
:2050C000FEF79EFF044604F0E1FC074802F002FE18B9284641F25123984704F0EDFC2046DA
:2050E000BDE8384004F0C4BC0400008070B50E460546FEF785FF044604F0C8FC074802F01B
:20510000E9FD20B93146284641F22923984704F0D3FC2046BDE8704004F0AABC080000802D
:2051200070B50E460446FEF76BFF054604F0AEFC094802F0CFFD60B92046314641F23923D0
:205140009847044604F0B8FC284604F091FC204670BD0124F6E700BF10000080F8B50E46AA
:2051600017460546FEF74CFF044604F08FFC084802F0B0FD28B93A463146284641F209030A
:20518000984704F099FC2046BDE8F84004F070BC20000080F8B50E4617460546FEF730FFD7
:2051A000044604F073FC084802F094FD28B93A463146284641F29113984704F07DFC2046A0
:2051C000BDE8F84004F054BC4000008070B50E460446FEF715FF054604F058FC094802F08C
:2051E00079FD60B92046314641F295139847044604F062FC284604F03BFC204670BD01249C
:20520000F6E700BF8000008038B50446FEF7F8FE054604F03BFC094802F05CFD58B9204647
:2052200041F299139847044604F046FC284604F01FFC204638BD0124F6E700BF0001008016
:205240002DE9F04186B098460E4617460446FEF7D7FE054604F01AFC9DF8403004939DF8A8
:205260003C3003939DF838300293BDF834300193BDF8303000933A4643463146204607F068
:20528000BFFD044604F018FC284604F0F1FB204606B0BDE8F081F0B4BDF814509DF81860B6
:2052A0009DF81C709DF820C0BDF810400494CDE9077CCDE90556F0BC07F0A2BDF8B50E466E
:2052C00017460446FEF79CFE054604F0DFFB3A463146204607F0B4FD044604F0EDFB2846E6
:2052E00004F0C6FB2046F8BD07F0AABD70B50E460446FEF785FE054604F0C8FB3146204666
:2053000007F0E5FD044604F0D7FB284604F0B0FB204670BDF8B50E4617460446FEF770FEF9
:20532000054604F0B3FB3A463146204607F017FE044604F0C1FB284604F09AFB2046F8BD0B
:2053400007F00DBE38B50446FEF75AFE054604F09DFB204607F01CFE044604F0ADFB284665
:2053600004F086FB204638BD07F012BE38B50446FEF746FE054604F089FB204607F014FEF4
:20538000044604F099FB284604F072FB204638BD70B50E460446FEF733FE054604F076FB78
:2053A0003146204607F00DFE044604F085FB284604F05EFB204670BD38B50446FEF720FEB8
:2053C000054604F063FB204607F010FE044604F073FB284604F04CFB204638BD70B50E469C
:2053E0000446FEF70DFE054604F050FB3146204607F009FE044604F05FFB284604F038FBD1
:20540000204670BD38B50546FEF7FAFD044604F03DFB284607F00CFE04F04EFB204604F059
:2054200027FB002038BD70B50E460546FEF7E8FD044604F02BFB3146284607F078FE04F0ED
:205440003BFB204604F014FB002070BD38B50446FEF7D6FD054604F019FB204607F062FE51
:20546000044604F029FB284604F002FB204638BDF8B50F460546FEF7C3FD064604F006FBCD
:205480000121284602F0FEFA044650B93946284608F012F804F010FB304604F0E9FA20469E
:2054A000F8BDFF24F6E7F8B50F460546FEF7A8FD064604F0EBFA0421284602F0E3FA04467F
:2054C00050B93946284607F08DFF04F0F5FA304604F0CEFA2046F8BDFF24F6E7F8B50F4621
:2054E0000546FEF78DFD064604F0D0FA0821284602F0C8FA044650B93946284607F094FFC3
:2055000004F0DAFA304604F0B3FA2046F8BDFF24F6E738B50446FEF773FD054604F0B6FA06
:205520000221204602F0AEFA50B9204607F0ACFF044604F0C1FA284604F09AFA204638BDED
:20554000FF24F6E770B50546FEF75AFD064604F09DFA1021284602F095FA044648B92846DF
:2055600007F09EFF04F0A8FA304604F081FA204670BDFF24F6E770B50546FEF741FD06469A
:2055800004F084FA2021284602F07CFA044648B9284607F08BFF04F08FFA304604F068FAFF
:2055A000204670BDFF24F6E770B50546FEF728FD064604F06BFA4021284602F063FA0446C1
:2055C00048B9284607F056FF04F076FA304604F04FFA204670BDFF24F6E738B50446FEF73A
:2055E0000FFD054604F052FA2046802102F04AFA044640B907F0A4FF04F05EFA284604F04C
:2056000037FA204638BDFF24F6E710B54FF48071044602F01BFA20B92046BDE8104007F089
:2056200039BFFF2010BD38B51021054602F00EFA044620B9284607F033FF204638BDFF24EB
:20564000FBE738B52021054602F000FA044620B9284607F02BFF204638BDFF24FBE738B504
:205660004021054602F0F2F9044620B9284607F001FF204638BDFF24FBE7F8B50D4607466C
:205680001646FEF7BDFC044604F000FA4FF48051384602F053FA18B93146284606F0C4FD8A
:2056A00004F00AFA204604F0E3F90120F8BD70B50D460646FEF7A4FC044604F0E7F94FF42C
:2056C0000051304602F03AFA10B9284606F0C8FD04F0F2F9204604F0CBF9012070BD70B57B
:2056E0000D460646FEF78CFC044604F0CFF94FF48061304602F022FA10B9284606F0CAFDEC
:2057000004F0DAF9204604F0B3F9012070BD38B50546FEF775FC044604F0B8F94FF48041DD
:20572000284602F00BFA08B906F0BCFD04F0C4F9204604F09DF9012038BD10B50C464FF483
:20574000005102F0DFF910B9204606F089FD012010BD70B50E460446FEF752FC054604F050
:2057600095F90121304602F0E9F918B9237843F00103237004F0A0F9284604F079F9012077
:2057800070BD70B50E460446FEF73AFC054604F07DF90221304602F0D1F918B9237803F085
:2057A000FE03237004F088F9284604F061F9012070BD2DE9F3410C46174698460646FEF7BE
:2057C0001FFC054604F062F90421204602F0B6F940B99DF8203000933A4643462146304691
:2057E00006F0DAFE04F068F9284604F041F9012002B0BDE8F0812DE9F3410C46174698462A
:205800000646FEF7FDFB054604F040F90821204602F094F958B99DF8243001939DF8203056
:2058200000933A4643462146304606F0D5FE04F043F9284604F01CF9012002B0BDE8F08196
:20584000F8B50C4617460646FEF7DAFB054604F01DF91021204602F071F920B93A462146CE
:20586000304606F0DBFE04F027F9284604F000F90120F8BDF8B50E4617460446FEF7C0FB46
:20588000054604F003F93A463146204606F06AFE2021044602F052F9002818BF012404F032
:2058A0000BF9284604F0E4F82046F8BD70B50E460446FEF7A5FB054604F0E8F8402130463D
:2058C00002F03CF910B904236361A36104F0F4F8284604F0CDF8012070BD70B50E460446D1
:2058E000FEF78EFB054604F0D1F88021304602F025F910B904236361A06104F0DDF828460F
:2059000004F0B6F8012070BD70B50E460446FEF777FB054604F0BAF84FF48071304602F0E0
:205920000DF918B9236943F00103236104F0C4F8284604F09DF8012070BD70B50E46044691
:20594000FEF75EFB054604F0A1F84FF40071304602F0F4F818B9236923F00103236104F02D
:20596000ABF8284604F084F8012070BD70B50E460446FEF745FB054604F088F84FF480617D
:20598000304602F0DBF818B9237843F00103237004F092F8284604F06BF8012070BD70B5E0
:2059A0000E460446FEF72CFB054604F06FF84FF40061304602F0C2F818B9237803F0FE0361
:2059C000237004F079F8284604F052F8012070BD10B504460846012102F094F818B923786C
:2059E00043F001032370012010BD10B504460846022102F087F818B9237803F0FE0323700B
:205A0000012010BDF7B50C4605460821204616461F4602F077F858B99DF8243001939DF87B
:205A20002030009332463B462146284606F0D4FD012003B0F0BD70B50C4605461021204614
:205A4000164602F05FF820B932462146284606F0E5FD012070BD10B506F084FD202104468E
:205A600002F050F800280CBF2046012010BD10B504460846402102F045F810B90423636104
:205A8000A361012010BD10B504460846802102F039F810B904236361A061012010BD10B58B
:205AA000044608464FF4807102F02CF818B9236943F001032361012010BD10B504460846A1
:205AC0004FF4007102F01EF818B9236923F001032361012010BD10B5044608464FF4006123
:205AE00002F010F818B9237803F0FE032370012010BD10B5044608464FF4006102F002F8DE
:205B000018B9237843F001032370012010BD70B50E460446FEF774FA054603F0B7FF012026
:205B200002F068F858B92046314615F03AFD044603F0C2FF284603F09BFF204670BD012438
:205B4000F6E738B5FEF75CFA054603F09FFF022002F050F848B915F02DFD044603F0ACFFE0
:205B6000284603F085FF204638BD0124F6E770B50E460446FEF744FA054603F087FF042005
:205B800002F038F858B92046314615F035FD044603F092FF284603F06BFF204670BD01246D
:205BA000F6E770B50E460446FEF72AFA054603F06DFF082002F01EF858B92046314615F05F
:205BC0002BFD044603F078FF284603F051FF204670BD0124F6E738B50446FEF711FA054621
:205BE00003F054FF102002F005F850B9204615F022FD044603F060FF284603F039FF204612
:205C000038BD0124F6E738B50446FEF7F9F9054603F03CFF202001F0EDFF50B9204615F065
:205C200022FD044603F048FF284603F021FF204638BD0124F6E738B50446FEF7E1F9054692
:205C400003F024FF402001F0D5FF50B9204615F01DFD044603F030FF284603F009FF204640
:205C600038BD0124F6E738B50446FEF7C9F9054603F00CFF802001F0BDFF50B9204615F035
:205C800010FD044603F018FF284603F0F1FE204638BD0124F6E738B50446FEF7B1F90546D5
:205CA00003F0F4FE4FF4807001F0A4FF50B9204615F002FD044603F0FFFE284603F0D8FE54
:205CC000204638BD0124F6E770B50E460446FEF797F9054603F0DAFE102001F08BFF58B94D
:205CE0002046314615F0B2FC044603F0E5FE284603F0BEFE204670BD0124F6E738B50C4603
:205D0000FEF77EF9054603F0C1FE4FF4806001F071FF50B9204615F011FD044603F0CCFE0D
:205D2000284603F0A5FE204638BD0124F6E770B50E460446FEF764F9054603F0A7FE4FF4C7
:205D4000007001F057FF58B92046314615F0C8FC044603F0B1FE284603F08AFE204670BD6D
:205D60000124F6E7F8B50E4617460446FEF748F9054603F08BFE4FF4006001F03BFF60B995
:205D800020463A46314615F0EDFB044603F094FE284603F06DFE2046F8BD0124F6E738B514
:205DA0000446FEF72DF9054603F070FE4FF4007001F020FF50B9204615F089FC044603F0D9
:205DC0007BFE284603F054FE204638BD0124F6E738B50446FEF714F9054603F057FE4FF42B
:205DE000806001F007FF50B9204615F083FC044603F062FE284603F03BFE204638BD012422
:205E0000F6E738B50446FEF7FBF8054603F03EFE4FF4806001F0EEFE50B9204615F07CFC20
:205E2000044603F049FE284603F022FE204638BD0124F6E738B50446FEF7E2F8054603F0BC
:205E400025FE042001F00EFF50B9204617F0CCFF044603F031FE284603F00AFE204638BD8C
:205E60000124F6E738B50446FEF7CAF8054603F00DFE042001F0F6FE50B9204617F0BFFFAC
:205E8000044603F019FE284603F0F2FD204638BD0124F6E738B50446FEF7B2F8054603F0ED
:205EA000F5FD082001F0DEFE50B9204617F0B2FF044603F001FE284603F0DAFD204638BD05
:205EC0000124F6E738B50446FEF79AF8054603F0DDFD082001F0C6FE50B9204617F0A5FFF3
:205EE000044603F0E9FD284603F0C2FD204638BD0124F6E738B50446FEF782F8054603F01E
:205F0000C5FD012001F0AEFE50B9204617F098FF044603F0D1FD284603F0AAFD204638BD86
:205F20000124F6E738B50446FEF76AF8054603F0ADFD022001F096FE50B9204617F08BFF42
:205F4000044603F0B9FD284603F092FD204638BD0124F6E710B5054C227832B9044B13B153
:205F60000448AFF300800123237010BD002012000000000040680F0008B5034B1BB1034923
:205F80000348AFF3008008BD000000000420120040680F0080B584B000AF03460A46FB71C5
:205FA0001346BB710123FB730023BB7307F10803042219464FF4777000F04EF80346002B1D
:205FC00002D10023FB7322E03B7A1A467B7ADB43DBB29A4202D00023FB7318E0BB7AFA79C7
:205FE0009A4202D00023FB7311E0FB7ABA799A4202D20023FB730AE000F05CF8034683F09E
:206000000103DBB2002B02D00023FB7300BFFB7B18461037BD4680BD80B584B000AF0346E6
:206020003960FB800323FB730EE0FA884FF209033968104698470346002B03D1FB7B013B2B
:20604000FB7301E0012303E0FB7B002BEDD1002318461037BD4680BD80B584B000AF034622
:206060003960FB8013467B710023FB8100237B733B68002B02D100237B7316E00023FB81D0
:206080000EE0FA88FB89134498B2FB893A6813441946FFF7C1FF03467B73FB890133FB816E
:2060A0007B799BB2FA899A42EBD37B7B18461037BD4680BD80B483B000AF0123FB71104BA6
:2060C000DB8B9BB2242B02D00023FB7110E00C4B5B7FDBB21B09DBB203F00F03BB71BB7999
:2060E000012B02D9BB79052B02D90023FB7100BFFB7918460C37BD465DF8047B704700BFAA
:2061000000FF0F40034613F8012B002AFBD1181A013870472DE9F04F594B97B01A68159230
:206120008B46044604F0E8F8824604F0E9F8074604F0F2F8814604F0F3F8064604F0FCF8CE
:20614000804604F0FDF84E4B03930546BAF1000F0AD14FF0FF35039B159A1B689A422846F4
:2061600000F08B8005F01EFEB9F1000FF1D0B8F1000FEED04422434904A826F0A7F8424B43
:2061800004934FF48073ADF81830062308933F4B0794CDE9093B07F1FF3B17B117EA0B0F4D
:2061A00003D03B49992003F077FF1AEA0B0F03D037499A2003F070FFCDE90BA704F038F84D
:2061C000771E0D900EB13E4203D03149A02003F063FF19EA070F03D02D49A12003F05CFF7B
:2061E000CDE90E9604F024F86E1E10900DB1354203D02749A72003F04FFF18EA060F03D09F
:206200002349A82003F048FFCDE9118504F010F8204E139006F1500104A8FBF7DFFC0128CD
:20622000054696D10146306D01F0BAFD06F154030193194B00932A4600230A211748FEF735
:2062400051F90746F067002885D0FDF7AEFF002602460096334629463846FEF7F2F90128BF
:206260007FF479AF1FF0EEF92CB10D49201D1FF0F1F935466FE725466DE717B0BDE8F08FA9
:2062800080FD00401C430F00C5D60E000024120060430F0000F0110019D60E0088430F006A
:2062A000B9C80E0010B50C4600F096FE2146FFF731FF002010BD73B5054600200E46FEF75E
:2062C000CEFEFEF7E5FE00224FF40073CDE90023082104230120FEF79BFE04460120FEF70A
:2062E000BEFE31462846FEF71BFF204602B070BD013870B50D4616461C46042809D8DFE866
:2063000000F0030A0E1216001A48FEF779FC40B288B101202CE01748FEF78EFCF7E715480D
:20632000FEF7A6FCF3E71348FEF7BCFCEFE71148FEF7D4FCEBE7324629460E48FEF7EAFC06
:2063400010F0FF0FE5D121460A48FEF703FD10F0FF0FDED10748FEF71BFD10F0FF0FD8D1FB
:20636000044C2046FEF714FD40B20130F9D0002070BD00BF00E0100010B5064C402104F10C
:20638000F000FEF76DFDC4F83001B0FA80F0400910BD00BF00E010002DE9F047254F98B0D9
:2063A0001D463B689DF880401793804689469246FFF7E2FF002838D14CB1012C2ED0032018
:2063C000179A3B689A42C0B231D005F0EBFC1A4B02A8D3F83011FEF71DFD02AC0FCC12AECB
:2063E0000FC62368336009EB0503CDE90D3508AB01930CABCDE9085ACDE90A590C95CDE930
:206400000F85009345440AAB10AA0EA912A81195FEF742FD002818BF0520D1E7064B02A83B
:20642000D3F83011FEF7D0FCD7E70120C8E718B0BDE8F08780FD004000E010002DE9F04F1B
:20644000ABB0484CDDF8D4A0379E399D98469DF8EC3093462268299281460F46002B5AD13A
:20646000FFF78AFF38B10127299A23689A42384674D005F097FCB9F1000F09D0B9F1010FCC
:20648000F1D1394B04A8D3F83011FEF79DFC05E0354B04A8D3F83011FEF7BCFC0DF1100C8C
:2064A000BCE80F000DF1300EAEE80F00DCF800302D4ACEF80030349BC2E94F38369BC2E95A
:2064C000513A389BC2E953363A9B02F5AA78C2E9553502F5A67602F59E73C2E94DB70CA988
:2064E0000093CDF8088002F5A273019602F59A720AA8FEF70CFD0B9F002FB5D10A9D2846F2
:20650000FEF76CFD07460028ADD1424631462846FEF724FEA8E70DF14409DFF84CA0602287
:2065200000214846AAF85C2125F0DEFE0AF5AE73CDE90193012300934246349B0021384685
:20654000FEF724FD494607463022304625F0BEFE30221DA9284625F0B9FE85E72BB0BDE872
:20656000F08F00BF80FD004000E0100038B5044604F1F005FEF796FB04F1F80229462046C5
:20658000FEF708FE29462046FEF720FEC0B238BD90F8F83170B505460E46144663B10023AB
:2065A00080F8F831FEF77EFB05F1F0012846FEF70DFE08B1C0B208E044B122463146284622
:2065C000FEF7A8FB044630B1C0B270BDD5F8002205F50171F3E72846FEF716FE0028E9D1CB
:2065E0002846FEF7D5FB0028E4D1012385F8F8312046EAE738B590F8F83104460D466BB92B
:20660000D4F80022C2B929462046FEF7A3FBC0B288B92046FEF7BCFBC0B20CE0002380F8EB
:20662000F831FEF73FFB04F1F0012046FEF7CEFDC0B20028E4D038BD04F501712046FEF7ED
:2066400069FBC0B20028DED0F5E70000044B00221860DA7283F89F2283F83325704700BFF8
:2066600070E11000094AD37A33B192F89F324BB192F8333543B9022305484FF4257202FBA7
:20668000030070470123F7E70020704770E1100078E110002DE9F743154A4FF4257343438D
:2066A00002F5F9651D4413444FF48474A3F8C847002483F8CB47C3F8CC171368ABB103EBD4
:2066C000C000D0E90467D3F80C8003244FF48009CDF800903B4642462946304600F05EFB00
:2066E00018B1013C14F0FF04F2D103B0BDE8F08370E1100013B578B1837C84780093D0E966
:206700000212038A4068FFF747FE0146204602B0BDE81040FFF7BEBF02B010BD2DE9F7435F
:20672000DFF86C804FF42574444308EB04064FF4837C054608F5F9600719A6F8C8C70934C9
:206740004FF0000C86F8D03786F8CBC7C6F8CC27204425F0BBFDD8F80030ABB103EBC50563
:20676000D5E90465D3F8088003244FF48009CDF800902B4642463946304600F00FFB18B1A6
:20678000013C14F0FF04F2D103B0BDE8F08300BF70E1100070B5B8B1047985780B4BD0E9F0
:2067A00002122046013CE4B2FFF7A2FD042C98BF074A064998BF125D034688BF10222846DA
:2067C000BDE87040FFF7AABF70BD00BFF8F01000A8430F002DE9F7434FF42573184E434310
:2067E000F7184FF4F97C044606F5F960C518A7F8C8C704334FF0000C87F8502A184487F8D3
:20680000CBC74FF4217225F061FD3368ABB103EBC404D3F80880D4E904674FF48009032482
:20682000CDF800903B4642462946304600F0B6FA18B1013C14F0FF04F2D103B0BDE8F083DA
:2068400070E11000F0B5224D90F890722B688678ADF5237D011D04464FF421726846A19346
:2068600025F034FD012F11D03FB1022F17D0A19A2B689A4228D005F095FA6846FFF776FE7B
:20688000024669463046FFF7A5FFF0E7B4F88C22D4F888126846FFF77BFE0022F1E74022E1
:2068A00000210C4825F020FD0A496846FFF7A2FE7F9A002181A825F017FD0023302205494B
:2068C0003046FFF72BFFD2E70DF5237DF0BD00BF80FD0040F8F010002DE9F347214C4FF4A6
:2068E000257545436319074640F20310A3F8C807002083F8CB0704F5F966681D83F8CC2746
:20690000304425F0E3FC236813B33946164803F069F823681548D3E90887394603F062F88E
:2069200023683544D3F80890114E03244FF4800ACDF800A03B464A462946404600F02EFA1A
:2069400048B13046013C03F04DF814F0FF04EFD102B0BDE8F087074802B0BDE8F04703F0EE
:2069600041B800BF70E11000AD430F00BA430F00D0430F00E3430F0038B598B10479802C3D
:2069800010D8857808482146FFF795FC2A460146064803F027F8224628460349BDE838407E
:2069A000FFF79ABF38BD00BF38F11000F5430F0008B1FFF747BF70472DE9F7430D46E9B1AB
:2069C000104B1B68D3B140F2F1120A8003EBC000D0E904670022D3F80C80CA7003244FF4A7
:2069E0008009CDF800903B4642462946304600F0D5F918B1013C14F0FF04F2D103B0BDE8E5
:206A0000F08300BF70E110002DE9F04F04468BB000283ED065690995A56990F802802369C3
:206A2000D4F81CE094F820B00893D4E902122B464FF42574184D007904FB08F405F5F96647
:206A4000271D4FF0000C06F807C006EB070904F1380706EB070A06F807C03027CDE9013E9A
:206A6000099B0093CDF81CB0CDE905A7CDE90397089BFFF7E3FC25443119C5F834084046F2
:206A8000C5F8FC77C5F830780BB0BDE8F04FFFF793BF0BB0BDE8F08F70E1100070B51F4DA9
:206AA0002A68002A39D01E4EFFF7DCFD0446A0B32B6801460022186800F08EF968BB237888
:206AC000023B072BF0D801A252F823F0EDEA0C00A9EA0C0013EB0C00FBEA0C00A9EA0C0063
:206AE00003EB0C00A9EA0C000BEB0C00304602F079FF2046FFF740FFD6E72046FFF74AFE1F
:206B0000D2E72046FFF7F6FDCEE72046FFF77CFFCAE72046FFF74CFFC6E770BD70E110004E
:206B20001E440F0073B5124CFFF790FD2068E8B100231A46194680680E4EFDF7F4FB206829
:206B40000D4CC06800231A461946FDF7ECFB4FF0FF3500950023012231462068FDF798FD21
:206B60000302F6D52046FFF799FFF2E702B070BD70E110000100800000F210002DE9F04768
:206B8000374C92B0236811938A46814603F094FC804603F095FC064603F09EFC074603F084
:206BA0009FFC0546B8F1000F07D14FF0FF30119A23689A4250D005F0F5F8002FF5D0442283
:206BC0002849684625F082FB274B00934FF40073ADF8083007230493244BCDF80C90CDE925
:206BE000053A06F1FF3A16B116EA0A0F03D02049732003F051FA18EA0A0F03D01C49742052
:206C000003F04AFACDE9078603F012FB6E1E09900DB1354203D016497A2003F03DFA374231
:206C200003D013497B2003F037FACDE90A7503F0FFFA104D0C9005F580716846FAF7CEFFF5
:206C40000128B2D1D5F800010F2101F0A9F8D9F804302B600020AAE712B0BDE8F08700BF1A
:206C600080FD004040440F0025EB0C000000120084440F0000F2100010B50C4602F048FB71
:206C80002146FFF77BFF002010BD08B501F0BCF800F044F902F0ECFA02F04AFB00F0ACF9FD
:206CA00002F030FC02F0A2FB00F0AAF800F05CFB02F040FD00F0FCF900F0F0FB00F08AF9EC
:206CC00002F024FB02F080FB00F0E0F902F0D2FC02F0F6FB00F0F0F800F0A6FB02F09EFDD4
:206CE00000F0B8FABDE8084000F04ABC37B50D460446114638B100230093026D031D284693
:206D0000FDF796FB2060002003B030BD08B540B139B10022FDF71DFB10F1FF3018BF0120C0
:206D200008BD0120FCE708B538B131B1FDF711FB10F1FF3018BF012008BD0120FCE7000011
:206D400070B50E461C46054600B121B9104802F049FE012070BD3AB14FF0FF311046FDF7FF
:206D60001CFB08B90B48F2E70023012231462846FDF7D9FA012801D00748E8E72CB104998B
:206D80002046FDF7AEFC0020E4E72046E2E700BFB4440F00C2440F00D5440F0070B5144653
:206DA0001D4608B9012070BD0029FBD000230122FDF7B9FA0128F5D11DB104992846FDF7C4
:206DC00090FC3CB100231A4619462046FDF7ABFA0020E8E72046E6E770B50C46164601253E
:206DE00030B129B1CD70FFF791FF18B10023E370284603E06378B34200D0E07070BD000068
:206E000073B52B4C2B4D04F158035C22022120462365FFF76BFF04F58870FDF72BFC236885
:206E2000C4F82801C5E904305B2204F5C273022104F596700326C4F87C31FFF757FF0022BE
:206E400004F50F73114600960120FDF7F1FA00221146C4F8D40204F5227300960120FDF786
:206E6000E7FAD4F82C31AB616B69EB61D4F8D432C4F8D802C5E90C300B21206800F0AAFF3D
:206E80003146D4F82C0100F0A5FFD4F8D402102100F090FFD4F8D802202100F08BFFD4F86F
:206EA0002801042102B0BDE8704000F09DBF00BF0028100000E0110010B50F4C0020D4E94C
:206EC000041200F08DF800F087F8036823608368E36043686360D4E90412C368A36001200C
:206EE00000F036FA00F030FA0369A3634369E363036A236410BD00BF00E011000048704784
:206F000000E01100012806D8034B043043F8301003EBC0004260704700E0110037B52B4C21
:206F20005C2204F15803022120462365FFF7DEFE04F5B4735C22012104F58870C4F86031A2
:206F40000325FFF7D3FE002204F5E273114600950120FDF76DFA002204F504731146C4F8C5
:206F60005C0200950120FDF763FAC4F8600204F51970FDF77FFB164BD4F8101122689960CD
:206F8000D4F85C12D960D4F860121961C3E90020C4F87C020021104600F01CFFD4F8100161
:206FA000012100F017FFD4F85C02012100F002FFD4F86002022100F0FDFED4F87C020121C4
:206FC00003B0BDE8304000F00FBF00BFDC2A100000F21100704700000048704700F211009A
:206FE00001289FBF831C034800EBC300C0E90112704700BF00F2110037B5224C302204F19C
:2070000058030521204623650325FFF76FFE002204F5A473114600950120FDF709FA00221E
:2070200004F5CA731146C4F8E00100950120FDF7FFF9C4F8E40104F5F470FDF71BFB124B1F
:207040002268D4F8E0119960D4F8E411D960C3E90020C4F800020221104600F0BBFED4F87E
:20706000E001042100F0A6FED4F8E401082100F0A1FED4F80002022103B0BDE8304000F064
:20708000B3BE00BF5C2D100000501100704700000048704700501100042806D8034B023025
:2070A00043F8301003EBC00042607047005011002DE9F341624C634D634EDFF8948104F1B3
:2070C000580330220121204623652746FFF70EFE04F18800FDF7CEFA57F8FC3BC4F8A00069
:2070E000C5E904304FF4D872584B336501213046FFF7FCFD002203230093114606F15803DB
:207100000120FDF795F93368AB616B69C8F80000C5E907305B22012104F1A400C4F8F47054
:20712000FFF7E4FDD4F8A4302B646B696B644FF4257204F5D873012104F5AC70C4F8A831BC
:20714000FFF7D4FDD4F85831AB656B69EB652B67302204F29C43012104F24440C4F8943406
:20716000FFF7C4FDD4F84434C5F880306B69C5F8843040F2847204F22453012104F2CC40A9
:20718000C4F81C35FFF7B2FDD4F8CC34C5F894306B69C5F89830502204F55063012104F65D
:2071A000A840C4F8F83CFFF7A1FDD4F8A83CC5F8A8306B69C5F8AC30282204F6A853012150
:2071C00004F55560C4F8A03DFFF790FDD4F8503DC5F8BC3020686B69C5F8C0300C2100F0BD
:2071E000F9FDD4F8A4000D2100F0F4FDD4F858010E2100F0EFFDD4F8CC04182100F0EAFD3E
:20720000D4F8500D192100F0E5FDD4F8A80C1A2100F0E0FD3068042100F0DCFDD4F8440417
:20722000202100F0D7FDD8F80000402100F0C2FDD4F8A000082102B0BDE8F04100F0D4BDCB
:207240000048100000801100B4651000001810000014120010B53B4C0020D4E90412FFF799
:207260001BFFFFF715FF03682360436863608368A360D4E91012C368E3600120FFF742FEFC
:20728000FFF73CFE83696363C369A363D4E91612436BE363012002F03FF802F039F8036829
:2072A000A3644368E36483682365D4E91B12C3686365002002F08EF802F088F80368236687
:2072C00043686366D4E920128368A366002002F0CBFA02F0C5FA036863674368A367D4E928
:2072E00025128368E367002000F0D0F800F0CAF88369C4F88830C369C4F88C30D4E92A129B
:20730000836AC4F89030002002F008FA02F002FA0368C4F89C304368C4F8A030D4E92F12DA
:207320008368C4F8A430002002F0E0F802F0DAF80368C4F8B0304368C4F8B4308368C4F82B
:20734000B83010BD00801100004870470080110001289FBF031D034800EBC300C0E90112FB
:20736000704700BF0080110037B52D4C2D4D04F158033022012120462365FFF7B7FC04F1D7
:207380008800FDF777F92346C4F8A00053F8FC2BC4F8F430C5E90420012140F2847204F1D9
:2073A000A400FFF7A3FC002203230093114604F508630120FDF73CF8D4F8A430AB616B6935
:2073C000C4F8CC085022EB61A86204F62813012104F50D60C4F82039FFF788FCD4F8D03835
:2073E000AB6320686B69EB6314212B6500F0F2FCD4F8A000202100F0F7FCD4F8A4001621FB
:2074000000F0E8FCD4F8D008172100F0E3FCD4F8CC084FF4005103B0BDE8304000F0CABC7B
:20742000D055100000C0110010B5154C0120D4E90412FFF731FEFFF72BFE0368236043684F
:2074400063608368A360D4E90E12C368E360022002F064F902F05EF90368E3624368236395
:20746000D4E9131203696363002002F03FF802F039F803682364436863648368A36410BD69
:2074800000C011000048704700C0110010B9024BC3E90812704700BF00C01100F8B5344CFB
:2074A000344D354E354F04F158035B22022120462365FFF71BFC04F58870FDF7DBF8236816
:2074C000C4F82801C5E90330302204F5C273012104F59670C4F87C31FFF708FCD4F82C31B9
:2074E0006B622B69AB624FF4D87204F5DA73012130463365FFF7FAFB3346012153F8B02B6F
:20750000AA632A69EA6306F158004FF42572C6F8A830FFF7EBFBB36D2B652B696B6550225D
:2075200007F15803012138463B65FFF7DFFB3B68EB6520682B692B660F2100F04BFCD4F815
:207540002C01102100F046FC3068112100F042FCB06D122100F03EFC3868212100F03AFC21
:20756000D4F828011021BDE8F84000F03DBC00BF485F100000C01000B0191000602F100061
:2075800010B5234C0020D4E90312FFF7BBFCFFF7B5FC83692360C3696360D4E90912036BCD
:2075A000A3600220FFF778FDFFF772FD036863614368A3618368E361D4E90E12C36823623C
:2075C0000020FFF7C5FEFFF7BFFE8369E362C3692363D4E91412036A6363002001F09CFE7B
:2075E00001F096FE03682364436863648368A364D4E91712C368E364032002F08FF802F0CA
:2076000089F84368A366036863664369A36510BD00C010000048704700C0100030B5074DA8
:207620002B78502B01D9012030BD0C2404FB035401332071A16022732B70F5E708301000A4
:2076400030B50A4D95F8D033132B01D9012030BD0C2404FB0354013384F8D403C4F8D81384
:2076600084F8DC2385F8D033F1E700BF0830100030B50A4D95F8C434182B01D9012030BD44
:207680000C2404FB0354013384F8C804C4F8CC1484F8D02485F8C434F1E700BF0830100088
:2076A00030B5084D2B78A92B01D9012030BD064C04F8230004EB83040133617062802B70C8
:2076C000F4E700BF58661000641A100030B50A4D95F8F4356D2B01D9012030BD0C2404FB13
:2076E0000354013384F8F805C4F8FC15A4F8002685F8F435F1E700BF0830100030B5094C38
:2077000094F8203B282B01D9012030BD04EB8305013385F8220B85F8231BA5F8242B84F8CF
:20772000203BF2E70830100010B5084C6378032B01D9012010BD064A02EBC302013382F833
:20774000C80BC2F8CC1B6370F4E700BF586610000830100030B50E4C94F8E83B0D2B14D820
:207760008A0F013AD2B2022A0FD00C2505FB034585F8EC0B03EB4300024404EB820201339B
:20778000C2F8F01B84F8E83B30BD0120FCE700BF0830100050B100230133C207DBB203D408
:2077A0001F2B4FEA5000F7D158B270470346FBE710B5074A002352F8044B844202D10B705C
:2077C000002010BD0133DBB2122BF4D10220F8E70C1D1000F7B51D4C236801930E46002314
:2077E0000DF1030115468DF80330FFF7E1FF224640B91749034651F8044BA64204D001330C
:20780000202BF8D1022019E00121013B9DF80360104C01FA03F31421676833EA070706D190
:207820002778B74203D1277A35EA070706D0013911F0FF0104F10C04EED101200199136803
:20784000994201D004F0AEFA03B0F0BD80FD00405C661000DC3310002DE9F3412C4D2B687C
:2078600001930F46904602F011F9FCF719FD00230DF1030106468DF80330FFF799FF044643
:2078800070B102243A463146224802F0ABF802F013F9019A2B689A42204635D004F082FAC8
:2078A0001D4A034652F8041B8F4211D00133DBB2222BF7D1B8F1020FE3D1184A202352F8CA
:2078C000041B8F4217D0013B13F0FF03F7D1D8E79DF80320124900230878904203D1087A2B
:2078E00038EA0000D3D00133DBB2512B01F10C01F2D10124C6E7082239463046FFF76AFF74
:2079000004460028C3D0BDE702B0BDE8F08100BF80FD0040E4440F00541D10005C661000F0
