:10000000806512004D0100009B0100009D01000071
:100010009F010000A1010000A301000000000000FA
:10002000000000000000000000000000A50100002A
:10003000A701000000000000A9010000FB03000070
:10004000AD010000AD010000AD010000AD010000F8
:10005000AD010000630A00009B0A0000AD01000032
:10006000AD01000000000000AD0100000000000034
:10007000AD010000AD010000AD010000AD010000C8
:1000800000F002F800F053F80AA090E8000C824457
:100090008344AAF10107DA4501D100F048F8AFF234
:1000A000090EBAE80F0013F0010F18BFFB1A43F056
:1000B00001031847DCF400002CF500000A4410F896
:1000C000014B14F00F0508BF10F8015B240908BFAD
:1000D00010F8014B6D1E05D010F8013B6D1E01F8A4
:1000E000013BF9D1641E03D0641E01F8015BFBD112
:1000F0009142E4D37047000000230024002500262D
:10010000103A28BF78C1FBD8520728BF30C148BF7A
:100110000B607047642900F0D980002070471FB53C
:100120000CF086FE00F094F91FBD10B510BD00F074
:100130003FF81146FFF7F3FF14F02EFC00F060FBD0
:1001400003B4FFF7F2FF03BC00F094F923482449FD
:1001500008600868214800688546DFF888902248D2
:100160008047224880470446214880478246A3466C
:100170004FF0000001460246034604460546064687
:100180000746DA4505D000BFAAE8FF00DA45FBD1F3
:1001900000BF1848804718480047FEE7FEE7FEE723
:1001A000FEE7FEE7FEE7FEE7FEE7FEE7FEE700000C
:1001B0007346124885464FF4C0606946A1EB0000C3
:1001C000884205D00E4A40F8042B8842FBD100BF7C
:1001D0009E464FF000004FF0000270470000000004
:1001E00008ED00E000391200090B0000CD680000A6
:1001F0006DCD00000100010081000000806512004B
:10020000EFBEADDE70477047B2F120030AD5C2F1F0
:10021000200301FA02F120FA03F300FA02F041EAA6
:100220000301704700FA03F14FF000007047B2F18C
:1002300020030AD5C2F1200320FA02F001FA03F3E9
:1002400021FA02F140EA0300704721FA03F04FF06F
:10025000000170470FB41CB5074B06AA7B446946E2
:100260000090059800F0B9FA0020694600F0BAF84D
:100270001CBC5DF814FB00008501000070B504464D
:1002800085690068C10601D5302600E02026C00738
:1002900007D070BDD4E9012130469047206A401C48
:1002A00020626D1EF6D570BD70B504468569007874
:1002B000C00707D170BDD4E9012120209047206AF2
:1002C000401C20626D1EF6D570BD00002DE9F04186
:1002D0000646002410687529314616A510D0AFF3E4
:1002E0000080002802DA404213A507E031688A073F
:1002F00001D512A502E0490704D511A5012401E0AA
:10030000AFF3008000210A2206F1240709E0B0FBC8
:10031000F2FCB0FBF2F302FB1C00303078541846BC
:10032000491C0028F3D123462A463046BDE8F04157
:1003300000F0F5B9000000002D0000002B000000C7
:1003400020000000032A40F2308010F0030C00F07F
:10035000158011F8013BBCF1020F624498BF11F8FF
:1003600001CB00F8013B38BF11F8013BA2F10402B8
:1003700098BF00F801CB38BF00F8013B11F0030330
:1003800000F05281083AC0F0088051F8043B083A66
:1003900051F804CBA0E80810F5E7121D5CBF51F836
:1003A000043B40F8043BAFF30080D20724BF11F8B0
:1003B000013B11F801CB48BF11F8012B24BF00F815
:1003C000013B00F801CB48BF00F8012B704702F059
:1003D000FF0343EA032242EA024200F059B97047A0
:1003E000704770470A6802F8010B0A607047000006
:1003F00000487047905E12007047002014F06ABAFF
:10040000524F4D003600000000550000476C6163FC
:100410006965725F626F6F74726F6D5F6275696C30
:10042000645F35353030202000000000436F707964
:1004300072696768742863292032303230202D2099
:100440004D6963726F636869702D534D534320008B
:1004500070B5064C7C44064D7D4403E02068204482
:100460008047241DAC42F9D170BD0000A4EB000010
:10047000A4EB000001491820ABBEFEE726000200F5
:10048000476C61636965722052657620302044654F
:1004900076696365536565642047656E657261744E
:1004A0006F720000524F4D2044657669636520539A
:1004B0006563726574204B65792047656E6572616E
:1004C00074696F6E2000476C6163696572205265C4
:1004D0007620302044657669636520414B20507258
:1004E000697661746520454343204B6579000000BF
:1004F0002DE9F05F894604464FF0000ADFF824B189
:10050000FB44C0F820A02046E168884700287DD041
:10051000252806D0D4E901219047206A401C20629A
:10052000F1E700255F462046E16888472028064617
:1005300007DB312E05D2B81910F8200C08B105439D
:10054000F1E7A80701D525F00405C4F81CA0002791
:10055000C4F818A02A2E09D0304605F099FC38B30B
:1005600004EB8708303EC8F8186019E059F8041BFE
:10057000204604EB87029161E1688847012F064617
:1005800018D1E069002820DA25F020051DE0D8F810
:10059000180000EB800006EB40003038C8F8180067
:1005A0002046E1688847064605F072FC0028EED137
:1005B000012F0AD02E2E08D12046E16888477F1CE3
:1005C0000646022F45F02005C4DBA069002803DAA7
:1005D000404245F00105A061E80701D025F0100573
:1005E000A6B1A6F14100192802D8203645F40065CD
:1005F0004A463146204625604D46FFF78BFD60B1E7
:10060000012807D0ED1D25F0070000E007E000F10C
:10061000080978E705F1040975E730467AE7206AAA
:10062000BDE8F09F78EF000010B5203AC0F00B80D5
:10063000B1E81850203AA0E81850B1E81850A0E8E6
:100640001850BFF4F5AF5FEA027C24BFB1E8185040
:10065000A0E8185044BF18C918C0BDE810405FEAB0
:10066000827C24BF51F8043B40F8043B08BF70472C
:10067000D20728BF31F8023B48BF11F8012B28BF31
:1006800020F8023B48BF00F8012B70474FF00002F2
:100690000429C0F0128010F0030C00F01B80CCF194
:1006A000040CBCF1020F18BF00F8012BA8BF20F802
:1006B000022BA1EB0C0100F00DB85FEAC17C24BF56
:1006C00000F8012B00F8012B48BF00F8012B704700
:1006D0004FF0000200B5134694469646203922BFDB
:1006E000A0E80C50A0E80C50B1F12001BFF4F7AF26
:1006F000090728BFA0E80C5048BF0CC05DF804EB08
:10070000890028BF40F8042B08BF704748BF20F875
:10071000022B11F0804F18BF00F8012B70472DE914
:10072000F0470D4699469246044600F124080168B8
:10073000880604D5E06921F01001216000E0012065
:10074000A84201DD471B00E00027A1697A1902EBEE
:100750000900081AA0612078C00602D42046FFF7DD
:100760008DFD002608E0D4E901211AF80600904723
:10077000206A401C761C20624E45F4DB2078C006BF
:100780000AD52046FFF77AFD06E0D4E901213020A2
:100790009047206A401C2062381EA7F10107F4DC54
:1007A00007E0D4E9012118F805009047206A401CB1
:1007B0002062281EA5F10105F3DC2046FFF774FD39
:1007C0002078000602D50220BDE8F0870120FBE773
:1007D00001694A1C02610878704700B58FB0CDE905
:1007E00001310021059105497944CDE903101146F5
:1007F0006846FFF77DFE0FB000BD0000E5FFFFFF7C
:1008000010B50446AFF300802046BDE81040FFF766
:1008100097BCF8B51E46DDE90653089F040006D0D4
:10082000D4F80C025FEA002C03D50320F8BD0820A1
:10083000F8BD6EB1B5F5803F0AD9204604F064F9E1
:10084000D4F80C0240F40000C4F80C020F20F8BDEC
:1008500069B1B2F5807F0AD9204604F055F9D4F881
:100860000C0240F40000C4F80C020E20F8BD13B1D5
:100870005FEAC07C09D0D4E981CEE64503D920F0F7
:100880000200C4F80C0263B907E040F40000C4F8A9
:100890000C02204604F038F9C9E794F80C028007EE
:1008A00012D42046009700F064F807000AD0D4F86C
:1008B0000C0240F40000C4F80C02204604F024F9B5
:1008C0003846F8BD00210A4633462046009504F01C
:1008D00004F8050008D0D4F80C0240F40000C4F875
:1008E0000C02204604F010F92846F8BD2DE9F84F17
:1008F0009846DDE90A7491468A46060037D04FF4DF
:100900000972002104F0A0F9304604F039F90028FA
:100910002BD1304603F0CEFD002826D1F4B1D6F815
:100920000C0206F5057540F00040C6F80C020020E8
:100930002860216891B13046626804F068F928683F
:10094000616808442860A16841B16068E268304489
:1009500004F05DF92868E1680844286043464A4687
:1009600051463046009703F041FFBDE8F88F08205C
:10097000FBE72DE9FC471F460A9D90468946040087
:100980004AD0D4F80C02010202D50320BDE8FC874E
:100990000FB1C10710D0B9F1000F17D0B8F5807FA3
:1009A00014D9204604F0B0F8D4F80C0240F400004A
:1009B000C4F80C020E20E9E7204604F0A5F8D4F8AC
:1009C0000C0240F40000C4F80C0225E000280CDA08
:1009D00015B304F5057600203060296829B120465A
:1009E0006A6804F014F968683060B4F81202CDE95E
:1009F0000047C1088022204604F5007303F0E4FF9D
:100A000005000BD0204604F07FF8D4F80C0240F427
:100A10000000C4F80C0208E00820B7E74246494647
:100A2000204603F094FE0500ECD12846AEE710B551
:100A3000040014D005F085FA002005F079FA0020B2
:100A400006F05EFA06F092FB002005F07BFF4FF403
:100A500009720021204604F0F7F8002010BD08209C
:100A600010BD10B50D2006F0EBF90446C00701D00B
:100A70000AF09EFDA00701D50AF09AFD600701D596
:100A80000AF096FD200701D50AF092FDE00603D595
:100A9000BDE810400AF08CBD10BD10B50E2006F068
:100AA000CFF9C00701D00AF03DFD0E2006F0C8F9CD
:100AB000800701D50AF036FD0E2006F0C1F9400787
:100AC00001D50AF02FFD0E2006F0BAF9000701D576
:100AD0000AF028FD0E2006F0B3F9C00603D5BDE8E4
:100AE00010400AF01FBD10BD05490448D1F804119B
:100AF00009B1B0FBF1F003490860704700D8B805B0
:100B0000000008400039120070B5012001F0B4F96E
:100B1000FFF7EAFF05F0AEFD72B605F0C5FD012056
:100B200005F0CAFD44480178C9071FD001210170B2
:100B3000424C207820F008002070414D686B48F24C
:100B400003018843401C6863BFF34F8F15F0DAFC44
:100B5000002895F837004FEAC07011D018B12078FE
:100B600040F008002070374868630EE005F06CFD27
:100B700062B6022001F080F900BF30BF00BFFBE782
:100B800018B1207840F008002070032001F074F9BB
:100B900016F01CFC012801D101F00EF915F00CFC37
:100BA00014F0F2F94FF4AE7016F0F2FAC0F3080444
:100BB000204615F039FCA4F58070FF383BD0204664
:100BC00014F09AF940F2F2300AF070F840F27D1514
:100BD000AC4207D0052C05D0352C01D01D2C03D1FB
:100BE000800601D415F0FEFB0B2005F073FD0820F4
:100BF00001F042F905F066FA30B1092001F03CF944
:100C000000BF30BF00BFFBE7AC4209D00A2001F0B3
:100C100033F916F0DBFB012802D116F063FA18B1A4
:100C2000BDE8704001F05AB810F0C6FE0B2001F08C
:100C300023F900F084FF70BD54FC004084FD0040A7
:100C4000001008400102010070B5044600EB4400AA
:100C500000EB0411174800EBC100054602F0CBFF82
:100C6000154803681BB10022012120469847204601
:100C700000F0FBF8204600F0C1FC0E4904EB4400F4
:100C8000983101EB401003F0D4FA0A4904EB8400D8
:100C9000F83101EBC00002F00AFD284602F028FFFF
:100CA0000A2014F018F90A2014F00EF9034908601C
:100CB00070BD00008C3B1200843B1200803B120090
:100CC00010B540EA01039B0706D0002312E051F85B
:100CD000234040F823405B1CB3EB920FF7D39B00FB
:100CE00002E0CC5CC4545B1C9342FAD310BDCC5CD4
:100CF000C4545B1C9342FAD310BDC9B2830708D118
:100D000001EB012101EB014101E002C0121F032AA6
:100D1000FBD8C9B202E000F8011B521E002AFAD12A
:100D2000704713F09BBC000010B50446134900EB5C
:100D3000440001EB401003F0BEFA104904EB8400BC
:100D4000603101EBC00002F0D2FC0C4904EB44001E
:100D500000EB0410983901EBC00002F094FF20462C
:100D600000F02EF906480368002B05D0204600222B
:100D7000BDE810401146184710BD0000243C120089
:100D8000843B12000068405870470068425070472A
:100D90000348006841798906FCD5072181707047B6
:100DA0002C391200004870470039120070B5044613
:100DB000002500F0A1FF48BB04EB440000EB041148
:100DC000154800EBC1063068016A49000CD5806AFD
:100DD000400009D5104904EB8400F83101EBC00054
:100DE00002F08DFB00B101253068016A00290BDAA1
:100DF000806A002808DA084904EB4400983101EBC6
:100E0000401003F032F908B9002D03D0BDE870405E
:100E100014F05EB870BD00008C3B120070B5044643
:100E20002C30054601F0FEF904F18C00064601F075
:100E3000F9F9C4E9015670BD72B6054940F00100E8
:100E40000A7842F030020A70804700F078FE000015
:100E5000A0FC00404FF44820704700680844BFF3EE
:100E60005F8F0260BFF35F8F7047012110B5814033
:100E700001F01F0421460D2005F0A0FF2146BDE82A
:100E800010400D2005F0AABF10B5002801D000F0D9
:100E900081FB10BD70B504460068282101F02BF8D5
:100EA00005463C21206801F026F800F0230015F0EB
:100EB000240F05D0206800F00EF86FF01F0070BD01
:100EC00010B14FF0FF3070BD04F10C01206800F04C
:100ED00042F8002070BD10B504461022342101F004
:100EE00012F800223421204601F00DF83C21204662
:100EF00001F001F84006F9D410BD70B50446FFF7C3
:100F00008DFFD4E900020021FFF7A7FF1021A2689E
:100F10002068FFF7A2FF1C21206800F0ECFF0546C7
:100F200000221C21206800F0EEFF3F2230212068C3
:100F300000F0E9FF2A461C21206800F0E4FF0322AC
:100F40003421206800F0DFFF2068BDE870400322F4
:100F5000382100F0D8BF704770B5144C2178814219
:100F600020D0134D2070286841798906FCD50520D2
:100F700000F0A5FB2868002680F8306309F08CFD9E
:100F8000054609F02FFE00B16DB10A48217830F80E
:100F900011000FF00BFF10F05DFB07481F2181606F
:100FA000C660467070BD0548F0E7000028391200A1
:100FB0002C39120082840100183912007684010055
:100FC0000121814001F01F010D2005F0E7BE000066
:100FD00010B500280AD0064CE268D343E16891427C
:100FE00001D3891A00E019448142F7D310BD0000F3
:100FF000001000400149C1F8A000704700E0004027
:1010000007F0BEB806F0DABB06F0D6BB07F0CBB8E7
:1010100007F0E6B806F074BC06F080BC06F06EBCC3
:1010200007F0F5B806F078BC06F08BBC06F087BC7C
:1010300007F021B906F099BC06F095BC06F042BF56
:1010400006F051BF06F03CBF07F080BA06F09EBD27
:1010500006F09ABD07F005BA07F05BBA07F0EFB8E3
:101060000BF070BB0BF062BB0BF07ABB0BF0B2BBAA
:101070000BF0C4BB0BF0D6BB0BF0E8BB0BF0FABB1C
:101080000BF080BB0BF082BC0BF094BC0BF006BCE9
:101090000BF08CBB0BF016BC0BF028BC0BF03ABC71
:1010A0000BF04CBC0BF000BE0BF058BB06F08EB83A
:1010B0000BF09EBD06F03BBD07F0B7B906F058BD7A
:1010C00007F09DB906F046BD07F0E1B90BF0A2BCF0
:1010D00006F03EBD07F07AB906F0F4BD06F08ABD11
:1010E00006F052BE06F0B2BA06F0AEBA07F028B863
:1010F00006F06EBD06F06ABD07F0EBB906F054BD10
:1011000006F050BD07F0C5B907F02CB906F050BC89
:1011100006F0A8BC06F0FABC0BF0BABD06F0F4BCB1
:1011200006F09EBC06F035BC06F031BC06F0A0BA55
:1011300006F055BB06F0A6BA06F0F4BA06F0E4BE17
:1011400006F068BF06F0E8BF06F0E4BF0AF0F6BE9E
:101150000AF050BD0AF039BD0AF001BF0BF0AABA7F
:101160000AF076BD0AF00EBF0AF082BD07F0A4B8FF
:1011700007F0BCB807F0D9B80AF01ABF0AF01EBFD2
:101180000AF022BF0AF026BF0AF02ABF0AF02EBFDB
:101190000AF0BEBF0AF0DFBF0AF0FEBF0AF084BF4C
:1011A0000AF02ABF0BF045B80AF0AFBF0BF02EB81B
:1011B0000BF005BA0BF064B90BF0C9B90BF008B924
:1011C0000BF03FB80BF0B2B80AF06ABE0AF0AEBE40
:1011D0000AF098BE0AF0B1BD0AF094BD0AF0A4BDB1
:1011E0000AF099BD0AF0B2BD0AF02FBE0AF01EBE89
:1011F0000AF04DBE0AF038BE0AF0B2BD0AF0BEBA1F
:101200000AF030BA0AF0F2BB0AF014BB0AF0D5BCFF
:101210000AF0A8BC05F0AABF05F080BE05F08ABEA2
:1012200005F076BF05F06CBE05F0C8BE05F07CBECB
:1012300005F0E2BE05F022BF05F048BF05F082BF11
:1012400007F0FAB907F018BA07F036BA07F02ABA69
:1012500005F084BDFFF74ABBFFF78BBBFFF7D9BA98
:10126000FFF7E5BB05F022BD06F07EB906F006B932
:1012700006F008BB06F0C4BA06F0D8BD06F086BD7D
:101280000BF070BB07F0A2B905F08ABE05F0AABE4C
:1012900005F024BE05F07EBF05F0BEBF07F0C0B963
:1012A00005F021BD07F069B910B505F0C5F80020BB
:1012B00009F0BAFB012004F03BFE04F042FE0020DE
:1012C00004F036FE0C48C068C00313D4012008F0B7
:1012D00085FA3D2009F0EAFC800601D407F05AFAAD
:1012E00008F002FB054902200860BDE8104000201C
:1012F00008F074BA10BD0000002010405CFC0040F3
:1013000008B10020704701487047000070EF0000EE
:10131000034900EB800001EBC000007F7047000034
:10132000843C120002004FF0000002D1FE2201486E
:101330000A707047843912002DE9FC41074698462F
:1013400014460D460846089E00F0FEF86FF028018E
:1013500020B1A4F10800B0F5FC7F02D90846BDE831
:10136000FC810821684600F0ADFD2146284600F0CA
:10137000A9FD2C461FB16C0A640204F5FC74082513
:10138000B8F1000011D086B1082E00D235460146D2
:101390002A46684600F08BFD87B10DEB050010F87A
:1013A000011D41F0010101700EE00821684605F0C1
:1013B00065FE0828F0D06FF03500D0E79DF80000FA
:1013C00040F001008DF800002A466946204600F0F2
:1013D0006EFD0020C3E7000010B541F63C6007F049
:1013E00099F909F059FB0246432109F0FBFB08B1CA
:1013F00002B93321064A41F004001080002013880E
:101400005B0703D5401C80B22028F8D3118010BDA3
:101410000010004070B50D46044600F06DFC80B928
:101420003DB10A4904EB440001EB401002F04FFFCC
:1014300007E0064904EB8400603101EBC00002F0D4
:101440005CF9BDE8704013F043BD0000243C12007D
:1014500070B500250D4E2C4604EB440000EB041043
:1014600006EBC00002F015FB00B10125641C14F06E
:10147000FF04F1D0002D07D00A2013F02CFD0A2024
:1014800013F022FD0249086070BD00008C3B120081
:10149000803B120000B53F22302100F034FD0249AC
:1014A0000820086000BD0000A0E0004001004FF0EF
:1014B000000006D08A0703D001F00300C0F1040049
:1014C0007047042070472DE9FC4106461F468846B8
:1014D0000846089D00F038F86FF0280118B1083A66
:1014E000B2F5FC7F02D90846BDE8FC8108216846B8
:1014F00000F0E8FC08248FB185B1082D00D22C46FD
:1015000022463946684600F0D2FC86B10DEB040055
:1015100010F8011D41F0010101700EE0082168463C
:1015200005F0ACFD0828F0D06FF03500DCE79DF841
:10153000000040F001008DF8000022466946404658
:1015400000F0B5FC0020CFE70449884202D30449EB
:10155000884201D30020704701207047008010406E
:1015600000A0104006490520088000200A88520784
:1015700003D5401C80B22028F8D300200880704793
:10158000001000400248018841F0040101807047CA
:101590000010004005F058F862B600BF00BF00BF61
:1015A00030BF00BF00BF00BFF7E72DE9F0410D4697
:1015B0008F680968446811F4700F14D1C06800681E
:1015C000C00003D56868C0F50070044400263946A1
:1015D00020466A6800F06BFC6868761C074404F5D6
:1015E0000074062EF3DBBDE8F0814FF0010208B174
:1015F000032100E00221002009F026BB70B505465A
:101600004000012404FA00F000F01F0631460E20CD
:1016100005F0D4FB31460E2005F0E0FB04EB45005D
:10162000844004F01F0421460E2005F0C7FB21462C
:10163000BDE870400E2005F0D1BB000070B5044637
:101640000C4900EB840001EBC0000025007F02285C
:101650000DD104EB440000EB0410F83901EBC0009D
:1016600002F07AFA18B12046FFF75EFB0125284602
:1016700070BD0000843C1200F0B5BBB014460E46AD
:1016800007461D46EC220021684603F0DDFA06F00D
:101690009DFFF908324668460AF04FFB00280CD13E
:1016A0002B461022214668460AF0CFFB002804D1C1
:1016B00068460AF0D9FB411CFAD03BB0F0BDC1022C
:1016C00001EB8021A1EBC001A1EB8000FFF780BC02
:1016D0002DE9F04116460D460746042B02D0032B98
:1016E00003D01BE010F0E8FA18E0002010F0FAFA3E
:1016F0000C4C1F20A0600020E060607020706060D3
:10170000094807600948056001200EF0ADFF02E0BE
:1017100030460EF0BDFF21780929F9D30120BDE83C
:10172000F081000018391200583912005C3912009B
:1017300010B5044640F2631009F0B8FA002C0AD044
:101740000549C0F3411051F82000002803D0BDE83E
:101750001040FFF7B4BF10BDB0DB0000704770B59C
:1017600005460124084609F0C7F904E009F0AEF97E
:1017700008B1002404E0284607F0ACFF0028F5D0AB
:10178000204670BD7047704700EB400202EB00102E
:10179000044A01F00F0102EBC00010F8912F0A4338
:1017A000027070478C3B12002DE9F8431B4E002459
:1017B0002546A6F1FC07A6F16008A6F1F80904EB9E
:1017C000840006EBC000214601F0E2FE47F82450F9
:1017D00069462046FFF7A6FD024604EB440108EBEC
:1017E00041109DF80030214602F00BFD04EB44004F
:1017F00000EB041109EBC100214602F0E0F920469C
:10180000FFF7DEFB641C14F0FF04D8D00448017815
:1018100041F001010170BDE8F8830000843C120032
:10182000002400402DE9F05FDFF8A8A0DFF8A090C9
:1018300000240AF1F80B0AF1980804EB84010BEB81
:10184000C106304601F02AFE2046FFF7F7FEC0BB76
:1018500004EB440000EB04110AEBC10595F8940079
:1018600030B3D9F8003023B195F8922002212046F8
:101870009847304601F022FE2046FFF7DFFE00BB0E
:1018800004EB440108EB4110074602F0F2FA284647
:1018900002F04AF9384602F0CCFC284602F06AF918
:1018A0000A2013F018FB0A2013F00EFB0A49086007
:1018B00004EB440108EB411002F0B4FA304601F0A9
:1018C0009BFE641C14F0FF04B7D0BDE8F09F00003D
:1018D000843B12008C3B1200803B120000EB400165
:1018E00001EB0010024901EBC00090F89400704732
:1018F0008C3B12002DE9F047D2B09246884605464F
:1019000004F01FFB002405F015F830B1812404F029
:1019100018FB52B02046BDE8F08725F07F0602A9EB
:10192000102009F0C7FD074601200BF0FBF90BF072
:10193000CDF90FB18224EAE701200090EB0942467D
:1019400002A9102009F0CEFD012801D08324DEE792
:10195000DFF8609001A8494608F045FA38B36806F8
:1019600005F07F0705D006EB08013A4632A8FEF7DE
:101970005BFE02200BF0D6F932A800903B462A46C7
:1019800002A9102009F06EFD08B18524BFE7494681
:1019900001A808F016FA40B105F044F80190302291
:1019A00002A95046FEF740FEB1E78624AFE7842443
:1019B000ADE7000020B12E0041F63C210128084689
:1019C00001D006F0D3BE06F0A5BE00002DE9F04719
:1019D0001646DDE9089A024600251F468846284635
:1019E00005F08EFA77B11AB100F076FD05000BD143
:1019F00005F0BCFB0F4CC4F808803004000C05D087
:101A0000266407E06FF00300BDE8F087206840F42B
:101A10000060206009F0FF0060641FFA8AF06063D4
:101A2000384600F0A1FD206840F001002060284603
:101A3000EAE700000010104070B54FF080563046C5
:101A400000F030FD002823D1124D2868124C20618F
:101A5000286860612868A0612868E06105F086FB5D
:101A6000304600F01FFD002812D12068C0020AD5C0
:101A70000021E06804E0626812B12A68401E114447
:101A80000028F8D1A1650121062005F097FA002071
:101A900070BD000000401040001010402DE9FC47D0
:101AA000804601241E4617460D462046DDF8289044
:101AB00004F03EFA04F045FA04F0F2F9F8B9012016
:101AC0000BF01AF9012302223146384604F0A6FA37
:101AD0000121684605F0EAF810B913480078009033
:101AE000684604F0E5F903200BF01CF90BF0EEF862
:101AF00041462A094B46084604F0EEF930B100246D
:101B0000002004F015FA2046BDE8FC87002004F010
:101B1000BBFA064901A808F03FF900B900240820E3
:101B2000FFF768FAECE7000000F8010020B12E0092
:101B300010B54FF47A7015F05DFB000210BD00BFC8
:101B400000BF00BF30BF00BF00BF00BFF7E700000D
:101B500010B500EB400303EB0014154B002A03EB18
:101B6000C40484F88F1015D0012A14D0022A11D190
:101B700000EB800103F1F80202EBC101097F0229A9
:101B800011D00C490B6813B10022032198470120A2
:101B900084F8950010BD94F895100029FAD1BDE89D
:101BA0001040FFF751B8BDE81040FFF7BDB8000086
:101BB0008C3B1200843B1200034A00EB400002EB16
:101BC0004010483001F098BE243C120003E000F1C0
:101BD0001002426010468842F9D301204860C8686C
:101BE00040F02000C860886840F00050886070476E
:101BF00070B5002817D00020FFF782FB054628218A
:101C000000F079F904463C21284600F074F900F010
:101C1000230004F0240101434FF0000003D1BDE88C
:101C20007040FFF76DBB70BD2DE9FF4F83B04020C2
:101C3000DDF840A0062416468946BAF1100F02D0FE
:101C4000BAF1200F01D180200724401E16EA0001BE
:101C500004D026FA04F00F4600FA04F80025504696
:101C6000069909F027FC90BB4FF0010B5B46CDF8BD
:101C700000B05046039A069909F034FC012826D199
:101C800001A804F0EDFE0028FAD036FA04F312D0D1
:101C90004A46CDF800B05046069909F023FC0128C9
:101CA00015D101A804F0DCFE0028FAD027B90020E5
:101CB0000346009004E057B109EB08003B46009052
:101CC00032465046069909F095FB00B901250020DF
:101CD00004F02EF907B02846BDE8F08F0549888E3C
:101CE000A0F50072013A03D1486B80F4803048635C
:101CF000704700000010084010B5044604EB440192
:101D000001EB04120B49002001EBC2010A68126AC0
:101D1000C2F34032002A0BD0084601F083FF054988
:101D200004EB8400F83101EBC00001F0C3FC01209A
:101D300010BD00008C3B12002DE9F0410025064645
:101D40002C464FF4806801272046FFF7D9FA50B19E
:101D5000414600F0D0F8304202D007FA04F00543C3
:101D6000641C202CF0D32846BDE8F08108B50C494E
:101D700058B1012808D10868C0F3C0308DF80000C0
:101D80009DF800000028F6D008BD0868C0F3C01018
:101D90008DF800009DF800000028F6D008BD000076
:101DA00048FE0040034A00EB400002EB4010483080
:101DB00001F0B5BD243C1200064930B1012803D121
:101DC000087840F0800008707047087840F04000C4
:101DD000F9E700008CFC004070B505460C4640F267
:101DE0005B1008F063FF0209352D01D01D2D08D1CD
:101DF000600701D5500702E0A00703D5900700282F
:101E000004DA70BDE007FCD0D007FAD102221146F7
:101E1000002008F031FF0028F3D005200FF062FF0A
:101E2000BDE8704010222021C72008F0E3BF000069
:101E300000EB400202EB0010034A02EBC000A0F8E6
:101E40008C100068818070478C3B120000EB4002D0
:101E500002EB0010024A02EBC00080F890107047BD
:101E60008C3B1200034A00EB800002EBC00080F8BC
:101E700020107047843C1200034A117801F0C00121
:101E800001431170704700008CFC004030B48307A0
:101E9000B3EB817F07D130BCFEF712BF11F8013BD5
:101EA00000F8013B521E002AF8D130BC704704E014
:101EB00011F8013B00F8013B521E0AB18307F7D12C
:101EC000FEF7FEBE10B5002202E000F8012B491E0D
:101ED00000290FD04307F8D103E0002410C010C040
:101EE0000839082904D94307F7D000F8012B491E07
:101EF0000029FAD110BD00680844BFF35F8F006865
:101F0000BFF35F8F704700680844BFF35F8F0260C4
:101F1000BFF35F8F704700F053B92DE9F0411646CB
:101F20001F4680460024069D0BE0E20030463946FD
:101F3000FEF77DF92A1B02EB0801641C01F8010C75
:101F4000A4B2AC42F1D3BDE8F0811021D0EB010086
:101F500000F00F00704710B50446C068FFF7FEFBA5
:101F60000020E06010BD102804D0202804D04FF0DD
:101F7000FF30704700207047042070472DE9F84F6C
:101F80000AABDDE90E4793E86006C1F10F0855EA98
:101F9000060301D0402300E00023921E02EBD27220
:101FA000C2F3420243EAC203A8F1010202F00702AF
:101FB0001A432270621C8446002003E01CF80030A3
:101FC0001354401C0B468842F8D31FFA88F0009047
:101FD000E0184A465346401CFFF79FFF55EA0600AB
:101FE0002ED04FF47F40281A76F1000009D202204B
:101FF00000902A46334604F11000FFF78EFF1220AE
:102000001AE0FF210022D5F1FF3304F11200B241A2
:10201000217409D3FE21617404212A4633460091BC
:10202000FFF77BFF162007E0617408212A4633463C
:102030000091FFF772FF1A2038700020BDE8F88F7A
:102040001020F9E710B50022D30020FA03F3C2F103
:102050000704521C0B55082AF6D310BD70B5416811
:1020600082680B68D46849681C445368302B01D3DC
:10207000102500E0082593686D1C5A1E01EA02062F
:102080009A1BAA4200D21A44A518CB0005F8013CBD
:102090004B09911E03D063541B0A491EFBD18021BA
:1020A000217001680C6001688A6003680321D960AF
:1020B000016810310160D0F8EC101144C0F8EC1048
:1020C00070BD10B504460069FFF748FB0020206191
:1020D00010BD10B5044650F83C1B1039FFF776FDD3
:1020E000D4F8EC00C11C21F00301081A216851F852
:1020F000042D42EA00220A60216851F8082D10449C
:1021000040F00050086004F11000FEF7F6FE0020D9
:1021100010BD000070B5044600251020FFF70CFE2E
:10212000E0B1FFF765FD2061D8B104F13C0020600B
:10213000A1680D4809686560C4F8EC50E16104F1DC
:102140001C01E1632168886021681320C860206851
:10215000103020600120E060002070BD6FF00200B0
:1021600070BD6FF0010070BD04000020002809DB85
:1021700000F01F02012191404009800000F1E020A1
:10218000C0F88012704770B505460C4608682022DA
:102190002946FEF795FD05F120016068BDE8704015
:1021A0002022FEF78DBD70B50C4605460146202263
:1021B0002046FEF785FDE87F00F07F00E07770BDE8
:1021C00010B50520FFF77BFA124800218160C1603D
:1021D0004170114A1170114A4160106880F8301343
:1021E000C37843F08003C370012303704170C37848
:1021F00023F08003C37006238370C17041700848C8
:10220000116048F24001C0F81011C0F81411092003
:1022100010BD000018391200283912002C391200A4
:102220000010084001E0D0E900100128FBD1704700
:10223000102804D0202804D04FF0FF307047002031
:1022400070470420704710B504460069FFF786FA0E
:102250000020206110BD2DE9F04704461546406876
:102260000A4604EB00113C31994604F19C07B5F194
:10227000807F06D32046FFF7E6FF6FF03F00BDE802
:10228000F087A068A84205D92046FFF7DCFF6FF071
:102290004000F4E7E068B5FBF0F300FB135028B111
:1022A0002046FFF7D0FF6FF04500E8E705F10F008B
:1022B00020F00F0646F000500A6088602068A6EB08
:1022C00005088068026942EA0820C8606068401C0E
:1022D000606004F13C00FFF779FCC7F8009007F15B
:1022E0001001BD60AE4206D0002041F8080B48F056
:1022F000804041F8080B38461039FFF767FC04F1BD
:102300001000FEF7FAFD0020B9E700002DE9F047C4
:1023100004461E46914688460846DDF820A0FFF791
:1023200087FF0546401C3AD00120FFF705FD074610
:10233000FFF75EFC1E492160206177B370B30AF19C
:10234000080201219140294304F13C00E16104F1BC
:102350001C0140F8081B174902C0216889680968F8
:1023600040F80C1B48F0005140F8089C40F8081B4E
:1023700021688968496840F8041C022161604EB1F7
:102380000C4906600C31816021688968C968C160A8
:10239000032060600020BDE8F08703E005E06FF0F7
:1023A0004100F8E76FF00200F5E76FF00100F2E797
:1023B00058DD00000400002010B5002402980C60D5
:1023C000C1E90132D118C0E90021194481601944E2
:1023D000C160194401611944416110BD202904D232
:1023E000026801238B409A4302607047202904D27F
:1023F000026801238B401A43026070472DE9F047C1
:102400008946164900EA010724E0B7FA87F0C0F1CF
:102410001F08A8F10800122818D8114901EBC805B7
:10242000403DB9F1000F0ED0A87860B16C6854B18E
:10243000002604E0608800F015F8241D761CA878BA
:10244000B042F7D802E0288800F00CF8012101FA28
:1024500008F18F43002FD8D1BDE8F08700FFF705C2
:10246000A4F20000C0F344118A0000F01F010248EA
:102470001044FFF7BBBF000000E100E0C0F34311D0
:1024800000F01F00062908D2054A52F82110012247
:102490008240114201D001207047002070470000A7
:1024A00064F3000010B50B4C0021236B13F00E02F7
:1024B00001D0022A02D1491C8142F6D9814202D9B7
:1024C0006FF0010010BD580502D56FF0620010BD1D
:1024D000002010BD0010104070B504F047FE04202D
:1024E00000F042F81D4A106843F2040108431060EE
:1024F0001A49042310310020194D044601E0984286
:1025000003D255F820600E6000E00C60401C091DED
:102510000428F4D3124B0020103353F8201011621A
:10252000116BC907FCD1401C1028F6D35068042851
:10253000FCD34FF48020106009490020094A503133
:10254000136851F82040A34202D06FF0620070BDC2
:10255000401C0428F4D3002070BD0000001010407F
:10256000D0DC0000004010404FF4702101EA004030
:1025700004490A6800F4702022F4702202430A60C1
:1025800070470000001010404FF0E02118B11020FB
:10259000C1F8080170474FF48070C1F8000170471E
:1025A00003004FF0000007D01846C9B202E000F85F
:1025B000011B521E002AFAD1704721B1401E014270
:1025C00001D101207047002070470000072803D286
:1025D000024951F820007047002070477CDC000061
:1025E000072803D2024951F82000704700207047A5
:1025F00098DC0000072803D2024951F820007047F8
:1026000000207047B4DC0000401E062801D20120E3
:10261000704700207047000070B50C0005460ED0D2
:10262000FFF7F2FF58B1F02200212046FEF765FBCC
:10263000044850F825202046BDE8704010476FF050
:10264000030070BD60DC000030B5002405E051F8E7
:1026500024505D4040F82450641CB4EB920FF6D334
:1026600030BD18B111B10AB1012070470020704788
:102670002DE9F04387B00446DDE90E891D48164672
:102680000F4602681D46096968460AF00CF8019871
:1026900060B91022002102A8FEF72FFB02AB002236
:1026A000394600980AF0CAF9019030B1DDE900011D
:1026B000C4E9000107B0BDE8F08300980AF08EF984
:1026C00007460246304602990AF07AFA3A46284608
:1026D00003990AF075FA3A46404604990AF070FAEE
:1026E0003A46484605990AF06BFA00980AF0BAFA99
:1026F000DCE700001CE000002DE9F0430446204820
:1027000085B017460E4602681D46DDF8308009691F
:1027100003A809F0C8FF049860B90C22002168469C
:10272000FEF7EBFA6B460022314603980AF086F971
:10273000049030B1DDE90301C4E9000105B0BDE852
:10274000F08303980AF04AF9814602463846009918
:102750000AF036FA6DB14A46284601990AF030FA75
:102760004A46404602990AF02BFA03980AF07AFA90
:10277000E0E7DDE902303146019A0AF095FAF4E724
:1027800058E000002DE9F04117460E4680460AF059
:1027900027F9044640460AF021F905463246294603
:1027A00020680AF0F9F93A46294660680AF0F4F917
:1027B0004046BDE8F0410AF051BA00002DE9FF4162
:1027C0000446184816460F4602681D4609696846C1
:1027D00009F069FF019860B90822002102A8FEF7FC
:1027E0008CFA02AB0022394600980AF027F90190D2
:1027F00028B1DDE90001C4E90001BDE8FF810098CE
:102800000AF0ECF807460246304602990AF0D8F979
:102810003A46284603990AF0D3F900980AF022FABA
:10282000E7E700006CE0000070B50C4605460AF0D2
:10283000D7F8064628460AF0D1F801462246306805
:102840000AF0AAF92846BDE870400AF007BA00006D
:102850002DE9F04788B0044610A8164690E8000716
:102860000F461D461422002102A8FEF746FA1C4816
:1028700039690268684609F016FF019838B902AB59
:102880000022394600980AF0D9F8019030B1DDE90C
:102890000001C4E9000108B0BDE8F08700980AF023
:1028A0009DF807460246304602990AF089F93A46F1
:1028B000284603990AF084F93A46404604990AF0FA
:1028C0007FF93A46484605990AF07AF93A46504661
:1028D00006990AF075F900980AF0C4F9D7E70000E4
:1028E00044E000002DE9FF410446184816460F4613
:1028F00002681D460969684609F0D5FE019860B96D
:102900000822002102A8FEF7F8F902AB002239469E
:1029100000980AF093F8019028B1DDE90001C4E9BC
:102920000001BDE8FF8100980AF058F8074602460A
:10293000304602990AF044F93A46284603990AF0CB
:102940003FF900980AF08EF9E7E7000080E0000008
:102950002DE9F04788B0044610A8164690E8000715
:102960000F461D461422002102A8FEF7C6F91C4896
:1029700039690268684609F096FE019838B902ABD9
:102980000022394600980AF059F8019030B1DDE98B
:102990000001C4E9000108B0BDE8F08700980AF022
:1029A0001DF807460246304602990AF009F93A46F0
:1029B000284603990AF004F93A46404604990AF079
:1029C000FFF83A46484605990AF0FAF83A46504662
:1029D00006990AF0F5F800980AF044F9D7E70000E4
:1029E00090DF00002DE9F04387B01646DDE90E9830
:1029F0000F4604461D461022002102A8FEF77DF96D
:102A0000194839690268684609F04DFE019838B9DD
:102A100002AB0022394600980AF010F8019030B15C
:102A2000DDE90001C4E9000107B0BDE8F0830098CA
:102A300009F0D4FF07460246304602990AF0C0F872
:102A40003A46284603990AF0BBF83A4640460499AC
:102A50000AF0B6F83A46484605990AF0B1F80098E7
:102A60000AF000F9DCE70000F4DF00002DE9F04196
:102A700086B016460F4604461D460C22002102A8C9
:102A8000DDF83080FEF739F9164839690268684682
:102A900009F009FE019838B902AB002239460098C6
:102AA00009F0CCFF019030B1DDE90001C4E900017B
:102AB00006B0BDE8F081009809F090FF0746024695
:102AC000304602990AF07CF83A46284603990AF003
:102AD00077F83A46404604990AF072F800980AF0EE
:102AE000C1F8E1E7BCE000002DE9F04186B01646F0
:102AF0000F4604461D460C22002102A8DDF8308056
:102B0000FEF7FBF8164839690268684609F0CBFD04
:102B1000019838B902AB00223946009809F08EFFBF
:102B2000019030B1DDE90001C4E9000106B0BDE863
:102B3000F081009809F052FF07460246304602999C
:102B40000AF03EF83A46284603990AF039F83A4620
:102B5000404604990AF034F800980AF083F8E1E757
:102B6000A4DF00002DE9F04788B0044610A81646FF
:102B700090E800070F461D461422002102A8FEF728
:102B8000BCF81C4839690268684609F08CFD019858
:102B900038B902AB00223946009809F04FFF019086
:102BA00030B1DDE90001C4E9000108B0BDE8F087FB
:102BB000009809F013FF074602463046029909F0D3
:102BC000FFFF3A462846039909F0FAFF3A46404685
:102BD000049909F0F5FF3A464846059909F0F0FFD7
:102BE0003A465046069909F0EBFF00980AF03AF889
:102BF000D7E7000008E000002DE9FF41044618482F
:102C000016460F4602681D460969684609F04BFDE5
:102C1000019860B90822002102A8FEF76EF802AB05
:102C200000223946009809F009FF019028B1DDE93A
:102C30000001C4E90001BDE8FF81009809F0CEFE63
:102C4000074602462846029909F0BAFF3A4630463E
:102C5000039909F0B5FF00980AF004F8E7E70000CF
:102C60007CDF0000FFF7E0BDFEB515460E460446CA
:102C70000422002102A8FEF740F8104831690268DA
:102C8000684609F010FD019838B902AB00223146C0
:102C9000009809F0D3FE019020B1DDE90001C4E9FC
:102CA0000001FEBD009809F099FE024628460299EF
:102CB00009F086FF009809F0D5FFEEE7CCDF0000B1
:102CC0002DE9F04389B01646DDE910890F46044628
:102CD0001D460C22002102A8FEF70FF832463946A5
:102CE000684609F0E0FC019890B9284609F0D9FC43
:102CF0000590404609F0D5FC0690484609F0D1FC05
:102D0000079002AA05A9009809F0DAFE019030B1F7
:102D1000DDE90001C4E9000109B0BDE8F0832846FF
:102D2000029909F05FFF4046039909F05BFF4846AE
:102D3000049909F057FF009809F094FFE8E70000B4
:102D40003EB5DDE906458DE82C00034A23461268AE
:102D5000FFF7B6FF3EBD00000CE10000F0B587B004
:102D600016460F4604461D460822002102A8FDF71C
:102D7000C4FF144839460268684609F094FC01987B
:102D800070B9304609F08DFC0490284609F089FCA2
:102D9000059002AA04A9009809F092FE019028B1BA
:102DA000DDE90001C4E9000107B0F0BD3046029939
:102DB00009F018FF2846039909F014FF009809F05C
:102DC00051FFEDE7F8E0000070B50C46054609F04C
:102DD00007FE0646284609F001FE014622463068F5
:102DE00009F0DAFE2846BDE8704009F037BF000060
:102DF0002DE9F04188B016460F4604461D460C22C8
:102E0000002102A8DDF83880FDF777FF1848394621
:102E10000268684609F047FC019890B9304609F00D
:102E200040FC0590284609F03CFC0690404609F01D
:102E300038FC079002AA05A9009809F041FE01900C
:102E400030B1DDE90001C4E9000108B0BDE8F0815E
:102E50003046029909F0C6FE2846039909F0C2FEE1
:102E60004046049909F0BEFE009809F0FBFEE8E731
:102E70005CE100002DE9F04F8FB01646DDE9188ABD
:102E8000DDE91A9B0F4604461D46182200216846BC
:102E9000FDF733FF24483946026806A809F003FC11
:102EA0000798F0B9284609F0FCFB0890404609F065
:102EB000F8FB0990304609F0F4FB0A90504609F0FF
:102EC000F0FB0B90484609F0ECFB0C90584609F0DB
:102ED000E8FB0D906A4608A9069809F0F1FD0790F5
:102EE00030B1DDE90601C4E900010FB0BDE8F08FA3
:102EF0003046029909F076FE2846009909F072FEE4
:102F00004046019909F06EFE5046039909F06AFEA9
:102F10004846049909F066FE5846059909F062FE94
:102F2000069809F09FFEDCE734E100002DE9F04748
:102F3000994617460E46804609F052FD0446404623
:102F400009F04CFD054632462946206809F024FE6A
:102F50003A462946606809F01FFE4A462946A0689D
:102F600009F01AFE4046BDE8F04709F077BE0000C0
:102F70002DE9F04188B016460F4604461D460C2246
:102F8000002102A8DDF83880FDF7B7FE1848394661
:102F90000268684609F087FB019890B9304609F04D
:102FA00080FB0590284609F07CFB0690404609F01E
:102FB00078FB079002AA05A9009809F081FD01900D
:102FC00030B1DDE90001C4E9000108B0BDE8F081DD
:102FD0003046029909F006FE2846039909F002FEE0
:102FE0004046049909F0FEFD009809F03BFEE8E731
:102FF00070E100002DE9F047994617460E468046DD
:1030000009F0EEFC0446404609F0E8FC054632466D
:103010002946206809F0C0FD3A462946606809F053
:10302000BBFD4A462946A06809F0B6FD4046BDE80A
:10303000F04709F013BE00002DE9F04F91B00446AF
:103040001AA8164690E8000D0F461D461C220021C6
:103050006846DDF87490FDF750FE2948394602684D
:1030600007A809F020FB089810BB304609F019FBAF
:103070000990284609F015FB0A90404609F011FB1B
:103080000B90504609F00DFB0C90584609F009FBD7
:103090000D90484609F005FB0E901E9809F001FBC3
:1030A0000F906A4609A9079809F00AFD089030B107
:1030B000DDE90701C4E9000111B0BDE8F08F304639
:1030C000009909F08FFD2846019909F08BFD4046D3
:1030D000029909F087FD5046039909F083FD58468F
:1030E000049909F07FFD4846059909F07BFD069992
:1030F0001E9809F077FD079809F0B4FDD8E70000A5
:1031000084E1000070B50C46054609F069FC0646EE
:10311000284609F063FC01462246306809F03CFD70
:103120002846BDE8704009F099BD0843810703D0E7
:10313000C00704D0802070474FF4C07070474FF430
:1031400080707047010704D0800705D04FF480607D
:1031500070474FF4406070474FF4006070470020A4
:103160007047010705D0810705D0C00705D00020B2
:1031700070470420704702207047012070470028E4
:1031800009DB00F01F02012191404009800000F19D
:10319000E020C0F8801270470449022802D808B124
:1031A000012801D0084670470148704700000740D9
:1031B00000020740B0F5806F0AD0B0F5006F07D06D
:1031C000B0F5406F04D0B0F5805F01D000207047AB
:1031D000C0080002A0F58070C0F31100704770B500
:1031E0000446006915460E4620F001002061204685
:1031F00002F0A2FDE560002020614FF4881040EA53
:103200004620206170BD0421416181617047042125
:1032100041610021816170474068401A70472DE983
:10322000F0430446DDE9078900781D4617460E463F
:1032300040F001002070206920F00100206120464C
:1032400002F07AFDE760656005EB08002B46A060A0
:103250004FF4801040EA4620B9F1000F01D040F44D
:10326000803020611846BDE8F08300002DE9F04170
:1032700004460078DDF818801D4616460F4640F0DB
:10328000010020700A4901200870206920F0010027
:103290002061204602F050FDE660656005EB080005
:1032A000A060044840EA47202061BDE8F0810000AA
:1032B000002400400001110070B504460020A568FC
:1032C000002D09D0617F94F8230023466269A84746
:1032D000002801D10021A16070BDF8B504468177B6
:1032E00090F822000D462E46062804D16D1DEDB241
:1032F0002069FFF788FF94F82200072801D1761D86
:10330000F6B254F80C0F8573D4E90050E27D012128
:10331000503502F002FD01462068826A42F0804288
:1033200082620096D4E901032A46FFF79FFF606896
:10333000016941F00101016100206075F8BD2DE9CE
:10334000F84F002589469B464FF0030C2C462F462C
:10335000AE462946AA462B46BCEB991F0CD1D0F8A5
:1033600014C0561ECDF800C01CF806C04CF0010871
:10337000DDF800C00CF806804E46B9F1C00F30D021
:1033800007DC402E0DD0802E1CD0B9F1810F22D148
:1033900014E0C12E28D0C22E2BD0B9F1FF0F1AD1C4
:1033A0002CE001252C46012A15D94669AA4696F833
:1033B00000C02CF0010C86F800C00CE001252C4662
:1033C000294602E001252C46594643691E7846F0FD
:1033D00001061E7001238E188677B9F1FF0F17D0F2
:1033E00019E001252F460CE001252F462C462946E1
:1033F00009E001252F462C46022104E001252F4635
:10340000AE460124594643691E7826F00106E0E7DE
:1034100002F1F006867790F8246036B10A9E36B93C
:10342000867F06EB4306867701E000239A464FF03D
:10343000000C80F826C0DDF828800126B8F1000FC6
:1034400003D0491DC9B280F82660E04680F827C045
:10345000DDF82CC0BCF1000F03D0521DD2B280F8B1
:103460002760090641EA024141EA433242EA0E324C
:1034700042EACA2141EA842190F81EC041EA47216C
:1034800080F81FC041EA0521816180F82580B9F1EB
:10349000FF0F01D180F82560BDE8F88F10B5044614
:1034A000007F042809D1002084F821002046FFF77E
:1034B00003FF84F822000220207710BD70B5044677
:1034C000007F0025032802D0207F042808D184F83B
:1034D00021502046FFF7F0FE84F82250022020778A
:1034E00084F8215070BD02460020D168897B926922
:1034F000C2F30742521E914200D10120704770B5BD
:10350000044600690025016921F00101016120697B
:10351000FFF77DFEE068816A21F080418162E0680A
:10352000016A4123C1F38031042621B1402180F892
:10353000211002201CE0016AC1F3006159B120464C
:10354000FFF7D1FF10B10320607700E06677E168F4
:103550000020C8600DE0016AC1F3406181B1C17B08
:1035600029B180F82330204600F0DBF806E008207F
:1035700060772677E06880F823300125284670BD03
:10358000204602F0EAFB08B10920F1E70720EFE747
:1035900080F823100021017740F8081F4176C160B0
:1035A000704738B5044690F82320D0E90350012134
:1035B000503502F0B2FB0146A07F0090D4E904032D
:1035C0002A46FFF753FE94F8270010B12069FFF751
:1035D0001AFE2069016941F001010161E068816A18
:1035E00041F080418162A169E06841F00301C1605E
:1035F000002084F8210038BD7CB5044690F82200F4
:1036000001284ED000284CD003230025801E062818
:1036100045D2DFE800F003152A2A3535207F02283D
:1036200001D0626932E0237794F8260010B994F84B
:10363000270008B1E07FA0772046FFF7B2FF2EE019
:1036400022686261207F022820D12377A07900B10F
:10365000012084F824002179607900950195135C9C
:1036600002462046FFF76BFEE6E722686261207F94
:10367000117802280AD12377204600F077F80EE06F
:10368000226862616179207F02280BD0A66894F8D5
:10369000230023460621B04784F82200A56084F861
:1036A00022507CBD23772046FFF717FEF7E7022163
:1036B00001777047027FC168042A07D00A6AC2F303
:1036C00080120AB1002200E001224277027F032A21
:1036D00001D104220277402001F8210F2020087038
:1036E0004120887080208870392048707047002100
:1036F000017705214177FFF7DFBD10B5044600696A
:10370000016921F0010101612069FFF780FD94F852
:10371000270008B10A2000E00B2060770420207702
:1037200010BD70B5044690F82320D0E90350012164
:10373000543502F0F2FA01462A462069FFF74FFDA0
:1037400094F8260010B12069FFF75DFD206901693A
:1037500041F001010161E068816A41F080418162CC
:10376000E068C16841F00201C16070BD7CB50446EB
:10377000817790F822000D462E46042804D16D1D55
:10378000EDB22069FFF73FFD94F8220005280BD128
:103790006D1E761D94F82400EDB2F6B220B1A07F24
:1037A000801CB61CA077F6B254F80C0FC573D4E990
:1037B0000050E27D0121543502F0AFFA0146206845
:1037C000826A42F0804282620120CDE90060D4E941
:1037D00001032A46FFF723FD6068016941F00101FA
:1037E0000161002060757CBDC0E90312704790F84C
:1037F000281039B1491EC9B280F8281000EB8100A9
:10380000006A704700207047027F90F828309A4283
:103810000AD000228A8090F8282000EB82021162F0
:1038200010F8281F491C01707047002100F8281F5C
:1038300001734173704710B590F83520037F9A42A9
:103840000DD290F834402244B2FBF3F403FB14226F
:1038500000EB8202D16210F8351F491C017010BDC7
:1038600030B590F8351089B190F8342000EB820320
:10387000521CDC6A10F81C3FD2B2B2FBF3F503FB1A
:1038800015220276491E4176204630BD002030BD0B
:103890001CB50C460346FFF7C8FF1C605A77002191
:1038A0006A46587F1C684843C0B2204442F8210051
:1038B000491CC9B20229F4D3587F0221001F58774E
:1038C000184600F001F81CBD70B500231D460DE040
:1038D00003EB430400EB840452F8236044F8046FC4
:1038E00000EB8306A5805B1CDBB234628B42EFD316
:1038F00080F82810017770BD30B50C46054600F001
:1039000019F808B1002030BD284600F026F820B193
:10391000012104600171032030BD012030BD00B5DC
:1039200000F008F820B1002101600171032000BD02
:10393000022000BD002250F832308B4204D100EB4F
:10394000C2031B79012B05D0521C12F0FF02F2D0EA
:103950000020704700EBC2007047002100EBC1025D
:1039600012792AB1491C11F0FF01F7D000207047ED
:1039700000EBC100704710B5002403B10124090415
:1039800041EA022141EA84010161016941F0020139
:103990000161016941F00101016110BD184B01296C
:1039A00013D0D9B102290FD140F2095181851549AF
:1039B00001641549416406210176002A04D0816A18
:1039C00041F4805181624362704740F617718185EE
:1039D0000E4901640E4941640A21EDE744F64F7136
:1039E00081850C4901640C4941644D210176002A0E
:1039F000EAD0816A41F4805181620849416270478E
:103A00005000000101060606C7C29C14060A0A04FB
:103A1000C7C29C1506504D0CC7C29C4BED01FC0162
:103A2000816A41F480218162816A41F400218162CE
:103A3000816A41F480318162816A41F4003181629E
:103A40007047802180F82310392180F822107047B8
:103A5000816A41F40071816200BF00BF00BF00BFF6
:103A6000816A21F400718162704770B50D46044689
:103A7000049EFFF7EDFF8020207042F48B40A0628F
:103A8000324619462046FFF789FFA580C1202070E5
:103A900070BD2DE9F041002705463C4605EBC40604
:103AA000307C0C36042806D028B1304600F02CF9C2
:103AB000307938B10127641CE4B2102CEED33846BB
:103AC000BDE8F08195F89100C109F4D000F00F0035
:103AD000A042F0D195F88E00FDF71AFC0228EAD139
:103AE000286810F8281F01F0F00121430170E2E777
:103AF00070B5054690F89100C1090BD0002405EB84
:103B0000C40000210C3000F069F9641CE4B2102CF0
:103B1000F5D370BD00F00F0005EBC000BDE87040AC
:103B200000210C3000F05AB910B5044600F063F8DB
:103B300094F88F00C0F3401000280CD0216894F84E
:103B40009300002201F8202F0A7802430A70886847
:103B500040F01000886010BD90F8952000213AB127
:103B6000002280F8952090F88F00C00700D1012135
:103B7000084670472DE9F041064600680127816A32
:103B800021F000418162002406EBC405E87C0C357D
:103B900040B196F88F00400600D5002728463946E8
:103BA00000F01CF90020641CE4B2E871102CEBD387
:103BB0003068816A41F000418162BDE8F08170B5F2
:103BC000044680F88E10002084F8940084F8950054
:103BD00084F89000802084F89100002504EBC50053
:103BE00094F88E102A460C3000F0E6F86D1CEDB209
:103BF000102DF3D370BD38B50446002084F894002E
:103C000054F8760BFFF724FFE07EE18A00F00F0204
:103C1000607EA37EC0F38000009054F8760CFFF71E
:103C200024FF38BD10B5044690F89200FF2802D05A
:103C3000401C84F89200206890F8280000F00F00E3
:103C400004EBC0010120C8742068816A21F0804122
:103C500081622068816A21F0004181622068202110
:103C600080F821106068016921F001010161A068FC
:103C7000016921F0010101612068FFF7D1FE0120F7
:103C800084F8940010BD70B505464068016921F0C4
:103C900001010161A868016921F001010161286841
:103CA000FFF7D6FE002405EBC4000C3000F008F846
:103CB000641CE4B2102CF6D370BD80E80E0070478F
:103CC0000179042904D000210171C17101604171A1
:103CD000704700001CB5044601AA694602F0B2F81C
:103CE00008489DF8001000EB01209DF8041000EB3F
:103CF000011001680A684FF44070824200D02260CF
:103D000008601CBD7CF300007CB5044600790028E7
:103D10001CD001280CD0022819D0032816D16079B4
:103D2000244E60B3401E10F0FF0060711AD026E0F0
:103D30006079401E10F0FF00607107D1012120461C
:103D400000F05FF806206071022020717CBD607970
:103D5000401E10F0FF006071F8D103202071C920CF
:103D600060717CBD01AA6946204602F06BF8336899
:103D70002BB19DF8042004219DF8000098470025F0
:103D8000204602F035F880B10020207101AA694672
:103D9000204602F057F83368002BE2D09DF804204B
:103DA00005219DF8000098477CBD6D1C0A2DE7D9C0
:103DB0007CBD0000843B120042EA01138371064B74
:103DC00003EB012101EB0211096809B1FFF778BF8C
:103DD00004210171704700007CF3000010B5044617
:103DE000007904280CD039B101202071002120462F
:103DF00000F007F8052002E0022020710620607123
:103E000010BD09B101F0DEBFFFF764BF016D0023F3
:103E10008A794B72006D0168895C002901D101210A
:103E20004172704710B5044600F012F994F85A0038
:103E300018B994F85C0000281AD004F1100001F0C1
:103E4000A0FF002814D194F85A1031B184F85A0018
:103E50002046BDE8104000F029B894F85C10002915
:103E600006D084F85C002046BDE8104000F091B810
:103E700010BD10B5044600F008F8012004F8580FF2
:103E80000020A070E070207110BD90F85810052936
:103E900001D0042909D150F8501B8A6A22F000424F
:103EA0008A6250F84019FFF7AFBC7047F8B5044676
:103EB0000120216D0025024688722E4604F148003B
:103EC000216D01F064FF0146206DC279521CC27160
:103ED00001290BD1206D417A09B1012600E00026AD
:103EE000857994F82D00A84200D20025206D817AB2
:103EF00001B101210091016833462A46204600F0B5
:103F0000FEF9F8BD2DE9F041044600680025816AFC
:103F100021F00041816204F1100007462EE00022EA
:103F2000314604F1480001F032FF2068816A21F037
:103F30000041816231463846FFF766FC94F858002C
:103F400004280CD194F85D00FDF7C8FC38B90520B1
:103F500084F858006068016941F00101016120683E
:103F6000816A41F0004181626D1CEDB2022D0ED0DC
:103F70002068816A21F0004181623846FFF770FCB9
:103F800006002068816A41F000418162C7D1BDE826
:103F9000F0812DE9FC41044601273D4600264FF4FF
:103FA000487010F03CFC206890F81280616D6068E9
:103FB000FFF732F9B8F1020F01D901260CE0216DAB
:103FC00000228871206D017A491C017204F14800B9
:103FD000216D01F0DCFE0746206894F85D2000F1B9
:103FE0004C080021606801F098FE01460120012F75
:103FF0000FD00622CDE90020206D4246036860689C
:10400000FFF70DF96065AEB100231A462946206816
:1040100015E094F82D50AA1ED2B2CDE90020206DF3
:10402000424603686068FFF7FAF860656068FFF76A
:10403000EAF8E8E76D1E0023E9B21A462068FFF7A8
:104040009AFC6068016941F001010161BDE8FC81F1
:1040500010B50446103001F094FE002804D020462C
:10406000BDE81040FFF74EBF10BDFEB50027044667
:104070008DF8007040683D46016921F00101016141
:104080006068FFF7C4F894F85800012604281BD094
:1040900003282068016A1DD0C1F3404139B3FFF7FE
:1040A000D0FC206D0023C771206D0772206DC77290
:1040B00094F82D20009601960296206D0168204606
:1040C00000F053F9042093E02068FFF7BAFC8DF864
:1040D00000608FE0C1F3004111B902218DF800109A
:1040E000FFF7AFFC204600F0A4F8032080E0016A4F
:1040F000C1F30041A1B1FFF7A4FC206D0023C771FB
:10410000206D0772206DC77294F82D2000960196DD
:104110000296206D0168204600F027F9052067E02F
:10412000016AC1F3405181B1206DC771206D0772E2
:10413000206DC7722068FFF784FC00231A461946D9
:104140002068FFF718FC062052E0016A807CC1F36A
:104150000051B9B194F82D10081A216D8871206DA5
:10416000017A491C0172206DC6722068816A41F48F
:104170008031816284F85A602068FFF762FC012573
:10418000072035E0616D6068FFF746F8216D401E3D
:104190008871206D017A491C0172206DC67284F805
:1041A0005C70206D017A01290ED1817901290BD132
:1041B00000680078C00707D084F85A602068FFF7CD
:1041C00040FC0125082013E02046FFF71FFE10F0F9
:1041D00079FE216D888004F11000216DFFF72BFB23
:1041E0002068FFF72EFC204600F023F80125092067
:1041F0008DF800009DF80000401C8DF80000284656
:10420000FEBD70B580F85D100446002084F85800AB
:1042100084F85A00154684F85B0084F85C001A465E
:10422000294604F11000FFF733FB012084F8590000
:1042300070BD3EB50025044680F85A501030FFF797
:10424000D6FA0121206518B194F859207AB117E007
:1042500094F8590001282BD1032084F858000091CC
:10426000CDE9011501231A4604F108011DE094F877
:1042700038202AB994F82C20012A01D9042200E020
:10428000052284F85820C571206D0572206DC57215
:1042900094F8580094F82D2005280AD00020CDE984
:1042A00000010291206D00230168204600F05DF8B6
:1042B0003EBD0120F3E710B50446FFF7E6FD002000
:1042C00084F858002046BDE81040FFF7C1BE70B525
:1042D00004464068016921F0010101616068FEF750
:1042E00096FF94F85B00012510B184F85A5070BD18
:1042F00010F0E8FD216D888084F85C5070BD2DE9D8
:10430000F8431646044690F85D20D0E900500F4669
:104310009946DDF820800021483501F0FEFC014679
:1043200000963B462A466068FEF7A0FFB8F1000FF2
:104330000FD04B46324600212068FFF71CFB0020BF
:1043400084F85B006068016941F001010161BDE82A
:10435000F8836068FEF757FF761CF2B24B460021E7
:104360002068FFF708FB0120EAE72DE9FC5F04461F
:104370000068DDE90C7615468B4600F14C0899463D
:10438000DDF838A094F85D200021606801F0C5FCDC
:104390000146B9F1000F00D00127BAF1000F0DD08E
:1043A000A81EC0B2CDE900065B4642466068FEF733
:1043B00036FF60656068FEF726FF09E0681DC0B241
:1043C000CDE900065B4642466068FEF728FF60655F
:1043D00027B16068016941F0010101612068816ACB
:1043E00041F000418162206802B02946BDE8F05FDB
:1043F00000231A46FFF7BFBAC0E9001270472DE943
:10440000FE4F04460E4600F5C07080220021019048
:1044100000F01AFCB4F812020027C50804F1800B62
:1044200004F1900A4FF080084FF00109103517E0B1
:104430008DF80890012302AA10215846CDF800807B
:1044400000F020FC00282DD1E319B4F812025A46DE
:10445000514603F5C07300F076F8002822D11037DA
:10446000AF42E5D30021019806E0027816F8013B3F
:104470005A4000F8012B491CA942F6D3B4F81202A5
:104480000199C208504600F0C2FB6119102258463B
:1044900001F5B87100F0BBFB80220021019800F00B
:1044A000D3FB0020BDE8FE8F10B109B10120704799
:1044B000002070477CB50446012001F039FD01F071
:1044C00040FD00204FF40071CDE9000102460423B5
:1044D0000821012002F02EFD98B9052002F0B0FD60
:1044E00078B104F5057010220021064600F0ACFBFF
:1044F0002021204602F0DAFB050018D0AA00012393
:1045000009E009207CBD2021204602F0CFFB70B1DC
:104510008200054400232146304600F01EF870B1A9
:10452000D4F80C1241F40001C4F80C127CBDD4F88C
:104530000C0240F40000C4F80C020C207CBDFF2DDE
:10454000E1D900207CBDFDF797B8C1700A0A8270DE
:104550000A0C4270090E01707047F0B500248D18E6
:10456000264643B311F8012B0273427323E00A7805
:10457000037B934207D1C3885B1C9BB2C380052B8E
:1045800003D90A2419E00273C6800389B3F5007FBA
:104590000DD2477B974202D14289521C4281428907
:1045A0001E2A01D90B2408E05B1C038102E006816E
:1045B00046814273491CA942D9D32046F0BD000070
:1045C0002DE9F04F8FB01E46934688460446402B97
:1045D00003D908200FB0BDE8F08F2422002101A8E4
:1045E00000F032FB04F5C070802200210E9000F034
:1045F0002BFB04F5987010220021074600F024FBE5
:1046000004F5A07010220021814600F01DFB04F586
:10461000A870202200210D9000F016FB04F5B87060
:1046200010220021824600F00FFB0025404602E0E8
:10463000416880680D440028FAD129460BA8FFF78D
:1046400084FF31460CA8FFF780FF1020CDE90170F0
:10465000002001A9039000F06FF80A9004A8082236
:104660000BA9074600F038FB39460A9800F064F8B9
:1046700041460A9800F060F8802084F84001012249
:10468000290705F10900B1F1E04F03D000F00F0058
:10469000C0F1110207A84946054600F01DFB294656
:1046A0000A9800F049F8B4F8120200254FEAD00841
:1046B00008F110090E9F10E0CDF800A07B19B4F8A6
:1046C00012021C490A9A00F05FFA002882D194F87D
:1046D0003301401C84F8330110354D45ECD342467C
:1046E00039460D9800F093FA07EB08011022504666
:1046F00000F08DFA002514E05346B4F812021A4671
:104700000D99FFF720FF0028E0D1701B102100F069
:104710007AFA07460BEB05003A46514600F077FA65
:104720003D44B542E8D3802200210E9800F08CFA77
:1047300000204FE717DA0000030002D10846704757
:1047400010468268002AFBD18160184670472DE927
:10475000F043044616460F46B03087B08022002151
:10476000814600F071FAB4F812021822C50800213F
:104770006846103500F068FAD4F800026946CDE9C1
:10478000004000200290FFF7D7FF804631463846B0
:10479000FFF78AFE48B1324603A83946064600F0C4
:1047A0009BFA31464046FFF7C7FF2B464A46414633
:1047B0002046FFF705FF00280AD149462046FFF7AB
:1047C0001EFE40B1D4F80C1221F00201C4F80C1204
:1047D00007B0BDE8F083D4F80C0240F00200C4F842
:1047E0000C020120C4F808020020F1E72DE9FC4189
:1047F00004461D464FF48070089FD4F80C321646CC
:10480000814206D943F40000C4F80C020420BDE83C
:10481000FC81002227B143F00102C4F80C220122DE
:104820004EB1854207D9D4F80C0240F40000C4F818
:104830000C020520EBE7802901DC802006E0C0297E
:1048400001DCC02002E0814200DD0020A4F8120259
:10485000A4F810024FF48011C4F80412D4F80C32FA
:10486000002B03DA4FF4057001590DE0C008C107B1
:1048700000D0401C00EB5001802905D943F4000012
:10488000C4F80C020720C2E7CDE90042802220468E
:1048900004F5007300F098F807000AD0D4F80C0271
:1048A00040F40000C4F80C02204600F02DF9384610
:1048B000ADE72A463146204600F0DAF805000AD076
:1048C000D4F80C0240F40000C4F80C02204600F0BA
:1048D0001BF928469BE7002099E72DE9F04F85B0AA
:1048E00017460C46054698460C22002101A80E9E4C
:1048F00000F0AAF905F1B00080220021834600F003
:10490000A3F9B5F812023946C00800F11009204693
:10491000FFF7CAFDA0B10020CDE9027001A9019402
:10492000FFF70AFF01464B465A462846FFF748FE66
:10493000002845D159462846FFF761FD00283FD1A0
:10494000002405F1800A05F5A07927E001208DF803
:10495000100080200090012304AA1021504600F08E
:1049600091F900282CD110220021484600F06CF962
:10497000B5F812024B46524605F19001FFF7E3FDF0
:1049800000281DD1301B102100F03DF9074608EB2F
:1049900004003A46494600F03AF93C44B442D5D3C3
:1049A00010220021484600F04FF959462846FFF7EB
:1049B00026FD002804D1D5F80812491CC5F80812B4
:1049C00005B0BDE8F08F00002DE9F0410C46DDE9AF
:1049D00006711E46904605464FB146B1102C06D3CF
:1049E000B8F1800F03D800203060B80702D00D2046
:1049F000BDE8F08129B102F071FA1C490420C1F828
:104A0000A0006400200702D024F00F041034D5F871
:104A10000C02002801DAD5F81442444501D90720D8
:104A2000E6E705F50578002812DBA108384602F014
:104A30003DF9B0EB940F01D00C20D9E700232246BA
:104A400039464046FFF789FD0028D1D13460CFE7D1
:104A5000002339464046D5F81422FFF77EFD002892
:104A6000C6D1D5F814123160C2E7000000E0004062
:104A70002DE9F043044617468846B03087B08022BF
:104A80000021814600F0E0F8B4F812021822C608AE
:104A900000216846103600F0D7F8D4F8000200254F
:104AA000CDE90040394602954046FFF7FDFC48B18C
:104AB0003A4603A84146074600F00EF939466846D3
:104AC000FFF73AFE33464A4669462046FFF778FD2F
:104AD000002812D12022002104F1900000F0B4F847
:104AE0001022002104F1800000F0AEF84946204673
:104AF000FFF785FC20B1C4F8085207B0BDE8F08389
:104B00000121C4F80812F8E710B504460020014658
:104B1000C4F800028022204600F096F810220021FE
:104B200004F1800000F090F82022002104F19000B0
:104B300000F08AF88022002104F1B00000F084F82F
:104B40001022002104F5987000F07EF81022002158
:104B500004F5A07000F078F82022002104F5A87078
:104B600000F072F81022002104F5B87000F06CF823
:104B700004F5C0708022BDE81040002100F064B848
:104B8000000700D0022070472DE9F0478246984682
:104B90001546894600201446089F02E06168A46813
:104BA0000844002CFAD1000702D01120BDE8F0879C
:104BB00010220021384600F047F80026344619E05C
:104BC000102C09D22A683819641C0178925D761C71
:104BD00051400170102C08D33B4600241A46494628
:104BE0005046FFF7B0FC0028E0D16868B04201D819
:104BF000AD680026002DE3D110223946404600F072
:104C000006F80020D2E7884200D90846704710B560
:104C1000002811D000290FD0002A0DD040EA01034E
:104C200013439B0701D003460BE00446920801E0C2
:104C300008C908C4521EFBD210BD11F8014B03F87D
:104C4000014B521EF9D210BD10B5002814D040EA15
:104C500002039C07CBB201D0044610E031B10C46F0
:104C600063F31F2404EB034303EB01610346920843
:104C700000E002C3521EFCD210BD04F8013B521EDC
:104C8000FBD210BDF0B5059C10B10AB1994201D21A
:104C90000820F0BDF1B1EBB145181A440020521EB6
:104CA0004FF0010C6D1E082C02D3FF26083C04E0D7
:104CB0000CFA04F77F1EFEB200242F7838441BB193
:104CC00012F801795B1E38440640000A05F80169B4
:104CD000491EE8D10020F0BDC0E90012002181602A
:104CE000704730B4C3686FF0FF0404EB01211B6808
:104CF000114343EA010230BC0421FCF746B810B569
:104D0000044690F8FE2A90F8011B90F8E80A002368
:104D100004F6E82406F028F8227E20780F2105F01A
:104D2000B5FB207801220F2105F098FB01F07AFBFA
:104D3000002803D1BDE8104001F06ABB10BD00009F
:104D4000F8B50446032501F0FCF801F0A9F80028A5
:104D5000D4F8D40A04D0072106F05CF82846F8BD40
:104D6000002106F057F8012007F0C6FF01230222B8
:104D700004F12001204601F051F90121684601F0BB
:104D800095FF10B9224800780090684601F090F82D
:104D9000022007F0C7FF07F099FF0121D4F8D40AD9
:104DA00006F038F8D4F8840A81230209D4F8740A8A
:104DB000014601F091F8060008D00621D4F8D40A83
:104DC00006F028F83046FCF7DDFCC7E7002001F0CC
:104DD0005BF9104A04F69C21204600F047FA0028AF
:104DE000D4F8D40A09D0022106F014F894F8EA0A9B
:104DF00008B11A2506E0152504E0052106F00AF899
:104E000001F08CFB04490820C1F8A000A6E70000CF
:104E100000F8010020B12E0000E0004010B504466B
:104E200090F8060BFCF7E1FBD4F8780AC4F8900A76
:104E300094F8EA0A10B920460EF0E0FA104800781B
:104E400068B1D4F8740A082120F0030001F092FB45
:104E5000D4F8900A082120F0030001F08BFB94F8AD
:104E6000ED0A012809D194F8E81A002005F0B4FBF6
:104E700094F8E81A002005F031FB4FF2F00010BD65
:104E800010FC004070B50125044680F8CC5A90F81B
:104E9000E80A2A460F2104F6E12405F0DFFAE27F52
:104EA000E0790F2105F0F2FA08206077E179A4F6A5
:104EB000E124012900D019B994F8EC0A01280DD099
:104EC000002084F8010B94F8FE2A94F8011B94F852
:104ED000E80ABDE87040002305F046BF102084F8C2
:104EE000010B84F8ED5A012005F076FB94F8E81ADE
:104EF00094F8000B05F0F2FAE5E70000012904D070
:104F000003480069C0F3004070470248F9E7000019
:104F10000000074000020740F8B50E460446002591
:104F200090F8E81AFFF7EAFFD0B9D4F8A41AD4F839
:104F3000A80A07F01DFF98B194F8E80A009004F65B
:104F4000A42294F8CC0A0CCAD4F8AC1A56B105F0D5
:104F5000C3F9054625B194F8E81A002005F094FC41
:104F60002846F8BD05F030F9054694F8E81A012006
:104F7000009094F8020BD4F8A82A01292B4603D0FC
:104F8000162101F07FFAE5E71A21FAE708490868D7
:104F900082010AD520F4807040F400300860481384
:104FA0000449C1F82C01012070470020704700001F
:104FB0000010004000E00040094A10B51068094B9D
:104FC00000F0F00018431060074C5313C4F82C3164
:104FD000002903D0916240F48170106010BD000080
:104FE000001000400500000200E0004070B50446DB
:104FF0000325D0F8D40A002105F00CFF04F59061D8
:10500000204600F0C1F858B194F8A00AC0060CD4AC
:105010000320C4F8E40A1F201625C4F8E00A04E0BF
:105020000721D4F8D40A05F0F5FE284670BD70B506
:105030000D0004464FF478710DD094F8EB0A0E1D64
:10504000012804D0084612F0D5F8C10705D0304633
:1050500012F0D0F803E00846FAE700EB85000022E2
:1050600084F8EC2A88B194F8E81A0123012900D0C9
:1050700019B9810701D584F8EC3A35B9C10702D0D6
:1050800084F8EB3A01E084F8EB2A20F0030070BDCD
:105090002DE9FC410446D0F8840A0326002866D096
:1050A000FBF7D8FE8046FBF77DFE94F8EA1AC9B1FB
:1050B000A0F1B00594F8F30A00B1603D94F8F10A4C
:1050C00000B1603D94F8F30AA0B100204FF40071E4
:1050D000CDE90001024604230821012001F02AFF46
:1050E00018B107E0A0F18005ECE70021D4F8D40A5C
:1050F00005F090FE94F8740A0007D4F8D40A01D0A1
:1051000006212BE0012105F085FED4F8841AD4F89D
:10511000740A4718404526D3AF4224D80221D4F858
:10512000D40A05F077FED4F8741AD4F8780A8842C5
:1051300011D33F1FB8420ED80321D4F8D40A05F08A
:1051400069FE94F8E80A032803D0042801D00D264C
:1051500006E00E2604E00421D4F8D40A05F05AFE35
:105160003046BDE8FC810521D4F8D40AF6E70721D2
:10517000D4F8D40AF2E7072280F8022B0A2901D2D8
:1051800080F8021B704700002DE9F04104460F46ED
:105190000025244804F09EFDD4F8D00A04F022F83B
:1051A000214902208860214E0120C6F8A00001217B
:1051B000D4F8D40A05F02EFED4F8D00A0122018BCF
:1051C000384603F02DFD38B10621D4F8D40A05F095
:1051D00021FE2846BDE8F081002004F0C7FD144AF6
:1051E00004F52A61204600F05DF80028D4F8D40ABE
:1051F00016D0022105F00EFE94F8A00AC006D4F8DD
:10520000D40A04D4032105F005FE012504E004219D
:1052100005F000FE01F0C4F90120C6F8A000D8E7AF
:105220000521F5E706080C000020104000E00040D2
:1052300020B12E0070B504460020002915D010467C
:10524000602A00D36020002284F8EF2A134601224E
:1052500009E0E618CD5C86F88054CD5C0DB184F889
:10526000EF2A5B1C9BB28342F3D370BD70B50E4630
:10527000054601241146FFF79FFE05E02846FFF78B
:1052800085FE08B1002404E0304600F067FE0028E7
:10529000F4D007F01BFD0020C5F86C0AC5F8600AC1
:1052A000204670BD70B50E46054601241146FFF735
:1052B00083FE05E02846FFF769FE08B1002404E0FC
:1052C000304604F007FA0028F4D00020C5F86C0A34
:1052D000C5F8600A204670BD70B50446002000295C
:1052E00018D01046302A00D33020002284F8F02A4B
:1052F000134601250CE0E218CE5C82F82064CE5CF7
:105300000EB184F8F05ACE5C5B1C82F850649BB2FC
:105310008342F0D370BD00002DE9F05F0446B0F881
:10532000E40A01251FFA80F92E462F0604F1400BEE
:10533000DFF8B88004F59C6A00F003FE01F0FAFA89
:10534000C0B9276798F8000018B10D21584601F040
:1053500011F9022007F0E6FC07F0B8FC0023342224
:105360005946504605F03AFF38B10721D4F8D40A1F
:1053700005F050FD4846BDE8F09F002001F082FB9B
:105380001B4A04F69821204600F087F80028D4F83C
:10539000D40A24D0012105F03DFD98F8000018B191
:1053A0000C21504601F0E6F8B4F8E00A4FF0200274
:1053B0001FFA80F9514636B12046FBF735F94FF018
:1053C0000077002604E004F12000FBF72DF900250A
:1053D00008490820C1F8A000002DADD1CAE7062178
:1053E00005F018FD01F0B8F8F1E7000010FC0040EE
:1053F00020B12E0000E0004070B5044600200029D6
:1054000015D01046602A00D36020002284F8EE2ACE
:105410001346012209E0E618CD5C86F8C053CD5C46
:105420000DB184F8EE2A5B1C9BB28342F3D370BDAE
:1054300070B504460326D0F8D40A002105F0EAFC32
:10544000D4F8841AD4F8740A451894F8F30AB035DD
:1054500000B1603504F59C632A4604F5707120465E
:1054600000F0F6F9D4F8A01A8142D4F8D40A0FD18A
:10547000012105F0CFFC94F8F30A38B16022A5F1C0
:1054800090012046FFF7D6FE142604E01A2602E01B
:10549000032105F0BFFC304670BD70B50E460546D1
:1054A00001241146FFF788FD05E02846FFF76EFD51
:1054B00008B1002404E0304601F0D2FA0028F4D00C
:1054C0000020C5F86C0AC5F8600A204670BD2DE9B9
:1054D000F041044690F8016BD0F8C40A0D4600274D
:1054E000A0B1D4F8AC1A0144C4F8AC1AD4F8A41A88
:1054F000C4F8947A091AC4F8A41AD4F8A81AC4F8FB
:10550000C47A0844C4F8A80ABDE8F08194F8E80A0F
:10551000012800D020BBD4F8BC0A08B3D4F8C01AC4
:10552000A1B30222D4F8D40A114604F6A42405F04B
:105530009BFC46F0100194F85A2094F84400002394
:1055400005F012FCD4E906104219891AA1602168FD
:10555000091A21606168E76108446060A4F6A42428
:105560006FF07F41C4F8947AD4F8AC0A8842CBD269
:10557000D4F8A41A0144491EB1F1807FC4D9C0F106
:105580008070C4F8C40AC4F8A40ABDE7FFE7A842C3
:1055900014D202221146D4F8D40A05F065FC46F074
:1055A000100194F8FE2A94F8E80A002305F0DCFBC9
:1055B000D4F8BC0A281AC4F8AC0AD1E7D4F8A41A63
:1055C00029448142CCD9401BC4F8C00AC4F8A40ABB
:1055D000C6E770B50C4605461146204604F032FF7A
:1055E00000B10120002C04D0D5F8D42A2168C2F8DB
:1055F000F01170BD014610B54FF0FF30302201F5BB
:1056000084610FF033F8012010BD00002DE9FC414A
:105610000446B0F8E40A85B203F0B4F838B10721C3
:10562000D4F8D40A05F0F6FB2846BDE8FC813748DB
:1056300004F050FBD4F8D00A03F0D4FD3449022022
:105640008860344E0120C6F8A0000021D4F8D40AA6
:1056500005F0E0FBD4F8D00A012304F58461028B45
:1056600004F5906003F09EFC07462B48017841F05A
:1056700001010091407801900221684601F016FB7B
:10568000022803D1009840F001000090684603F022
:1056900011FD47B10621D4F8D40A05F0BBFB38460A
:1056A000FCF771F8C0E7002004F060FB1B4A04F52A
:1056B0002A612046FFF7F6FD0028D4F8D40A1BD053
:1056C000012105F0A7FB022003F0AAFF054604F123
:1056D0004000A0210446FAF7FBFF01232A463021AF
:1056E000204603F063F80E49087818B10C212046D3
:1056F00000F040FF1E2504E0052105F08BFB00F0C3
:105700004FFF0120C6F8A0008EE7000006080C003D
:105710000020104000E0004000F8010020B12E0001
:1057200010FC00402DE9F041D0F8846A04460327BC
:10573000D0F8D40A0021803605F06CFB04F59C6299
:1057400090463046D4F8741AFCF7D4F80028D4F800
:10575000D40A01D0072134E0012105F05BFB94F865
:10576000EA0AE8B1D4F8740A064494F8F30A00B1DE
:1057700060363046002504EB850150F82520D1F82D
:10578000E01491420FD00621D4F8D40A05F042FB70
:105790001B48007810B30C21404600F0EBFE2CE0D3
:1057A00004F51070E6E76D1CEDB20C2DE3D3022179
:1057B000D4F8D40A05F02EFBD4F8D40A0C2D03D06B
:1057C000052105F027FB18E0032105F023FB94F8E1
:1057D000EA0A20B194F8F10A18B111270DE0182750
:1057E0000BE094F8F30A38B16022A6F1600120467C
:1057F000FFF720FD142700E01A273846BDE8F081A6
:1058000010FC004010B590F8E81A90F8060B01F073
:105810000F0420B1002244F010041C2101E00022FA
:105820001B21002005F010FA0148047010BD000093
:1058300080FD004090F8E81A90F8060B01F00F0187
:1058400008B141F0300101480170704780FD00400F
:105850002DE9FC471C4690468946054604F044F86D
:1058600002F090FF18B185242046BDE8FC8720484F
:1058700004F030FA1F4803F0B5FC1F4E0220B06060
:105880001E4F0120C7F8A000D5F8D00A01212246FA
:10589000038B3020CDE900014146484603F06AFD04
:1058A000040003D0FBF76FFF8424DDE7002004F041
:1058B0005DFA4FF0FF30C5F8A00A114A05F52A61DC
:1058C0002846FFF7EFFC58B1D5F8A00A18B100F050
:1058D00067FE822407E0F168814204D0812402E05F
:1058E00000F05EFE83240120C7F8A000BCE70000A2
:1058F00006080C00EC9000000020104000E0004082
:1059000020B12E0070B50446D0F8D40A0022092137
:1059100005F09AF92026114DD4F8D80A17E081B283
:10592000D4F8D40A05F088FAD4F8D81A05EBC100E7
:10593000426804EB6200D2070CD055F831100268BF
:105940005158884704F6D822D4F8D81A03C2B04276
:10595000E5D370BD55F83110F3E7000090F4000076
:105960002DE9F0410446069884F8E81A0025C4F8A9
:10597000703A84F8E95AC4F8B85AC4F8D85A2021C1
:10598000C4F8DC5AC4F8E41A84F8085BC4F8605A16
:10599000C4F8645AC4F8685A0126C4F86C5A84F8EA
:1059A000CC6A072184F8021B3F49C4F8D01A84F856
:1059B000EA5A082184F8FE1A1746C4F8D40A10B12E
:1059C0005E21A0F800113948006800F0010184F858
:1059D000061B84F8041B0A2084F8070B84F8090BC3
:1059E00084F8055B84F8085B84F80A5B84F80B5B39
:1059F000C4F8BC5A84F8CD5A84F8ED5A84F8F95AA0
:105A000084F8FA5A84F8EE5A84F8F05A84F8F65A70
:105A100084F8F85A84F8EC5A84F8EB5A84F8FB5A64
:105A200084F8FC5A84F8FD5A84F8F45A84F8F55A3C
:105A300084F8035BC4F8C05A94F8F70A90B14FF4A5
:105A40007B7011F0D7FBC4F8B40A94F8061B19B1A7
:105A500000EB8100C4F8B40A94F8E80A012805D0E4
:105A600020B107E02046FFF7E2FAF3E794F8EC0AEA
:105A7000012814D084F8015B84F8FF5A84F8005B95
:105A80000FB184F8EA6A012000F052FA012003F015
:105A9000A5FE00F056FABDE8F04103F025BF102046
:105AA00084F8010BE8E70000EC90000028A4004017
:105AB000C0F8D01A70470021C0F86C1AC0F8601AFC
:105AC000704770B504460325D0F8D40A002105F0CC
:105AD000A1F903F009FF04F590612046FFF754FB9C
