:020000040000fa
:02000004000eec
:100000000060120051030e00c9030e00c9030e0068
:10001000c9030e00c9030e00c9030e00c1030e0080
:10002000c1030e00c1030e00c1030e00c9030e0080
:10003000c9030e00c1030e00c9030e00c9030e0060
:10004000c9030e00c9030e00c9030e00c9030e0048
:10005000c9030e00c9030e00c9030e00c9030e0038
:10006000c9030e00c9030e00c9030e00c1030e0030
:10007000c9030e00c9030e00c9030e00c9030e0018
:10008000c1030e00c9030e00c1030e00c1030e0020
:10009000c9030e00c9030e00c9030e00c9030e00f8
:1000a000c9030e00c9030e00c9030e00c9030e00e8
:1000b000c9030e00c9030e00c9030e00c9030e00d8
:1000c000c9030e00c9030e00c1030e00c1030e00d8
:1000d000c1030e00c1030e00c1030e00c1030e00d8
:1000e000c9030e00c1030e00c1030e00c1030e00c0
:1000f000c1030e00c1030e00c1030e00c1030e00b8
:10010000c1030e00c1030e00c1030e00c1030e00a7
:10011000c1030e00c1030e00c1030e00c1030e0097
:10012000c1030e00c1030e00c1030e00c1030e0087
:10013000c1030e00c1030e00c1030e00c1030e0077
:10014000c1030e00c9030e00c1030e00c9030e0057
:10015000c9030e00c1030e00c1030e00c1030e004f
:10016000c1030e00c1030e00c1030e00c1030e0047
:10017000c1030e00c1030e00c1030e00c1030e0037
:10018000c1030e00c1030e00c1030e00c9030e001f
:10019000c9030e00c1030e00c1030e00c1030e000f
:1001a000c1030e00c1030e00c9030e00c9030e00f7
:1001b000c9030e00c1030e00c1030e00c1030e00ef
:1001c000c1030e00c1030e00c1030e00c1030e00e7
:1001d000c1030e00c1030e00c1030e00c1030e00d7
:1001e000c1030e00c1030e00c1030e00c1030e00c7
:1001f000c1030e00c1030e00c1030e00c9030e00af
:10020000c9030e00c9030e00c1030e00c1030e0096
:10021000c1030e00c1030e00c1030e00c1030e0096
:10022000c1030e00c1030e00c1030e00c1030e0086
:10023000c1030e00c1030e00c1030e00c1030e0076
:10024000c1030e00c1030e00c1030e00c1030e0066
:10025000c1030e00c1030e00c9030e00c1030e004e
:10026000c1030e00c1030e00c1030e00c1030e0046
:10027000c9030e00c9030e00c1030e00c1030e0026
:10028000c1030e00c1030e00c9030e00c9030e0016
:10029000c9030e00c9030e00c9030e00c9030e00f6
:1002a000c9030e00c9030e00c9030e00c1030e00ee
:1002b000c1030e00c1030e00c9030e00c1030e00ee
:1002c000c1030e00c1030e00c1030e00c1030e00e6
:1002d000c1030e00c1030e00c1030e00c1030e00d6
:1002e000c1030e00c1030e00c1030e00c9030e00be
:1002f000c1030e00c9030e00c9030e00c1030e00a6
:10030000c1030e00c1030e00c1030e00c1030e00a5
:10031000c1030e00c9030e00c9030e00c9030e007d
:10032000c9030e00c9030e00c9030e00c9030e0065
:10033000c9030e00c9030e00c9030e00c9030e0055
:10034000c9030e00c9030e0000bf00bf704700bf05
:10035000144a154b1a60bff34f8fbff36f8f1368aa
:1003600083f30888bff36f8f83f30988bff36f8f20
:10037000fff7eaff0d490e4a0e4b9a42bebf51f8f5
:10038000040b42f8040bf8e70b490c4a0020914299
:10039000bcbf41f8040bfae702f0eaff03f01cf8d7
:1003a00000f034f800000e0008ed00e0a8340e0064
:1003b00000001000940010000000110098021100cd
:0c03c0004ff00d00fee700bffee700bf9d
:020000040000fa
:02000004000eec
:1003cc0010b5054c227832b9044b13b10448aff385
:1003dc0000800123237010bd0000110000000000fc
:1003ec00a4340e0008b5034b1bb103490348aff30b
:1003fc00008008bd0000000004001100a4340e00b1
:10040c0080b582b000af0023fb7100f02bf846f6ec
:10041c004d13984738600e4b00221a600d4b00228a
:10042c001a600d4b00221a600c4b00221a600c4b08
:10043c0000221a6002f04efb0346fb71fb79012b84
:10044c0001d102f09bfb00bf0837bd4680bd00bf49
:10045c00f0010840f4010840f8010840fc01084094
:10046c004401084080b500af02f05eff00f057f881
:10047c00012000f0efff0121012001f000f802f053
:10048c008fff0346002b07d0044a044b1b6843f430
:10049c00a04343f05003136000bf80bd40fe0040fa
:1004ac0080b487b000af78607b68002b17d00f4bff
:1004bc00db683b610d4bdb68fb60fa683b699a4279
:1004cc0004d3fa683b69d31a7b6104e0fa683b6990
:1004dc00d31a013b7b617a697b689a42ead300bfed
:1004ec001c37bd465df8047b704700bf0010004010
:1004fc0080b584b000af78607b68da027b689b02c1
:10050c001a447b68db00d21a7b689b00d31afb6011
:10051c00f868fff7c5ff00bf1037bd4680bd80b53a
:10052c0082b000af41f6386000f09efe4323fb80a2
:10053c0002f036ff0346002b01d03323fb800f4a19
:10054c00fb8843f004039bb213600023bb8008e0dc
:10055c000a4b1b6803f00403002b06d0bb88013345
:10056c00bb80bb881f2bf3d900e000bf034afb887c
:10057c00136000bf0837bd4680bd00bf00100040af
:10058c0080b483b000af0346fb80074b00221a6097
:10059c00064afb881380044b01221a6000bf0c37fb
:1005ac00bd465df8047b704720001100240011004b
:1005bc0080b582b000af7860396006e07b685a1c69
:1005cc007a601b78184600f015f83b685a1e3a60a2
:1005dc00002bf3d100bf0837bd4680bd80b400afff
:1005ec00034b1b881846bd465df8047b704700bf63
:1005fc002400110080b485b000af0346fb71fb7979
:10060c00fb810d4b1b881b0a9ab2fb895340bb81a3
:10061c00094b1b881b021ab2bb89084931f81330ed
:10062c001bb253401bb29ab2034b1a8000bf143753
:10063c00bd465df8047b70472400110028001100b2
:10064c0080b485b000af0023fb602de00023fb805d
:10065c00fb689bb21b02bb800023bb6019e0fa88cd
:10066c00bb8853409bb21bb2002b09dafb885b00a2
:10067c001bb283f4815383f001031bb2fb8002e0b5
:10068c00fb885b00fb80bb885b00bb80bb680133d5
:10069c00bb60bb68072be2d90849fb68fa8821f8d4
:1006ac001320fb680133fb60fb68ff2bced900bf26
:1006bc001437bd465df8047b704700bf280011005d
:1006cc0080b584b000aff860b9607a603b607b683d
:1006dc009bb21846fff754ffb968f868fff768ff3c
:1006ec00fff77cff03461a463b681a6000bf1037c1
:1006fc00bd4680bd90b583b000af0346fb71f87961
:10070c004ff2152301220e21984702f049fe0346b1
:10071c00002b08d00b4b1b784ff225240022022112
:10072c000020a04707e0074b1b784ff2252400223e
:10073c0004210020a047044b01221a7000bf0c3783
:10074c00bd4690bd280211000024004080b584b045
:10075c0000af7860c823fb81104b1a784ff221232d
:10076c0011467868984703463b730120fff7c0fe9b
:10077c00fb89013bfb813b7b002b02d1fb89002bce
:10078c00ead101237b733b7b002b01d000237b73cd
:10079c007b7b18461037bd4680bd00bf2802110078
:1007ac00b0b586b002af78603960002001f0c2fcb1
:1007bc007b681b8818467b6899687b689b781d460c
:1007cc007b68da680f4b1b780193002300934ff280
:1007dc00352413462a46a0470346002b04d03b6819
:1007ec0000221a60012308e03868fff7afff0346c8
:1007fc00fb73012001f09efcfb7b18461037bd46b5
:10080c00b0bd00bf2802110090b589b002aff860ee
:10081c00b9607a60fb70234b1b78f87800934ff229
:10082c002d24bb687a68f968a04738611d4b1b788a
:10083c00002b0bd1012300934ff211243b69ba68b2
:10084c0016210720a0470346fb750ae001230093fd
:10085c004ff211243b69ba681a210720a0470346be
:10086c00fb75fb7d002b05d1bb6a00221a600123ae
:10087c00bb7511e0002001f05dfc0a4b1a784ff2b9
:10088c003123114600209847b86afff75fff0346f3
:10089c00bb75012001f04efcbb7d18461c37bd46d4
:1008ac0090bd00bf2802110090b589b002aff8606e
:1008bc00b9607a603b60214b1b784ff239247a681f
:1008cc00f9680220a0471d4b1b78002b0bd101238c
:1008dc0000934ff211247b68ba6815210720a047ba
:1008ec000346fb750ae0012300934ff211247b6849
:1008fc00ba6819210720a0470346fb75fb7d002b26
:10090c0004d13b6800221a60012312e0002001f0a0
:10091c0011fc0a4b1a784ff23123114600209847ec
:10092c003868fff713ff0346fb75012001f002fc4a
:10093c00fb7d18461c37bd4690bd00bf2802110038
:10094c0080b485b000af0346fb710023fb60fb79dc
:10095c00ac2b19d8fb799bb203f01f037b81fb797d
:10096c005b09dbb21a460c4b53f822207b8922fa26
:10097c0003f303f00103002b06d0fb799b0003f17a
:10098c00804303f50123fb60fb6818461437bd4612
:10099c005df8047b704700bf68340e0080b584b0ee
:1009ac0000af03460a46fb711346bb71fb79184630
:1009bc00fff7c6fff860fb6802331a46bb7903f0f9
:1009cc000103dbb2137000bf1037bd4680bd80b48d
:1009dc0083b000af0346fb71fb795b09dbb21846b1
:1009ec000c37bd465df8047b704780b483b000af14
:1009fc000346fb71fb7903f01f03dbb218460c377f
:100a0c00bd465df8047b704780b586b000af0346e9
:100a1c003960fb7100237b61fb79ac2b2bd8fb7904
:100a2c001846fff7d4ff03463b61fb791846fff7e6
:100a3c00dcff0346fb60124a3b6952f82320fb683b
:100a4c0022fa03f303f00103002b14d03b699a0044
:100a5c000c4b13447b617b691b680121fa6801fa1a
:100a6c0002f2d2431340bb607b693968fa6891404b
:100a7c00ba680a431a6000bf1837bd4680bd00bf74
:100a8c0068340e008013084080b584b000af034674
:100a9c000a46fb711346bb80fb79184600f071f8cf
:100aac00b860bb681b889bb223f48063fb81bb8856
:100abc00002b03d0fa89bb881343fb81bb68fa89ee
:100acc001a8000bf1037bd4680bd80b485b000af22
:100adc000346fb710023fb730023bb81fb79ac2b1a
:100aec0013d8fb795b09dbb2bb81bb890b4a52f88b
:100afc002330fa7902f01f02012101fa02f21340ad
:100b0c00002b04d00123fb7301e00023fb73fb7b60
:100b1c0018461437bd465df8047b704768340e00e8
:100b2c0080b584b000af03463a60fb710b46bb80c6
:100b3c000023fb73fb791846fff7c7ff0346002b16
:100b4c0018d0ba88fb7911461846fff79dffbb8871
:100b5c00002b05d0fb7939681846fff755ff06e0e6
:100b6c003b68dab2fb7911461846fff717ff0123f1
:100b7c00fb7301e00023fb73fb7b18461037bd466b
:100b8c0080bd80b485b000af0346fb710023fb60d1
:100b9c00fb79ac2b19d8fb799bb203f01f037b813b
:100bac00fb795b09dbb21a460b4b53f822207b898d
:100bbc0022fa03f303f00103002b06d0fb799b0010
:100bcc0003f1804303f50123fb60fb6818461437df
:100bdc00bd465df8047b704768340e0080b485b068
:100bec0000af0346fb710023fb60fb79ac2b17d8dd
:100bfc00fb799bb203f01f037b81fb795b09dbb2b2
:100c0c001a460b4b53f822207b8922fa03f303f08c
:100c1c000103002b04d0fb799a00064b1344fb60b4
:100c2c00fb6818461437bd465df8047b704700bf5f
:100c3c0080340e000015084080b584b000af034628
:100c4c00fb71fb791846fff79cfff860fb68002be3
:100c5c0003d0fb681b889bb201e04bf6ef63184690
:100c6c001037bd4680bd80b584b000af03460a4640
:100c7c00fb711346bb80fb791846fff782fff860c7
:100c8c00fb68002b02d0fb68ba881a8000bf1037b3
:100c9c00bd4680bd80b584b000af0346fb71fb79c7
:100cac001846fff76effb860064bfb60bb68002b65
:100cbc0002d0bb681b68fb60fb6818461037bd464a
:100ccc0080bd00bfefbeadde80b584b000af034683
:100cdc003960fb71fb791846fff753fff860fb682e
:100cec00002b02d0fb683a681a6000bf1037bd4673
:100cfc0080bd80b584b000af0346fb71fb7918460c
:100d0c00fff76cffb8600023fb73bb68002b02d0ad
:100d1c00bb681b78fb73fb7b18461037bd4680bd48
:100d2c0080b584b000af03460a46fb711346bb7115
:100d3c00fb791846fff752fff860fb68002b02d0d6
:100d4c00fb68ba791a7000bf1037bd4680bd80b5fc
:100d5c0084b000af03460a46fb711346bb71fb79a6
:100d6c001846fff70efff860fb68002b04d0fb68f9
:100d7c0002331a46bb79137000bf1037bd4680bdd5
:100d8c0080b584b000af03460a46fb711346bb71b5
:100d9c00fb791846fff7f5fef860fb68002b0fd0c7
:100dac00fb681b889bb223f003037b81fb68ba7939
:100dbc0092b202f0030291b27a890a4392b21a807b
:100dcc0000bf1037bd4680bd80b584b000af034670
:100ddc000a46fb711346bb71fb791846fff7d1fe2f
:100dec00f860fb68002b0fd0fb681b889bb223f0cc
:100dfc000c037b81fb68ba7992b202f00c0291b2bf
:100e0c007a890a4392b21a8000bf1037bd4680bd62
:100e1c0080b584b000af03460a46fb711346bb7124
:100e2c00fb791846fff7adfef860fb68002b0fd07e
:100e3c00fb681b889bb223f0f0037b81fb68ba79bb
:100e4c0092b202f0f00291b27a890a4392b21a80fd
:100e5c0000bf1037bd4680bd80b584b000af0346df
:100e6c000a46fb711346bb80fb791846fff789fed7
:100e7c00f860fb68002b0ed0fb681b889bb223f438
:100e8c0080737b81fb68ba8802f4807291b27a8994
:100e9c000a4392b21a8000bf1037bd4680bd80b5a0
:100eac0084b000af03460a46fb711346bb71fb7955
:100ebc001846fff766feb860bb68002b0fd0bb6806
:100ecc001b889bb223f40073fb81bb79002b03d0ee
:100edc00fb8943f40073fb81bb68fa891a8000bf5d
:100eec001037bd4680bd80b584b000af03460a46be
:100efc00fb711346bb71fb791846fff742feb860d5
:100f0c00bb68002b0fd0bb681b889bb223f480639b
:100f1c00fb81bb79002b03d0fb8943f48063fb81fd
:100f2c00bb68fa891a8000bf1037bd4680bd80b5fa
:100f3c0084b000af03460a46fb711346bb71fb79c4
:100f4c001846fff71efeb860bb68002b0fd0bb68bd
:100f5c001b889bb223f40063fb81bb79002b03d06d
:100f6c00fb8943f40063fb81bb68fa891a8000bfdc
:100f7c001037bd4680bd80b584b000af03460a462d
:100f8c00fb711346bb80fb791846fff7fafdf8603e
:100f9c00fb68002b10d0fb681b889bb2c3f30b03c0
:100fac007b81fa68bb8823f47f6323f00f0399b22b
:100fbc007b890b439bb2138000bf1037bd4680bdad
:100fcc0080b584b000af0346fb71fb791846fff780
:100fdc00d8fdb8600023fb73bb68002b03d0bb6843
:100fec0003331b78fb73fb7b18461037bd4680bd63
:100ffc0080b584b000af0346fb71fb791846fff750
:10100c00c0fdf860fb68002b1dd0fb681b6803f467
:10101c008063002b06d1fb68fa68126882f4803278
:10102c001a6010e0fb7903f01f03fb72fb795b097c
:10103c00dbb23b8106493b89fa7a012000fa02f2c5
:10104c00e03341f8232000bf1037bd4680bd00bf00
:10105c000010084080b584b000af03460a46fb710f
:10106c001346bb80fb791846fff76afcf860fb68f7
:10107c001b68bb60bb6823f40042bb881343bb6096
:10108c00fb68ba681a6000bf1037bd4680bd80b5da
:10109c0084b000af03460a46fb711346bb80fb7954
:1010ac001846fff74dfcf860fb681b687b817b8959
:1010bc0023f400739ab2bb8813437b81fb687a8953
:1010cc001a60bb88002b04d1fb7900211846fff76e
:1010dc00c1ff00bf1037bd4680bd80b584b000afe6
:1010ec0003463a60fb710b46bb710023fb73fb7923
:1010fc001846fff7eafc0346002b0dd0bb79042bf6
:10110c0007d13b689ab2fb7911461846fff7bfff2f
:10111c0000bf0123fb7301e00023fb73fb7b18462c
:10112c001037bd4680bd80b584b000af0346396032
:10113c00fb71fb791846fff703fcf860fb68002b8a
:10114c0002d0fb683a681a6000bf1037bd4680bdfc
:10115c0090b585b000af0446084611461a462346a2
:10116c00fb710346bb800b467b8013463b80002300
:10117c00fb73fb791846fff7a8fc0346002b1ad02b
:10118c00ba887b881a443b881a443b8c1a44bb8c23
:10119c001a4497f828301a4497f82c301a4497f8c8
:1011ac0030301344bb60fb79b9681846fff7bbffbe
:1011bc000123fb7301e00023fb73fb7b1846143700
:1011cc00bd4690bd80b588b006af0346fb71f8797b
:1011dc0000230493002303934023029300230193e1
:1011ec0000230093002300220021fff7b1ff00bf72
:1011fc000837bd4680bd80b582b000af0346fb7199
:10120c00fb791846fff7defffb7901224ff4806172
:10121c001846fff785fcfb794ff400720421184641
:10122c00fff75bff00bf0837bd4680bd80b485b0bb
:10123c0000af0346fb80fb88dab20a4b1344fb6019
:10124c00fb68fa681168fa88120a92b210460122f9
:10125c0082400a431a6000bf1437bd465df8047b18
:10126c00704700bf0001084080b485b000af034652
:10127c00fb80fb88dab20a4b1344fb60fb68fa680c
:10128c001168fa88120a92b2104601228240d243a7
:10129c000a401a6000bf1437bd465df8047b7047e6
:1012ac000001084080b485b000af0346fb80fb888a
:1012bc00dab20b4b1344fb60fb681b68fa88120a0a
:1012cc0092b2d34003f00103002b14bf012300237f
:1012dc00dbb218461437bd465df8047b704700bf7f
:1012ec000001084080b485b000af0346fb800023aa
:1012fc00fb73fb88dab22a4b1344bb60bb68ba6839
:10130c001168fa88120a92b21046012282400a43ee
:10131c001a60bb6840331946bb6840331a68fb88b7
:10132c001b0a9bb218460123834013430b604ff4f6
:10133c008073bb810fe0bb681b68fa88120a92b2fb
:10134c00d34003f00103002b02d00123fb7305e013
:10135c00bb89013bbb81bb89002becd1bb68403303
:10136c001946bb6840331a68fb881b0a9bb21846a7
:10137c0001238340db4313400b60bb68ba681168e0
:10138c00fa88120a92b2104601228240d2430a40d5
:10139c001a60fb7b18461437bd465df8047b70471a
:1013ac000001084080b400af024b4ff480729a6188
:1013bc00fee700bf0001084080b483b000af0346d5
:1013cc00fb80094bfd221a70074bfa88d2b21a70b7
:1013dc00054afb881b0a9bb2dbb2137000bf0c37ab
:1013ec00bd465df8047b7047008c004080b483b030
:1013fc0000af0346fb80084bfa88d2b21a70064a3b
:10140c00fb881b0a9bb2dbb2137000bf0c37bd46c6
:10141c005df8047b704700bf008c004080b485b041
:10142c0000af78600023fb8109e0094b7a68d2b2e7
:10143c001a707b681b0a7b60fb890133fb81fb897b
:10144c00032bf2d900bf1437bd465df8047b7047ff
:10145c00008c004080b582b000af0346fb71fb7975
:10146c00002b04d040f23470fff7fefe03e040f294
:10147c003470fff7dbfe00bf0837bd4680bd80b57a
:10148c0082b000af03460a46fb711346bb71fb7971
:10149c00002b10d0114b01221a71bb79002b18d0e4
:1014ac004ff400514420fff7defb4ff40051452070
:1014bc00fff7d9fb0de0094b00221a71bb79002b09
:1014cc0007d000214420fff7cefb00214520fff779
:1014dc00cafb00bf0837bd4680bd00bf008c004072
:1014ec0080b582b000af0346fb80fb881846fff73f
:1014fc0063ff00bf0837bd4680bd80b582b000af2a
:10150c0003463960fb80fb881846fff755ff3b68a4
:10151c009bb21846fff76aff00bf0837bd4680bd77
:10152c0080b584b000af0346b9607a60fb81fb895b
:10153c001846fff741ff7b681a04bb689bb2134443
:10154c001846fff76bff00bf1037bd4680bd80b556
:10155c0084b000afb9607a603b600346fb81fb89c5
:10156c001846fff729ff7b681a04bb689bb213442b
:10157c001846fff753ff3b689bb21846fff736ff40
:10158c0000bf1037bd4680bd80b584b000afb960d8
:10159c007a603b600346fb81fb891846fff70cff22
:1015ac007b681a04bb689bb213441846fff736ffde
:1015bc00bb691a043b689bb213441846fff72eff15
:1015cc0000bf1037bd4680bd80b582b000af03466a
:1015dc003960fb80fb881846fff7eefe3868fff792
:1015ec001dff00bf0837bd4680bd80b584b000af7d
:1015fc000346b9607a60fb81fb891846fff7dcfe75
:10160c00b868fff70bff7868fff708ff00bf1037cb
:10161c00bd4680bd80b584b000afb9607a603b60d8
:10162c000346fb81fb891846fff7c6feb868fff737
:10163c00f5fe7868fff7f2fe3868fff7effe00bfa3
:10164c001037bd4680bd80b584b000afb9607a60fc
:10165c003b600346fb81fb891846fff7adfeb8687b
:10166c00fff7dcfe7868fff7d9fe3868fff7d6fe87
:10167c00b869fff7d3fe00bf1037bd4680bd00bf71
:10168c0080b584b000af4ff48e13bb600f4b7b6002
:10169c00bb681a687b689a4202d10123bb7301e0d4
:1016ac000023bb7300f014f80346fb70bb7b012bcb
:1016bc0005d1fb78012b02d10123fb7301e0002340
:1016cc00fb73fb7b18461037bd4680bd44484c4627
:1016dc0080b586b000af4ff48e133b610023fb75d1
:1016ec004ff48e13fb606223fb72f868f97a3b1d92
:1016fc004ff6ff72fef7e4ff3b69b3f862309bb222
:10170c001a467b689a4202d10123fb7501e0002343
:10171c00fb75fb7d18461837bd4680bd80b582b081
:10172c0000af184a4ff48e131046194664231a461c
:10173c0001f070fe00f028f80346002b02d10623be
:10174c00fb7119e000f064f80346002b02d1102362
:10175c00fb7111e000f0aaf80346002b02d108231c
:10176c00fb7109e000f04cf90346002b02d1092370
:10177c00fb7101e00a23fb71fb7918460837bd4663
:10178c0080bd00bf2c02110080b584b000af1f4a91
:10179c003b461068186012791a714023bb734ff4e2
:1017ac008e13bb600023fb73bb681b7adbb20f2b61
:1017bc0025d0bb681b7adbb2184600f075fcbb6801
:1017cc0093f82930dbb2184600f09afcbb681b7a00
:1017dc00fb71fb791846fef78dff2d20fff70bfdf3
:1017ec000220fff708fd5420fff705fd5020fff7fe
:1017fc0002fd9820fff7fffc0123fb7301e000239f
:10180c00fb73fb7b18461037bd4680bd98340e0029
:10181c0080b483b000af4ff48e133b600023bb71d8
:10182c0000237b713b689b7adab21c4b1a70002345
:10183c00fb710fe0fb791a4a0133db0013449b6800
:10184c00002b04d00123bb717b7901337b71fb79b5
:10185c000133fb71114b1b78fa799a42ead3bb79ad
:10186c00012b08d10d4b1b787a799a4203d10d4b81
:10187c0001221a700be0094b1b78002b05d10a4b87
:10188c0001221a700123bb7101e00023bb71bb79eb
:10189c0018460c37bd465df8047b7047900211006a
:1018ac002c0211001c0011009302110080b588b0ad
:1018bc0000af4ff48e13bb610023fb770023bb7783
:1018cc000023fb754ff48053bb8200233b6040f632
:1018dc00ff733b61bb695b7afb73bb6993f8243084
:1018ec00fb75424b1b78012b6bd1fb7d012b0fd170
:1018fc000023bb60bb691b7adbb2184600f0b7fb58
:10190c0078607968b86800f01ffa0346fb7768e0e6
:10191c00fb7b022b42d1364b1b78012b3bd1354b39
:10192c001b78002b37d00023bb772ee0bb7f324acd
:10193c000133db0013445b68bb60bb7f2e4a013371
:10194c00db0013449b687b60ba8a7b689a4208d898
:10195c00ba8a7b68b3fbf2f102fb01f29b1a002bf3
:10196c0002d00023fb770de0ba683b691340002bd3
:10197c0002d00023fb7705e07968b86800f0e4f941
:10198c000346fb77bb7f0133bb771a4b1b78ba7fbf
:10199c009a42cbd325e00023fb7722e0fb7b012b83
:1019ac000cd13b46184601f008fb0346002b02d035
:1019bc000023fb7715e00123fb7712e00023fb7774
:1019cc000fe00e4b1b78012b0bd13b46184601f058
:1019dc00f4fa0346002b02d00023fb7701e001232d
:1019ec00fb77fb7f18462037bd4680bd1e001100db
:1019fc001c001100900211002c0211009402110025
:101a0c0080b586b000af4ff48e133b610023bb75dd
:101a1c000023fb733b695b7abb733b6993f82430ff
:101a2c007b733a4b1b78012b4ed17b7b012b0fd157
:101a3c00fb7bbb603b691b7adbb2184600f017fbe3
:101a4c0078607968b86800f069f80346bb7557e0b0
:101a5c00bb7b022b22d10023fb7519e0fb7d2c4aaa
:101a6c000133db0013445b68bb60fb7d284a013308
:101a7c00db0013449b687b607968b86800f04ef813
:101a8c000346bb75bb7d002b39d0fb7d0133fb7549
:101a9c00204b1b78fa7d9a42e0d331e0bb7b012bc3
:101aac000fd1fb7bbb603b691b7adbb2184600f0a5
:101abc00defa78607968b86800f030f80346bb75d8
:101acc001ee00023bb751be0104b1b78002b13d1c1
:101adc00114b1b78012b0fd1fb7bbb603b691b7a35
:101aec00dbb2184600f0c3fa78607968b86800f089
:101afc0015f80346bb7503e00023bb7500e000bf7f
:101b0c00bb7d18461837bd4680bd00bf1e001100b6
:101b1c002c021100900211009602110080b58cb0bd
:101b2c0002af786039604ff48e13bb610023bb6049
:101b3c004ff48e137b610123fb777b6993f8243080
:101b4c00fb747b69d3f82530fb60fb681b03fb60df
:101b5c00fb7c012b0ed1fa687b689a420ad80120d3
:101b6c0000f0e8f92d4b01221a707a68fb68d31a41
:101b7c003b6211e0fb7c012b0cd1fa687b689a422a
:101b8c0008d9002000f0d6f9244b00221a707b688b
:101b9c003b6201e07b683b62fb7c012b0ad13b681a
:101bac00b3f5805f03d94ff480537b620ce03b6844
:101bbc007b6209e03b68b3f5804f03d94ff4804357
:101bcc007b6201e03b687b6207f108030093002312
:101bdc007a6ab969386afef717fe0346002b02d001
:101bec000023fb7715e0bb69796a184600f0dcff2f
:101bfc000346002b02d00023fb770ae07a687b6a4d
:101c0c0013447b603a687b6ad31a3b603b68002bb9
:101c1c009ed1fb7f18462837bd4680bd1d001100a4
:101c2c0080b487b000af786039600023fb75002367
:101c3c00bb7530e0bb7d1e4a0133db0013445b688f
:101c4c003b61bb7d1a4a0133db0013449b68fb608c
:101c5c003b68ff2b1cd93b68b3f5804f18d83a6909
:101c6c007b689a4205d37a683b681a443b699a426e
:101c7c0009d87a683b699a4208d33a69fb681a44d6
:101c8c007b689a4202d90123fb7509e00023fb759e
:101c9c00bb7d0133bb75074b1b78ba7d9a42c9d308
:101cac00fb7d18461c37bd465df8047b704700bfb2
:101cbc002c0211009002110080b582b000af0023fd
:101ccc00fb71fff7f3fd0346bb71bb79012b08d108
:101cdc00fff796fe03467b717b79012b01d1012323
:101cec00fb71fb7918460837bd4680bd80b584b0c2
:101cfc0000afff237b724ff48043fb804ff48e12b6
:101d0c00104b1046194664231a4601f083fb4ff41e
:101d1c008e13fb60fb686433fb6064237b8108e0fb
:101d2c00fb687a7a1a70fb680133fb607b8901339c
:101d3c007b817a89fb889a42f2d300bf1037bd466b
:101d4c0080bd00bf2c02110080b588b000af786058
:101d5c0039604ff48e137b610123fb770023fb74f6
:101d6c004ff480533b820023bb607b6993f8243093
:101d7c00fb747b69d3f82530fb60fb681b03fb60ad
:101d8c00fb7c012b0ed1fa687b689a420ad80120a1
:101d9c0000f0d0f81a4b01221a707a68fb68d31a3b
:101dac00bb6111e0fb7c012b0cd1fa687b689a4279
:101dbc0008d9002000f0bef8114b00221a707b6885
:101dcc00bb6101e07b68bb6107f108031946b86988
:101ddc0001f079f80346002b02d00023fb770ae0d0
:101dec003b8a7a6813447b603b8a3a68d31a3b601f
:101dfc003b68002bc4d1fb7f18462037bd4680bd05
:101e0c001d00110080b58ab002aff860b9607a602d
:101e1c003b600023fb76ba68fb689a425ad9fb6890
:101e2c0003f58042bb689a4254d94ee04ff480537c
:101e3c007b61ba68fb689a420ad8012000f07af8f4
:101e4c003b4b01221a70fa68bb68d31afb610be09a
:101e5c00ba68fb689a4207d9002000f06bf8344b43
:101e6c0000221a70fb68fb6197f83030002b12d1fe
:101e7c0097f82820fb6a009313467a697968f86909
:101e8c00fef7c2fc0346002b02d00123fb7614e0c4
:101e9c000023fb7611e097f83030012b0dd1fb6a53
:101eac007a697968f86901f01df90346002b02d0b4
:101ebc000123fb7601e00023fb767b6803f580535e
:101ecc007b60fb6803f58053fb607b68b3f5901f68
:101edc00acd328e097f83030002b12d197f828209b
:101eec00fb6a009313463a687968f868fef78cfc35
:101efc000346002b02d00123fb7614e00023fb7673
:101f0c0011e097f83030012b0dd1fb6a3a687968f3
:101f1c00f86801f0e7f80346002b02d00123fb76aa
:101f2c0001e00023fb76fb7e18462037bd4680bdc2
:101f3c001d00110090b585b000af0346fb71204a1f
:101f4c0007f10c0312881a80fb79002b18d11d4b5a
:101f5c001b78012b14d13b7b4ff400511846fff733
:101f6c000af87b7b00211846fff705f80023fb736a
:101f7c00f87b4ff22524002300220221a0471ae00f
:101f8c00fb79012b17d10f4b1b78002b13d17b7bcb
:101f9c004ff400511846fef7eeff3b7b002118462c
:101fac00fef7e9ff1023fb73f87b4ff22524002387
:101fbc0000220221a04700bf1437bd4690bd00bfd0
:101fcc00a0340e001d00110080b588b002aff8607f
:101fdc00b9607a60fb707b687b610123fb747b6862
:101fec00b3f5805f02d94ff480537b607968f86851
:101ffc00fff716fe0346002b10d03b6a009300231c
:10200c007a68b968f868fef7fffb0346002b02d02c
:10201c000123fb7408e00023fb7405e07968b868c1
:10202c0000f016f80023fb747b69a3f580537b61e9
:10203c00bb6803f58053bb60fb6803f58053fb6002
:10204c007b69002bcbd1fb7c18461837bd4680bd75
:10205c0080b582b000af786039607b683a68ff2148
:10206c00184601f0e2f900bf0837bd4680bd80b4c8
:10207c0085b000af0346fb71fb79002b0cdb012b09
:10208c0006dd022b00d007e04ff40023fb6004e0d8
:10209c004ff08073fb6000e000bffb6818461437fc
:1020ac00bd465df8047b704780b483b000af034637
:1020bc00fb71fb79022b06d10f4b00221a700f4bd0
:1020cc0001221a7012e0fb79002b06d10a4b002278
:1020dc001a700a4b00221a7008e0fb79012b05d10b
:1020ec00054b01221a70054b00221a7000bf0c37e9
:1020fc00bd465df8047b7047280211009102110067
:10210c0080b483b000af0346fb71fb79002b03d185
:10211c00074b00221a7004e00123fb71044b0122cf
:10212c001a7000bf0c37bd465df8047b704700bfca
:10213c009202110080b582b000af0346fb71284bb0
:10214c001b78012b07d1fb791a464ff4806198203c
:10215c00fef7e6fc3fe0234b1b78002b0bd1224b08
:10216c001b78002b07d1fb791a464ff480612d2088
:10217c00fef7d6fc2fe01b4b1b78002b0bd11a4b18
:10218c001b78012b07d1fb791a464ff48061022092
:10219c00fef7c6fc1fe0134b1b78012b0bd1124b27
:1021ac001b78002b07d1fb791a464ff48061542021
:1021bc00fef7b6fc0fe00b4b1b78012b0bd10a4b37
:1021cc001b78012b07d1fb791a464ff48061502004
:1021dc00fef7a6fcffe700bf0837bd4680bd00bf79
:1021ec0091021100280211009202110080b58eb0ec
:1021fc0004af78600023bb60012387f822307b6832
:10220c00fb617b680233bb61bb691b889bb27b6142
:10221c00bb69d3f802307b625d4b93f82430fb74be
:10222c005b4bd3f82530fb60fb681b03fb600a2378
:10223c0087f823307b6a002b0dd1564b1b78012b72
:10224c0005d1fff753fd002387f8223012e001235c
:10225c0087f822300ee04f4b1b78012b07d17b6a9d
:10226c00a3f580437b62012387f8223002e001232f
:10227c0087f8223097f82230012b40f083807b695d
:10228c00b3f5804f06d9fb6902229a700b2387f8ad
:10229c00233077e0fb7c012b30d1fa687b6a9a42c1
:1022ac0006d80120fff746fe3b4b01221a7009e0cd
:1022bc00fa687b6a9a4205d90020fff73bfe364b41
:1022cc0000221a70fb6910331a460023029307f19f
:1022dc0008030193002300937b69f968786afff780
:1022ec0091fd0346002b4dd0fb6905229a70ba680c
:1022fc00fb695a600b2387f8233043e0274b1b788c
:10230c00012b17d1fb691033194607f10803009311
:10231c0000237a69786afef777fa0346002b31d0ee
:10232c00fb6905229a70ba68fb695a600b2387f81f
:10233c00233027e07969786afff772fc0346002b9b
:10234c0017d0fb691033194607f1080300930023db
:10235c007a69786afff738fe0346002b12d0fb69c6
:10236c0005229a70ba68fb695a600b2387f82330f0
:10237c0008e0fb69103379691846fff769fe0a23f8
:10238c0087f8233097f8233018462837bd4680bd90
:10239c002c0211001e0011001d00110093021100ef
:1023ac0080b58eb004af78600023bb607b68fb61a6
:1023bc007b680233bb61bb69d3f806307b61bb69b8
:1023cc00d3f802307b620a2387f82330724b93f8e0
:1023dc002430fb74704bd3f82530fb60fb681b0377
:1023ec00fb607b6a002b24d1fff74af903461a469f
:1023fc006a4b1a70694b1b78012b06d1fff78ef9cb
:10240c0003461a46664b1a7013e04ff480424ff4a1
:10241c008e11644800f0fefffff74efc03461a468f
:10242c00614b1a704ff480425e494ff48e1000f0ed
:10243c00f1ff5a4b1b78012b1dd1594b1b780a2be2
:10244c000ed17b6a002b03d1002387f8223026e0c3
:10245c007b6aa3f580437b62012387f822301ee060
:10246c00002387f822304e4b1a78fb699a700b23a5
:10247c0087f8233013e04c4b1b78002b09d1002339
:10248c0087f82230fb6907229a700b2387f82330d8
:10249c0005e0012387f82230444b01221a7097f88b
:1024ac002230012b71d17b69b3f5804f02d87b6947
:1024bc00002b06d1fb6902229a700b2387f823307c
:1024cc0063e07b6adbb2002b06d0fb6904229a70b6
:1024dc000b2387f8233058e0fb7c012b1bd17b6846
:1024ec0010331a460123029307f1080301930023ca
:1024fc0000937b69f968786afff784fc0346002b2c
:10250c0043d0fb6905229a70ba68fb695a600b23a9
:10251c0087f8233039e0254b1b78012b15d17b68cc
:10252c001033194607f108037a69786a00f0dafd6e
:10253c000346002b29d0fb6905229a70ba68fb6907
:10254c005a600b2387f823301fe07969786afff70c
:10255c0067fb0346002b15d07b681033194607f137
:10256c0008037a69786a00f0bdfd0346002b0cd095
:10257c00fb6905229a70ba68fb695a600b2387f8cd
:10258c00233002e00a2387f8233097f823301846cb
:10259c002837bd4680bd00bf2c0211001e00110063
:1025ac0097021100c07f11009502110093021100d7
:1025bc0080b586b000af78600023fb607b683b6120
:1025cc000a23fb7507f10c03184600f0f6fc0346d2
:1025dc00002b08d03b6905229a70fa683b695a6057
:1025ec000b23fb7501e00a23fb75fb7d184618379e
:1025fc00bd4680bd80b58cb000af78600023bb6059
:10260c007b687b617b6802333b613b691b78fb73a6
:10261c003b69d3f80230bb623b69d3f806307b626e
:10262c000a23fb76fb7b012b08d14ff480533b62d2
:10263c0040f6ff73fb612a4bfb6211e0fb7b022b24
:10264c0008d14ff480333b624ff6ff73fb61254b8f
:10265c00fb6205e07b6903229a700b23fb763ae060
:10266c00ba6afb691340002b05d07b6904229a706f
:10267c000b23fb762fe07b6a3a6ab3fbf2f2396ae2
:10268c0001fb02f29b1a002b02d17b6a002b05d1b5
:10269c007b6902229a700b23fb761ce007f108027f
:1026ac00fb6a1146b86a98470346002b08d07b6931
:1026bc0005229a70ba687b695a600b23fb760ae094
:1026cc00ba6a3b6a1344bb627a6a3b6ad31a7b626e
:1026dc007b6a002be2d1fb7e18463037bd4680bdad
:1026ec00d32e0e004d2f0e0080b58cb002af78604b
:1026fc000023bb607b6802337b617b69d3f80230bb
:10270c007b627b69d3f806303b627b683b613b693b
:10271c000833fb60fb6800221a700a23bb76012386
:10272c00fb763b6ab3f5804f03d94ff48043fb61d2
:10273c0001e03b6afb613b691033194607f1080362
:10274c0000930023fa69786afef75ef80346002bc3
:10275c0008d03b6905229a70ba683b695a600b2312
:10276c00bb7616e03b691033f969184600f01cfa89
:10277c000346002b02d00223fb760ae07a6afb693f
:10278c0013447b623a6afb69d31a3b623b6a002ba7
:10279c00c7d1fb68fa7e1a70bb7e18462837bd4637
:1027ac0080bd80b485b000af78607b68fb60fb684f
:1027bc000833bb60bb6841225a70bb6803221a7095
:1027cc000a2318461437bd465df8047b704780b564
:1027dc0090b002af786000237b617b6802337b6230
:1027ec007b6a1b7887f823307b6ad3f802307b63d3
:1027fc007b6ad3f806303b637b68fb61fb6908336b
:10280c00bb610a2387f82b303b6b002b06d1fb698d
:10281c0002229a700b2387f82b3074e097f8233040
:10282c00022b27d17b6bb3f58e1f03d37b6bb3f5d8
:10283c00901f06d3fb6901229a700b2387f82b306b
:10284c0061e07a6b3b6b1344b3f5901f06d9fb69bf
:10285c0001229a700b2387f82b3054e0786b07f128
:10286c000c034ff6ff72396bfdf72afffa68bb6950
:10287c001a6048e097f82330012b3ed14ff6ff73d6
:10288c003b613b6bb3f5804f03d94ff48043fb6244
:10289c0001e03b6bfb62fb691033194607f1140333
:1028ac0000930023fa6a786bfdf7aeff0346002b0a
:1028bc000bd0fb6905229a707a69fb695a600b236d
:1028cc0087f82b3000233b6113e0fb6903f1100008
:1028dc003a6907f11003f96afdf7f2fe7a6bfb6aad
:1028ec0013447b633a6bfb6ad31a3b633b6b002b41
:1028fc00c7d13a69bb691a6005e0fb6903229a707b
:10290c000b2387f82b3097f82b3018463837bd46f9
:10291c0080bd80b588b000af786000233b61002398
:10292c00fb737b68bb61bb6908337b610a23fb7754
:10293c0007f1100207f10f031146184600f0bcf91d
:10294c000346002b08d0bb6905229a703a69bb6913
:10295c005a600b23fb7713e007f1100207f1080311
:10296c001146184600f0d0f90346002b08d0bb697d
:10297c0005229a703a69bb695a600b23fb7700bf3a
:10298c00fa7b7b691a703a7a7b695a70fb7f18461e
:10299c002037bd4680bd80b485b000af78600a2377
:1029ac00fb73fb7b18461437bd465df8047b704700
:1029bc0080b584b000af78607b681b78bb73002354
:1029cc00fb73bb7b013b092b4dd801a252f823f0c2
:1029dc00052a0e00112a0e00732a0e001d2a0e0065
:1029ec00292a0e00352a0e004f2a0e005b2a0e00f3
:1029fc00732a0e00672a0e007868fff7f7fb034670
:102a0c00fb7333e07868fff7cbfc0346fb732de0d8
:102a1c002b4b01221a700a23fb7327e07868fff70f
:102a2c00e9fd0346fb7321e0264b01221a70264b6d
:102a3c0048f206021a60254b254a1a600a23fb73da
:102a4c0014e07868fff7adfe0346fb730ee0786880
:102a5c00fff7bdfe0346fb7308e07868fff759ffec
:102a6c000346fb7302e00c23fb7300bf7b68bb6067
:102a7c00fb7b03f00f03d9b2ba68537861f30303fd
:102a8c005370fb7b0a2b12d1bb6800229a70bb6877
:102a9c000022da70bb681a7900221a715a79002266
:102aac005a719a7900229a71da790022da71ba682d
:102abc0053786ff3c713537000bf1037bd4680bdfa
:102acc009402110096021100f0bf1100f8bf110022
:102adc000100080080b582b000af274b7b607b689b
:102aec001a79002262f00f021a715a79002262f0f0
:102afc0040025a719a79002242f011029a71da79e5
:102b0c000022da717b681a7a00221a725a7a002231
:102b1c0042f040025a729a7a00229a72da7a0022b1
:102b2c00da727b6841225a737b6803221a737b68c2
:102b3c0050221a707b6845225a707b6846229a7024
:102b4c007b685722da704ff2152300223e210020b9
:102b5c0098474ff2152300223e21012098474ff24f
:102b6c00152300223e2102209847fdf769fd012321
:102b7c0018460837bd4680bdc0bf110080b582b075
:102b8c0000af084b7b607b685b78c3f3c013dbb290
:102b9c00002b02d07868fff70bff0a20fdf7a8fc8a
:102bac00f1e700bff0bf110080b483b000af7860d4
:102bbc00396008e07b681b78ff2b01d0012308e00b
:102bcc007b6801337b603b685a1e3a60002bf1d165
:102bdc00002318460c37bd465df8047b704700bfd8
:102bec0080b588b000af7860396007f10c0304221f
:102bfc000021184600f019fc05233b7307f10c0368
:102c0c00bb6101233b827b68fb610123bb7407f131
:102c1c00100339681846fdf7c3fd034618462037e4
:102c2c00bd4680bd80b588b000af03463960fb71ee
:102c3c0007f10c0304220021184600f0f6fb0123d7
:102c4c003b73fb797b7307f10c03bb6102233b8263
:102c5c000023fb610023bb7407f11003396818468d
:102c6c00fdf79efd034618462037bd4680bd80b556
:102c7c0088b000af78600023fb7707f108030422cb
:102c8c000021184600f0d1fb01233b72fb7f7b72c5
:102c9c0007f108037b610223bb810023bb61002386
:102cac00bb7307f10c0379681846fdf779fd0346f1
:102cbc0018462037bd4680bd80b588b000af78601f
:102ccc00396007f10c0304220021184600f0adfb1b
:102cdc00ab233b7355237b73a523bb73aa23fb73d5
:102cec0007f10c03bb6104233b827b68fb6101236e
:102cfc00bb7407f1100339681846fdf751fd034604
:102d0c0018462037bd4680bd80b588b000af7860ce
:102d1c00396007f10c0304220021184600f085fbf2
:102d2c009f233b7307f10c03bb6101233b827b6840
:102d3c00fb610423bb7407f1100339681846fdf7d7
:102d4c002ffd034618462037bd4680bd80b588b0a0
:102d5c0000af786007f10c0304220021184600f044
:102d6c0064fb06233b7307f10c03bb6101233b821d
:102d7c000023fb610023bb7407f11003796818462c
:102d8c00fdf70efd034618462037bd4680bd80b5c5
:102d9c0088b000af786007f10c03042200211846bc
:102dac0000f043fb04233b7307f10c03bb610123cd
:102dbc003b820023fb610023bb7407f1100379688d
:102dcc001846fdf7edfc034618462037bd4680bd7e
:102ddc0080b588b000af786007f10c0304220021a5
:102dec00184600f022fbc7233b7307f10c03bb61b1
:102dfc0001233b820023fb610023bb7407f110030a
:102e0c0079681846fdf7ccfc034618462037bd46ba
:102e1c0080bd80b588b000af7860396007f10c03d5
:102e2c0004220021184600f000fb20233b737b6832
:102e3c001b0cdbb27b737b681b0adbb2bb737b683e
:102e4c00dbb2fb7307f10c03bb6104233b82002351
:102e5c00fb610023bb7407f1100339681846fdf7ba
:102e6c009ffc034618462037bd4680bd80b588b010
:102e7c0000af7860396007f10c030422002118467a
:102e8c0000f0d3fad8233b737b681b0cdbb27b734b
:102e9c007b681b0adbb2bb737b68dbb2fb7307f18d
:102eac000c03bb6104233b820023fb610023bb7436
:102ebc0007f1100339681846fdf772fc03461846f3
:102ecc002037bd4680bd80b584b000af78603960d6
:102edc000023fb73386800f0f1f90346002b02d095
:102eec000123fb7327e03868fff730ff0346002b04
:102efc0002d00123fb731ee039687868fff789ff65
:102f0c000346002b02d00123fb7314e02820fdf7ad
:102f1c00effa07f10e003b680a22782100f070f9f5
:102f2c000346fb73fb7b002b02d1bb7b002b02d037
:102f3c000123fb7300bffb7b18461037bd4680bdd9
:102f4c0080b584b000af786039600023fb733868bb
:102f5c0000f0b4f90346002b02d00123fb7327e0e9
:102f6c003868fff7f3fe0346002b02d00123fb73f6
:102f7c001ee039687868fff779ff0346002b02d012
:102f8c000123fb7314e05020fdf7b2fa07f10e0099
:102f9c003b680a22b42100f033f90346fb73fb7b38
:102fac00002b02d1bb7b002b02d00123fb7300bf93
:102fbc00fb7b18461037bd4680bd90b58bb002af79
:102fcc0078600023fb77454bbb61786800f076f99d
:102fdc000346002b02d00123fb7779e07868fff7da
:102fec00b5fe0346002b02d00123fb7770e0786816
:102ffc00fff7eefe0346002b02d00123fb7767e0c0
:10300c0005233b7500233b740020fff793f8344bea
:10301c001b7807f1100207f11401019300230093b0
:10302c004ff23524134601220120a04700bf2c4b40
:10303c00197807f10c024ff22123104698470346ea
:10304c00002bf4d00120fff775f826e0fa20fdf7ed
:10305c004ffa0020fff76ef8214b1b7807f1100296
:10306c0007f114010193002300934ff2352413460a
:10307c0001220120a04700bf194b197807f10c025f
:10308c004ff22123104698470346002bf4d0012021
:10309c00fff750f8bb69fa3bbb61bb69002b04d04e
:1030ac003b7c03f00103002bd0d107f117007b68a8
:1030bc0019224ff4fa6100f0a3f80346fb77fb7f6b
:1030cc00002b02d1fb7d002b02d00123fb7700bf2c
:1030dc00fb7f18462437bd4690bd00bf400d030052
:1030ec002802110080b58ab000aff860b9607a6030
:1030fc003b6000237b777b68ff2b04d87b68fb83ca
:10310c007b683b620de0fb6823f0ff0303f58073e3
:10311c007b627b6a9ab2fb689bb2d31afb837b6897
:10312c003b623868fff7a3fd0346002b02d0012356
:10313c007b775ae03868fff709fe0346002b02d074
:10314c0001237b7751e02d4b1b78002b0bd0fa8b96
:10315c003b68b968f868fdf7a7fb0346002b16d04f
:10316c0001237b7741e0fb8b1946f868fef758fd8d
:10317c000346002b0bd0fa8b3b68b968f868fdf757
:10318c0093fb0346002b02d001237b772de0fb8bb6
:10319c003a6ad31a3b62fb8bba681344bb607b6af6
:1031ac00fb604ff48073fb833b6aff2b01d83b6ab7
:1031bc00fb837b6a03f580737b620420fdf798f92f
:1031cc0007f117003b680122042100f019f80346af
:1031dc007b777b7f002b02d1fb7d002b02d0012360
:1031ec007b7702e03b6a002ba4d1b869fff7cffdd7
:1031fc007b7f18462837bd4680bd00bf9302110067
:10320c0080b586b000aff8607b600b467b811346bf
:10321c003b810023fb75fb6801221a7007f1130335
:10322c0079681846fff7dcfc0346002b02d001231b
:10323c00fb751be0fb7c03f00103002b03d1fb6847
:10324c0000221a7012e03b89bb827a893b899a4230
:10325c0001d27b89bb82bb8a1846fdf749f97a8972
:10326c00bb8ad31a7b817b89002bd7d1fb7d184677
:10327c001837bd4680bd80b588b000af786000239c
:10328c00fb7707f1080304220021184600f0cdf863
:10329c0098233b7207f108037b610123bb81002358
:1032ac00bb610023bb7307f10c0379681846fdf76b
:1032bc0077fa034618462037bd4680bd80b584b0ea
:1032cc0000af78600023fb730023bb7305237b7373
:1032dc0000233b730023fb727868fff737fd03462e
:1032ec00002b02d00123fb7319e07868fff7c3ffb2
:1032fc000346002b02d00123fb7310e007f10b00f7
:10330c007b6802221421fff77bff0346fb73fb7ad9
:10331c00002b02d1fb7b002b01d00123fb73fb7b29
:10332c0018461037bd4680bd80b483b000af0a4b41
:10333c000a4a1a600a4b5b687b607b68002b05d0dd
:10334c00064a7b68b2fbf3f3034a136000bf0c37e9
:10335c00bd465df8047b704700001000006cdc0279
:10336c000001084080b400af094a094bd3f88830fb
:10337c0043f47003c2f88830064b01225a60064ba6
:10338c00064a1a6000bfbd465df8047b704700bf5b
:10339c0000ed00e00001084000001000006cdc02b1
:1033ac0080b483b000af084b1b68fb71fb7903f052
:1033bc000103002b01d0012300e0002318460c3739
:1033cc00bd465df8047b704710fc004070b50d4e97
:1033dc000d4ca41ba4100025a54209d10b4e0c4c7e
:1033ec0000f02cf8a41ba4100025a54205d170bd3b
:1033fc0056f8253098470135eee756f825309847b2
:10340c000135f2e760340e0060340e0060340e00bb
:10341c0064340e0010b5431e0a44914200d110bd15
:10342c0011f8014b03f8014ff7e7024403469342ae
:10343c0000d1704703f8011bf9e70000f8b500bf95
:10344c00f8bc08bc9e467047f8b500bff8bc08bc79
:10345c009e467047f1030e00cd030e00ffffff7f69
:10346c00ffffff7fffffff7fffffff7fffffff7f60
:10347c00ffffff00ffffff7fffffff7fffffff3f0f
:10348c00ffffff3ffffff30fff1f00002d549802bb
:08349c00500000bf2d0200bf2b
:00000001FF
