:02000004000EEC
:20000000F0FF110001280E00E9270E00E9270E0000000000E9270E00E9270E000000000031
:20002000000000000000000000000000E9270E00E9270E0000000000E9270E00E9270E0048
:20004000E9270E00E9270E00E9270E00E9270E00E9270E00E9270E00E9270E00E9270E00B0
:20006000E9270E00E9270E00E9270E00E9270E00E9270E00E9270E00E9270E00E9270E0090
:20008000E9270E00E9270E000000000000000000E9270E00E9270E00E9270E00E9270E00AC
:2000A000E9270E00E9270E00E9270E00E9270E00E9270E00E9270E00E9270E00E9270E0050
:2000C000E9270E00E9270E00E9270E00E9270E0000000000000000000000000000000000A8
:2000E000E9270E00E9270E00E9270E00E9270E00E9270E00E9270E00E9270E00E9270E0010
:20010000E9270E00E9270E00E9270E00E9270E00E9270E000000000000000000E9270E002B
:20012000E9270E00E9270E00E9270E00E9270E00E9270E0000000000E9270E00E9270E00ED
:2001400000000000E9270E00E9270E00E9270E00E9270E00E9270E00E9270E00E9270E00CD
:20016000E9270E00E9270E0000000000000000000000000000000000E9270E00E9270E0007
:20018000000000000000000000000000E9270E00E9270E00E9270E0000000000E9270E00E7
:2001A0000000000000000000E9270E00E9270E000000000000000000000000000000000003
:2001C00000000000000000000000000000000000E9270E00E9270E0000000000E9270E00C5
:2001E000E9270E00E9270E00E9270E00E9270E00E9270E00E9270E00E9270E00E9270E000F
:20020000E9270E00E9270E00E9270E00E9270E00E9270E00E9270E00E9270E00E9270E00EE
:20022000E9270E00E9270E00E9270E00E9270E00E9270E00E9270E0000000000000000000A
:2002400000000000E9270E00E9270E0000000000E9270E000000000000000000E9270E0026
:20026000E9270E00E9270E000000000000000000E9270E00E9270E00000000000000000006
:200280000000000000000000E9270E00E9270E00E9270E00E9270E00E9270E00E9270E00AA
:2002A000E9270E00E9270E00E9270E0000000000E9270E0000000000E9270E00E9270E008A
:2002C000E9270E00E9270E00E9270E00E9270E00E9270E0000000000E9270E00E9270E004C
:2002E000E9270E00E9270E00E9270E00E9270E00F8B500BFF8BC08BC9E467047ED080E0004
:20030000F8B500BFF8BC08BC9E467047C9080E0080B485B000AF0346FB71FB79032B02D836
:200320000123FB7301E00023FB73FB7B18461437BD465DF8047B704780B586B004AF0346A5
:20034000FB71FB791846FFF7E3FF0346002B00F0BE80FB79032B00F2B98001A252F823F018
:2003600071030E00B1030E002F040E00AD040E00002303930023029340230193002300931B
:200380004FF4007300224FF48051442002F0B2FE002303930023029340230193002300934D
:2003A000002300224FF48051452002F0A3FE8EE00023039300230293402301930023009360
:2003C0004FF4007300224FF40051572002F092FE002303930023029340230193002300939A
:2003E000002300224FF44051202002F083FE002303930023029340230193002300934FF4D0
:20040000007300224FF48051782002F073FE002303930023029340230193002300930023F7
:2004200000224FF48051792002F064FE4FE0002303930023029340230193002300934FF409
:20044000007300224FF40051612002F053FE0023039300230293402301930023009300236E
:2004600000224FF40051622002F044FE002303930023029340230193002300934FF400733C
:2004800000224FF40051662002F034FE002303930023029340230193002300930023002299
:2004A0004FF40051652002F025FE10E00023039300230293402301930023009300230022BB
:2004C0004FF48051A52002F015FE00E000BF00BF0837BD4680BD90B585B000AF04460846A0
:2004E00011461A462346FB710346BB710B467B7113463B71FB791846FFF70AFF0346002B74
:200500004DD03B79012B14D0022B22D0002B00D02CE0BA797B791344FB73FA7BFB791146A8
:20052000184602F0D7F9FB790021184602F006FA1CE0BA797B791344FB73FA7BFB7911468E
:20054000184602F0C7F9FB798021184602F0F6F90CE0BA797B791344DBB20133FB73FA7B29
:20056000FB791146184602F0B5F900BF3A8CFB791146184602F048FA97F82820FB79032161
:20058000184602F0D3FA97F82420FB790021184602F0CCFAFB790121184602F07BF900BFA7
:2005A0001437BD4690BD90B585B000AF0446084611461A462346FB710346BB710B467B71A1
:2005C00013463B71FB791846FFF7A2FE0346002B00F09A80BA797B791344DAB23B7913441B
:2005E000FB73FB79184602F025FB034623F03F03BB73BA7BFB7B1343BB73BA7BFB791146AE
:20060000184602F0F3FA97F82030062B7BD801A252F823F031060E0057060E007D060E00F9
:20062000A3060E00C9060E00EF060E00FB060E00FB79184602F03EFA034623F00103BB738A
:20064000BB7B43F00103BB73BA7BFB791146184602F00EFA58E0FB79184602F02BFA03463D
:2006600023F00203BB73BB7B43F00203BB73BA7BFB791146184602F0FBF945E0FB7918465D
:2006800002F018FA034623F00403BB73BB7B43F00403BB73BA7BFB791146184602F0E8F9F6
:2006A00032E0FB79184602F005FA034623F00803BB73BB7B43F00803BB73BA7BFB7911462E
:2006C000184602F0D5F91FE0FB79184602F0F2F9034603F00C03BB73BB7B43F00303BB7338
:2006E000BA7BFB791146184602F0C2F90CE0FB790F21184602F0BCF906E0FB790021184681
:2007000002F0B6F900E000BF00BF1437BD4690BD80B582B000AF03460A46FB711346BB719F
:20072000FB791846FFF7F4FD0346002B05D0BA79FB791146184602F048F900BF0837BD4627
:2007400080BD80B582B000AF0346FB71FB79184602F01CF9034618460837BD4680BD00BFD3
:200760001C4B1D4A934230B438BF002103D203F8011B9342FBD1194800250168C1B942683A
:2007800032B383680C30D3B10139034613F8014B01F8014F1C1A9442F8D312F0030318BFF0
:2007A000012303EB920200EB820001680029E6D0846842680B460C303CB9002ADDD01A4491
:2007C00003F8015B9A42FBD1D7E7002ADCD1E4E730BC7047008011000484110058080E007F
:2007E00080B483B000AF0A4B0A4A1A600A4B5B687B607B68002B05D0064A7B68B2FBF3F324
:20080000034A136000BF0C37BD465DF8047B70472484110000D8B8050001084080B400AF0E
:20082000094A094BD3F8883043F47003C2F88830064B01225A60064B064A1A6000BFBD4667
:200840005DF8047B704700BF00ED00E0000108402484110000D8B805208411000400000031
:200860000100000000000000048411001C000000000000002C8411000300000000000000FE
:20088000008711000400000001000000550000000080110004040000000000002484110014
:2008A000040000000100000000D8B8052884110004000000010000000000000000000000DC
:2008C000000000002222222210B5054C227832B9044B13B10448AFF300800123237010BDF0
:2008E00004841100000000000000000008B5034B1BB103490348AFF3008008BD000000000A
:20090000088411000000000080B500AF00F005F800F08EFE0023184680BD80B500AFFFF755
:200920005FFF02F0F7FD00BF034BDB6803F48073002BF9D000BF80BD000108409DFFFF7FE6
:20094000FDFFFF7FF7FCFF07FFFF2E27FF0FDE007FFF01009DFFFF7FFDFFFF7FF7FCFF07D9
:20096000FFFF2E27FF0FDE007FFF01000000000000000000000000000000000000000000B9
:20098000000000000000000000000000000000000000000000000000000000000000000057
:2009A000000000000000000000000000000000000000000000000000000000000000000037
:2009C000000000000000000000000000000000000000000000000000000000000000000017
:2009E0000000000000000000000000000000000000000000000000000000000000000000F7
:200A00005B01004001004101004201004301004401004501004601004701004801004901C3
:200A2000004A01004B01004C01004D01004E01004F01005001005101005201005301005447
:200A40000100550100560100570100600101610100620100630100640100650100670100D2
:200A60006E01006F0100EC0300ED0300EE0300EF03003803783903563A03343B03123C0390
:200A8000783D03563E03343F03124503784603564703344803124903784A03564B03344C10
:200AA00003124E03015003565103785203125303345403565503785603FF5703125803339A
:200AC0005903445A03555B03785C03565D03345E0312ADDEFFD40301D50302D60303D70340
:200AE00004D80305D90306DA0307DB0308DC0301DD03FEEA0301F20340ADDEFF00000000FB
:200B00000000000000000000000000000000000000000000000000000000000000000000D5
:200B20000000000000000000000000000000000000000000000000000000000000000000B5
:200B4000000000000000000000000000000000000000000000000000000000000000000095
:200B6000000000000000000000000000000000000000000000000000000000000000000075
:201580000000000000000000000000000000000000000000000000000000000000ADDEFFC1
:2015A00080B584B000AF03463960FB800323FB730EE0FA884FF20903396810469847034646
:2015C000002B03D1FB7B013BFB7301E0012303E0FB7B002BEDD1002318461037BD4680BD9D
:2015E00080B584B000AF03460A46FB8013467B710323FB730023BB7312E07979FA884FF2EE
:201600000D03104698470346BB73BB7B002B02D0BB7BFF2B01D1012306E0FB7B013BFB737F
:20162000FB7B002BE9D1002318461037BD4680BD80B5ADF5816D00AF2B4B00221A702B4B3B
:2016400000221A702A4B55221A6000F0D0FC002200216E2001F08AFE012200216F2001F0AE
:2016600085FE00F091F8002200216F2001F07EFE0023A7F806340023A7F806342EE0B7F87A
:2016800006343A1D1A44B7F8063411461846FFF787FF0346012B13D1B7F806343A1DD35C79
:2016A000002B16D0B7F80614B7F806343A1DD35C1A46104802F0FFF80F4802F0FCF808E01B
:2016C000B7F8063419460D4802F0F5F80A4802F0F2F8B7F806340133A7F80634B7F8063481
:2016E000B3F5806FCBD3FEE72D8411002E8411000087110048260E0070260E0074260E00EB
:2017000080B584B000AF0346FB800B467B7113463B710023FB600A4BBB60FB68002B0CBF64
:2017200001230023DBB2FB60FA6800216E2001F01DFE00BFBB685A1EBA60002BFAD1EAE722
:20174000FFFF0F0080B584B000AF03460A46FB8013467B710023FB600A4BBB60FB68002B8F
:201760000CBF01230023DBB2FB60FA6800216F2001F0FCFD00BFBB685A1EBA60002BFAD109
:20178000EAE700BFFFFF0F0080B582B000AF4FF6FF73FB8000237B7100233B7100233B60C8
:2017A00000237B7124E04FF6FF73FB80592000F057FD38603B6803F08073002B09D0224898
:2017C00002F079F8214802F076F83B7901333B7105E01F4802F06FF81C4802F06CF800BF2B
:2017E000FB885A1EFA80002BFAD17B7901337B717B79022BD7D93B79022B12D8154802F07F
:201800005AF8124802F057F800F0DCFA00F08AFB00F064FA104802F04EF80C4802F04BF839
:201820000DE00E4802F047F8084802F044F800F010FC0A4802F03FF8044802F03CF800BF0E
:201840000837BD4680BD00BF98260E0070260E00BC260E00E0260E0020270E0060270E00EC
:2018600080B483B000AF03460A46FB8013467B71FB882F2B05D87B79002B02D0A64B01223A
:201880001A70FB887F2B08D9FB88AF2B05D87B79002B02D0A04B01221A70FB88B3F5A07FA3
:2018A00005D17B79002B02D09B4B01221A70FB8840F24112934205D17B79002B02D0964B49
:2018C00001221A70FB88B3F5A17F05D17B79002B02D0914B01221A70FB8840F243129342E1
:2018E00005D17B79002B02D08B4B01221A70FB88B3F5A27F05D17B79002B02D0864B012297
:201900001A70FB8840F24512934205D17B79002B02D0814B01221A70FB88B3F5A37F05D1F9
:201920007B79002B02D07C4B01221A70FB8840F24712934205D17B79002B02D0764B0122B4
:201940001A70FB88B3F5A47F05D17B79002B02D0714B01221A70FB8840F24912934205D1C4
:201960007B79002B02D06C4B01221A70FB88B3F5A57F05D17B79002B02D0674B01221A709D
:20198000FB8840F24B12934205D17B79002B02D0614B01221A70FB88B3F5A67F05D17B7926
:2019A000002B02D05C4B01221A70FB8840F24D12934205D17B79002B02D0574B01221A70D7
:2019C000FB88B3F5A77F05D17B79002B02D0524B01221A70FB8840F24F12934205D17B79F0
:2019E000002B02D04C4B01221A70FB88B3F5A87F05D17B79002B02D0474B01221A70FB88CB
:201A000040F25112934205D17B79002B02D0424B01221A70FB88B3F5A97F05D17B79002B13
:201A200002D03D4B01221A70FB88B3F5AA7F05D17B79002B02D0384B01221A70FB8840F29F
:201A40005512934205D17B79002B02D0324B01221A70FB88B3F5AB7F05D17B79002B02D03D
:201A60002D4B01221A70FB8840F25712934205D17B79002B02D0284B01221A70FB8840F2B2
:201A80005B12934205D17B79002B02D0224B01221A70FB88B3F5B07F09D3FB88B3F5B17F92
:201AA00005D27B79002B02D01B4B01221A70FB88B3F5B17F05D17B79002B02D0164B0122A5
:201AC0001A70FB8840F26312934205D17B79002B02D0114B01221A70FB88B3F5B27F05D17B
:201AE0007B79002B02D00C4B01221A70FB8840F26512934205D17B79002B02D0064B0122B5
:201B00001A70FB88B3F5B37F08D17B79002B05D0014B01221A7001E02C841100FB8840F2C1
:201B20006712934205D17B79002B02D06A4B01221A70FB88B3F5B77F05D17B79002B02D006
:201B4000654B01221A70FB8840F26F12934205D17B79002B02D0604B01221A70FB88B3F5D3
:201B6000B87F09D3FB88B3F5D07F05D27B79002B02D0594B01221A70FB88B3F5107F09D329
:201B8000FB88B3F5587F05D27B79002B02D0524B01221A70FB88B3F5587F09D3FB88B3F528
:201BA000647F05D27B79002B02D04B4B01221A70FB88B3F5707F09D3FB88B3F5717F05D24F
:201BC0007B79002B02D0444B01221A70FB88B3F5717F09D3FB88B3F5727F05D27B79002BCF
:201BE00002D03D4B01221A70FB88B3F5727F05D17B79002B02D0384B01221A70FB8840F216
:201C0000C932934205D17B79002B02D0324B01221A70FB8840F2C93293420AD9FB8840F2E6
:201C2000CE32934205D87B79002B02D02A4B01221A70FB88B3F5787F09D3FB88B3F5797FBE
:201C400005D27B79002B02D0234B01221A70FB88B3F5797F09D3FB88B3F57A7F05D27B79B3
:201C6000002B02D01C4B01221A70FB88B3F57A7F0AD3FB8840F2EA32934205D87B79002BB0
:201C800002D0154B01221A70FB88B3F57B7F09D3FB88B3F57C7F05D27B79002B02D00E4B1D
:201CA00001221A70FB8840F2F23293420CD17B79002B09D07B7903F014037B717B79002BEB
:201CC00002D0054B01221A70034B1B7818460C37BD465DF8047B70472C84110080B584B0FB
:201CE00000AF0023FB714FF47873BB810023FB8154E00022304B1A70FA89304913465B0092
:201D000013440B441A785B781B0213437B81FA892A4913465B0013440B4402331B787B7244
:201D20007B894DF6AD6293423DD07A7A7B8911461846FFF795FD03461A461F4B1A70FA1D82
:201D40007B8911461846FFF72BFC0346002B05D1F9797B8901221846FFF7D2FCFA797B7A40
:201D600013403B727B89B3F5107F03D37B89B3F5587F03D3104B1B78002B0CD03A7A7B7A5B
:201D80009A4208D00E4B33221A607A7A7B8911461846FFF7D7FCFB890133FB81FA89BB89F6
:201DA0009A42A6D300E000BF054BAA221A6000BF1037BD4680BD00BF2C841100000A0E00BB
:201DC0000087110080B582B000AF00233B704FF47873BB800023FB8077E0FA884E491346B7
:201DE0005B0013440B441A785B781B0213437B80FA88494913465B0013440B4402331B78D9
:201E00007B707B884DF6AD62934263D03A467B8811461846FFF7C4FB0346002B05D1397892
:201E20007B8801221846FFF76BFC7B882F2B13D83B78002B06D0394B1B7843F00103DAB2EB
:201E4000364B1A707B78002B06D0354B1B7843F00103DAB2324B1A707B88B3F5B87F17D3DA
:201E60007B88B3F5D07F13D23B78002B06D02B4B1B7843F00203DAB2284B1A707B78002BE7
:201E800006D0274B1B7843F00203DAB2244B1A707B887F2B16D97B88DF2B13D83B78002B38
:201EA00006D01E4B1B7843F00403DAB21B4B1A707B78002B06D01A4B1B7843F00403DAB2E8
:201EC000174B1A70FB880133FB80FA88BB889A4283D300E000BF3B46194640F2F330FFF723
:201EE0005FFB0346002B07D13B780122194640F2F330FFF705FC0BE03B7803F00803002BF4
:201F000006D0064B1B7843F01003DAB2034B1A7000BF0837BD4680BD000A0E002D84110045
:201F20002E84110080B582B000AF4FF47873BB800023FB8032E000221D4B1A70FA881D49B3
:201F400013465B0013440B441A785B781B0213437B80FA88174913465B0013440B440233E3
:201F60001B787B707B884DF6AD6293421BD07A787B8811461846FFF773FC03461A460C4BBF
:201F80001A700B4B1B78002B05D07A787B881146184600F011F8FB880133FB80FA88BB8834
:201FA0009A42C8D300E000BF00BF0837BD4680BD2C841100000A0E0080B582B000AF034695
:201FC0000A46FB8013467B717A79FB8811461846FFF706FB0346002B05D17979FB880022EE
:201FE0001846FFF78DFB00BF0837BD4680BD80B584B004AF00230393002302930023019383
:20200000002300934FF40073002200216E2001F071F80023039300230293002301930023DE
:2020200000934FF40073002200216F2001F062F8002303930023029300230193002300935C
:20204000002300220021592001F054F800BFBD4680BD80B584B000AF00237B7300237B712D
:202060004FF478737B810023FB8143E00022284B1A70FA89274913465B0013440B441A7876
:202080005B781B0213433B81FA89224913465B0013440B4402331B78FB713B894DF6AD62AC
:2020A00093422CD07A1D3B8911461846FFF778FA03467B737B7B012B11D17A79FB791340E2
:2020C000BB71BA79FB799A4211D0134B33221A60FA793B8911461846FFF734FB07E03B8987
:2020E00019460E4801F0E7FB0D4801F0E4FBFB890133FB81FA897B899A42B7D300E000BF73
:20210000054BAA221A6000BF1037BD4680BD00BF2C841100000A0E00008711007C270E0002
:2021200070260E0080B483B000AF0346FB71FB795B09DBB218460C37BD465DF8047B70479C
:2021400080B483B000AF0346FB71FB7903F01F03DBB218460C37BD465DF8047B704780B43B
:2021600085B000AF0346FB710023FB60FB79B02B19D8FB799BB203F01F037B81FB795B095E
:20218000DBB21A460B4B53F822207B8922FA03F303F00103002B06D0FB799B0003F180439B
:2021A00003F50123FB60FB6818461437BD465DF8047B70473C090E0080B485B000AF03465A
:2021C000FB710023FB60FB79B02B17D8FB799BB203F01F037B81FB795B09DBB21A460B4BEA
:2021E00053F822207B8922FA03F303F00103002B04D0FB799A00064B1344FB60FB68184674
:202200001437BD465DF8047B704700BF54090E000015084080B485B000AF0346FB7100236E
:20222000FB81FB79B02B12D8FB795B09DBB2FB81FB890A4A52F82330FA7902F01F020121EB
:2022400001FA02F21340002B01D0012300E0002318461437BD465DF8047B70473C090E008F
:2022600080B584B000AF0346FB71FB791846FFF776FFF860FB681B6818461037BD4680BD31
:2022800080B584B000AF03463960FB71FB791846FFF765FFF860FB683A681A6000BF1037CF
:2022A000BD4680BD80B584B000AF0346FB71FB791846FFF781FFF860FB681B68DBB21846A0
:2022C0001037BD4680BD80B584B000AF03460A46FB711346BB71FB791846FFF76DFFF86049
:2022E000FB68002B02D0FB68BA791A7000BF1037BD4680BD80B584B000AF0346FB71FB79D7
:202300001846FFF72CFFF860FB6803331B78DBB203F00103DBB218461037BD4680BD80B58F
:2023200084B000AF03460A46FB711346BB71FB791846FFF714FFF860FB6802331A46BB79D1
:2023400003F00103DBB2137000BF1037BD4680BD80B586B000AF0346FB7100237B61FB79EE
:202360001846FFF7DFFE03463B61FB791846FFF7E7FE0346FB600F4A3B6952F82320FB6809
:2023800022FA03F303F00103002B0ED03B699A00094B13447B617B691A68FB6822FA03F38B
:2023A000DBB203F00103DBB200E0FF2318461837BD4680BD3C090E000013084080B586B004
:2023C00000AF03463960FB7100237B61FB79B02B2BD8FB791846FFF7A5FE03463B61FB79EB
:2023E0001846FFF7ADFE0346FB60124A3B6952F82320FB6822FA03F303F00103002B14D032
:202400003B699A000C4B13447B617B691B680121FA6801FA02F2D2431340BB607B69396812
:20242000FA689140BA680A431A6000BF1837BD4680BD00BF3C090E008010084080B584B0DF
:2024400000AF03460A46FB711346BB80FB791846FFF785FEF860FB681B889BB223F4405394
:202460007B81FB68BA8802F4405291B27A890A4392B21A8000BF1037BD4680BD80B584B013
:2024800000AF03460A46FB711346BB80FB791846FFF765FEB860BB681B889BB223F4006324
:2024A000FB81BB88002B03D0FA89BB881343FB81BB68FA891A8000BF1037BD4680BD80B50C
:2024C00084B000AF03460A46FB711346BB80FB791846FFF744FEB860BB681B889BB223F434
:2024E0008063FB81BB88002B03D0FA89BB881343FB81BB68FA891A8000BF1037BD4680BD1E
:2025000080B584B000AF03460A46FB711346BB80FB791846FFF723FEB860BB681B889BB2F6
:2025200023F40073FB81BB88002B03D0FA89BB881343FB81BB68FA891A8000BF1037BD4673
:2025400080BD80B584B000AF03460A46FB711346BB80FB791846FFF702FEF860FB681B8867
:202560009BB223F480737B81FB68BA8802F4807291B27A890A4392B21A8000BF1037BD4601
:2025800080BD80B584B000AF03460A46FB711346BB71FB791846FFF7E2FDF860FB681B8857
:2025A0009BB223F0F0037B81FB68BA7992B202F0F00291B27A890A4392B21A8000BF103797
:2025C000BD4680BD80B584B000AF03460A46FB711346BB71FB791846FFF7C1FDF860FB68D8
:2025E0001B889BB223F00C037B81FB68BA7992B202F00C0291B27A890A4392B21A8000BFC3
:202600001037BD4680BD80B584B000AF03460A46FB711346BB71FB791846FFF7A0FDF860D4
:20262000FB681B889BB223F003037B81FB68BA7992B202F0030291B27A890A4392B21A80F0
:2026400000BF1037BD4680BD4566757365206279746520696478203D202564207265616441
:2026600020737563636573732C202578000000BF0D0A00004566757365206279746520692D
:202680006478203D2025642072656164206661696C757265000000BF204750494F205049CD
:2026A0004E203133312050756C6C656420686967682064657465637465640000204750496F
:2026C0004F2050494E203133312050756C6C6564206C6F772064657465637465640000BFD6
:2026E0002045667573652070726F6772616D20616E6420726576657269667920746865204A
:2027000070726F6772616D6D65642064617461206D6F6465202D20656E746572200000BFA2
:202720002045667573652070726F6772616D20616E64207265766572696679207468652009
:2027400070726F6772616D6D65642064617461206D6F6465202D2066696E69736865640015
:2027600020456675736520766572696679206D6F6465202D20656E746572000045667573A9
:2027800065206279746520696478203D2025642069732072656164206C6F636B656400004B
:2027A00070B50D4E0D4CA41BA4100025A54209D10B4E0C4CFDF79CFDA41BA4100025A5422A
:2027C00005D170BD56F8253098470135EEE756F8253098470135F2E7FC020E00FC020E00C0
:2027E000FC020E0000030E00FEE700000000000000000000000000000000000000000000D7
:20280000DFF850D082B000AF0B4B03B198470B4B03B19847FDF7A4FF094A0A4B23F07F033A
:202820009360094B9847094B03B19847084B03B19847FEF769F8FEE700000000000000006A
:2028400000ED00E000000E00A1270E000000000000000000F0FF110080B485B000AF034666
:20286000FB71FB79002B02D0012B03D005E0084BFB6005E00023FB6002E00023FB6000BF67
:20288000FB6818461437BD465DF8047B704700BF00C4004080B584B000AF03460A46FB71BE
:2028A0001346BB71FB791846FFF7D6FFF860FB68002B0BD0BB79002B04D0FB68012283F801
:2028C000302303E0FB68002283F8302300BF1037BD4680BD80B584B000AF03460A46FB710C
:2028E0001346BB71FB791846FFF7B6FFF860FB68002B06D0BB7903F00703DAB2FB6883F87F
:20290000F02300BF1037BD4680BD80B584B000AF0346FB71FB791846FFF79EFFB860BB68F1
:20292000002B04D0BB6893F8F033FB7301E0FF23FB73FB7B18461037BD4680BD80B584B024
:2029400000AF03460A46FB711346BB71FB791846FFF782FFF860FB68002B13D0FB68DB7876
:20296000DBB263F07F03DAB2FB68DA70FB685B78DBB203F07F03FB72FA7ABB791343DAB28D
:20298000FB685A7000BF1037BD4680BD80B584B000AF0346FB71FB791846FFF75DFFB860BB
:2029A000FF23FB73BB68002B0AD0BB68DB78DBB203F07F03DAB2BB68DA70BB681B78FB73CA
:2029C000FB7B18461037BD4680BD80B584B000AF03460A46FB711346BB71FB791846FFF732
:2029E0003BFFF860FB68002B0AD0FB68DB78DBB203F07F03DAB2FB68DA70FB68BA791A70CC
:202A000000BF1037BD4680BD80B584B000AF03460A46FB711346BB80FB791846FFF71CFFDC
:202A2000F860FB68002B1FD0BB88FB72BB881B0ABB80FB68DB78DBB263F07F03DAB2FB6867
:202A4000DA70FB68FA7A1A70FB685B78DBB223F07F03BB72BB88DBB203F07F03DAB2BB7A40
:202A60001343DAB2FB685A7000BF1037BD4680BD80B584B000AF03460A46FB711346BB715F
:202A8000FB791846FFF7E8FEF860FB68002B0DD0FB68DB78DBB203F07F03DAB2FB68DA70D4
:202AA000BB7903F00F03DAB2FB685A7000BF1037BD4680BD80B584B000AF0346FB71FB799D
:202AC0001846FFF7C9FEB860FF23FB73BB68002B0BD0BB68DB78DBB203F07F03DAB2BB68E3
:202AE000DA70BB685B78FB7301E0FF23FB73FB7B18461037BD4680BD80B584B000AF0346FB
:202B0000FB71FB791846FFF7A7FEB860FF23FB73BB68002B03D0BB689B78FB7301E0FF236C
:202B2000FB73FB7B18461037BD4680BD80B584B000AF0346FB710B46BB7113467B71FB79C9
:202B40001846FFF789FEF860FB68002B4AD0BB79042B46D801A252F823F000BF712B0E00B0
:202B60009B2B0E00AD2B0E00BF2B0E00D52B0E007B79002B08D0FB689B78DBB243F0010364
:202B8000DAB2FB689A702DE0FB689B78DBB223F00103DAB2FB689A7024E0FB689B78DBB215
:202BA00043F00203DAB2FB689A701BE0FB689B78DBB243F00403DAB2FB689A7012E0FB685E
:202BC0009B78DAB27B799B01DBB21343DAB2FB689A7007E07B7923F03803DAB2FB689A70C8
:202BE00000E000BF00BF1037BD4680BD80B584B000AF03460A46FB711346BB71FB7918467C
:202C0000FFF72AFEF860FB68002B0FD0FB68DB78DBB223F03F03FB72BB7903F03F03DAB2D7
:202C2000FB7A1343FB72FB68FA7ADA7000BF1037BD4680BD80B584B000AF0346FB71FB79B4
:202C40001846FFF709FEB860FF23FB73BB68002B02D0BB68DB78FB73FB7B18461037BD464F
:202C600080BD80B584B000AF03460A46FB711346BB71FB791846FFF7EFFDF860FB68002BDB
:202C800013D0BB79002B08D0FB68DB78DBB243F04003DAB2FB68DA7007E0FB68DB78DBB2FE
:202CA00023F04003DAB2FB68DA7000BF1037BD4680BD80B584B000AF03460A46FB711346C9
:202CC000BB71FB791846FFF7C7FDB860FF23FB73BB68002B00F08680BB79082B7FD801A2EF
:202CE00052F823F0092D0E00232D0E003D2D0E00572D0E00712D0E008B2D0E00A52D0E0079
:202D0000BF2D0E00D72D0E00BB685B79DBB203F00103002B02D00123FB7363E00023FB73C9
:202D200060E0BB685B79DBB203F00203002B02D00123FB7356E00023FB7353E0BB685B7957
:202D4000DBB203F00403002B02D00123FB7349E00023FB7346E0BB685B79DBB203F00803FB
:202D6000002B02D00123FB733CE00023FB7339E0BB685B79DBB203F01003002B02D0012353
:202D8000FB732FE00023FB732CE0BB685B79DBB203F02003002B02D00123FB7322E00023CB
:202DA000FB731FE0BB685B79DBB203F04003002B02D00123FB7315E00023FB7312E0BB68C2
:202DC0005B79DBB25BB2002B02DA0123FB7309E00023FB7306E0BB685B79FB7302E0FF2323
:202DE000FB7300BFFB7B18461037BD4680BD80B584B000AF0346FB710B46BB7113467B71BC
:202E0000FB791846FFF728FDF860FB68002B00F08480BB79052B7FD801A252F823F000BF71
:202E2000392E0E00632E0E008D2E0E00B72E0E00E12E0E000B2F0E007B79002B08D0FB6803
:202E40001B79DBB243F00103DAB2FB681A7164E0FB681B79DBB223F00103DAB2FB681A7147
:202E60005BE07B79002B08D0FB681B79DBB243F00203DAB2FB681A714FE0FB681B79DBB237
:202E800023F00203DAB2FB681A7146E07B79002B08D0FB681B79DBB243F00403DAB2FB68D6
:202EA0001A713AE0FB681B79DBB223F00403DAB2FB681A7131E07B79002B08D0FB681B7956
:202EC000DBB243F00803DAB2FB681A7125E0FB681B79DBB223F00803DAB2FB681A711CE090
:202EE0007B79002B08D0FB681B79DBB243F01003DAB2FB681A7110E0FB681B79DBB223F010
:202F00001003DAB2FB681A7107E07B7903F01F03DAB2FB681A7100E000BF00BF1037BD4612
:202F200080BD80B584B000AF0346FB71FB791846FFF792FCB860FF23FB73BB68002B03D068
:202F4000BB681B79FB7301E0FF23FB73FB7B18461037BD4680BD80B584B000AF03460A46CF
:202F6000FB711346BB71FB791846FFF775FCB8600023FB73BB68002B00F08680BB79082BD3
:202F80007FD801A252F823F0AD2F0E00C72F0E00E12F0E00FB2F0E0015300E002F300E00D6
:202FA00049300E0063300E007B300E00BB689B79DBB203F00103002B02D00123FB7363E0A3
:202FC0000023FB7360E0BB689B79DBB203F00203002B02D00123FB7356E00023FB7353E0DB
:202FE000BB689B79DBB203F00403002B02D00123FB7349E00023FB7346E0BB689B79DBB2E0
:2030000003F00803002B02D00123FB733CE00023FB7339E0BB689B79DBB203F01003002B68
:2030200002D00123FB732FE00023FB732CE0BB689B79DBB203F02003002B02D00123FB7317
:2030400022E00023FB731FE0BB689B79DBB203F04003002B02D00123FB7315E00023FB73CF
:2030600012E0BB689B79DBB25BB2002B02DA0123FB7309E00023FB7306E0BB689B79FB73EF
:2030800002E00023FB7300BFFB7B18461037BD4680BD80B584B000AF03460A46FB7113462D
:2030A000BB71FB791846FFF7D7FBF860FB68002B02D0FB68BA79DA7100BF1037BD4680BD6B
:2030C00080B584B000AF0346FB71FB791846FFF7C3FBB860FF23FB73BB68002B03D0BB68B1
:2030E000DB79FB7301E0FF23FB73FB7B18461037BD4680BD90B585B000AF0446084611462A
:203100001A462346FB710346BB800B467B8013463B80FB791846FFF77DF80346002B17D0FE
:20312000BA887B881A443B881A443B8C1A4497F824301A4497F828301A4497F82C301344DE
:20314000FB60FB79F9681846FFF79AF8012300E0002318461437BD4690BD80B582B000AF23
:2031600003463A60FB710B46BB71FB791846FFF751F80346002B60D0BB79082B5AD801A292
:2031800052F823F0A9310E00B9310E00C9310E00D9310E00E9310E00F9310E0009320E0029
:2031A00019320E0029320E003B68DAB2FB7911461846FFF728FA3EE03B68DAB2FB791146C5
:2031C0001846FFF7FFF936E03B68DAB2FB7911461846FFF7D6F92EE03B689AB2FB791146A8
:2031E0001846FFF7AEF926E03B689AB2FB7911461846FFF785F91EE03B689AB2FB7911468A
:203200001846FFF75CF916E03B689AB2FB7911461846FFF733F90EE03B689AB2FB7911462D
:203220001846FFF70BF906E0FB7939681846FFF727F800E000BF012300E000231846083765
:20324000BD4680BD80B584B000AF03460A46FB711346BB71FB791846FEF7DCFF0346002B76
:203260007FD0BB79072B7AD801A252F823F000BF91320E00A9320E00C3320E00DD320E00AE
:20328000F7320E0011330E002B330E0045330E00FB791846FEF7E4FFF860FB6803F0030355
:2032A000FB60FB68DBB25DE0FB791846FEF7D8FFF860FB6803F00C03FB60FB689B08DBB23D
:2032C00050E0FB791846FEF7CBFFF860FB6803F0F003FB60FB681B09DBB243E0FB79184628
:2032E000FEF7BEFFF860FB6803F48073FB60FB681B0ADBB236E0FB791846FEF7B1FFF86022
:20330000FB6803F40073FB60FB685B0ADBB229E0FB791846FEF7A4FFF860FB6803F4806328
:20332000FB60FB689B0ADBB21CE0FB791846FEF797FFF860FB6803F40063FB60FB68DB0A8C
:20334000DBB20FE0FB791846FEF78AFFF860FB6803F44053FB60FB681B0BDBB202E0FF23E7
:2033600000E0FF2318461037BD4680BD80B582B000AF03463A60FB710B46BB80FB791846A3
:20338000FEF748FF0346002B17D0BA88FB7911461846FFF794F8BB88002B05D0FB79396851
:2033A0001846FFF70BF806E03B68DAB2FB7911461846FEF7B4FF012300E00023184608370C
:2033C000BD4680BD80B582B000AF0346FB71FB791846FEF71FFF0346002B05D0FB791846E2
:2033E000FEF7B6FF034600E0FF2318460837BD4680BD80B582B000AF0346FB71FB7918465E
:20340000FEF708FF0346002B08D0FB791846FEF749FF034603F00103DBB200E0FF23184628
:203420000837BD4680BD80B584B000AF03460A46FB711346BB71FB791846FEF7EBFE034672
:20344000002B18D0FB791846FEF72CFF0346FB73FB7B23F00103FB73BB7903F00103DAB2FE
:20346000FB7B1343FB73FA7BFB7911461846FEF72AFF012300E0002318461037BD4680BD4A
:2034800080B582B000AF0346FB71FB791846FEF7C1FE0346002B0AD0FB791846FEF702FFC5
:2034A00003461B09DBB203F00303DBB200E0FF2318460837BD4680BD80B584B000AF03464C
:2034C0000A46FB711346BB71FB791846FEF7A2FE0346002B18D0FB791846FEF7E3FE0346F7
:2034E000FB73FB7B23F00403FB73BB7903F00403DAB2FB7B1343FB73FA7BFB7911461846CE
:20350000FEF7E1FE012300E0002318461037BD4680BD00BF80B584B004AF0020FCF70CFFD2
:203520000023029300230193062300930023002200210020FCF7CFFF062300930023002218
:2035400003210020FDF72FF800BFBD4680BD80B584B000AF0346FB71FB79FB7300BF052179
:203560000020FFF7A6FB0346002BF8D0FB7B19460020FDF7CDF8FB7918461037BD4680BD51
:2035800080B500AF00BF00210020FFF792FB0346002BF8D00020FDF7D4F80346184680BDC4
:2035A00080B584B000AF786039607B68FB60FB681B78FB723B68002B0FD009E0FB7A184678
:2035C000FFF7C5FFFB680133FB60FB681B78FB723B685A1E3A60002BF0D100BF1037BD4632
:2035E00080BD80B485B000AF78600023FB6002E0FB680133FB607A68FB6813441B78002BF2
:20360000F6D1FB6818461437BD465DF8047B704780B48BB000AFF860B9607A603B603B6B9F
:203620007B6200233B62BB68102B01DD002377E0FB68002B07DA3B68002B04D101233B6264
:20364000FB685B42FB60FB68BA6893FBF2F2B96801FB02F29B1ABB617B6A5A1C7A62BA69DC
:20366000092A04DCBA69D2B23032D2B20BE07A68002A01D0412100E06121BA69D2B20A4429
:20368000D2B20A3AD2B21A70FA68BB6892FBF3F3FB60FB68002BD6DC7A6A3B6BD31AFB61EE
:2036A00007E07B6A5A1C7A6230221A70FB690133FB61FA697B6B9A42F3D33B6A002B04D08D
:2036C0007B6A5A1C7A622D221A707B6A00221A707A6A3B6BD31A7B610023FB611AE03A6BD8
:2036E000FB6913441B78FB743A6BFB6913447969FA698A1A013A396B0A4412781A707A69A0
:20370000FB69D31A013B3A6B1344FA7C1A70FB690133FB617B695A08FB699A42DFD87B690B
:2037200018462C37BD465DF8047B704780B58EB002AF786039600023BB62A8E097F82F30EF
:20374000252B05D097F82F301846FFF700FF9EE0002387F82E307B685A1C7A601B7887F840
:203760002F3097F82F30302B1DD17B685A1C7A601B7887F82F3097F82F30002B00F09380F3
:2037800097F82F302F2B08D997F82F30392B04D897F82F30303B87F82E307B685A1C7A6069
:2037A0001B7887F82F3097F82F30642B0FD0642B06DC582B2DD0632B4CD0002B75D060E0F1
:2037C000752B04D0782B24D0732B4CD059E097F82E30BB623B681A1D3A601B68184697F8FD
:2037E0002F30752B0CBF01230023DBB21A46BB6A019307F108030093134600220A21FFF7E0
:2038000007FF786207F10803796A1846FFF7C8FE3DE097F82E30BB623B681A1D3A601B68AA
:20382000184697F82F30582B0CBF01230023DBB21A46BB6A019307F1080300930123102116
:20384000FFF7E6FE786207F10803796A1846FFF7A7FE1CE03B681A1D3A601B68DBB21846F7
:20386000FFF775FE13E03B681A1D3A601B683B62386AFFF7B6FE03461946386AFFF790FE3E
:2038800005E097F82F301846FFF761FE00BF7B685A1C7A601B7887F82F3097F82F30002B26
:2038A0007FF44CAF02E000BF00E000BF002318463037BD4680BD0FB480B582B000AF07F161
:1A38C00014037B6079683869FFF730FF00BF0837BD46BDE8804004B0704784
:04000005000E2801C0
:00000001FF
